{
  "address": "0xcc291844029e50834b35E292BeCE7708075739AC",
  "abi": [
    {
      "inputs": [],
      "stateMutability": "nonpayable",
      "type": "constructor"
    },
    {
      "inputs": [
        {
          "internalType": "uint256",
          "name": "index",
          "type": "uint256"
        }
      ],
      "name": "ActionFailed",
      "type": "error"
    },
    {
      "inputs": [],
      "name": "AnyAddressDisallowedForWhoAndWhere",
      "type": "error"
    },
    {
      "inputs": [],
      "name": "ConditionNotPresentForAnyAddress",
      "type": "error"
    },
    {
      "inputs": [
        {
          "internalType": "uint256",
          "name": "expected",
          "type": "uint256"
        },
        {
          "internalType": "uint256",
          "name": "actual",
          "type": "uint256"
        }
      ],
      "name": "NativeTokenDepositAmountMismatch",
      "type": "error"
    },
    {
      "inputs": [
        {
          "internalType": "address",
          "name": "where",
          "type": "address"
        },
        {
          "internalType": "address",
          "name": "who",
          "type": "address"
        },
        {
          "internalType": "bytes32",
          "name": "permissionId",
          "type": "bytes32"
        },
        {
          "internalType": "address",
          "name": "currentCondition",
          "type": "address"
        },
        {
          "internalType": "address",
          "name": "newCondition",
          "type": "address"
        }
      ],
      "name": "PermissionAlreadyGrantedForDifferentCondition",
      "type": "error"
    },
    {
      "inputs": [],
      "name": "PermissionsForAnyAddressDisallowed",
      "type": "error"
    },
    {
      "inputs": [],
      "name": "TooManyActions",
      "type": "error"
    },
    {
      "inputs": [
        {
          "internalType": "address",
          "name": "where",
          "type": "address"
        },
        {
          "internalType": "address",
          "name": "who",
          "type": "address"
        },
        {
          "internalType": "bytes32",
          "name": "permissionId",
          "type": "bytes32"
        }
      ],
      "name": "Unauthorized",
      "type": "error"
    },
    {
      "inputs": [
        {
          "internalType": "bytes4",
          "name": "callbackSelector",
          "type": "bytes4"
        },
        {
          "internalType": "bytes4",
          "name": "magicNumber",
          "type": "bytes4"
        }
      ],
      "name": "UnknownCallback",
      "type": "error"
    },
    {
      "inputs": [],
      "name": "ZeroAmount",
      "type": "error"
    },
    {
      "anonymous": false,
      "inputs": [
        {
          "indexed": false,
          "internalType": "address",
          "name": "previousAdmin",
          "type": "address"
        },
        {
          "indexed": false,
          "internalType": "address",
          "name": "newAdmin",
          "type": "address"
        }
      ],
      "name": "AdminChanged",
      "type": "event"
    },
    {
      "anonymous": false,
      "inputs": [
        {
          "indexed": true,
          "internalType": "address",
          "name": "beacon",
          "type": "address"
        }
      ],
      "name": "BeaconUpgraded",
      "type": "event"
    },
    {
      "anonymous": false,
      "inputs": [
        {
          "indexed": false,
          "internalType": "address",
          "name": "sender",
          "type": "address"
        },
        {
          "indexed": true,
          "internalType": "bytes4",
          "name": "sig",
          "type": "bytes4"
        },
        {
          "indexed": false,
          "internalType": "bytes",
          "name": "data",
          "type": "bytes"
        }
      ],
      "name": "CallbackReceived",
      "type": "event"
    },
    {
      "anonymous": false,
      "inputs": [
        {
          "indexed": false,
          "internalType": "address",
          "name": "daoAddress",
          "type": "address"
        },
        {
          "indexed": false,
          "internalType": "string",
          "name": "daoURI",
          "type": "string"
        }
      ],
      "name": "DAOURIUpdate",
      "type": "event"
    },
    {
      "anonymous": false,
      "inputs": [
        {
          "indexed": true,
          "internalType": "address",
          "name": "sender",
          "type": "address"
        },
        {
          "indexed": true,
          "internalType": "address",
          "name": "token",
          "type": "address"
        },
        {
          "indexed": false,
          "internalType": "uint256",
          "name": "amount",
          "type": "uint256"
        },
        {
          "indexed": false,
          "internalType": "string",
          "name": "_reference",
          "type": "string"
        }
      ],
      "name": "Deposited",
      "type": "event"
    },
    {
      "anonymous": false,
      "inputs": [
        {
          "indexed": true,
          "internalType": "address",
          "name": "actor",
          "type": "address"
        },
        {
          "indexed": false,
          "internalType": "bytes32",
          "name": "callId",
          "type": "bytes32"
        },
        {
          "components": [
            {
              "internalType": "address",
              "name": "to",
              "type": "address"
            },
            {
              "internalType": "uint256",
              "name": "value",
              "type": "uint256"
            },
            {
              "internalType": "bytes",
              "name": "data",
              "type": "bytes"
            }
          ],
          "indexed": false,
          "internalType": "struct IDAO.Action[]",
          "name": "actions",
          "type": "tuple[]"
        },
        {
          "indexed": false,
          "internalType": "uint256",
          "name": "failureMap",
          "type": "uint256"
        },
        {
          "indexed": false,
          "internalType": "bytes[]",
          "name": "execResults",
          "type": "bytes[]"
        }
      ],
      "name": "Executed",
      "type": "event"
    },
    {
      "anonymous": false,
      "inputs": [
        {
          "indexed": true,
          "internalType": "bytes32",
          "name": "permissionId",
          "type": "bytes32"
        },
        {
          "indexed": true,
          "internalType": "address",
          "name": "here",
          "type": "address"
        },
        {
          "indexed": false,
          "internalType": "address",
          "name": "where",
          "type": "address"
        },
        {
          "indexed": true,
          "internalType": "address",
          "name": "who",
          "type": "address"
        },
        {
          "indexed": false,
          "internalType": "contract IPermissionCondition",
          "name": "condition",
          "type": "address"
        }
      ],
      "name": "Granted",
      "type": "event"
    },
    {
      "anonymous": false,
      "inputs": [
        {
          "indexed": false,
          "internalType": "uint8",
          "name": "version",
          "type": "uint8"
        }
      ],
      "name": "Initialized",
      "type": "event"
    },
    {
      "anonymous": false,
      "inputs": [
        {
          "indexed": false,
          "internalType": "bytes",
          "name": "metadata",
          "type": "bytes"
        }
      ],
      "name": "MetadataSet",
      "type": "event"
    },
    {
      "anonymous": false,
      "inputs": [
        {
          "indexed": false,
          "internalType": "address",
          "name": "sender",
          "type": "address"
        },
        {
          "indexed": false,
          "internalType": "uint256",
          "name": "amount",
          "type": "uint256"
        }
      ],
      "name": "NativeTokenDeposited",
      "type": "event"
    },
    {
      "anonymous": false,
      "inputs": [
        {
          "indexed": false,
          "internalType": "string",
          "name": "daoURI",
          "type": "string"
        }
      ],
      "name": "NewURI",
      "type": "event"
    },
    {
      "anonymous": false,
      "inputs": [
        {
          "indexed": true,
          "internalType": "bytes32",
          "name": "permissionId",
          "type": "bytes32"
        },
        {
          "indexed": true,
          "internalType": "address",
          "name": "here",
          "type": "address"
        },
        {
          "indexed": false,
          "internalType": "address",
          "name": "where",
          "type": "address"
        },
        {
          "indexed": true,
          "internalType": "address",
          "name": "who",
          "type": "address"
        }
      ],
      "name": "Revoked",
      "type": "event"
    },
    {
      "anonymous": false,
      "inputs": [
        {
          "indexed": false,
          "internalType": "address",
          "name": "signatureValidator",
          "type": "address"
        }
      ],
      "name": "SignatureValidatorSet",
      "type": "event"
    },
    {
      "anonymous": false,
      "inputs": [
        {
          "indexed": false,
          "internalType": "bytes4",
          "name": "interfaceId",
          "type": "bytes4"
        },
        {
          "indexed": false,
          "internalType": "bytes4",
          "name": "callbackSelector",
          "type": "bytes4"
        },
        {
          "indexed": false,
          "internalType": "bytes4",
          "name": "magicNumber",
          "type": "bytes4"
        }
      ],
      "name": "StandardCallbackRegistered",
      "type": "event"
    },
    {
      "anonymous": false,
      "inputs": [
        {
          "indexed": false,
          "internalType": "address",
          "name": "forwarder",
          "type": "address"
        }
      ],
      "name": "TrustedForwarderSet",
      "type": "event"
    },
    {
      "anonymous": false,
      "inputs": [
        {
          "indexed": true,
          "internalType": "address",
          "name": "implementation",
          "type": "address"
        }
      ],
      "name": "Upgraded",
      "type": "event"
    },
    {
      "stateMutability": "nonpayable",
      "type": "fallback"
    },
    {
      "inputs": [],
      "name": "EXECUTE_PERMISSION_ID",
      "outputs": [
        {
          "internalType": "bytes32",
          "name": "",
          "type": "bytes32"
        }
      ],
      "stateMutability": "view",
      "type": "function"
    },
    {
      "inputs": [],
      "name": "REGISTER_STANDARD_CALLBACK_PERMISSION_ID",
      "outputs": [
        {
          "internalType": "bytes32",
          "name": "",
          "type": "bytes32"
        }
      ],
      "stateMutability": "view",
      "type": "function"
    },
    {
      "inputs": [],
      "name": "ROOT_PERMISSION_ID",
      "outputs": [
        {
          "internalType": "bytes32",
          "name": "",
          "type": "bytes32"
        }
      ],
      "stateMutability": "view",
      "type": "function"
    },
    {
      "inputs": [],
      "name": "SET_METADATA_PERMISSION_ID",
      "outputs": [
        {
          "internalType": "bytes32",
          "name": "",
          "type": "bytes32"
        }
      ],
      "stateMutability": "view",
      "type": "function"
    },
    {
      "inputs": [],
      "name": "SET_SIGNATURE_VALIDATOR_PERMISSION_ID",
      "outputs": [
        {
          "internalType": "bytes32",
          "name": "",
          "type": "bytes32"
        }
      ],
      "stateMutability": "view",
      "type": "function"
    },
    {
      "inputs": [],
      "name": "SET_TRUSTED_FORWARDER_PERMISSION_ID",
      "outputs": [
        {
          "internalType": "bytes32",
          "name": "",
          "type": "bytes32"
        }
      ],
      "stateMutability": "view",
      "type": "function"
    },
    {
      "inputs": [],
      "name": "UPGRADE_DAO_PERMISSION_ID",
      "outputs": [
        {
          "internalType": "bytes32",
          "name": "",
          "type": "bytes32"
        }
      ],
      "stateMutability": "view",
      "type": "function"
    },
    {
      "inputs": [
        {
          "components": [
            {
              "internalType": "enum PermissionLib.Operation",
              "name": "operation",
              "type": "uint8"
            },
            {
              "internalType": "address",
              "name": "where",
              "type": "address"
            },
            {
              "internalType": "address",
              "name": "who",
              "type": "address"
            },
            {
              "internalType": "address",
              "name": "condition",
              "type": "address"
            },
            {
              "internalType": "bytes32",
              "name": "permissionId",
              "type": "bytes32"
            }
          ],
          "internalType": "struct PermissionLib.MultiTargetPermission[]",
          "name": "_items",
          "type": "tuple[]"
        }
      ],
      "name": "applyMultiTargetPermissions",
      "outputs": [],
      "stateMutability": "nonpayable",
      "type": "function"
    },
    {
      "inputs": [
        {
          "internalType": "address",
          "name": "_where",
          "type": "address"
        },
        {
          "components": [
            {
              "internalType": "enum PermissionLib.Operation",
              "name": "operation",
              "type": "uint8"
            },
            {
              "internalType": "address",
              "name": "who",
              "type": "address"
            },
            {
              "internalType": "bytes32",
              "name": "permissionId",
              "type": "bytes32"
            }
          ],
          "internalType": "struct PermissionLib.SingleTargetPermission[]",
          "name": "items",
          "type": "tuple[]"
        }
      ],
      "name": "applySingleTargetPermissions",
      "outputs": [],
      "stateMutability": "nonpayable",
      "type": "function"
    },
    {
      "inputs": [],
      "name": "daoURI",
      "outputs": [
        {
          "internalType": "string",
          "name": "",
          "type": "string"
        }
      ],
      "stateMutability": "view",
      "type": "function"
    },
    {
      "inputs": [
        {
          "internalType": "address",
          "name": "_token",
          "type": "address"
        },
        {
          "internalType": "uint256",
          "name": "_amount",
          "type": "uint256"
        },
        {
          "internalType": "string",
          "name": "_reference",
          "type": "string"
        }
      ],
      "name": "deposit",
      "outputs": [],
      "stateMutability": "payable",
      "type": "function"
    },
    {
      "inputs": [
        {
          "internalType": "bytes32",
          "name": "_callId",
          "type": "bytes32"
        },
        {
          "components": [
            {
              "internalType": "address",
              "name": "to",
              "type": "address"
            },
            {
              "internalType": "uint256",
              "name": "value",
              "type": "uint256"
            },
            {
              "internalType": "bytes",
              "name": "data",
              "type": "bytes"
            }
          ],
          "internalType": "struct IDAO.Action[]",
          "name": "_actions",
          "type": "tuple[]"
        },
        {
          "internalType": "uint256",
          "name": "_allowFailureMap",
          "type": "uint256"
        }
      ],
      "name": "execute",
      "outputs": [
        {
          "internalType": "bytes[]",
          "name": "execResults",
          "type": "bytes[]"
        },
        {
          "internalType": "uint256",
          "name": "failureMap",
          "type": "uint256"
        }
      ],
      "stateMutability": "nonpayable",
      "type": "function"
    },
    {
      "inputs": [],
      "name": "getTrustedForwarder",
      "outputs": [
        {
          "internalType": "address",
          "name": "",
          "type": "address"
        }
      ],
      "stateMutability": "view",
      "type": "function"
    },
    {
      "inputs": [
        {
          "internalType": "address",
          "name": "_where",
          "type": "address"
        },
        {
          "internalType": "address",
          "name": "_who",
          "type": "address"
        },
        {
          "internalType": "bytes32",
          "name": "_permissionId",
          "type": "bytes32"
        }
      ],
      "name": "grant",
      "outputs": [],
      "stateMutability": "nonpayable",
      "type": "function"
    },
    {
      "inputs": [
        {
          "internalType": "address",
          "name": "_where",
          "type": "address"
        },
        {
          "internalType": "address",
          "name": "_who",
          "type": "address"
        },
        {
          "internalType": "bytes32",
          "name": "_permissionId",
          "type": "bytes32"
        },
        {
          "internalType": "contract IPermissionCondition",
          "name": "_condition",
          "type": "address"
        }
      ],
      "name": "grantWithCondition",
      "outputs": [],
      "stateMutability": "nonpayable",
      "type": "function"
    },
    {
      "inputs": [
        {
          "internalType": "address",
          "name": "_where",
          "type": "address"
        },
        {
          "internalType": "address",
          "name": "_who",
          "type": "address"
        },
        {
          "internalType": "bytes32",
          "name": "_permissionId",
          "type": "bytes32"
        },
        {
          "internalType": "bytes",
          "name": "_data",
          "type": "bytes"
        }
      ],
      "name": "hasPermission",
      "outputs": [
        {
          "internalType": "bool",
          "name": "",
          "type": "bool"
        }
      ],
      "stateMutability": "view",
      "type": "function"
    },
    {
      "inputs": [
        {
          "internalType": "bytes",
          "name": "_metadata",
          "type": "bytes"
        },
        {
          "internalType": "address",
          "name": "_initialOwner",
          "type": "address"
        },
        {
          "internalType": "address",
          "name": "_trustedForwarder",
          "type": "address"
        },
        {
          "internalType": "string",
          "name": "daoURI_",
          "type": "string"
        }
      ],
      "name": "initialize",
      "outputs": [],
      "stateMutability": "nonpayable",
      "type": "function"
    },
    {
      "inputs": [
        {
          "internalType": "address",
          "name": "_where",
          "type": "address"
        },
        {
          "internalType": "address",
          "name": "_who",
          "type": "address"
        },
        {
          "internalType": "bytes32",
          "name": "_permissionId",
          "type": "bytes32"
        },
        {
          "internalType": "bytes",
          "name": "_data",
          "type": "bytes"
        }
      ],
      "name": "isGranted",
      "outputs": [
        {
          "internalType": "bool",
          "name": "",
          "type": "bool"
        }
      ],
      "stateMutability": "view",
      "type": "function"
    },
    {
      "inputs": [
        {
          "internalType": "bytes32",
          "name": "_hash",
          "type": "bytes32"
        },
        {
          "internalType": "bytes",
          "name": "_signature",
          "type": "bytes"
        }
      ],
      "name": "isValidSignature",
      "outputs": [
        {
          "internalType": "bytes4",
          "name": "",
          "type": "bytes4"
        }
      ],
      "stateMutability": "view",
      "type": "function"
    },
    {
      "inputs": [],
      "name": "proxiableUUID",
      "outputs": [
        {
          "internalType": "bytes32",
          "name": "",
          "type": "bytes32"
        }
      ],
      "stateMutability": "view",
      "type": "function"
    },
    {
      "inputs": [
        {
          "internalType": "bytes4",
          "name": "_interfaceId",
          "type": "bytes4"
        },
        {
          "internalType": "bytes4",
          "name": "_callbackSelector",
          "type": "bytes4"
        },
        {
          "internalType": "bytes4",
          "name": "_magicNumber",
          "type": "bytes4"
        }
      ],
      "name": "registerStandardCallback",
      "outputs": [],
      "stateMutability": "nonpayable",
      "type": "function"
    },
    {
      "inputs": [
        {
          "internalType": "address",
          "name": "_where",
          "type": "address"
        },
        {
          "internalType": "address",
          "name": "_who",
          "type": "address"
        },
        {
          "internalType": "bytes32",
          "name": "_permissionId",
          "type": "bytes32"
        }
      ],
      "name": "revoke",
      "outputs": [],
      "stateMutability": "nonpayable",
      "type": "function"
    },
    {
      "inputs": [
        {
          "internalType": "string",
          "name": "newDaoURI",
          "type": "string"
        }
      ],
      "name": "setDaoURI",
      "outputs": [],
      "stateMutability": "nonpayable",
      "type": "function"
    },
    {
      "inputs": [
        {
          "internalType": "bytes",
          "name": "_metadata",
          "type": "bytes"
        }
      ],
      "name": "setMetadata",
      "outputs": [],
      "stateMutability": "nonpayable",
      "type": "function"
    },
    {
      "inputs": [
        {
          "internalType": "address",
          "name": "_signatureValidator",
          "type": "address"
        }
      ],
      "name": "setSignatureValidator",
      "outputs": [],
      "stateMutability": "nonpayable",
      "type": "function"
    },
    {
      "inputs": [
        {
          "internalType": "address",
          "name": "_newTrustedForwarder",
          "type": "address"
        }
      ],
      "name": "setTrustedForwarder",
      "outputs": [],
      "stateMutability": "nonpayable",
      "type": "function"
    },
    {
      "inputs": [],
      "name": "signatureValidator",
      "outputs": [
        {
          "internalType": "contract IERC1271",
          "name": "",
          "type": "address"
        }
      ],
      "stateMutability": "view",
      "type": "function"
    },
    {
      "inputs": [
        {
          "internalType": "bytes4",
          "name": "interfaceId",
          "type": "bytes4"
        }
      ],
      "name": "supportsInterface",
      "outputs": [
        {
          "internalType": "bool",
          "name": "",
          "type": "bool"
        }
      ],
      "stateMutability": "view",
      "type": "function"
    },
    {
      "inputs": [
        {
          "internalType": "address",
          "name": "newImplementation",
          "type": "address"
        }
      ],
      "name": "upgradeTo",
      "outputs": [],
      "stateMutability": "nonpayable",
      "type": "function"
    },
    {
      "inputs": [
        {
          "internalType": "address",
          "name": "newImplementation",
          "type": "address"
        },
        {
          "internalType": "bytes",
          "name": "data",
          "type": "bytes"
        }
      ],
      "name": "upgradeToAndCall",
      "outputs": [],
      "stateMutability": "payable",
      "type": "function"
    },
    {
      "stateMutability": "payable",
      "type": "receive"
    }
  ],
  "transactionHash": "0xf3b730eed422eea34439823e6491dfe28a9771a1db470ecb15d9838799fe4416",
  "args": [],
  "numDeployments": 1,
  "solcInputHash": "0436994da4f1886ef7ba0eafc5c461be",
  "bytecode": "0x60a06040523073ffffffffffffffffffffffffffffffffffffffff1660809073ffffffffffffffffffffffffffffffffffffffff168152503480156200004457600080fd5b50620000556200005b60201b60201c565b62000206565b600060019054906101000a900460ff1615620000ae576040517f08c379a0000000000000000000000000000000000000000000000000000000008152600401620000a590620001a9565b60405180910390fd5b60ff801660008054906101000a900460ff1660ff161015620001205760ff6000806101000a81548160ff021916908360ff1602179055507f7f26b83ff96e1f2b6a682f133852f6798a09c465da95921460cefb384740249860ff604051620001179190620001e9565b60405180910390a15b565b600082825260208201905092915050565b7f496e697469616c697a61626c653a20636f6e747261637420697320696e69746960008201527f616c697a696e6700000000000000000000000000000000000000000000000000602082015250565b60006200019160278362000122565b91506200019e8262000133565b604082019050919050565b60006020820190508181036000830152620001c48162000182565b9050919050565b600060ff82169050919050565b620001e381620001cb565b82525050565b6000602082019050620002006000830184620001d8565b92915050565b60805161527d6200023e60003960008181610cff01528181610d8d01528181610f5501528181610fe30152611093015261527d6000f3fe6080604052600436106101d15760003560e01c8063829331a1116100f7578063d96054c411610095578063e978afe511610064578063e978afe51461073e578063eafb8b0614610767578063ee57e36f14610790578063fdef9106146107b957610211565b8063d96054c414610696578063da742228146106bf578063e2e35563146106e8578063e306bee71461071357610211565b8063c71bf324116100d1578063c71bf324146105db578063c9dbc2a414610619578063ce1b815f14610642578063d68bad2c1461066d57610211565b8063829331a11461056b578063bfe07da614610596578063c4a50145146105b257610211565b80632675fdd01161016f5780633e2ab0d91161013e5780633e2ab0d9146104d05780634f1ef286146104f957806352d1902d146105155780637034731b1461054057610211565b80632675fdd01461041457806326875b1f146104515780633659cfe61461047c578063388da934146104a557610211565b80631080f99b116101ab5780631080f99b1461035a5780631626ba7e1461038357806322844d04146103c057806324b4d73f146103e957610211565b806301ffc9a7146102c75780630729d0541461030457806309e56b141461032f57610211565b36610211577f62c2c8e34665db7c56b2cabd7f5fb9702ccd352ffa8150147e450797e9f8e8f33334604051610207929190612fa3565b60405180910390a1005b34801561021d57600080fd5b50600036606060006102976000357fffffffff000000000000000000000000000000000000000000000000000000001685858080601f016020809104026020016040519081016040528093929190818152602001838380828437600081840152601f19601f820116905080830192505050505050506107f6565b9050806040516020016102aa9190613007565b604051602081830303815290604052915050915050805190602001f35b3480156102d357600080fd5b506102ee60048036038101906102e99190613062565b610945565b6040516102fb91906130aa565b60405180910390f35b34801561031057600080fd5b506103196109bd565b60405161032691906130de565b60405180910390f35b34801561033b57600080fd5b506103446109e1565b60405161035191906130de565b60405180910390f35b34801561036657600080fd5b50610381600480360381019061037c919061315e565b610a05565b005b34801561038f57600080fd5b506103aa60048036038101906103a59190613318565b610a3e565b6040516103b79190613007565b60405180910390f35b3480156103cc57600080fd5b506103e760048036038101906103e291906133f6565b610b4a565b005b3480156103f557600080fd5b506103fe610c4f565b60405161040b91906130de565b60405180910390f35b34801561042057600080fd5b5061043b60048036038101906104369190613456565b610c73565b60405161044891906130aa565b60405180910390f35b34801561045d57600080fd5b50610466610cd9565b60405161047391906130de565b60405180910390f35b34801561048857600080fd5b506104a3600480360381019061049e91906134d9565b610cfd565b005b3480156104b157600080fd5b506104ba610e85565b6040516104c79190613565565b60405180910390f35b3480156104dc57600080fd5b506104f760048036038101906104f291906134d9565b610eac565b005b610513600480360381019061050e9190613580565b610f53565b005b34801561052157600080fd5b5061052a61108f565b60405161053791906130de565b60405180910390f35b34801561054c57600080fd5b50610555611148565b604051610562919061365b565b60405180910390f35b34801561057757600080fd5b506105806111db565b60405161058d91906130de565b60405180910390f35b6105b060048036038101906105ab91906136a9565b6111ff565b005b3480156105be57600080fd5b506105d960048036038101906105d4919061371d565b61139d565b005b3480156105e757600080fd5b5061060260048036038101906105fd91906137c6565b61141b565b604051610610929190613951565b60405180910390f35b34801561062557600080fd5b50610640600480360381019061063b91906139bf565b6116db565b005b34801561064e57600080fd5b50610657611718565b6040516106649190613a26565b60405180910390f35b34801561067957600080fd5b50610694600480360381019061068f9190613a41565b611743565b005b3480156106a257600080fd5b506106bd60048036038101906106b89190613a41565b61177e565b005b3480156106cb57600080fd5b506106e660048036038101906106e191906134d9565b6117b9565b005b3480156106f457600080fd5b506106fd6117f0565b60405161070a91906130de565b60405180910390f35b34801561071f57600080fd5b50610728611814565b60405161073591906130de565b60405180910390f35b34801561074a57600080fd5b5061076560048036038101906107609190613aea565b611838565b005b34801561077357600080fd5b5061078e60048036038101906107899190613b8d565b611995565b005b34801561079c57600080fd5b506107b760048036038101906107b29190613c34565b611b7a565b005b3480156107c557600080fd5b506107e060048036038101906107db9190613456565b611bb3565b6040516107ed91906130aa565b60405180910390f35b60008060fb6000857bffffffffffffffffffffffffffffffffffffffffffffffffffffffff19167bffffffffffffffffffffffffffffffffffffffffffffffffffffffff1916815260200190815260200160002060009054906101000a900460e01b9050600060e01b7bffffffffffffffffffffffffffffffffffffffffffffffffffffffff1916817bffffffffffffffffffffffffffffffffffffffffffffffffffffffff1916036108e25783816040517f4aa318c30000000000000000000000000000000000000000000000000000000081526004016108d9929190613c81565b60405180910390fd5b837bffffffffffffffffffffffffffffffffffffffffffffffffffffffff19167f4792cb6e46e49876374bea490ba23274bacea6b84c216a64f47abab54027589b3385604051610933929190613cf4565b60405180910390a28091505092915050565b600061095082611bcb565b806109b6575060336000837bffffffffffffffffffffffffffffffffffffffffffffffffffffffff19167bffffffffffffffffffffffffffffffffffffffffffffffffffffffff1916815260200190815260200160002060009054906101000a900460ff165b9050919050565b7fbf04b4486c9663d805744005c3da000eda93de6e3308a4a7a812eb565327b78d81565b7f815fe80e4b37c8582a3b773d1d7071f983eacfd56b5965db654f3087c25ada3381565b7f4707e94b25cfce1a7c363508fbb838c35864388ad77284b248282b9746982b9b610a2f81611c35565b610a398383611cce565b505050565b60008073ffffffffffffffffffffffffffffffffffffffff1661012d60009054906101000a900473ffffffffffffffffffffffffffffffffffffffff1673ffffffffffffffffffffffffffffffffffffffff1603610aa257600060e01b9050610b44565b61012d60009054906101000a900473ffffffffffffffffffffffffffffffffffffffff1673ffffffffffffffffffffffffffffffffffffffff16631626ba7e84846040518363ffffffff1660e01b8152600401610b00929190613d24565b602060405180830381865afa158015610b1d573d6000803e3d6000fd5b505050506040513d601f19601f82011682018060405250810190610b419190613d69565b90505b92915050565b7f815fe80e4b37c8582a3b773d1d7071f983eacfd56b5965db654f3087c25ada33610b7481611c35565b60005b83839050811015610c48576000848483818110610b9757610b96613d96565b5b905060600201803603810190610bad9190613e53565b905060006002811115610bc357610bc2613e80565b5b81600001516002811115610bda57610bd9613e80565b5b03610bf757610bf28682602001518360400151611d1e565b610c3c565b60016002811115610c0b57610c0a613e80565b5b81600001516002811115610c2257610c21613e80565b5b03610c3b57610c3a8682602001518360400151611d30565b5b5b81600101915050610b77565b5050505050565b7f1f53edd44352e5d15bad2b29233baa93bcd595e09457780bc7c5445bbbe751cc81565b6000610c8185858585611e66565b80610ca85750610ca78573ffffffffffffffffffffffffffffffffffffffff8585611e66565b5b80610ccf5750610cce73ffffffffffffffffffffffffffffffffffffffff858585611e66565b5b9050949350505050565b7ffaf505be9907aa6951c2ebe5b0312f4980e14f21912ed355372103cc8bd683bc81565b7f000000000000000000000000000000000000000000000000000000000000000073ffffffffffffffffffffffffffffffffffffffff163073ffffffffffffffffffffffffffffffffffffffff1603610d8b576040517f08c379a0000000000000000000000000000000000000000000000000000000008152600401610d8290613f21565b60405180910390fd5b7f000000000000000000000000000000000000000000000000000000000000000073ffffffffffffffffffffffffffffffffffffffff16610dca611fc4565b73ffffffffffffffffffffffffffffffffffffffff1614610e20576040517f08c379a0000000000000000000000000000000000000000000000000000000008152600401610e1790613fb3565b60405180910390fd5b610e298161201b565b610e8281600067ffffffffffffffff811115610e4857610e476131ed565b5b6040519080825280601f01601f191660200182016040528015610e7a5781602001600182028036833780820191505090505b506000612049565b50565b61012d60009054906101000a900473ffffffffffffffffffffffffffffffffffffffff1681565b7f0dcbfb19b09fb8ff4e9af583d4b8e9c8127cc1b26529b4d96dd3b7e778088372610ed681611c35565b8161012d60006101000a81548173ffffffffffffffffffffffffffffffffffffffff021916908373ffffffffffffffffffffffffffffffffffffffff1602179055507f3b25c5d3870ec0eac28822b177f18c9130233ade5b7f857c6a224a507c37fc4e82604051610f479190613a26565b60405180910390a15050565b7f000000000000000000000000000000000000000000000000000000000000000073ffffffffffffffffffffffffffffffffffffffff163073ffffffffffffffffffffffffffffffffffffffff1603610fe1576040517f08c379a0000000000000000000000000000000000000000000000000000000008152600401610fd890613f21565b60405180910390fd5b7f000000000000000000000000000000000000000000000000000000000000000073ffffffffffffffffffffffffffffffffffffffff16611020611fc4565b73ffffffffffffffffffffffffffffffffffffffff1614611076576040517f08c379a000000000000000000000000000000000000000000000000000000000815260040161106d90613fb3565b60405180910390fd5b61107f8261201b565b61108b82826001612049565b5050565b60007f000000000000000000000000000000000000000000000000000000000000000073ffffffffffffffffffffffffffffffffffffffff163073ffffffffffffffffffffffffffffffffffffffff161461111f576040517f08c379a000000000000000000000000000000000000000000000000000000000815260040161111690614045565b60405180910390fd5b7f360894a13ba1a3210667c828492db98dca3e2076cc3735a920a3ca505d382bbc60001b905090565b606061012f805461115890614094565b80601f016020809104026020016040519081016040528092919081815260200182805461118490614094565b80156111d15780601f106111a6576101008083540402835291602001916111d1565b820191906000526020600020905b8154815290600101906020018083116111b457829003601f168201915b5050505050905090565b7f06d294bc8cbad2e393408b20dd019a772661f60b8d633e56761157cb1ec85f8c81565b60008303611239576040517f1f2a200500000000000000000000000000000000000000000000000000000000815260040160405180910390fd5b600073ffffffffffffffffffffffffffffffffffffffff168473ffffffffffffffffffffffffffffffffffffffff16036112b8578234146112b35782346040517f1abd56100000000000000000000000000000000000000000000000000000000081526004016112aa9291906140c5565b60405180910390fd5b61132e565b60003414611300576000346040517f1abd56100000000000000000000000000000000000000000000000000000000081526004016112f7929190614129565b60405180910390fd5b61132d3330858773ffffffffffffffffffffffffffffffffffffffff166121b7909392919063ffffffff16565b5b8373ffffffffffffffffffffffffffffffffffffffff163373ffffffffffffffffffffffffffffffffffffffff167f2bc500cf071be2d1c1458ed6ff484cd4db4345ada8943dee7ff29e7af3558f7685858560405161138f9392919061417f565b60405180910390a350505050565b7ffaf505be9907aa6951c2ebe5b0312f4980e14f21912ed355372103cc8bd683bc6113c781611c35565b6113d084612240565b6113da8383612315565b7ffc72fd547553f7a663e0048e590afc9c47b56a4242e960f31cf4c62e23d308b984848460405161140d939291906141b1565b60405180910390a150505050565b606060007fbf04b4486c9663d805744005c3da000eda93de6e3308a4a7a812eb565327b78d61144981611c35565b610100868690501115611488576040517f11c763d600000000000000000000000000000000000000000000000000000000815260040160405180910390fd5b8585905067ffffffffffffffff8111156114a5576114a46131ed565b5b6040519080825280602002602001820160405280156114d857816020015b60608152602001906001900390816114c35790505b50925060005b8686905081101561167a5760008787838181106114fe576114fd613d96565b5b905060200281019061151091906141f7565b600001602081019061152291906134d9565b90506000808273ffffffffffffffffffffffffffffffffffffffff168a8a8681811061155157611550613d96565b5b905060200281019061156391906141f7565b602001358b8b8781811061157a57611579613d96565b5b905060200281019061158c91906141f7565b806040019061159b919061421f565b6040516115a99291906142b2565b60006040518083038185875af1925050503d80600081146115e6576040519150601f19603f3d011682016040523d82523d6000602084013e6115eb565b606091505b50915091508161164d576115ff8885612386565b61164057836040517fa6a7dbbd00000000000000000000000000000000000000000000000000000000815260040161163791906142cb565b60405180910390fd5b61164a86856123a2565b95505b8087858151811061166157611660613d96565b5b60200260200101819052508360010193505050506114de565b503373ffffffffffffffffffffffffffffffffffffffff167fd0de18eab8dc7532aab0fc4eb308477031cabf9fd312ea3b3a5fe9aa45ac8ed788888886886040516116c9959493929190614513565b60405180910390a25094509492505050565b7f815fe80e4b37c8582a3b773d1d7071f983eacfd56b5965db654f3087c25ada3361170581611c35565b611711858585856123b6565b5050505050565b600061012e60009054906101000a900473ffffffffffffffffffffffffffffffffffffffff16905090565b7f815fe80e4b37c8582a3b773d1d7071f983eacfd56b5965db654f3087c25ada3361176d81611c35565b611778848484611d1e565b50505050565b7f815fe80e4b37c8582a3b773d1d7071f983eacfd56b5965db654f3087c25ada336117a881611c35565b6117b3848484611d30565b50505050565b7f06d294bc8cbad2e393408b20dd019a772661f60b8d633e56761157cb1ec85f8c6117e381611c35565b6117ec82612755565b5050565b7f0dcbfb19b09fb8ff4e9af583d4b8e9c8127cc1b26529b4d96dd3b7e77808837281565b7f4707e94b25cfce1a7c363508fbb838c35864388ad77284b248282b9746982b9b81565b7f815fe80e4b37c8582a3b773d1d7071f983eacfd56b5965db654f3087c25ada3361186281611c35565b60005b8383905081101561198f57600084848381811061188557611884613d96565b5b905060a0020180360381019061189b91906145f4565b9050600060028111156118b1576118b0613e80565b5b816000015160028111156118c8576118c7613e80565b5b036118e9576118e4816020015182604001518360800151611d1e565b611983565b600160028111156118fd576118fc613e80565b5b8160000151600281111561191457611913613e80565b5b0361193557611930816020015182604001518360800151611d30565b611982565b60028081111561194857611947613e80565b5b8160000151600281111561195f5761195e613e80565b5b036119815761198081602001518260400151836080015184606001516123b6565b5b5b5b81600101915050611865565b50505050565b60008060019054906101000a900460ff161590508080156119c65750600160008054906101000a900460ff1660ff16105b806119f357506119d5306127d1565b1580156119f25750600160008054906101000a900460ff1660ff16145b5b611a32576040517f08c379a0000000000000000000000000000000000000000000000000000000008152600401611a2990614693565b60405180910390fd5b60016000806101000a81548160ff021916908360ff1602179055508015611a6f576001600060016101000a81548160ff0219169083151502179055505b611a987f9385547e00000000000000000000000000000000000000000000000000000000612240565b611ac17f1626ba7e00000000000000000000000000000000000000000000000000000000612240565b611aea7f7034731b00000000000000000000000000000000000000000000000000000000612240565b611af26127f4565b611afc8787612890565b611b0584612755565b611b0f8383611cce565b611b18856128cd565b8015611b715760008060016101000a81548160ff0219169083151502179055507f7f26b83ff96e1f2b6a682f133852f6798a09c465da95921460cefb38474024986001604051611b6891906146fb565b60405180910390a15b50505050505050565b7f4707e94b25cfce1a7c363508fbb838c35864388ad77284b248282b9746982b9b611ba481611c35565b611bae8383612890565b505050565b6000611bc185858585610c73565b9050949350505050565b60007f01ffc9a7000000000000000000000000000000000000000000000000000000007bffffffffffffffffffffffffffffffffffffffffffffffffffffffff1916827bffffffffffffffffffffffffffffffffffffffffffffffffffffffff1916149050919050565b611c863033836000368080601f016020809104026020016040519081016040528093929190818152602001838380828437600081840152601f19601f82011690508083019250505050505050610c73565b611ccb573033826040517f1e09743f000000000000000000000000000000000000000000000000000000008152600401611cc293929190614716565b60405180910390fd5b50565b818161012f9182611ce09291906148fa565b507fe9b617ecb5f63f6a9ccd8d4d5fa0d7b2ef9b17ce3f48e6b135808d6a40e677428282604051611d129291906149ca565b60405180910390a15050565b611d2b83838360026123b6565b505050565b6000611d3d848484612928565b9050600073ffffffffffffffffffffffffffffffffffffffff1660c9600083815260200190815260200160002060009054906101000a900473ffffffffffffffffffffffffffffffffffffffff1673ffffffffffffffffffffffffffffffffffffffff1614611e6057600060c9600083815260200190815260200160002060006101000a81548173ffffffffffffffffffffffffffffffffffffffff021916908373ffffffffffffffffffffffffffffffffffffffff1602179055508273ffffffffffffffffffffffffffffffffffffffff163373ffffffffffffffffffffffffffffffffffffffff16837f3ca48185ec3f6e47e24db18b13f1c65b1ce05da1659f9c1c4fe717dda5f6752487604051611e579190613a26565b60405180910390a45b50505050565b60008060c96000611e78888888612928565b815260200190815260200160002060009054906101000a900473ffffffffffffffffffffffffffffffffffffffff169050600073ffffffffffffffffffffffffffffffffffffffff168173ffffffffffffffffffffffffffffffffffffffff1603611ee7576000915050611fbc565b600273ffffffffffffffffffffffffffffffffffffffff168173ffffffffffffffffffffffffffffffffffffffff1603611f25576001915050611fbc565b8073ffffffffffffffffffffffffffffffffffffffff16632675fdd0878787876040518563ffffffff1660e01b8152600401611f6494939291906149ee565b602060405180830381865afa925050508015611f9e57506040513d601f19601f82011682018060405250810190611f9b9190614a66565b60015b15611fb6578015611fb457600192505050611fbc565b505b60009150505b949350505050565b6000611ff27f360894a13ba1a3210667c828492db98dca3e2076cc3735a920a3ca505d382bbc60001b61295e565b60000160009054906101000a900473ffffffffffffffffffffffffffffffffffffffff16905090565b7f1f53edd44352e5d15bad2b29233baa93bcd595e09457780bc7c5445bbbe751cc61204581611c35565b5050565b6120757f4910fdfa16fed3260ed0e7147f7cc6da11a60208b5b9406d12a635614ffd914360001b612968565b60000160009054906101000a900460ff16156120995761209483612972565b6121b2565b8273ffffffffffffffffffffffffffffffffffffffff166352d1902d6040518163ffffffff1660e01b8152600401602060405180830381865afa92505050801561210157506040513d601f19601f820116820180604052508101906120fe9190614aa8565b60015b612140576040517f08c379a000000000000000000000000000000000000000000000000000000000815260040161213790614b47565b60405180910390fd5b7f360894a13ba1a3210667c828492db98dca3e2076cc3735a920a3ca505d382bbc60001b81146121a5576040517f08c379a000000000000000000000000000000000000000000000000000000000815260040161219c90614bd9565b60405180910390fd5b506121b1838383612a2b565b5b505050565b61223a846323b872dd60e01b8585856040516024016121d893929190614bf9565b604051602081830303815290604052907bffffffffffffffffffffffffffffffffffffffffffffffffffffffff19166020820180517bffffffffffffffffffffffffffffffffffffffffffffffffffffffff8381831617835250505050612a57565b50505050565b63ffffffff60e01b817bffffffffffffffffffffffffffffffffffffffffffffffffffffffff1916036122a8576040517f08c379a000000000000000000000000000000000000000000000000000000000815260040161229f90614c7c565b60405180910390fd5b600160336000837bffffffffffffffffffffffffffffffffffffffffffffffffffffffff19167bffffffffffffffffffffffffffffffffffffffffffffffffffffffff1916815260200190815260200160002060006101000a81548160ff02191690831515021790555050565b8060fb6000847bffffffffffffffffffffffffffffffffffffffffffffffffffffffff19167bffffffffffffffffffffffffffffffffffffffffffffffffffffffff1916815260200190815260200160002060006101000a81548163ffffffff021916908360e01c02179055505050565b6000808260ff166001901b841690506000811191505092915050565b60008160ff166001901b8318905092915050565b73ffffffffffffffffffffffffffffffffffffffff80168473ffffffffffffffffffffffffffffffffffffffff1614801561241c575073ffffffffffffffffffffffffffffffffffffffff80168373ffffffffffffffffffffffffffffffffffffffff16145b15612453576040517f85f1ba9900000000000000000000000000000000000000000000000000000000815260040160405180910390fd5b73ffffffffffffffffffffffffffffffffffffffff80168473ffffffffffffffffffffffffffffffffffffffff1614806124b8575073ffffffffffffffffffffffffffffffffffffffff80168373ffffffffffffffffffffffffffffffffffffffff16145b156125945760006124c883612b1e565b90507f815fe80e4b37c8582a3b773d1d7071f983eacfd56b5965db654f3087c25ada338314806124f55750805b1561252c576040517f24159e5b00000000000000000000000000000000000000000000000000000000815260040160405180910390fd5b600273ffffffffffffffffffffffffffffffffffffffff168273ffffffffffffffffffffffffffffffffffffffff1603612592576040517f92ab7d0c00000000000000000000000000000000000000000000000000000000815260040160405180910390fd5b505b60006125a1858585612928565b9050600060c9600083815260200190815260200160002060009054906101000a900473ffffffffffffffffffffffffffffffffffffffff1690506000839050600073ffffffffffffffffffffffffffffffffffffffff168273ffffffffffffffffffffffffffffffffffffffff16036126d3578060c9600085815260200190815260200160002060006101000a81548173ffffffffffffffffffffffffffffffffffffffff021916908373ffffffffffffffffffffffffffffffffffffffff1602179055508573ffffffffffffffffffffffffffffffffffffffff163373ffffffffffffffffffffffffffffffffffffffff16867f0f579ad49235a8c1fd9041427e7067b1eb10926bbed380bf6fabc73e0e8076448a886040516126c6929190614cbd565b60405180910390a461274c565b8073ffffffffffffffffffffffffffffffffffffffff168273ffffffffffffffffffffffffffffffffffffffff161461274b5786868684846040517f0b98789e000000000000000000000000000000000000000000000000000000008152600401612742959493929190614ce6565b60405180910390fd5b5b50505050505050565b8061012e60006101000a81548173ffffffffffffffffffffffffffffffffffffffff021916908373ffffffffffffffffffffffffffffffffffffffff1602179055507fd91237492a9e30cd2faf361fc103998a382ff0ec2b1b07dc1cbebb76ae2f1ea2816040516127c69190613a26565b60405180910390a150565b6000808273ffffffffffffffffffffffffffffffffffffffff163b119050919050565b61281d7f150b7a0200000000000000000000000000000000000000000000000000000000612240565b6128467f4e2312e000000000000000000000000000000000000000000000000000000000612240565b61285e63150b7a0260e01b63150b7a0260e01b612315565b61287663f23a6e6160e01b63f23a6e6160e01b612315565b61288e63bc197c8160e01b63bc197c8160e01b612315565b565b7fbb39ebb37e60fb5d606ffdb749d2336e56b88e6c88c4bd6513b308f643186eed82826040516128c1929190614d66565b60405180910390a15050565b600060019054906101000a900460ff1661291c576040517f08c379a000000000000000000000000000000000000000000000000000000000815260040161291390614dfc565b60405180910390fd5b61292581612c1c565b50565b600082848360405160200161293f93929190614edc565b6040516020818303038152906040528051906020012090509392505050565b6000819050919050565b6000819050919050565b61297b816127d1565b6129ba576040517f08c379a00000000000000000000000000000000000000000000000000000000081526004016129b190614f96565b60405180910390fd5b806129e77f360894a13ba1a3210667c828492db98dca3e2076cc3735a920a3ca505d382bbc60001b61295e565b60000160006101000a81548173ffffffffffffffffffffffffffffffffffffffff021916908373ffffffffffffffffffffffffffffffffffffffff16021790555050565b612a3483612c4a565b600082511180612a415750805b15612a5257612a508383612c99565b505b505050565b6000612ab9826040518060400160405280602081526020017f5361666545524332303a206c6f772d6c6576656c2063616c6c206661696c65648152508573ffffffffffffffffffffffffffffffffffffffff16612d7d9092919063ffffffff16565b9050600081511115612b195780806020019051810190612ad99190614a66565b612b18576040517f08c379a0000000000000000000000000000000000000000000000000000000008152600401612b0f90615028565b60405180910390fd5b5b505050565b60007fbf04b4486c9663d805744005c3da000eda93de6e3308a4a7a812eb565327b78d821480612b6d57507f1f53edd44352e5d15bad2b29233baa93bcd595e09457780bc7c5445bbbe751cc82145b80612b9757507f4707e94b25cfce1a7c363508fbb838c35864388ad77284b248282b9746982b9b82145b80612bc157507f06d294bc8cbad2e393408b20dd019a772661f60b8d633e56761157cb1ec85f8c82145b80612beb57507f0dcbfb19b09fb8ff4e9af583d4b8e9c8127cc1b26529b4d96dd3b7e77808837282145b80612c1557507ffaf505be9907aa6951c2ebe5b0312f4980e14f21912ed355372103cc8bd683bc82145b9050919050565b612c4730827f815fe80e4b37c8582a3b773d1d7071f983eacfd56b5965db654f3087c25ada33611d1e565b50565b612c5381612972565b8073ffffffffffffffffffffffffffffffffffffffff167fbc7cd75a20ee27fd9adebab32041f755214dbc6bffa90cc0225b39da2e5c2d3b60405160405180910390a250565b6060612ca4836127d1565b612ce3576040517f08c379a0000000000000000000000000000000000000000000000000000000008152600401612cda906150ba565b60405180910390fd5b6000808473ffffffffffffffffffffffffffffffffffffffff1684604051612d0b919061510b565b600060405180830381855af49150503d8060008114612d46576040519150601f19603f3d011682016040523d82523d6000602084013e612d4b565b606091505b5091509150612d73828260405180606001604052806027815260200161522160279139612d95565b9250505092915050565b6060612d8c8484600085612db7565b90509392505050565b60608315612da557829050612db0565b612daf8383612e84565b5b9392505050565b606082471015612dfc576040517f08c379a0000000000000000000000000000000000000000000000000000000008152600401612df390615194565b60405180910390fd5b6000808673ffffffffffffffffffffffffffffffffffffffff168587604051612e25919061510b565b60006040518083038185875af1925050503d8060008114612e62576040519150601f19603f3d011682016040523d82523d6000602084013e612e67565b606091505b5091509150612e7887838387612ed4565b92505050949350505050565b600082511115612e975781518083602001fd5b806040517f08c379a0000000000000000000000000000000000000000000000000000000008152600401612ecb919061365b565b60405180910390fd5b60608315612f36576000835103612f2e57612eee856127d1565b612f2d576040517f08c379a0000000000000000000000000000000000000000000000000000000008152600401612f2490615200565b60405180910390fd5b5b829050612f41565b612f408383612e84565b5b949350505050565b600073ffffffffffffffffffffffffffffffffffffffff82169050919050565b6000612f7482612f49565b9050919050565b612f8481612f69565b82525050565b6000819050919050565b612f9d81612f8a565b82525050565b6000604082019050612fb86000830185612f7b565b612fc56020830184612f94565b9392505050565b60007fffffffff0000000000000000000000000000000000000000000000000000000082169050919050565b61300181612fcc565b82525050565b600060208201905061301c6000830184612ff8565b92915050565b6000604051905090565b600080fd5b600080fd5b61303f81612fcc565b811461304a57600080fd5b50565b60008135905061305c81613036565b92915050565b6000602082840312156130785761307761302c565b5b60006130868482850161304d565b91505092915050565b60008115159050919050565b6130a48161308f565b82525050565b60006020820190506130bf600083018461309b565b92915050565b6000819050919050565b6130d8816130c5565b82525050565b60006020820190506130f360008301846130cf565b92915050565b600080fd5b600080fd5b600080fd5b60008083601f84011261311e5761311d6130f9565b5b8235905067ffffffffffffffff81111561313b5761313a6130fe565b5b60208301915083600182028301111561315757613156613103565b5b9250929050565b600080602083850312156131755761317461302c565b5b600083013567ffffffffffffffff81111561319357613192613031565b5b61319f85828601613108565b92509250509250929050565b6131b4816130c5565b81146131bf57600080fd5b50565b6000813590506131d1816131ab565b92915050565b600080fd5b6000601f19601f8301169050919050565b7f4e487b7100000000000000000000000000000000000000000000000000000000600052604160045260246000fd5b613225826131dc565b810181811067ffffffffffffffff82111715613244576132436131ed565b5b80604052505050565b6000613257613022565b9050613263828261321c565b919050565b600067ffffffffffffffff821115613283576132826131ed565b5b61328c826131dc565b9050602081019050919050565b82818337600083830152505050565b60006132bb6132b684613268565b61324d565b9050828152602081018484840111156132d7576132d66131d7565b5b6132e2848285613299565b509392505050565b600082601f8301126132ff576132fe6130f9565b5b813561330f8482602086016132a8565b91505092915050565b6000806040838503121561332f5761332e61302c565b5b600061333d858286016131c2565b925050602083013567ffffffffffffffff81111561335e5761335d613031565b5b61336a858286016132ea565b9150509250929050565b61337d81612f69565b811461338857600080fd5b50565b60008135905061339a81613374565b92915050565b60008083601f8401126133b6576133b56130f9565b5b8235905067ffffffffffffffff8111156133d3576133d26130fe565b5b6020830191508360608202830111156133ef576133ee613103565b5b9250929050565b60008060006040848603121561340f5761340e61302c565b5b600061341d8682870161338b565b935050602084013567ffffffffffffffff81111561343e5761343d613031565b5b61344a868287016133a0565b92509250509250925092565b600080600080608085870312156134705761346f61302c565b5b600061347e8782880161338b565b945050602061348f8782880161338b565b93505060406134a0878288016131c2565b925050606085013567ffffffffffffffff8111156134c1576134c0613031565b5b6134cd878288016132ea565b91505092959194509250565b6000602082840312156134ef576134ee61302c565b5b60006134fd8482850161338b565b91505092915050565b6000819050919050565b600061352b61352661352184612f49565b613506565b612f49565b9050919050565b600061353d82613510565b9050919050565b600061354f82613532565b9050919050565b61355f81613544565b82525050565b600060208201905061357a6000830184613556565b92915050565b600080604083850312156135975761359661302c565b5b60006135a58582860161338b565b925050602083013567ffffffffffffffff8111156135c6576135c5613031565b5b6135d2858286016132ea565b9150509250929050565b600081519050919050565b600082825260208201905092915050565b60005b838110156136165780820151818401526020810190506135fb565b60008484015250505050565b600061362d826135dc565b61363781856135e7565b93506136478185602086016135f8565b613650816131dc565b840191505092915050565b600060208201905081810360008301526136758184613622565b905092915050565b61368681612f8a565b811461369157600080fd5b50565b6000813590506136a38161367d565b92915050565b600080600080606085870312156136c3576136c261302c565b5b60006136d18782880161338b565b94505060206136e287828801613694565b935050604085013567ffffffffffffffff81111561370357613702613031565b5b61370f87828801613108565b925092505092959194509250565b6000806000606084860312156137365761373561302c565b5b60006137448682870161304d565b93505060206137558682870161304d565b92505060406137668682870161304d565b9150509250925092565b60008083601f840112613786576137856130f9565b5b8235905067ffffffffffffffff8111156137a3576137a26130fe565b5b6020830191508360208202830111156137bf576137be613103565b5b9250929050565b600080600080606085870312156137e0576137df61302c565b5b60006137ee878288016131c2565b945050602085013567ffffffffffffffff81111561380f5761380e613031565b5b61381b87828801613770565b9350935050604061382e87828801613694565b91505092959194509250565b600081519050919050565b600082825260208201905092915050565b6000819050602082019050919050565b600081519050919050565b600082825260208201905092915050565b600061388d82613866565b6138978185613871565b93506138a78185602086016135f8565b6138b0816131dc565b840191505092915050565b60006138c78383613882565b905092915050565b6000602082019050919050565b60006138e78261383a565b6138f18185613845565b93508360208202850161390385613856565b8060005b8581101561393f578484038952815161392085826138bb565b945061392b836138cf565b925060208a01995050600181019050613907565b50829750879550505050505092915050565b6000604082019050818103600083015261396b81856138dc565b905061397a6020830184612f94565b9392505050565b600061398c82612f69565b9050919050565b61399c81613981565b81146139a757600080fd5b50565b6000813590506139b981613993565b92915050565b600080600080608085870312156139d9576139d861302c565b5b60006139e78782880161338b565b94505060206139f88782880161338b565b9350506040613a09878288016131c2565b9250506060613a1a878288016139aa565b91505092959194509250565b6000602082019050613a3b6000830184612f7b565b92915050565b600080600060608486031215613a5a57613a5961302c565b5b6000613a688682870161338b565b9350506020613a798682870161338b565b9250506040613a8a868287016131c2565b9150509250925092565b60008083601f840112613aaa57613aa96130f9565b5b8235905067ffffffffffffffff811115613ac757613ac66130fe565b5b6020830191508360a0820283011115613ae357613ae2613103565b5b9250929050565b60008060208385031215613b0157613b0061302c565b5b600083013567ffffffffffffffff811115613b1f57613b1e613031565b5b613b2b85828601613a94565b92509250509250929050565b60008083601f840112613b4d57613b4c6130f9565b5b8235905067ffffffffffffffff811115613b6a57613b696130fe565b5b602083019150836001820283011115613b8657613b85613103565b5b9250929050565b60008060008060008060808789031215613baa57613ba961302c565b5b600087013567ffffffffffffffff811115613bc857613bc7613031565b5b613bd489828a01613b37565b96509650506020613be789828a0161338b565b9450506040613bf889828a0161338b565b935050606087013567ffffffffffffffff811115613c1957613c18613031565b5b613c2589828a01613108565b92509250509295509295509295565b60008060208385031215613c4b57613c4a61302c565b5b600083013567ffffffffffffffff811115613c6957613c68613031565b5b613c7585828601613b37565b92509250509250929050565b6000604082019050613c966000830185612ff8565b613ca36020830184612ff8565b9392505050565b600082825260208201905092915050565b6000613cc682613866565b613cd08185613caa565b9350613ce08185602086016135f8565b613ce9816131dc565b840191505092915050565b6000604082019050613d096000830185612f7b565b8181036020830152613d1b8184613cbb565b90509392505050565b6000604082019050613d3960008301856130cf565b8181036020830152613d4b8184613cbb565b90509392505050565b600081519050613d6381613036565b92915050565b600060208284031215613d7f57613d7e61302c565b5b6000613d8d84828501613d54565b91505092915050565b7f4e487b7100000000000000000000000000000000000000000000000000000000600052603260045260246000fd5b600080fd5b60038110613dd757600080fd5b50565b600081359050613de981613dca565b92915050565b600060608284031215613e0557613e04613dc5565b5b613e0f606061324d565b90506000613e1f84828501613dda565b6000830152506020613e338482850161338b565b6020830152506040613e47848285016131c2565b60408301525092915050565b600060608284031215613e6957613e6861302c565b5b6000613e7784828501613def565b91505092915050565b7f4e487b7100000000000000000000000000000000000000000000000000000000600052602160045260246000fd5b7f46756e6374696f6e206d7573742062652063616c6c6564207468726f7567682060008201527f64656c656761746563616c6c0000000000000000000000000000000000000000602082015250565b6000613f0b602c836135e7565b9150613f1682613eaf565b604082019050919050565b60006020820190508181036000830152613f3a81613efe565b9050919050565b7f46756e6374696f6e206d7573742062652063616c6c6564207468726f7567682060008201527f6163746976652070726f78790000000000000000000000000000000000000000602082015250565b6000613f9d602c836135e7565b9150613fa882613f41565b604082019050919050565b60006020820190508181036000830152613fcc81613f90565b9050919050565b7f555550535570677261646561626c653a206d757374206e6f742062652063616c60008201527f6c6564207468726f7567682064656c656761746563616c6c0000000000000000602082015250565b600061402f6038836135e7565b915061403a82613fd3565b604082019050919050565b6000602082019050818103600083015261405e81614022565b9050919050565b7f4e487b7100000000000000000000000000000000000000000000000000000000600052602260045260246000fd5b600060028204905060018216806140ac57607f821691505b6020821081036140bf576140be614065565b5b50919050565b60006040820190506140da6000830185612f94565b6140e76020830184612f94565b9392505050565b6000819050919050565b600061411361410e614109846140ee565b613506565b612f8a565b9050919050565b614123816140f8565b82525050565b600060408201905061413e600083018561411a565b61414b6020830184612f94565b9392505050565b600061415e83856135e7565b935061416b838584613299565b614174836131dc565b840190509392505050565b60006040820190506141946000830186612f94565b81810360208301526141a7818486614152565b9050949350505050565b60006060820190506141c66000830186612ff8565b6141d36020830185612ff8565b6141e06040830184612ff8565b949350505050565b600080fd5b600080fd5b600080fd5b600082356001606003833603038112614213576142126141e8565b5b80830191505092915050565b6000808335600160200384360303811261423c5761423b6141e8565b5b80840192508235915067ffffffffffffffff82111561425e5761425d6141ed565b5b60208301925060018202360383131561427a576142796141f2565b5b509250929050565b600081905092915050565b60006142998385614282565b93506142a6838584613299565b82840190509392505050565b60006142bf82848661428d565b91508190509392505050565b60006020820190506142e06000830184612f94565b92915050565b600082825260208201905092915050565b6000819050919050565b6000614310602084018461338b565b905092915050565b61432181612f69565b82525050565b60006143366020840184613694565b905092915050565b61434781612f8a565b82525050565b600080fd5b600080fd5b600080fd5b6000808335600160200384360303811261437957614378614357565b5b83810192508235915060208301925067ffffffffffffffff8211156143a1576143a061434d565b5b6001820236038313156143b7576143b6614352565b5b509250929050565b60006143cb8385613871565b93506143d8838584613299565b6143e1836131dc565b840190509392505050565b6000606083016143ff6000840184614301565b61440c6000860182614318565b5061441a6020840184614327565b614427602086018261433e565b50614435604084018461435c565b85830360408701526144488382846143bf565b925050508091505092915050565b600061446283836143ec565b905092915050565b60008235600160600383360303811261448657614485614357565b5b82810191505092915050565b6000602082019050919050565b60006144ab83856142e6565b9350836020840285016144bd846142f7565b8060005b878110156145015784840389526144d8828461446a565b6144e28582614456565b94506144ed83614492565b925060208a019950506001810190506144c1565b50829750879450505050509392505050565b600060808201905061452860008301886130cf565b818103602083015261453b81868861449f565b905061454a6040830185612f94565b818103606083015261455c81846138dc565b90509695505050505050565b600060a0828403121561457e5761457d613dc5565b5b61458860a061324d565b9050600061459884828501613dda565b60008301525060206145ac8482850161338b565b60208301525060406145c08482850161338b565b60408301525060606145d48482850161338b565b60608301525060806145e8848285016131c2565b60808301525092915050565b600060a0828403121561460a5761460961302c565b5b600061461884828501614568565b91505092915050565b7f496e697469616c697a61626c653a20636f6e747261637420697320616c72656160008201527f647920696e697469616c697a6564000000000000000000000000000000000000602082015250565b600061467d602e836135e7565b915061468882614621565b604082019050919050565b600060208201905081810360008301526146ac81614670565b9050919050565b6000819050919050565b600060ff82169050919050565b60006146e56146e06146db846146b3565b613506565b6146bd565b9050919050565b6146f5816146ca565b82525050565b600060208201905061471060008301846146ec565b92915050565b600060608201905061472b6000830186612f7b565b6147386020830185612f7b565b61474560408301846130cf565b949350505050565b600082905092915050565b60008190508160005260206000209050919050565b60006020601f8301049050919050565b600082821b905092915050565b6000600883026147ba7fffffffffffffffffffffffffffffffffffffffffffffffffffffffffffffffff8261477d565b6147c4868361477d565b95508019841693508086168417925050509392505050565b60006147f76147f26147ed84612f8a565b613506565b612f8a565b9050919050565b6000819050919050565b614811836147dc565b61482561481d826147fe565b84845461478a565b825550505050565b600090565b61483a61482d565b614845818484614808565b505050565b5b818110156148695761485e600082614832565b60018101905061484b565b5050565b601f8211156148ae5761487f81614758565b6148888461476d565b81016020851015614897578190505b6148ab6148a38561476d565b83018261484a565b50505b505050565b600082821c905092915050565b60006148d1600019846008026148b3565b1980831691505092915050565b60006148ea83836148c0565b9150826002028217905092915050565b614904838361474d565b67ffffffffffffffff81111561491d5761491c6131ed565b5b6149278254614094565b61493282828561486d565b6000601f831160018114614961576000841561494f578287013590505b61495985826148de565b8655506149c1565b601f19841661496f86614758565b60005b8281101561499757848901358255600182019150602085019450602081019050614972565b868310156149b457848901356149b0601f8916826148c0565b8355505b6001600288020188555050505b50505050505050565b600060208201905081810360008301526149e5818486614152565b90509392505050565b6000608082019050614a036000830187612f7b565b614a106020830186612f7b565b614a1d60408301856130cf565b8181036060830152614a2f8184613cbb565b905095945050505050565b614a438161308f565b8114614a4e57600080fd5b50565b600081519050614a6081614a3a565b92915050565b600060208284031215614a7c57614a7b61302c565b5b6000614a8a84828501614a51565b91505092915050565b600081519050614aa2816131ab565b92915050565b600060208284031215614abe57614abd61302c565b5b6000614acc84828501614a93565b91505092915050565b7f45524331393637557067726164653a206e657720696d706c656d656e7461746960008201527f6f6e206973206e6f742055555053000000000000000000000000000000000000602082015250565b6000614b31602e836135e7565b9150614b3c82614ad5565b604082019050919050565b60006020820190508181036000830152614b6081614b24565b9050919050565b7f45524331393637557067726164653a20756e737570706f727465642070726f7860008201527f6961626c65555549440000000000000000000000000000000000000000000000602082015250565b6000614bc36029836135e7565b9150614bce82614b67565b604082019050919050565b60006020820190508181036000830152614bf281614bb6565b9050919050565b6000606082019050614c0e6000830186612f7b565b614c1b6020830185612f7b565b614c286040830184612f94565b949350505050565b7f4552433136353a20696e76616c696420696e7465726661636520696400000000600082015250565b6000614c66601c836135e7565b9150614c7182614c30565b602082019050919050565b60006020820190508181036000830152614c9581614c59565b9050919050565b6000614ca782613532565b9050919050565b614cb781614c9c565b82525050565b6000604082019050614cd26000830185612f7b565b614cdf6020830184614cae565b9392505050565b600060a082019050614cfb6000830188612f7b565b614d086020830187612f7b565b614d1560408301866130cf565b614d226060830185612f7b565b614d2f6080830184612f7b565b9695505050505050565b6000614d458385613caa565b9350614d52838584613299565b614d5b836131dc565b840190509392505050565b60006020820190508181036000830152614d81818486614d39565b90509392505050565b7f496e697469616c697a61626c653a20636f6e7472616374206973206e6f74206960008201527f6e697469616c697a696e67000000000000000000000000000000000000000000602082015250565b6000614de6602b836135e7565b9150614df182614d8a565b604082019050919050565b60006020820190508181036000830152614e1581614dd9565b9050919050565b600081905092915050565b7f5045524d495353494f4e00000000000000000000000000000000000000000000600082015250565b6000614e5d600a83614e1c565b9150614e6882614e27565b600a82019050919050565b60008160601b9050919050565b6000614e8b82614e73565b9050919050565b6000614e9d82614e80565b9050919050565b614eb5614eb082612f69565b614e92565b82525050565b6000819050919050565b614ed6614ed1826130c5565b614ebb565b82525050565b6000614ee782614e50565b9150614ef38286614ea4565b601482019150614f038285614ea4565b601482019150614f138284614ec5565b602082019150819050949350505050565b7f455243313936373a206e657720696d706c656d656e746174696f6e206973206e60008201527f6f74206120636f6e747261637400000000000000000000000000000000000000602082015250565b6000614f80602d836135e7565b9150614f8b82614f24565b604082019050919050565b60006020820190508181036000830152614faf81614f73565b9050919050565b7f5361666545524332303a204552433230206f7065726174696f6e20646964206e60008201527f6f74207375636365656400000000000000000000000000000000000000000000602082015250565b6000615012602a836135e7565b915061501d82614fb6565b604082019050919050565b6000602082019050818103600083015261504181615005565b9050919050565b7f416464726573733a2064656c65676174652063616c6c20746f206e6f6e2d636f60008201527f6e74726163740000000000000000000000000000000000000000000000000000602082015250565b60006150a46026836135e7565b91506150af82615048565b604082019050919050565b600060208201905081810360008301526150d381615097565b9050919050565b60006150e582613866565b6150ef8185614282565b93506150ff8185602086016135f8565b80840191505092915050565b600061511782846150da565b915081905092915050565b7f416464726573733a20696e73756666696369656e742062616c616e636520666f60008201527f722063616c6c0000000000000000000000000000000000000000000000000000602082015250565b600061517e6026836135e7565b915061518982615122565b604082019050919050565b600060208201905081810360008301526151ad81615171565b9050919050565b7f416464726573733a2063616c6c20746f206e6f6e2d636f6e7472616374000000600082015250565b60006151ea601d836135e7565b91506151f5826151b4565b602082019050919050565b60006020820190508181036000830152615219816151dd565b905091905056fe416464726573733a206c6f772d6c6576656c2064656c65676174652063616c6c206661696c6564a26469706673582212202875c77036cbfd8f2ae56fecd11c9260ef48c7d25a25e4f7c086291d5978eec664736f6c63430008110033",
  "devdoc": {
    "errors": {
      "ActionFailed(uint256)": [
        {
          "params": {
            "index": "The index of the action in the action array that failed."
          }
        }
      ],
      "NativeTokenDepositAmountMismatch(uint256,uint256)": [
        {
          "params": {
            "actual": "The actual native token amount deposited.",
            "expected": "The expected native token amount."
          }
        }
      ],
      "PermissionAlreadyGrantedForDifferentCondition(address,address,bytes32,address,address)": [
        {
          "details": "This makes sure that condition on the same permission can not be overwriten by a different condition.",
          "params": {
            "currentCondition": "The current condition set for permissionId.",
            "newCondition": "The new condition it tries to set for permissionId.",
            "permissionId": "The permission identifier.",
            "where": "The address of the target contract to grant `_who` permission to.",
            "who": "The address (EOA or contract) to which the permission has already been granted."
          }
        }
      ],
      "Unauthorized(address,address,bytes32)": [
        {
          "params": {
            "permissionId": "The permission identifier.",
            "where": "The context in which the authorization reverted.",
            "who": "The address (EOA or contract) missing the permission."
          }
        }
      ],
      "UnknownCallback(bytes4,bytes4)": [
        {
          "params": {
            "callbackSelector": "The selector of the callback function.",
            "magicNumber": "The magic number to be registered for the callback function selector."
          }
        }
      ]
    },
    "events": {
      "NewURI(string)": {
        "params": {
          "daoURI": "The new uri."
        }
      }
    },
    "kind": "dev",
    "methods": {
      "applyMultiTargetPermissions((uint8,address,address,address,bytes32)[])": {
        "params": {
          "_items": "The array of multi-targeted permission operations to apply."
        }
      },
      "applySingleTargetPermissions(address,(uint8,address,bytes32)[])": {
        "params": {
          "_where": "The address of the single target contract.",
          "items": "The array of single-targeted permission operations to apply."
        }
      },
      "deposit(address,uint256,string)": {
        "params": {
          "_amount": "The amount of tokens to deposit.",
          "_reference": "The reference describing the deposit reason.",
          "_token": "The address of the token or address(0) in case of the native token."
        }
      },
      "execute(bytes32,(address,uint256,bytes)[],uint256)": {
        "params": {
          "_actions": "The array of actions.",
          "_allowFailureMap": "A bitmap allowing execution to succeed, even if individual actions might revert. If the bit at index `i` is 1, the execution succeeds even if the `i`th action reverts. A failure map value of 0 requires every action to not revert.",
          "_callId": "The ID of the call. The definition of the value of `callId` is up to the calling contract and can be used, e.g., as a nonce."
        },
        "returns": {
          "execResults": "The array of results obtained from the executed actions in `bytes`.",
          "failureMap": "The constructed failureMap which contains which actions have actually failed."
        }
      },
      "getTrustedForwarder()": {
        "returns": {
          "_0": "The trusted forwarder address."
        }
      },
      "grant(address,address,bytes32)": {
        "details": "Requires the `ROOT_PERMISSION_ID` permission.Note, that granting permissions with `_who` or `_where` equal to `ANY_ADDR` does not replace other permissions with specific `_who` and `_where` addresses that exist in parallel.",
        "params": {
          "_permissionId": "The permission identifier.",
          "_where": "The address of the target contract for which `_who` recieves permission.",
          "_who": "The address (EOA or contract) receiving the permission."
        }
      },
      "grantWithCondition(address,address,bytes32,address)": {
        "details": "Requires the `ROOT_PERMISSION_ID` permissionNote, that granting permissions with `_who` or `_where` equal to `ANY_ADDR` does not replace other permissions with specific `_who` and `_where` addresses that exist in parallel.",
        "params": {
          "_condition": "The `PermissionCondition` that will be asked for authorization on calls connected to the specified permission identifier.",
          "_permissionId": "The permission identifier.",
          "_where": "The address of the target contract for which `_who` recieves permission.",
          "_who": "The address (EOA or contract) receiving the permission."
        }
      },
      "hasPermission(address,address,bytes32,bytes)": {
        "params": {
          "_data": "The optional data passed to the `PermissionCondition` registered.",
          "_permissionId": "The permission identifier.",
          "_where": "The address of the contract.",
          "_who": "The address of a EOA or contract to give the permissions."
        },
        "returns": {
          "_0": "Returns true if the address has permission, false if not."
        }
      },
      "initialize(bytes,address,address,string)": {
        "details": "This method is required to support [ERC-1822](https://eips.ethereum.org/EIPS/eip-1822).",
        "params": {
          "_initialOwner": "The initial owner of the DAO having the `ROOT_PERMISSION_ID` permission.",
          "_metadata": "IPFS hash that points to all the metadata (logo, description, tags, etc.) of a DAO.",
          "_trustedForwarder": "The trusted forwarder responsible for verifying meta transactions."
        }
      },
      "isGranted(address,address,bytes32,bytes)": {
        "params": {
          "_data": "The optional data passed to the `PermissionCondition` registered.",
          "_permissionId": "The permission identifier.",
          "_where": "The address of the target contract for which `_who` recieves permission.",
          "_who": "The address (EOA or contract) for which the permission is checked."
        },
        "returns": {
          "_0": "Returns true if `_who` has the permissions on the target contract via the specified permission identifier."
        }
      },
      "isValidSignature(bytes32,bytes)": {
        "params": {
          "_hash": "The hash of the data to be signed.",
          "_signature": "The signature byte array associated with `_hash`."
        },
        "returns": {
          "_0": "Returns the `bytes4` magic value `0x1626ba7e` if the signature is valid."
        }
      },
      "proxiableUUID()": {
        "details": "Implementation of the ERC1822 {proxiableUUID} function. This returns the storage slot used by the implementation. It is used to validate the implementation's compatibility when performing an upgrade. IMPORTANT: A proxy pointing at a proxiable contract should not be considered proxiable itself, because this risks bricking a proxy that upgrades to it, by delegating to itself until out of gas. Thus it is critical that this function revert if invoked through a proxy. This is guaranteed by the `notDelegated` modifier."
      },
      "registerStandardCallback(bytes4,bytes4,bytes4)": {
        "params": {
          "_callbackSelector": "The selector of the callback function.",
          "_interfaceId": "The ID of the interface.",
          "_magicNumber": "The magic number to be registered for the function signature."
        }
      },
      "revoke(address,address,bytes32)": {
        "details": "Requires the `ROOT_PERMISSION_ID` permission.Note, that revoking permissions with `_who` or `_where` equal to `ANY_ADDR` does not revoke other permissions with specific `_who` and `_where` addresses that exist in parallel.",
        "params": {
          "_permissionId": "The permission identifier.",
          "_where": "The address of the target contract for which `_who` loses permission.",
          "_who": "The address (EOA or contract) losing the permission."
        }
      },
      "setDaoURI(string)": {
        "params": {
          "newDaoURI": "The new DAO uri to be set."
        }
      },
      "setMetadata(bytes)": {
        "params": {
          "_metadata": "The IPFS hash of the new metadata object."
        }
      },
      "setSignatureValidator(address)": {
        "params": {
          "_signatureValidator": "The address of the signature validator."
        }
      },
      "setTrustedForwarder(address)": {
        "params": {
          "_trustedForwarder": "The trusted forwarder address."
        }
      },
      "supportsInterface(bytes4)": {
        "details": "See {IERC165-supportsInterface}."
      },
      "upgradeTo(address)": {
        "details": "Upgrade the implementation of the proxy to `newImplementation`. Calls {_authorizeUpgrade}. Emits an {Upgraded} event."
      },
      "upgradeToAndCall(address,bytes)": {
        "details": "Upgrade the implementation of the proxy to `newImplementation`, and subsequently execute the function call encoded in `data`. Calls {_authorizeUpgrade}. Emits an {Upgraded} event."
      }
    },
    "title": "DAO",
    "version": 1
  },
  "userdoc": {
    "errors": {
      "ActionFailed(uint256)": [
        {
          "notice": "Thrown if action execution has failed."
        }
      ],
      "AnyAddressDisallowedForWhoAndWhere()": [
        {
          "notice": "Thrown for permission grants where `who` and `where` are both `ANY_ADDR`."
        }
      ],
      "ConditionNotPresentForAnyAddress()": [
        {
          "notice": "Thrown for permission grants where `who` or `where` is `ANY_ADDR`, but no condition is present."
        }
      ],
      "NativeTokenDepositAmountMismatch(uint256,uint256)": [
        {
          "notice": "Thrown if there is a mismatch between the expected and actually deposited amount of native tokens."
        }
      ],
      "PermissionAlreadyGrantedForDifferentCondition(address,address,bytes32,address,address)": [
        {
          "notice": "Thrown if a permission has been already granted with a different condition."
        }
      ],
      "PermissionsForAnyAddressDisallowed()": [
        {
          "notice": "Thrown for `ROOT_PERMISSION_ID` or `EXECUTE_PERMISSION_ID` permission grants where `who` or `where` is `ANY_ADDR`."
        }
      ],
      "TooManyActions()": [
        {
          "notice": "Thrown if the action array length is larger than `MAX_ACTIONS`."
        }
      ],
      "Unauthorized(address,address,bytes32)": [
        {
          "notice": "Thrown if a call is unauthorized."
        }
      ],
      "UnknownCallback(bytes4,bytes4)": [
        {
          "notice": "Thrown if the callback function is not registered."
        }
      ],
      "ZeroAmount()": [
        {
          "notice": "Thrown if the deposit amount is zero."
        }
      ]
    },
    "events": {
      "CallbackReceived(address,bytes4,bytes)": {
        "notice": "Emitted when `_handleCallback` is called."
      },
      "Deposited(address,address,uint256,string)": {
        "notice": "Emitted when a token deposit has been made to the DAO."
      },
      "Executed(address,bytes32,(address,uint256,bytes)[],uint256,bytes[])": {
        "notice": "Emitted when a proposal is executed."
      },
      "Granted(bytes32,address,address,address,address)": {
        "notice": "Emitted when a permission `permission` is granted in the context `here` to the address `_who` for the contract `_where`."
      },
      "MetadataSet(bytes)": {
        "notice": "Emitted when the DAO metadata is updated."
      },
      "NativeTokenDeposited(address,uint256)": {
        "notice": "Emitted when a native token deposit has been made to the DAO."
      },
      "NewURI(string)": {
        "notice": "Emitted when a new DAO uri is set."
      },
      "Revoked(bytes32,address,address,address)": {
        "notice": "Emitted when a permission `permission` is revoked in the context `here` from the address `_who` for the contract `_where`."
      },
      "SignatureValidatorSet(address)": {
        "notice": "Emitted when the signature validator address is updated."
      },
      "StandardCallbackRegistered(bytes4,bytes4,bytes4)": {
        "notice": "Emitted when a standard callback is registered."
      },
      "TrustedForwarderSet(address)": {
        "notice": "Emitted when a new TrustedForwarder is set on the DAO."
      }
    },
    "kind": "user",
    "methods": {
      "EXECUTE_PERMISSION_ID()": {
        "notice": "The ID of the permission required to call the `execute` function."
      },
      "REGISTER_STANDARD_CALLBACK_PERMISSION_ID()": {
        "notice": "The ID of the permission required to call the `registerStandardCallback` function."
      },
      "ROOT_PERMISSION_ID()": {
        "notice": "The ID of the permission required to call the `grant`, `grantWithCondition`, `revoke`, and `bulk` function."
      },
      "SET_METADATA_PERMISSION_ID()": {
        "notice": "The ID of the permission required to call the `setMetadata` function."
      },
      "SET_SIGNATURE_VALIDATOR_PERMISSION_ID()": {
        "notice": "The ID of the permission required to call the `setSignatureValidator` function."
      },
      "SET_TRUSTED_FORWARDER_PERMISSION_ID()": {
        "notice": "The ID of the permission required to call the `setTrustedForwarder` function."
      },
      "UPGRADE_DAO_PERMISSION_ID()": {
        "notice": "The ID of the permission required to call the `_authorizeUpgrade` function."
      },
      "applyMultiTargetPermissions((uint8,address,address,address,bytes32)[])": {
        "notice": "Applies an array of permission operations on multiple target contracts `items[i].where`."
      },
      "applySingleTargetPermissions(address,(uint8,address,bytes32)[])": {
        "notice": "Applies an array of permission operations on a single target contracts `_where`."
      },
      "constructor": {
        "notice": "Disables the initializers on the implementation contract to prevent it from being left uninitialized."
      },
      "daoURI()": {
        "notice": "A distinct Uniform Resource Identifier (URI) pointing to a JSON object following the \"ERC-4824 DAO JSON-LD Schema\". This JSON file splits into four URIs: membersURI, proposalsURI, activityLogURI, and governanceURI. The membersURI should point to a JSON file that conforms to the \"ERC-4824 Members JSON-LD Schema\". The proposalsURI should point to a JSON file that conforms to the \"ERC-4824 Proposals JSON-LD Schema\". The activityLogURI should point to a JSON file that conforms to the \"ERC-4824 Activity Log JSON-LD Schema\". The governanceURI should point to a flatfile, normatively a .md file. Each of the JSON files named above can be statically-hosted or dynamically-generated."
      },
      "deposit(address,uint256,string)": {
        "notice": "Deposits (native) tokens to the DAO contract with a reference string."
      },
      "execute(bytes32,(address,uint256,bytes)[],uint256)": {
        "notice": "Executes a list of actions. If no failure map is provided, one failing action results in the entire excution to be reverted. If a non-zero failure map is provided, allowed actions can fail without the remaining actions being reverted."
      },
      "getTrustedForwarder()": {
        "notice": "Getter for the trusted forwarder verifying the meta transaction."
      },
      "grant(address,address,bytes32)": {
        "notice": "Grants permission to an address to call methods in a contract guarded by an auth modifier with the specified permission identifier."
      },
      "grantWithCondition(address,address,bytes32,address)": {
        "notice": "Grants permission to an address to call methods in a target contract guarded by an auth modifier with the specified permission identifier if the referenced condition permits it."
      },
      "hasPermission(address,address,bytes32,bytes)": {
        "notice": "Checks if an address has permission on a contract via a permission identifier and considers if `ANY_ADDRESS` was used in the granting process."
      },
      "initialize(bytes,address,address,string)": {
        "notice": "Initializes the DAO by - registering the [ERC-165](https://eips.ethereum.org/EIPS/eip-165) interface ID - setting the trusted forwarder for meta transactions - giving the `ROOT_PERMISSION_ID` permission to the initial owner (that should be revoked and transferred to the DAO after setup)."
      },
      "isGranted(address,address,bytes32,bytes)": {
        "notice": "Checks if an address has permission on a contract via a permission identifier and considers if `ANY_ADDRESS` was used in the granting process."
      },
      "isValidSignature(bytes32,bytes)": {
        "notice": "Checks whether a signature is valid for the provided hash by forwarding the call to the set [ERC-1271](https://eips.ethereum.org/EIPS/eip-1271) signature validator contract."
      },
      "registerStandardCallback(bytes4,bytes4,bytes4)": {
        "notice": "Registers an ERC standard having a callback by registering its [ERC-165](https://eips.ethereum.org/EIPS/eip-165) interface ID and callback function signature."
      },
      "revoke(address,address,bytes32)": {
        "notice": "Revokes permission from an address to call methods in a target contract guarded by an auth modifier with the specified permission identifier."
      },
      "setDaoURI(string)": {
        "notice": "Updates the set DAO uri to a new value."
      },
      "setMetadata(bytes)": {
        "notice": "Updates the DAO metadata (e.g., an IPFS hash)."
      },
      "setSignatureValidator(address)": {
        "notice": "Setter for the [ERC-1271](https://eips.ethereum.org/EIPS/eip-1271) signature validator contract."
      },
      "setTrustedForwarder(address)": {
        "notice": "Setter for the trusted forwarder verifying the meta transaction."
      },
      "signatureValidator()": {
        "notice": "The [ERC-1271](https://eips.ethereum.org/EIPS/eip-1271) signature validator contract."
      }
    },
    "notice": "This contract contains the logic for a DAO",
    "version": 1
  },
  "storageLayout": {
    "storage": [
      {
        "astId": 473,
        "contract": "contracts/core/dao/DAO.sol:DAO",
        "label": "_initialized",
        "offset": 0,
        "slot": "0",
        "type": "t_uint8"
      },
      {
        "astId": 476,
        "contract": "contracts/core/dao/DAO.sol:DAO",
        "label": "_initializing",
        "offset": 1,
        "slot": "0",
        "type": "t_bool"
      },
      {
        "astId": 5880,
        "contract": "contracts/core/dao/DAO.sol:DAO",
        "label": "__gap",
        "offset": 0,
        "slot": "1",
        "type": "t_array(t_uint256)50_storage"
      },
      {
        "astId": 5792,
        "contract": "contracts/core/dao/DAO.sol:DAO",
        "label": "_supportedInterfaces",
        "offset": 0,
        "slot": "51",
        "type": "t_mapping(t_bytes4,t_bool)"
      },
      {
        "astId": 5836,
        "contract": "contracts/core/dao/DAO.sol:DAO",
        "label": "__gap",
        "offset": 0,
        "slot": "52",
        "type": "t_array(t_uint256)49_storage"
      },
      {
        "astId": 455,
        "contract": "contracts/core/dao/DAO.sol:DAO",
        "label": "__gap",
        "offset": 0,
        "slot": "101",
        "type": "t_array(t_uint256)50_storage"
      },
      {
        "astId": 770,
        "contract": "contracts/core/dao/DAO.sol:DAO",
        "label": "__gap",
        "offset": 0,
        "slot": "151",
        "type": "t_array(t_uint256)50_storage"
      },
      {
        "astId": 10588,
        "contract": "contracts/core/dao/DAO.sol:DAO",
        "label": "permissionsHashed",
        "offset": 0,
        "slot": "201",
        "type": "t_mapping(t_bytes32,t_address)"
      },
      {
        "astId": 11250,
        "contract": "contracts/core/dao/DAO.sol:DAO",
        "label": "__gap",
        "offset": 0,
        "slot": "202",
        "type": "t_array(t_uint256)49_storage"
      },
      {
        "astId": 11989,
        "contract": "contracts/core/dao/DAO.sol:DAO",
        "label": "callbackMagicNumbers",
        "offset": 0,
        "slot": "251",
        "type": "t_mapping(t_bytes4,t_bytes4)"
      },
      {
        "astId": 12068,
        "contract": "contracts/core/dao/DAO.sol:DAO",
        "label": "__gap",
        "offset": 0,
        "slot": "252",
        "type": "t_array(t_uint256)49_storage"
      },
      {
        "astId": 9692,
        "contract": "contracts/core/dao/DAO.sol:DAO",
        "label": "signatureValidator",
        "offset": 0,
        "slot": "301",
        "type": "t_contract(IERC1271)8313"
      },
      {
        "astId": 9695,
        "contract": "contracts/core/dao/DAO.sol:DAO",
        "label": "trustedForwarder",
        "offset": 0,
        "slot": "302",
        "type": "t_address"
      },
      {
        "astId": 9698,
        "contract": "contracts/core/dao/DAO.sol:DAO",
        "label": "_daoURI",
        "offset": 0,
        "slot": "303",
        "type": "t_string_storage"
      },
      {
        "astId": 10320,
        "contract": "contracts/core/dao/DAO.sol:DAO",
        "label": "__gap",
        "offset": 0,
        "slot": "304",
        "type": "t_array(t_uint256)47_storage"
      }
    ],
    "types": {
      "t_address": {
        "encoding": "inplace",
        "label": "address",
        "numberOfBytes": "20"
      },
      "t_array(t_uint256)47_storage": {
        "base": "t_uint256",
        "encoding": "inplace",
        "label": "uint256[47]",
        "numberOfBytes": "1504"
      },
      "t_array(t_uint256)49_storage": {
        "base": "t_uint256",
        "encoding": "inplace",
        "label": "uint256[49]",
        "numberOfBytes": "1568"
      },
      "t_array(t_uint256)50_storage": {
        "base": "t_uint256",
        "encoding": "inplace",
        "label": "uint256[50]",
        "numberOfBytes": "1600"
      },
      "t_bool": {
        "encoding": "inplace",
        "label": "bool",
        "numberOfBytes": "1"
      },
      "t_bytes32": {
        "encoding": "inplace",
        "label": "bytes32",
        "numberOfBytes": "32"
      },
      "t_bytes4": {
        "encoding": "inplace",
        "label": "bytes4",
        "numberOfBytes": "4"
      },
      "t_contract(IERC1271)8313": {
        "encoding": "inplace",
        "label": "contract IERC1271",
        "numberOfBytes": "20"
      },
      "t_mapping(t_bytes32,t_address)": {
        "encoding": "mapping",
        "key": "t_bytes32",
        "label": "mapping(bytes32 => address)",
        "numberOfBytes": "32",
        "value": "t_address"
      },
      "t_mapping(t_bytes4,t_bool)": {
        "encoding": "mapping",
        "key": "t_bytes4",
        "label": "mapping(bytes4 => bool)",
        "numberOfBytes": "32",
        "value": "t_bool"
      },
      "t_mapping(t_bytes4,t_bytes4)": {
        "encoding": "mapping",
        "key": "t_bytes4",
        "label": "mapping(bytes4 => bytes4)",
        "numberOfBytes": "32",
        "value": "t_bytes4"
      },
      "t_string_storage": {
        "encoding": "bytes",
        "label": "string",
        "numberOfBytes": "32"
      },
      "t_uint256": {
        "encoding": "inplace",
        "label": "uint256",
        "numberOfBytes": "32"
      },
      "t_uint8": {
        "encoding": "inplace",
        "label": "uint8",
        "numberOfBytes": "1"
      }
    }
  }
}