{
  "address": "0xe157B53D925991981E35EE59D140855a73E0192E",
  "abi": [
    {
      "inputs": [
        {
          "internalType": "contract DAORegistry",
          "name": "_registry",
          "type": "address"
        },
        {
          "internalType": "contract PluginSetupProcessor",
          "name": "_pluginSetupProcessor",
          "type": "address"
        }
      ],
      "stateMutability": "nonpayable",
      "type": "constructor"
    },
    {
      "inputs": [],
      "name": "NoPluginProvided",
      "type": "error"
    },
    {
      "inputs": [
        {
          "components": [
            {
              "internalType": "address",
              "name": "trustedForwarder",
              "type": "address"
            },
            {
              "internalType": "string",
              "name": "daoURI",
              "type": "string"
            },
            {
              "internalType": "bytes",
              "name": "metadata",
              "type": "bytes"
            }
          ],
          "internalType": "struct DAOFactory.DAOSettings",
          "name": "_daoSettings",
          "type": "tuple"
        },
        {
          "components": [
            {
              "components": [
                {
                  "components": [
                    {
                      "internalType": "uint8",
                      "name": "release",
                      "type": "uint8"
                    },
                    {
                      "internalType": "uint16",
                      "name": "build",
                      "type": "uint16"
                    }
                  ],
                  "internalType": "struct PluginRepo.Tag",
                  "name": "versionTag",
                  "type": "tuple"
                },
                {
                  "internalType": "contract PluginRepo",
                  "name": "pluginSetupRepo",
                  "type": "address"
                }
              ],
              "internalType": "struct PluginSetupRef",
              "name": "pluginSetupRef",
              "type": "tuple"
            },
            {
              "internalType": "bytes",
              "name": "data",
              "type": "bytes"
            }
          ],
          "internalType": "struct DAOFactory.PluginSettings[]",
          "name": "_pluginSettings",
          "type": "tuple[]"
        }
      ],
      "name": "createDao",
      "outputs": [
        {
          "internalType": "contract DAO",
          "name": "createdDao",
          "type": "address"
        }
      ],
      "stateMutability": "nonpayable",
      "type": "function"
    },
    {
      "inputs": [],
      "name": "daoBase",
      "outputs": [
        {
          "internalType": "address",
          "name": "",
          "type": "address"
        }
      ],
      "stateMutability": "view",
      "type": "function"
    },
    {
      "inputs": [],
      "name": "daoRegistry",
      "outputs": [
        {
          "internalType": "contract DAORegistry",
          "name": "",
          "type": "address"
        }
      ],
      "stateMutability": "view",
      "type": "function"
    },
    {
      "inputs": [],
      "name": "pluginSetupProcessor",
      "outputs": [
        {
          "internalType": "contract PluginSetupProcessor",
          "name": "",
          "type": "address"
        }
      ],
      "stateMutability": "view",
      "type": "function"
    }
  ],
  "transactionHash": "0xa9774f731d9aafa74cde2731da220e456b06b74758d0749e0b2d818fac400cd4",
  "args": [
    "0xb6F6F56a64D988ea5aCa94a48d910E050a3676A2",
    "0x8396e3CB87ea207C05667F0AeF5BaaF0346F1148"
  ],
  "numDeployments": 1,
  "solcInputHash": "b294b564d75006aa1d9258e1f58a05ae",
  "bytecode": "0x60e06040523480156200001157600080fd5b50604051620087ad380380620087ad8339818101604052810190620000379190620001d7565b8173ffffffffffffffffffffffffffffffffffffffff1660a08173ffffffffffffffffffffffffffffffffffffffff16815250508073ffffffffffffffffffffffffffffffffffffffff1660c08173ffffffffffffffffffffffffffffffffffffffff1681525050604051620000ad9062000106565b604051809103906000f080158015620000ca573d6000803e3d6000fd5b5073ffffffffffffffffffffffffffffffffffffffff1660808173ffffffffffffffffffffffffffffffffffffffff168152505050506200021e565b6154bb80620032f283390190565b600080fd5b600073ffffffffffffffffffffffffffffffffffffffff82169050919050565b6000620001468262000119565b9050919050565b60006200015a8262000139565b9050919050565b6200016c816200014d565b81146200017857600080fd5b50565b6000815190506200018c8162000161565b92915050565b60006200019f8262000139565b9050919050565b620001b18162000192565b8114620001bd57600080fd5b50565b600081519050620001d181620001a6565b92915050565b60008060408385031215620001f157620001f062000114565b5b600062000201858286016200017b565b92505060206200021485828601620001c0565b9150509250929050565b60805160a05160c0516130666200028c6000396000818161026e0152818161031f015281816103b10152818161043a015281816105b50152818161070b0152818161079d015261089001526000818160f501526101650152600081816108b401526108de01526130666000f3fe60806040523480156200001157600080fd5b5060043610620000525760003560e01c80632a2b6ba0146200005757806363d25a381462000079578063a9445d9b14620000af578063d9f8bd2314620000d1575b600080fd5b62000061620000f3565b60405162000070919062001117565b60405180910390f35b620000976004803603810190620000919190620011dd565b62000117565b604051620000a691906200129f565b60405180910390f35b620000b96200088e565b604051620000c89190620012e1565b60405180910390f35b620000db620008b2565b604051620000ea919062001323565b60405180910390f35b7f000000000000000000000000000000000000000000000000000000000000000081565b600080838390500362000156576040517f8aec24df00000000000000000000000000000000000000000000000000000000815260040160405180910390fd5b6200016184620008d6565b90507f000000000000000000000000000000000000000000000000000000000000000073ffffffffffffffffffffffffffffffffffffffff1663aa67735482336040518363ffffffff1660e01b8152600401620001c092919062001365565b600060405180830381600087803b158015620001db57600080fd5b505af1158015620001f0573d6000803e3d6000fd5b5050505060008173ffffffffffffffffffffffffffffffffffffffff166309e56b146040518163ffffffff1660e01b8152600401602060405180830381865afa15801562000242573d6000803e3d6000fd5b505050506040513d601f19601f82011682018060405250810190620002689190620013cd565b905060007f000000000000000000000000000000000000000000000000000000000000000073ffffffffffffffffffffffffffffffffffffffff1663747e5ec16040518163ffffffff1660e01b8152600401602060405180830381865afa158015620002d8573d6000803e3d6000fd5b505050506040513d601f19601f82011682018060405250810190620002fe9190620013cd565b90508273ffffffffffffffffffffffffffffffffffffffff1663d68bad2c847f0000000000000000000000000000000000000000000000000000000000000000856040518463ffffffff1660e01b81526004016200035f9392919062001410565b600060405180830381600087803b1580156200037a57600080fd5b505af11580156200038f573d6000803e3d6000fd5b505050508273ffffffffffffffffffffffffffffffffffffffff1663d68bad2c7f000000000000000000000000000000000000000000000000000000000000000030846040518463ffffffff1660e01b8152600401620003f29392919062001410565b600060405180830381600087803b1580156200040d57600080fd5b505af115801562000422573d6000803e3d6000fd5b5050505060005b85859050811015620006e0576000807f000000000000000000000000000000000000000000000000000000000000000073ffffffffffffffffffffffffffffffffffffffff16633c8c01d18760405180604001604052808c8c898181106200049657620004956200144d565b5b9050602002810190620004aa91906200148b565b600001803603810190620004bf9190620016c9565b81526020018c8c89818110620004da57620004d96200144d565b5b9050602002810190620004ee91906200148b565b8060600190620004ff9190620016fb565b8080601f016020809104026020016040519081016040528093929190818152602001838380828437600081840152601f19601f820116905080830192505050505050508152506040518363ffffffff1660e01b815260040162000564929190620018de565b6000604051808303816000875af115801562000584573d6000803e3d6000fd5b505050506040513d6000823e3d601f19601f82011682018060405250810190620005af919062001c49565b915091507f000000000000000000000000000000000000000000000000000000000000000073ffffffffffffffffffffffffffffffffffffffff1663fe6c34748760405180608001604052808c8c898181106200061157620006106200144d565b5b90506020028101906200062591906200148b565b6000018036038101906200063a9190620016c9565b81526020018673ffffffffffffffffffffffffffffffffffffffff16815260200185602001518152602001620006748660000151620009c7565b8152506040518363ffffffff1660e01b81526004016200069692919062001eeb565b600060405180830381600087803b158015620006b157600080fd5b505af1158015620006c6573d6000803e3d6000fd5b50505050505080620006d89062001f58565b905062000429565b50620006ec83620009f9565b8273ffffffffffffffffffffffffffffffffffffffff1663d96054c4847f0000000000000000000000000000000000000000000000000000000000000000856040518463ffffffff1660e01b81526004016200074b9392919062001410565b600060405180830381600087803b1580156200076657600080fd5b505af11580156200077b573d6000803e3d6000fd5b505050508273ffffffffffffffffffffffffffffffffffffffff1663d96054c47f000000000000000000000000000000000000000000000000000000000000000030846040518463ffffffff1660e01b8152600401620007de9392919062001410565b600060405180830381600087803b158015620007f957600080fd5b505af11580156200080e573d6000803e3d6000fd5b505050508273ffffffffffffffffffffffffffffffffffffffff1663d96054c48430856040518463ffffffff1660e01b8152600401620008519392919062001410565b600060405180830381600087803b1580156200086c57600080fd5b505af115801562000881573d6000803e3d6000fd5b5050505050509392505050565b7f000000000000000000000000000000000000000000000000000000000000000081565b7f000000000000000000000000000000000000000000000000000000000000000081565b6000620009137f00000000000000000000000000000000000000000000000000000000000000006040518060200160405280600081525062000fea565b90508073ffffffffffffffffffffffffffffffffffffffff1663eafb8b06838060400190620009439190620016fb565b3086600001602081019062000959919062001fbc565b8780602001906200096b919062001fee565b6040518763ffffffff1660e01b81526004016200098e96959493929190620020f1565b600060405180830381600087803b158015620009a957600080fd5b505af1158015620009be573d6000803e3d6000fd5b50505050919050565b600081604051602001620009dc91906200220d565b604051602081830303815290604052805190602001209050919050565b6000600667ffffffffffffffff81111562000a195762000a18620014cc565b5b60405190808252806020026020018201604052801562000a5657816020015b62000a426200102f565b81526020019060019003908162000a385790505b50905060405180606001604052806000600281111562000a7b5762000a7a62001cec565b5b81526020018373ffffffffffffffffffffffffffffffffffffffff1681526020018373ffffffffffffffffffffffffffffffffffffffff166309e56b146040518163ffffffff1660e01b8152600401602060405180830381865afa15801562000ae8573d6000803e3d6000fd5b505050506040513d601f19601f8201168201806040525081019062000b0e9190620013cd565b8152508160008151811062000b285762000b276200144d565b5b602002602001018190525060405180606001604052806000600281111562000b555762000b5462001cec565b5b81526020018373ffffffffffffffffffffffffffffffffffffffff1681526020018373ffffffffffffffffffffffffffffffffffffffff166324b4d73f6040518163ffffffff1660e01b8152600401602060405180830381865afa15801562000bc2573d6000803e3d6000fd5b505050506040513d601f19601f8201168201806040525081019062000be89190620013cd565b8152508160018151811062000c025762000c016200144d565b5b602002602001018190525060405180606001604052806000600281111562000c2f5762000c2e62001cec565b5b81526020018373ffffffffffffffffffffffffffffffffffffffff1681526020018373ffffffffffffffffffffffffffffffffffffffff1663e2e355636040518163ffffffff1660e01b8152600401602060405180830381865afa15801562000c9c573d6000803e3d6000fd5b505050506040513d601f19601f8201168201806040525081019062000cc29190620013cd565b8152508160028151811062000cdc5762000cdb6200144d565b5b602002602001018190525060405180606001604052806000600281111562000d095762000d0862001cec565b5b81526020018373ffffffffffffffffffffffffffffffffffffffff1681526020018373ffffffffffffffffffffffffffffffffffffffff1663829331a16040518163ffffffff1660e01b8152600401602060405180830381865afa15801562000d76573d6000803e3d6000fd5b505050506040513d601f19601f8201168201806040525081019062000d9c9190620013cd565b8152508160038151811062000db65762000db56200144d565b5b602002602001018190525060405180606001604052806000600281111562000de35762000de262001cec565b5b81526020018373ffffffffffffffffffffffffffffffffffffffff1681526020018373ffffffffffffffffffffffffffffffffffffffff1663e306bee76040518163ffffffff1660e01b8152600401602060405180830381865afa15801562000e50573d6000803e3d6000fd5b505050506040513d601f19601f8201168201806040525081019062000e769190620013cd565b8152508160048151811062000e905762000e8f6200144d565b5b602002602001018190525060405180606001604052806000600281111562000ebd5762000ebc62001cec565b5b81526020018373ffffffffffffffffffffffffffffffffffffffff1681526020018373ffffffffffffffffffffffffffffffffffffffff166326875b1f6040518163ffffffff1660e01b8152600401602060405180830381865afa15801562000f2a573d6000803e3d6000fd5b505050506040513d601f19601f8201168201806040525081019062000f509190620013cd565b8152508160058151811062000f6a5762000f696200144d565b5b60200260200101819052508173ffffffffffffffffffffffffffffffffffffffff166322844d0483836040518363ffffffff1660e01b815260040162000fb292919062002336565b600060405180830381600087803b15801562000fcd57600080fd5b505af115801562000fe2573d6000803e3d6000fd5b505050505050565b6000828260405162000ffc906200107e565b62001009929190620023ab565b604051809103906000f08015801562001026573d6000803e3d6000fd5b50905092915050565b60405180606001604052806000600281111562001051576200105062001cec565b5b8152602001600073ffffffffffffffffffffffffffffffffffffffff168152602001600080191681525090565b610c5180620023e083390190565b600073ffffffffffffffffffffffffffffffffffffffff82169050919050565b6000819050919050565b6000620010d7620010d1620010cb846200108c565b620010ac565b6200108c565b9050919050565b6000620010eb82620010b6565b9050919050565b6000620010ff82620010de565b9050919050565b6200111181620010f2565b82525050565b60006020820190506200112e600083018462001106565b92915050565b6000604051905090565b600080fd5b600080fd5b600080fd5b60006060828403121562001166576200116562001148565b5b81905092915050565b600080fd5b600080fd5b600080fd5b60008083601f8401126200119757620011966200116f565b5b8235905067ffffffffffffffff811115620011b757620011b662001174565b5b602083019150836020820283011115620011d657620011d562001179565b5b9250929050565b600080600060408486031215620011f957620011f86200113e565b5b600084013567ffffffffffffffff8111156200121a576200121962001143565b5b62001228868287016200114d565b935050602084013567ffffffffffffffff8111156200124c576200124b62001143565b5b6200125a868287016200117e565b92509250509250925092565b60006200127382620010b6565b9050919050565b6000620012878262001266565b9050919050565b62001299816200127a565b82525050565b6000602082019050620012b660008301846200128e565b92915050565b6000620012c982620010de565b9050919050565b620012db81620012bc565b82525050565b6000602082019050620012f86000830184620012d0565b92915050565b60006200130b826200108c565b9050919050565b6200131d81620012fe565b82525050565b60006020820190506200133a600083018462001312565b92915050565b60006200134d82620010de565b9050919050565b6200135f8162001340565b82525050565b60006040820190506200137c600083018562001354565b6200138b602083018462001312565b9392505050565b6000819050919050565b620013a78162001392565b8114620013b357600080fd5b50565b600081519050620013c7816200139c565b92915050565b600060208284031215620013e657620013e56200113e565b5b6000620013f684828501620013b6565b91505092915050565b6200140a8162001392565b82525050565b600060608201905062001427600083018662001312565b62001436602083018562001312565b620014456040830184620013ff565b949350505050565b7f4e487b7100000000000000000000000000000000000000000000000000000000600052603260045260246000fd5b600080fd5b600080fd5b600080fd5b600082356001608003833603038112620014aa57620014a96200147c565b5b80830191505092915050565b600080fd5b6000601f19601f8301169050919050565b7f4e487b7100000000000000000000000000000000000000000000000000000000600052604160045260246000fd5b6200150682620014bb565b810181811067ffffffffffffffff82111715620015285762001527620014cc565b5b80604052505050565b60006200153d62001134565b90506200154b8282620014fb565b919050565b600080fd5b600060ff82169050919050565b6200156d8162001555565b81146200157957600080fd5b50565b6000813590506200158d8162001562565b92915050565b600061ffff82169050919050565b620015ac8162001593565b8114620015b857600080fd5b50565b600081359050620015cc81620015a1565b92915050565b600060408284031215620015eb57620015ea620014b6565b5b620015f7604062001531565b9050600062001609848285016200157c565b60008301525060206200161f84828501620015bb565b60208301525092915050565b60006200163882620012fe565b9050919050565b6200164a816200162b565b81146200165657600080fd5b50565b6000813590506200166a816200163f565b92915050565b600060608284031215620016895762001688620014b6565b5b62001695604062001531565b90506000620016a784828501620015d2565b6000830152506040620016bd8482850162001659565b60208301525092915050565b600060608284031215620016e257620016e16200113e565b5b6000620016f28482850162001670565b91505092915050565b600080833560016020038436030381126200171b576200171a6200147c565b5b80840192508235915067ffffffffffffffff82111562001740576200173f62001481565b5b6020830192506001820236038313156200175f576200175e62001486565b5b509250929050565b620017728162001555565b82525050565b620017838162001593565b82525050565b604082016000820151620017a1600085018262001767565b506020820151620017b6602085018262001778565b50505050565b6000620017c982620010de565b9050919050565b620017db81620017bc565b82525050565b606082016000820151620017f9600085018262001789565b5060208201516200180e6040850182620017d0565b50505050565b600081519050919050565b600082825260208201905092915050565b60005b838110156200185057808201518184015260208101905062001833565b60008484015250505050565b6000620018698262001814565b6200187581856200181f565b93506200188781856020860162001830565b6200189281620014bb565b840191505092915050565b6000608083016000830151620018b76000860182620017e1565b5060208301518482036060860152620018d182826200185c565b9150508091505092915050565b6000604082019050620018f5600083018562001312565b81810360208301526200190981846200189d565b90509392505050565b6200191d81620012fe565b81146200192957600080fd5b50565b6000815190506200193d8162001912565b92915050565b600067ffffffffffffffff821115620019615762001960620014cc565b5b602082029050602081019050919050565b600062001989620019838462001943565b62001531565b90508083825260208201905060208402830185811115620019af57620019ae62001179565b5b835b81811015620019dc5780620019c788826200192c565b845260208401935050602081019050620019b1565b5050509392505050565b600082601f830112620019fe57620019fd6200116f565b5b815162001a1084826020860162001972565b91505092915050565b600067ffffffffffffffff82111562001a375762001a36620014cc565b5b602082029050602081019050919050565b6003811062001a5657600080fd5b50565b60008151905062001a6a8162001a48565b92915050565b600060a0828403121562001a895762001a88620014b6565b5b62001a9560a062001531565b9050600062001aa78482850162001a59565b600083015250602062001abd848285016200192c565b602083015250604062001ad3848285016200192c565b604083015250606062001ae9848285016200192c565b606083015250608062001aff84828501620013b6565b60808301525092915050565b600062001b2262001b1c8462001a19565b62001531565b90508083825260208201905060a0840283018581111562001b485762001b4762001179565b5b835b8181101562001b75578062001b60888262001a70565b84526020840193505060a08101905062001b4a565b5050509392505050565b600082601f83011262001b975762001b966200116f565b5b815162001ba984826020860162001b0b565b91505092915050565b60006040828403121562001bcb5762001bca620014b6565b5b62001bd7604062001531565b9050600082015167ffffffffffffffff81111562001bfa5762001bf962001550565b5b62001c0884828501620019e6565b600083015250602082015167ffffffffffffffff81111562001c2f5762001c2e62001550565b5b62001c3d8482850162001b7f565b60208301525092915050565b6000806040838503121562001c635762001c626200113e565b5b600062001c73858286016200192c565b925050602083015167ffffffffffffffff81111562001c975762001c9662001143565b5b62001ca58582860162001bb2565b9150509250929050565b62001cba81620012fe565b82525050565b600081519050919050565b600082825260208201905092915050565b6000819050602082019050919050565b7f4e487b7100000000000000000000000000000000000000000000000000000000600052602160045260246000fd5b6003811062001d2f5762001d2e62001cec565b5b50565b600081905062001d428262001d1b565b919050565b600062001d548262001d32565b9050919050565b62001d668162001d47565b82525050565b62001d778162001392565b82525050565b60a08201600082015162001d95600085018262001d5b565b50602082015162001daa602085018262001caf565b50604082015162001dbf604085018262001caf565b50606082015162001dd4606085018262001caf565b50608082015162001de9608085018262001d6c565b50505050565b600062001dfd838362001d7d565b60a08301905092915050565b6000602082019050919050565b600062001e238262001cc0565b62001e2f818562001ccb565b935062001e3c8362001cdc565b8060005b8381101562001e7357815162001e57888262001def565b975062001e648362001e09565b92505060018101905062001e40565b5085935050505092915050565b600060c08301600083015162001e9a6000860182620017e1565b50602083015162001eaf606086018262001caf565b506040830151848203608086015262001ec9828262001e16565b915050606083015162001ee060a086018262001d6c565b508091505092915050565b600060408201905062001f02600083018562001312565b818103602083015262001f16818462001e80565b90509392505050565b7f4e487b7100000000000000000000000000000000000000000000000000000000600052601160045260246000fd5b6000819050919050565b600062001f658262001f4e565b91507fffffffffffffffffffffffffffffffffffffffffffffffffffffffffffffffff820362001f9a5762001f9962001f1f565b5b600182019050919050565b60008135905062001fb68162001912565b92915050565b60006020828403121562001fd55762001fd46200113e565b5b600062001fe58482850162001fa5565b91505092915050565b600080833560016020038436030381126200200e576200200d6200147c565b5b80840192508235915067ffffffffffffffff82111562002033576200203262001481565b5b60208301925060018202360383131562002052576200205162001486565b5b509250929050565b600082825260208201905092915050565b82818337600083830152505050565b60006200208883856200205a565b9350620020978385846200206b565b620020a283620014bb565b840190509392505050565b600082825260208201905092915050565b6000620020cc8385620020ad565b9350620020db8385846200206b565b620020e683620014bb565b840190509392505050565b600060808201905081810360008301526200210e81888a6200207a565b90506200211f602083018762001312565b6200212e604083018662001312565b818103606083015262002143818486620020be565b9050979650505050505050565b600081519050919050565b600082825260208201905092915050565b6000819050602082019050919050565b60006200218a838362001caf565b60208301905092915050565b6000602082019050919050565b6000620021b08262002150565b620021bc81856200215b565b9350620021c9836200216c565b8060005b8381101562002200578151620021e488826200217c565b9750620021f18362002196565b925050600181019050620021cd565b5085935050505092915050565b60006020820190508181036000830152620022298184620021a3565b905092915050565b600081519050919050565b600082825260208201905092915050565b6000819050602082019050919050565b60608201600082015162002275600085018262001d5b565b5060208201516200228a602085018262001caf565b5060408201516200229f604085018262001d6c565b50505050565b6000620022b383836200225d565b60608301905092915050565b6000602082019050919050565b6000620022d98262002231565b620022e581856200223c565b9350620022f2836200224d565b8060005b83811015620023295781516200230d8882620022a5565b97506200231a83620022bf565b925050600181019050620022f6565b5085935050505092915050565b60006040820190506200234d600083018562001312565b8181036020830152620023618184620022cc565b90509392505050565b6000620023778262001814565b6200238381856200205a565b93506200239581856020860162001830565b620023a081620014bb565b840191505092915050565b6000604082019050620023c2600083018562001312565b8181036020830152620023d681846200236a565b9050939250505056fe608060405260405162000c5138038062000c51833981810160405281019062000029919062000580565b6200003d828260006200004560201b60201c565b5050620007d7565b62000056836200008860201b60201c565b600082511180620000645750805b156200008357620000818383620000df60201b620000371760201c565b505b505050565b62000099816200011560201b60201c565b8073ffffffffffffffffffffffffffffffffffffffff167fbc7cd75a20ee27fd9adebab32041f755214dbc6bffa90cc0225b39da2e5c2d3b60405160405180910390a250565b60606200010d838360405180606001604052806027815260200162000c2a60279139620001eb60201b60201c565b905092915050565b6200012b816200027d60201b620000641760201c565b6200016d576040517f08c379a000000000000000000000000000000000000000000000000000000000815260040162000164906200066d565b60405180910390fd5b80620001a77f360894a13ba1a3210667c828492db98dca3e2076cc3735a920a3ca505d382bbc60001b620002a060201b620000871760201c565b60000160006101000a81548173ffffffffffffffffffffffffffffffffffffffff021916908373ffffffffffffffffffffffffffffffffffffffff16021790555050565b60606000808573ffffffffffffffffffffffffffffffffffffffff1685604051620002179190620006dc565b600060405180830381855af49150503d806000811462000254576040519150601f19603f3d011682016040523d82523d6000602084013e62000259565b606091505b50915091506200027286838387620002aa60201b60201c565b925050509392505050565b6000808273ffffffffffffffffffffffffffffffffffffffff163b119050919050565b6000819050919050565b606083156200031a5760008351036200031157620002ce856200027d60201b60201c565b62000310576040517f08c379a0000000000000000000000000000000000000000000000000000000008152600401620003079062000745565b60405180910390fd5b5b8290506200032d565b6200032c83836200033560201b60201c565b5b949350505050565b600082511115620003495781518083602001fd5b806040517f08c379a00000000000000000000000000000000000000000000000000000000081526004016200037f9190620007b3565b60405180910390fd5b6000604051905090565b600080fd5b600080fd5b600073ffffffffffffffffffffffffffffffffffffffff82169050919050565b6000620003c9826200039c565b9050919050565b620003db81620003bc565b8114620003e757600080fd5b50565b600081519050620003fb81620003d0565b92915050565b600080fd5b600080fd5b6000601f19601f8301169050919050565b7f4e487b7100000000000000000000000000000000000000000000000000000000600052604160045260246000fd5b62000456826200040b565b810181811067ffffffffffffffff821117156200047857620004776200041c565b5b80604052505050565b60006200048d62000388565b90506200049b82826200044b565b919050565b600067ffffffffffffffff821115620004be57620004bd6200041c565b5b620004c9826200040b565b9050602081019050919050565b60005b83811015620004f6578082015181840152602081019050620004d9565b60008484015250505050565b6000620005196200051384620004a0565b62000481565b90508281526020810184848401111562000538576200053762000406565b5b62000545848285620004d6565b509392505050565b600082601f83011262000565576200056462000401565b5b81516200057784826020860162000502565b91505092915050565b600080604083850312156200059a576200059962000392565b5b6000620005aa85828601620003ea565b925050602083015167ffffffffffffffff811115620005ce57620005cd62000397565b5b620005dc858286016200054d565b9150509250929050565b600082825260208201905092915050565b7f455243313936373a206e657720696d706c656d656e746174696f6e206973206e60008201527f6f74206120636f6e747261637400000000000000000000000000000000000000602082015250565b600062000655602d83620005e6565b91506200066282620005f7565b604082019050919050565b60006020820190508181036000830152620006888162000646565b9050919050565b600081519050919050565b600081905092915050565b6000620006b2826200068f565b620006be81856200069a565b9350620006d0818560208601620004d6565b80840191505092915050565b6000620006ea8284620006a5565b915081905092915050565b7f416464726573733a2063616c6c20746f206e6f6e2d636f6e7472616374000000600082015250565b60006200072d601d83620005e6565b91506200073a82620006f5565b602082019050919050565b6000602082019050818103600083015262000760816200071e565b9050919050565b600081519050919050565b60006200077f8262000767565b6200078b8185620005e6565b93506200079d818560208601620004d6565b620007a8816200040b565b840191505092915050565b60006020820190508181036000830152620007cf818462000772565b905092915050565b61044380620007e76000396000f3fe6080604052366100135761001161001d565b005b61001b61001d565b005b610025610091565b610035610030610093565b6100a2565b565b606061005c83836040518060600160405280602781526020016103e7602791396100c8565b905092915050565b6000808273ffffffffffffffffffffffffffffffffffffffff163b119050919050565b6000819050919050565b565b600061009d61014e565b905090565b3660008037600080366000845af43d6000803e80600081146100c3573d6000f35b3d6000fd5b60606000808573ffffffffffffffffffffffffffffffffffffffff16856040516100f291906102db565b600060405180830381855af49150503d806000811461012d576040519150601f19603f3d011682016040523d82523d6000602084013e610132565b606091505b5091509150610143868383876101a5565b925050509392505050565b600061017c7f360894a13ba1a3210667c828492db98dca3e2076cc3735a920a3ca505d382bbc60001b610087565b60000160009054906101000a900473ffffffffffffffffffffffffffffffffffffffff16905090565b606083156102075760008351036101ff576101bf85610064565b6101fe576040517f08c379a00000000000000000000000000000000000000000000000000000000081526004016101f59061034f565b60405180910390fd5b5b829050610212565b610211838361021a565b5b949350505050565b60008251111561022d5781518083602001fd5b806040517f08c379a000000000000000000000000000000000000000000000000000000000815260040161026191906103c4565b60405180910390fd5b600081519050919050565b600081905092915050565b60005b8381101561029e578082015181840152602081019050610283565b60008484015250505050565b60006102b58261026a565b6102bf8185610275565b93506102cf818560208601610280565b80840191505092915050565b60006102e782846102aa565b915081905092915050565b600082825260208201905092915050565b7f416464726573733a2063616c6c20746f206e6f6e2d636f6e7472616374000000600082015250565b6000610339601d836102f2565b915061034482610303565b602082019050919050565b600060208201905081810360008301526103688161032c565b9050919050565b600081519050919050565b6000601f19601f8301169050919050565b60006103968261036f565b6103a081856102f2565b93506103b0818560208601610280565b6103b98161037a565b840191505092915050565b600060208201905081810360008301526103de818461038b565b90509291505056fe416464726573733a206c6f772d6c6576656c2064656c65676174652063616c6c206661696c6564a2646970667358221220d7c51eae9d52e7ae8a67059446a6cb47ecf507c5f20d13ab7a7f05707d9806e064736f6c63430008110033416464726573733a206c6f772d6c6576656c2064656c65676174652063616c6c206661696c6564a2646970667358221220831aa352dfdc5377c00034e6db260c5065a7225803061658213c1cbd43c9696264736f6c6343000811003360a06040523073ffffffffffffffffffffffffffffffffffffffff1660809073ffffffffffffffffffffffffffffffffffffffff168152503480156200004457600080fd5b50620000556200005b60201b60201c565b62000206565b600060019054906101000a900460ff1615620000ae576040517f08c379a0000000000000000000000000000000000000000000000000000000008152600401620000a590620001a9565b60405180910390fd5b60ff801660008054906101000a900460ff1660ff161015620001205760ff6000806101000a81548160ff021916908360ff1602179055507f7f26b83ff96e1f2b6a682f133852f6798a09c465da95921460cefb384740249860ff604051620001179190620001e9565b60405180910390a15b565b600082825260208201905092915050565b7f496e697469616c697a61626c653a20636f6e747261637420697320696e69746960008201527f616c697a696e6700000000000000000000000000000000000000000000000000602082015250565b60006200019160278362000122565b91506200019e8262000133565b604082019050919050565b60006020820190508181036000830152620001c48162000182565b9050919050565b600060ff82169050919050565b620001e381620001cb565b82525050565b6000602082019050620002006000830184620001d8565b92915050565b60805161527d6200023e60003960008181610cff01528181610d8d01528181610f5501528181610fe30152611093015261527d6000f3fe6080604052600436106101d15760003560e01c8063829331a1116100f7578063d96054c411610095578063e978afe511610064578063e978afe51461073e578063eafb8b0614610767578063ee57e36f14610790578063fdef9106146107b957610211565b8063d96054c414610696578063da742228146106bf578063e2e35563146106e8578063e306bee71461071357610211565b8063c71bf324116100d1578063c71bf324146105db578063c9dbc2a414610619578063ce1b815f14610642578063d68bad2c1461066d57610211565b8063829331a11461056b578063bfe07da614610596578063c4a50145146105b257610211565b80632675fdd01161016f5780633e2ab0d91161013e5780633e2ab0d9146104d05780634f1ef286146104f957806352d1902d146105155780637034731b1461054057610211565b80632675fdd01461041457806326875b1f146104515780633659cfe61461047c578063388da934146104a557610211565b80631080f99b116101ab5780631080f99b1461035a5780631626ba7e1461038357806322844d04146103c057806324b4d73f146103e957610211565b806301ffc9a7146102c75780630729d0541461030457806309e56b141461032f57610211565b36610211577f62c2c8e34665db7c56b2cabd7f5fb9702ccd352ffa8150147e450797e9f8e8f33334604051610207929190612fa3565b60405180910390a1005b34801561021d57600080fd5b50600036606060006102976000357fffffffff000000000000000000000000000000000000000000000000000000001685858080601f016020809104026020016040519081016040528093929190818152602001838380828437600081840152601f19601f820116905080830192505050505050506107f6565b9050806040516020016102aa9190613007565b604051602081830303815290604052915050915050805190602001f35b3480156102d357600080fd5b506102ee60048036038101906102e99190613062565b610945565b6040516102fb91906130aa565b60405180910390f35b34801561031057600080fd5b506103196109bd565b60405161032691906130de565b60405180910390f35b34801561033b57600080fd5b506103446109e1565b60405161035191906130de565b60405180910390f35b34801561036657600080fd5b50610381600480360381019061037c919061315e565b610a05565b005b34801561038f57600080fd5b506103aa60048036038101906103a59190613318565b610a3e565b6040516103b79190613007565b60405180910390f35b3480156103cc57600080fd5b506103e760048036038101906103e291906133f6565b610b4a565b005b3480156103f557600080fd5b506103fe610c4f565b60405161040b91906130de565b60405180910390f35b34801561042057600080fd5b5061043b60048036038101906104369190613456565b610c73565b60405161044891906130aa565b60405180910390f35b34801561045d57600080fd5b50610466610cd9565b60405161047391906130de565b60405180910390f35b34801561048857600080fd5b506104a3600480360381019061049e91906134d9565b610cfd565b005b3480156104b157600080fd5b506104ba610e85565b6040516104c79190613565565b60405180910390f35b3480156104dc57600080fd5b506104f760048036038101906104f291906134d9565b610eac565b005b610513600480360381019061050e9190613580565b610f53565b005b34801561052157600080fd5b5061052a61108f565b60405161053791906130de565b60405180910390f35b34801561054c57600080fd5b50610555611148565b604051610562919061365b565b60405180910390f35b34801561057757600080fd5b506105806111db565b60405161058d91906130de565b60405180910390f35b6105b060048036038101906105ab91906136a9565b6111ff565b005b3480156105be57600080fd5b506105d960048036038101906105d4919061371d565b61139d565b005b3480156105e757600080fd5b5061060260048036038101906105fd91906137c6565b61141b565b604051610610929190613951565b60405180910390f35b34801561062557600080fd5b50610640600480360381019061063b91906139bf565b6116db565b005b34801561064e57600080fd5b50610657611718565b6040516106649190613a26565b60405180910390f35b34801561067957600080fd5b50610694600480360381019061068f9190613a41565b611743565b005b3480156106a257600080fd5b506106bd60048036038101906106b89190613a41565b61177e565b005b3480156106cb57600080fd5b506106e660048036038101906106e191906134d9565b6117b9565b005b3480156106f457600080fd5b506106fd6117f0565b60405161070a91906130de565b60405180910390f35b34801561071f57600080fd5b50610728611814565b60405161073591906130de565b60405180910390f35b34801561074a57600080fd5b5061076560048036038101906107609190613aea565b611838565b005b34801561077357600080fd5b5061078e60048036038101906107899190613b8d565b611995565b005b34801561079c57600080fd5b506107b760048036038101906107b29190613c34565b611b7a565b005b3480156107c557600080fd5b506107e060048036038101906107db9190613456565b611bb3565b6040516107ed91906130aa565b60405180910390f35b60008060fb6000857bffffffffffffffffffffffffffffffffffffffffffffffffffffffff19167bffffffffffffffffffffffffffffffffffffffffffffffffffffffff1916815260200190815260200160002060009054906101000a900460e01b9050600060e01b7bffffffffffffffffffffffffffffffffffffffffffffffffffffffff1916817bffffffffffffffffffffffffffffffffffffffffffffffffffffffff1916036108e25783816040517f4aa318c30000000000000000000000000000000000000000000000000000000081526004016108d9929190613c81565b60405180910390fd5b837bffffffffffffffffffffffffffffffffffffffffffffffffffffffff19167f4792cb6e46e49876374bea490ba23274bacea6b84c216a64f47abab54027589b3385604051610933929190613cf4565b60405180910390a28091505092915050565b600061095082611bcb565b806109b6575060336000837bffffffffffffffffffffffffffffffffffffffffffffffffffffffff19167bffffffffffffffffffffffffffffffffffffffffffffffffffffffff1916815260200190815260200160002060009054906101000a900460ff165b9050919050565b7fbf04b4486c9663d805744005c3da000eda93de6e3308a4a7a812eb565327b78d81565b7f815fe80e4b37c8582a3b773d1d7071f983eacfd56b5965db654f3087c25ada3381565b7f4707e94b25cfce1a7c363508fbb838c35864388ad77284b248282b9746982b9b610a2f81611c35565b610a398383611cce565b505050565b60008073ffffffffffffffffffffffffffffffffffffffff1661012d60009054906101000a900473ffffffffffffffffffffffffffffffffffffffff1673ffffffffffffffffffffffffffffffffffffffff1603610aa257600060e01b9050610b44565b61012d60009054906101000a900473ffffffffffffffffffffffffffffffffffffffff1673ffffffffffffffffffffffffffffffffffffffff16631626ba7e84846040518363ffffffff1660e01b8152600401610b00929190613d24565b602060405180830381865afa158015610b1d573d6000803e3d6000fd5b505050506040513d601f19601f82011682018060405250810190610b419190613d69565b90505b92915050565b7f815fe80e4b37c8582a3b773d1d7071f983eacfd56b5965db654f3087c25ada33610b7481611c35565b60005b83839050811015610c48576000848483818110610b9757610b96613d96565b5b905060600201803603810190610bad9190613e53565b905060006002811115610bc357610bc2613e80565b5b81600001516002811115610bda57610bd9613e80565b5b03610bf757610bf28682602001518360400151611d1e565b610c3c565b60016002811115610c0b57610c0a613e80565b5b81600001516002811115610c2257610c21613e80565b5b03610c3b57610c3a8682602001518360400151611d30565b5b5b81600101915050610b77565b5050505050565b7f1f53edd44352e5d15bad2b29233baa93bcd595e09457780bc7c5445bbbe751cc81565b6000610c8185858585611e66565b80610ca85750610ca78573ffffffffffffffffffffffffffffffffffffffff8585611e66565b5b80610ccf5750610cce73ffffffffffffffffffffffffffffffffffffffff858585611e66565b5b9050949350505050565b7ffaf505be9907aa6951c2ebe5b0312f4980e14f21912ed355372103cc8bd683bc81565b7f000000000000000000000000000000000000000000000000000000000000000073ffffffffffffffffffffffffffffffffffffffff163073ffffffffffffffffffffffffffffffffffffffff1603610d8b576040517f08c379a0000000000000000000000000000000000000000000000000000000008152600401610d8290613f21565b60405180910390fd5b7f000000000000000000000000000000000000000000000000000000000000000073ffffffffffffffffffffffffffffffffffffffff16610dca611fc4565b73ffffffffffffffffffffffffffffffffffffffff1614610e20576040517f08c379a0000000000000000000000000000000000000000000000000000000008152600401610e1790613fb3565b60405180910390fd5b610e298161201b565b610e8281600067ffffffffffffffff811115610e4857610e476131ed565b5b6040519080825280601f01601f191660200182016040528015610e7a5781602001600182028036833780820191505090505b506000612049565b50565b61012d60009054906101000a900473ffffffffffffffffffffffffffffffffffffffff1681565b7f0dcbfb19b09fb8ff4e9af583d4b8e9c8127cc1b26529b4d96dd3b7e778088372610ed681611c35565b8161012d60006101000a81548173ffffffffffffffffffffffffffffffffffffffff021916908373ffffffffffffffffffffffffffffffffffffffff1602179055507f3b25c5d3870ec0eac28822b177f18c9130233ade5b7f857c6a224a507c37fc4e82604051610f479190613a26565b60405180910390a15050565b7f000000000000000000000000000000000000000000000000000000000000000073ffffffffffffffffffffffffffffffffffffffff163073ffffffffffffffffffffffffffffffffffffffff1603610fe1576040517f08c379a0000000000000000000000000000000000000000000000000000000008152600401610fd890613f21565b60405180910390fd5b7f000000000000000000000000000000000000000000000000000000000000000073ffffffffffffffffffffffffffffffffffffffff16611020611fc4565b73ffffffffffffffffffffffffffffffffffffffff1614611076576040517f08c379a000000000000000000000000000000000000000000000000000000000815260040161106d90613fb3565b60405180910390fd5b61107f8261201b565b61108b82826001612049565b5050565b60007f000000000000000000000000000000000000000000000000000000000000000073ffffffffffffffffffffffffffffffffffffffff163073ffffffffffffffffffffffffffffffffffffffff161461111f576040517f08c379a000000000000000000000000000000000000000000000000000000000815260040161111690614045565b60405180910390fd5b7f360894a13ba1a3210667c828492db98dca3e2076cc3735a920a3ca505d382bbc60001b905090565b606061012f805461115890614094565b80601f016020809104026020016040519081016040528092919081815260200182805461118490614094565b80156111d15780601f106111a6576101008083540402835291602001916111d1565b820191906000526020600020905b8154815290600101906020018083116111b457829003601f168201915b5050505050905090565b7f06d294bc8cbad2e393408b20dd019a772661f60b8d633e56761157cb1ec85f8c81565b60008303611239576040517f1f2a200500000000000000000000000000000000000000000000000000000000815260040160405180910390fd5b600073ffffffffffffffffffffffffffffffffffffffff168473ffffffffffffffffffffffffffffffffffffffff16036112b8578234146112b35782346040517f1abd56100000000000000000000000000000000000000000000000000000000081526004016112aa9291906140c5565b60405180910390fd5b61132e565b60003414611300576000346040517f1abd56100000000000000000000000000000000000000000000000000000000081526004016112f7929190614129565b60405180910390fd5b61132d3330858773ffffffffffffffffffffffffffffffffffffffff166121b7909392919063ffffffff16565b5b8373ffffffffffffffffffffffffffffffffffffffff163373ffffffffffffffffffffffffffffffffffffffff167f2bc500cf071be2d1c1458ed6ff484cd4db4345ada8943dee7ff29e7af3558f7685858560405161138f9392919061417f565b60405180910390a350505050565b7ffaf505be9907aa6951c2ebe5b0312f4980e14f21912ed355372103cc8bd683bc6113c781611c35565b6113d084612240565b6113da8383612315565b7ffc72fd547553f7a663e0048e590afc9c47b56a4242e960f31cf4c62e23d308b984848460405161140d939291906141b1565b60405180910390a150505050565b606060007fbf04b4486c9663d805744005c3da000eda93de6e3308a4a7a812eb565327b78d61144981611c35565b610100868690501115611488576040517f11c763d600000000000000000000000000000000000000000000000000000000815260040160405180910390fd5b8585905067ffffffffffffffff8111156114a5576114a46131ed565b5b6040519080825280602002602001820160405280156114d857816020015b60608152602001906001900390816114c35790505b50925060005b8686905081101561167a5760008787838181106114fe576114fd613d96565b5b905060200281019061151091906141f7565b600001602081019061152291906134d9565b90506000808273ffffffffffffffffffffffffffffffffffffffff168a8a8681811061155157611550613d96565b5b905060200281019061156391906141f7565b602001358b8b8781811061157a57611579613d96565b5b905060200281019061158c91906141f7565b806040019061159b919061421f565b6040516115a99291906142b2565b60006040518083038185875af1925050503d80600081146115e6576040519150601f19603f3d011682016040523d82523d6000602084013e6115eb565b606091505b50915091508161164d576115ff8885612386565b61164057836040517fa6a7dbbd00000000000000000000000000000000000000000000000000000000815260040161163791906142cb565b60405180910390fd5b61164a86856123a2565b95505b8087858151811061166157611660613d96565b5b60200260200101819052508360010193505050506114de565b503373ffffffffffffffffffffffffffffffffffffffff167fd0de18eab8dc7532aab0fc4eb308477031cabf9fd312ea3b3a5fe9aa45ac8ed788888886886040516116c9959493929190614513565b60405180910390a25094509492505050565b7f815fe80e4b37c8582a3b773d1d7071f983eacfd56b5965db654f3087c25ada3361170581611c35565b611711858585856123b6565b5050505050565b600061012e60009054906101000a900473ffffffffffffffffffffffffffffffffffffffff16905090565b7f815fe80e4b37c8582a3b773d1d7071f983eacfd56b5965db654f3087c25ada3361176d81611c35565b611778848484611d1e565b50505050565b7f815fe80e4b37c8582a3b773d1d7071f983eacfd56b5965db654f3087c25ada336117a881611c35565b6117b3848484611d30565b50505050565b7f06d294bc8cbad2e393408b20dd019a772661f60b8d633e56761157cb1ec85f8c6117e381611c35565b6117ec82612755565b5050565b7f0dcbfb19b09fb8ff4e9af583d4b8e9c8127cc1b26529b4d96dd3b7e77808837281565b7f4707e94b25cfce1a7c363508fbb838c35864388ad77284b248282b9746982b9b81565b7f815fe80e4b37c8582a3b773d1d7071f983eacfd56b5965db654f3087c25ada3361186281611c35565b60005b8383905081101561198f57600084848381811061188557611884613d96565b5b905060a0020180360381019061189b91906145f4565b9050600060028111156118b1576118b0613e80565b5b816000015160028111156118c8576118c7613e80565b5b036118e9576118e4816020015182604001518360800151611d1e565b611983565b600160028111156118fd576118fc613e80565b5b8160000151600281111561191457611913613e80565b5b0361193557611930816020015182604001518360800151611d30565b611982565b60028081111561194857611947613e80565b5b8160000151600281111561195f5761195e613e80565b5b036119815761198081602001518260400151836080015184606001516123b6565b5b5b5b81600101915050611865565b50505050565b60008060019054906101000a900460ff161590508080156119c65750600160008054906101000a900460ff1660ff16105b806119f357506119d5306127d1565b1580156119f25750600160008054906101000a900460ff1660ff16145b5b611a32576040517f08c379a0000000000000000000000000000000000000000000000000000000008152600401611a2990614693565b60405180910390fd5b60016000806101000a81548160ff021916908360ff1602179055508015611a6f576001600060016101000a81548160ff0219169083151502179055505b611a987f9385547e00000000000000000000000000000000000000000000000000000000612240565b611ac17f1626ba7e00000000000000000000000000000000000000000000000000000000612240565b611aea7f7034731b00000000000000000000000000000000000000000000000000000000612240565b611af26127f4565b611afc8787612890565b611b0584612755565b611b0f8383611cce565b611b18856128cd565b8015611b715760008060016101000a81548160ff0219169083151502179055507f7f26b83ff96e1f2b6a682f133852f6798a09c465da95921460cefb38474024986001604051611b6891906146fb565b60405180910390a15b50505050505050565b7f4707e94b25cfce1a7c363508fbb838c35864388ad77284b248282b9746982b9b611ba481611c35565b611bae8383612890565b505050565b6000611bc185858585610c73565b9050949350505050565b60007f01ffc9a7000000000000000000000000000000000000000000000000000000007bffffffffffffffffffffffffffffffffffffffffffffffffffffffff1916827bffffffffffffffffffffffffffffffffffffffffffffffffffffffff1916149050919050565b611c863033836000368080601f016020809104026020016040519081016040528093929190818152602001838380828437600081840152601f19601f82011690508083019250505050505050610c73565b611ccb573033826040517f1e09743f000000000000000000000000000000000000000000000000000000008152600401611cc293929190614716565b60405180910390fd5b50565b818161012f9182611ce09291906148fa565b507fe9b617ecb5f63f6a9ccd8d4d5fa0d7b2ef9b17ce3f48e6b135808d6a40e677428282604051611d129291906149ca565b60405180910390a15050565b611d2b83838360026123b6565b505050565b6000611d3d848484612928565b9050600073ffffffffffffffffffffffffffffffffffffffff1660c9600083815260200190815260200160002060009054906101000a900473ffffffffffffffffffffffffffffffffffffffff1673ffffffffffffffffffffffffffffffffffffffff1614611e6057600060c9600083815260200190815260200160002060006101000a81548173ffffffffffffffffffffffffffffffffffffffff021916908373ffffffffffffffffffffffffffffffffffffffff1602179055508273ffffffffffffffffffffffffffffffffffffffff163373ffffffffffffffffffffffffffffffffffffffff16837f3ca48185ec3f6e47e24db18b13f1c65b1ce05da1659f9c1c4fe717dda5f6752487604051611e579190613a26565b60405180910390a45b50505050565b60008060c96000611e78888888612928565b815260200190815260200160002060009054906101000a900473ffffffffffffffffffffffffffffffffffffffff169050600073ffffffffffffffffffffffffffffffffffffffff168173ffffffffffffffffffffffffffffffffffffffff1603611ee7576000915050611fbc565b600273ffffffffffffffffffffffffffffffffffffffff168173ffffffffffffffffffffffffffffffffffffffff1603611f25576001915050611fbc565b8073ffffffffffffffffffffffffffffffffffffffff16632675fdd0878787876040518563ffffffff1660e01b8152600401611f6494939291906149ee565b602060405180830381865afa925050508015611f9e57506040513d601f19601f82011682018060405250810190611f9b9190614a66565b60015b15611fb6578015611fb457600192505050611fbc565b505b60009150505b949350505050565b6000611ff27f360894a13ba1a3210667c828492db98dca3e2076cc3735a920a3ca505d382bbc60001b61295e565b60000160009054906101000a900473ffffffffffffffffffffffffffffffffffffffff16905090565b7f1f53edd44352e5d15bad2b29233baa93bcd595e09457780bc7c5445bbbe751cc61204581611c35565b5050565b6120757f4910fdfa16fed3260ed0e7147f7cc6da11a60208b5b9406d12a635614ffd914360001b612968565b60000160009054906101000a900460ff16156120995761209483612972565b6121b2565b8273ffffffffffffffffffffffffffffffffffffffff166352d1902d6040518163ffffffff1660e01b8152600401602060405180830381865afa92505050801561210157506040513d601f19601f820116820180604052508101906120fe9190614aa8565b60015b612140576040517f08c379a000000000000000000000000000000000000000000000000000000000815260040161213790614b47565b60405180910390fd5b7f360894a13ba1a3210667c828492db98dca3e2076cc3735a920a3ca505d382bbc60001b81146121a5576040517f08c379a000000000000000000000000000000000000000000000000000000000815260040161219c90614bd9565b60405180910390fd5b506121b1838383612a2b565b5b505050565b61223a846323b872dd60e01b8585856040516024016121d893929190614bf9565b604051602081830303815290604052907bffffffffffffffffffffffffffffffffffffffffffffffffffffffff19166020820180517bffffffffffffffffffffffffffffffffffffffffffffffffffffffff8381831617835250505050612a57565b50505050565b63ffffffff60e01b817bffffffffffffffffffffffffffffffffffffffffffffffffffffffff1916036122a8576040517f08c379a000000000000000000000000000000000000000000000000000000000815260040161229f90614c7c565b60405180910390fd5b600160336000837bffffffffffffffffffffffffffffffffffffffffffffffffffffffff19167bffffffffffffffffffffffffffffffffffffffffffffffffffffffff1916815260200190815260200160002060006101000a81548160ff02191690831515021790555050565b8060fb6000847bffffffffffffffffffffffffffffffffffffffffffffffffffffffff19167bffffffffffffffffffffffffffffffffffffffffffffffffffffffff1916815260200190815260200160002060006101000a81548163ffffffff021916908360e01c02179055505050565b6000808260ff166001901b841690506000811191505092915050565b60008160ff166001901b8318905092915050565b73ffffffffffffffffffffffffffffffffffffffff80168473ffffffffffffffffffffffffffffffffffffffff1614801561241c575073ffffffffffffffffffffffffffffffffffffffff80168373ffffffffffffffffffffffffffffffffffffffff16145b15612453576040517f85f1ba9900000000000000000000000000000000000000000000000000000000815260040160405180910390fd5b73ffffffffffffffffffffffffffffffffffffffff80168473ffffffffffffffffffffffffffffffffffffffff1614806124b8575073ffffffffffffffffffffffffffffffffffffffff80168373ffffffffffffffffffffffffffffffffffffffff16145b156125945760006124c883612b1e565b90507f815fe80e4b37c8582a3b773d1d7071f983eacfd56b5965db654f3087c25ada338314806124f55750805b1561252c576040517f24159e5b00000000000000000000000000000000000000000000000000000000815260040160405180910390fd5b600273ffffffffffffffffffffffffffffffffffffffff168273ffffffffffffffffffffffffffffffffffffffff1603612592576040517f92ab7d0c00000000000000000000000000000000000000000000000000000000815260040160405180910390fd5b505b60006125a1858585612928565b9050600060c9600083815260200190815260200160002060009054906101000a900473ffffffffffffffffffffffffffffffffffffffff1690506000839050600073ffffffffffffffffffffffffffffffffffffffff168273ffffffffffffffffffffffffffffffffffffffff16036126d3578060c9600085815260200190815260200160002060006101000a81548173ffffffffffffffffffffffffffffffffffffffff021916908373ffffffffffffffffffffffffffffffffffffffff1602179055508573ffffffffffffffffffffffffffffffffffffffff163373ffffffffffffffffffffffffffffffffffffffff16867f0f579ad49235a8c1fd9041427e7067b1eb10926bbed380bf6fabc73e0e8076448a886040516126c6929190614cbd565b60405180910390a461274c565b8073ffffffffffffffffffffffffffffffffffffffff168273ffffffffffffffffffffffffffffffffffffffff161461274b5786868684846040517f0b98789e000000000000000000000000000000000000000000000000000000008152600401612742959493929190614ce6565b60405180910390fd5b5b50505050505050565b8061012e60006101000a81548173ffffffffffffffffffffffffffffffffffffffff021916908373ffffffffffffffffffffffffffffffffffffffff1602179055507fd91237492a9e30cd2faf361fc103998a382ff0ec2b1b07dc1cbebb76ae2f1ea2816040516127c69190613a26565b60405180910390a150565b6000808273ffffffffffffffffffffffffffffffffffffffff163b119050919050565b61281d7f150b7a0200000000000000000000000000000000000000000000000000000000612240565b6128467f4e2312e000000000000000000000000000000000000000000000000000000000612240565b61285e63150b7a0260e01b63150b7a0260e01b612315565b61287663f23a6e6160e01b63f23a6e6160e01b612315565b61288e63bc197c8160e01b63bc197c8160e01b612315565b565b7fbb39ebb37e60fb5d606ffdb749d2336e56b88e6c88c4bd6513b308f643186eed82826040516128c1929190614d66565b60405180910390a15050565b600060019054906101000a900460ff1661291c576040517f08c379a000000000000000000000000000000000000000000000000000000000815260040161291390614dfc565b60405180910390fd5b61292581612c1c565b50565b600082848360405160200161293f93929190614edc565b6040516020818303038152906040528051906020012090509392505050565b6000819050919050565b6000819050919050565b61297b816127d1565b6129ba576040517f08c379a00000000000000000000000000000000000000000000000000000000081526004016129b190614f96565b60405180910390fd5b806129e77f360894a13ba1a3210667c828492db98dca3e2076cc3735a920a3ca505d382bbc60001b61295e565b60000160006101000a81548173ffffffffffffffffffffffffffffffffffffffff021916908373ffffffffffffffffffffffffffffffffffffffff16021790555050565b612a3483612c4a565b600082511180612a415750805b15612a5257612a508383612c99565b505b505050565b6000612ab9826040518060400160405280602081526020017f5361666545524332303a206c6f772d6c6576656c2063616c6c206661696c65648152508573ffffffffffffffffffffffffffffffffffffffff16612d7d9092919063ffffffff16565b9050600081511115612b195780806020019051810190612ad99190614a66565b612b18576040517f08c379a0000000000000000000000000000000000000000000000000000000008152600401612b0f90615028565b60405180910390fd5b5b505050565b60007fbf04b4486c9663d805744005c3da000eda93de6e3308a4a7a812eb565327b78d821480612b6d57507f1f53edd44352e5d15bad2b29233baa93bcd595e09457780bc7c5445bbbe751cc82145b80612b9757507f4707e94b25cfce1a7c363508fbb838c35864388ad77284b248282b9746982b9b82145b80612bc157507f06d294bc8cbad2e393408b20dd019a772661f60b8d633e56761157cb1ec85f8c82145b80612beb57507f0dcbfb19b09fb8ff4e9af583d4b8e9c8127cc1b26529b4d96dd3b7e77808837282145b80612c1557507ffaf505be9907aa6951c2ebe5b0312f4980e14f21912ed355372103cc8bd683bc82145b9050919050565b612c4730827f815fe80e4b37c8582a3b773d1d7071f983eacfd56b5965db654f3087c25ada33611d1e565b50565b612c5381612972565b8073ffffffffffffffffffffffffffffffffffffffff167fbc7cd75a20ee27fd9adebab32041f755214dbc6bffa90cc0225b39da2e5c2d3b60405160405180910390a250565b6060612ca4836127d1565b612ce3576040517f08c379a0000000000000000000000000000000000000000000000000000000008152600401612cda906150ba565b60405180910390fd5b6000808473ffffffffffffffffffffffffffffffffffffffff1684604051612d0b919061510b565b600060405180830381855af49150503d8060008114612d46576040519150601f19603f3d011682016040523d82523d6000602084013e612d4b565b606091505b5091509150612d73828260405180606001604052806027815260200161522160279139612d95565b9250505092915050565b6060612d8c8484600085612db7565b90509392505050565b60608315612da557829050612db0565b612daf8383612e84565b5b9392505050565b606082471015612dfc576040517f08c379a0000000000000000000000000000000000000000000000000000000008152600401612df390615194565b60405180910390fd5b6000808673ffffffffffffffffffffffffffffffffffffffff168587604051612e25919061510b565b60006040518083038185875af1925050503d8060008114612e62576040519150601f19603f3d011682016040523d82523d6000602084013e612e67565b606091505b5091509150612e7887838387612ed4565b92505050949350505050565b600082511115612e975781518083602001fd5b806040517f08c379a0000000000000000000000000000000000000000000000000000000008152600401612ecb919061365b565b60405180910390fd5b60608315612f36576000835103612f2e57612eee856127d1565b612f2d576040517f08c379a0000000000000000000000000000000000000000000000000000000008152600401612f2490615200565b60405180910390fd5b5b829050612f41565b612f408383612e84565b5b949350505050565b600073ffffffffffffffffffffffffffffffffffffffff82169050919050565b6000612f7482612f49565b9050919050565b612f8481612f69565b82525050565b6000819050919050565b612f9d81612f8a565b82525050565b6000604082019050612fb86000830185612f7b565b612fc56020830184612f94565b9392505050565b60007fffffffff0000000000000000000000000000000000000000000000000000000082169050919050565b61300181612fcc565b82525050565b600060208201905061301c6000830184612ff8565b92915050565b6000604051905090565b600080fd5b600080fd5b61303f81612fcc565b811461304a57600080fd5b50565b60008135905061305c81613036565b92915050565b6000602082840312156130785761307761302c565b5b60006130868482850161304d565b91505092915050565b60008115159050919050565b6130a48161308f565b82525050565b60006020820190506130bf600083018461309b565b92915050565b6000819050919050565b6130d8816130c5565b82525050565b60006020820190506130f360008301846130cf565b92915050565b600080fd5b600080fd5b600080fd5b60008083601f84011261311e5761311d6130f9565b5b8235905067ffffffffffffffff81111561313b5761313a6130fe565b5b60208301915083600182028301111561315757613156613103565b5b9250929050565b600080602083850312156131755761317461302c565b5b600083013567ffffffffffffffff81111561319357613192613031565b5b61319f85828601613108565b92509250509250929050565b6131b4816130c5565b81146131bf57600080fd5b50565b6000813590506131d1816131ab565b92915050565b600080fd5b6000601f19601f8301169050919050565b7f4e487b7100000000000000000000000000000000000000000000000000000000600052604160045260246000fd5b613225826131dc565b810181811067ffffffffffffffff82111715613244576132436131ed565b5b80604052505050565b6000613257613022565b9050613263828261321c565b919050565b600067ffffffffffffffff821115613283576132826131ed565b5b61328c826131dc565b9050602081019050919050565b82818337600083830152505050565b60006132bb6132b684613268565b61324d565b9050828152602081018484840111156132d7576132d66131d7565b5b6132e2848285613299565b509392505050565b600082601f8301126132ff576132fe6130f9565b5b813561330f8482602086016132a8565b91505092915050565b6000806040838503121561332f5761332e61302c565b5b600061333d858286016131c2565b925050602083013567ffffffffffffffff81111561335e5761335d613031565b5b61336a858286016132ea565b9150509250929050565b61337d81612f69565b811461338857600080fd5b50565b60008135905061339a81613374565b92915050565b60008083601f8401126133b6576133b56130f9565b5b8235905067ffffffffffffffff8111156133d3576133d26130fe565b5b6020830191508360608202830111156133ef576133ee613103565b5b9250929050565b60008060006040848603121561340f5761340e61302c565b5b600061341d8682870161338b565b935050602084013567ffffffffffffffff81111561343e5761343d613031565b5b61344a868287016133a0565b92509250509250925092565b600080600080608085870312156134705761346f61302c565b5b600061347e8782880161338b565b945050602061348f8782880161338b565b93505060406134a0878288016131c2565b925050606085013567ffffffffffffffff8111156134c1576134c0613031565b5b6134cd878288016132ea565b91505092959194509250565b6000602082840312156134ef576134ee61302c565b5b60006134fd8482850161338b565b91505092915050565b6000819050919050565b600061352b61352661352184612f49565b613506565b612f49565b9050919050565b600061353d82613510565b9050919050565b600061354f82613532565b9050919050565b61355f81613544565b82525050565b600060208201905061357a6000830184613556565b92915050565b600080604083850312156135975761359661302c565b5b60006135a58582860161338b565b925050602083013567ffffffffffffffff8111156135c6576135c5613031565b5b6135d2858286016132ea565b9150509250929050565b600081519050919050565b600082825260208201905092915050565b60005b838110156136165780820151818401526020810190506135fb565b60008484015250505050565b600061362d826135dc565b61363781856135e7565b93506136478185602086016135f8565b613650816131dc565b840191505092915050565b600060208201905081810360008301526136758184613622565b905092915050565b61368681612f8a565b811461369157600080fd5b50565b6000813590506136a38161367d565b92915050565b600080600080606085870312156136c3576136c261302c565b5b60006136d18782880161338b565b94505060206136e287828801613694565b935050604085013567ffffffffffffffff81111561370357613702613031565b5b61370f87828801613108565b925092505092959194509250565b6000806000606084860312156137365761373561302c565b5b60006137448682870161304d565b93505060206137558682870161304d565b92505060406137668682870161304d565b9150509250925092565b60008083601f840112613786576137856130f9565b5b8235905067ffffffffffffffff8111156137a3576137a26130fe565b5b6020830191508360208202830111156137bf576137be613103565b5b9250929050565b600080600080606085870312156137e0576137df61302c565b5b60006137ee878288016131c2565b945050602085013567ffffffffffffffff81111561380f5761380e613031565b5b61381b87828801613770565b9350935050604061382e87828801613694565b91505092959194509250565b600081519050919050565b600082825260208201905092915050565b6000819050602082019050919050565b600081519050919050565b600082825260208201905092915050565b600061388d82613866565b6138978185613871565b93506138a78185602086016135f8565b6138b0816131dc565b840191505092915050565b60006138c78383613882565b905092915050565b6000602082019050919050565b60006138e78261383a565b6138f18185613845565b93508360208202850161390385613856565b8060005b8581101561393f578484038952815161392085826138bb565b945061392b836138cf565b925060208a01995050600181019050613907565b50829750879550505050505092915050565b6000604082019050818103600083015261396b81856138dc565b905061397a6020830184612f94565b9392505050565b600061398c82612f69565b9050919050565b61399c81613981565b81146139a757600080fd5b50565b6000813590506139b981613993565b92915050565b600080600080608085870312156139d9576139d861302c565b5b60006139e78782880161338b565b94505060206139f88782880161338b565b9350506040613a09878288016131c2565b9250506060613a1a878288016139aa565b91505092959194509250565b6000602082019050613a3b6000830184612f7b565b92915050565b600080600060608486031215613a5a57613a5961302c565b5b6000613a688682870161338b565b9350506020613a798682870161338b565b9250506040613a8a868287016131c2565b9150509250925092565b60008083601f840112613aaa57613aa96130f9565b5b8235905067ffffffffffffffff811115613ac757613ac66130fe565b5b6020830191508360a0820283011115613ae357613ae2613103565b5b9250929050565b60008060208385031215613b0157613b0061302c565b5b600083013567ffffffffffffffff811115613b1f57613b1e613031565b5b613b2b85828601613a94565b92509250509250929050565b60008083601f840112613b4d57613b4c6130f9565b5b8235905067ffffffffffffffff811115613b6a57613b696130fe565b5b602083019150836001820283011115613b8657613b85613103565b5b9250929050565b60008060008060008060808789031215613baa57613ba961302c565b5b600087013567ffffffffffffffff811115613bc857613bc7613031565b5b613bd489828a01613b37565b96509650506020613be789828a0161338b565b9450506040613bf889828a0161338b565b935050606087013567ffffffffffffffff811115613c1957613c18613031565b5b613c2589828a01613108565b92509250509295509295509295565b60008060208385031215613c4b57613c4a61302c565b5b600083013567ffffffffffffffff811115613c6957613c68613031565b5b613c7585828601613b37565b92509250509250929050565b6000604082019050613c966000830185612ff8565b613ca36020830184612ff8565b9392505050565b600082825260208201905092915050565b6000613cc682613866565b613cd08185613caa565b9350613ce08185602086016135f8565b613ce9816131dc565b840191505092915050565b6000604082019050613d096000830185612f7b565b8181036020830152613d1b8184613cbb565b90509392505050565b6000604082019050613d3960008301856130cf565b8181036020830152613d4b8184613cbb565b90509392505050565b600081519050613d6381613036565b92915050565b600060208284031215613d7f57613d7e61302c565b5b6000613d8d84828501613d54565b91505092915050565b7f4e487b7100000000000000000000000000000000000000000000000000000000600052603260045260246000fd5b600080fd5b60038110613dd757600080fd5b50565b600081359050613de981613dca565b92915050565b600060608284031215613e0557613e04613dc5565b5b613e0f606061324d565b90506000613e1f84828501613dda565b6000830152506020613e338482850161338b565b6020830152506040613e47848285016131c2565b60408301525092915050565b600060608284031215613e6957613e6861302c565b5b6000613e7784828501613def565b91505092915050565b7f4e487b7100000000000000000000000000000000000000000000000000000000600052602160045260246000fd5b7f46756e6374696f6e206d7573742062652063616c6c6564207468726f7567682060008201527f64656c656761746563616c6c0000000000000000000000000000000000000000602082015250565b6000613f0b602c836135e7565b9150613f1682613eaf565b604082019050919050565b60006020820190508181036000830152613f3a81613efe565b9050919050565b7f46756e6374696f6e206d7573742062652063616c6c6564207468726f7567682060008201527f6163746976652070726f78790000000000000000000000000000000000000000602082015250565b6000613f9d602c836135e7565b9150613fa882613f41565b604082019050919050565b60006020820190508181036000830152613fcc81613f90565b9050919050565b7f555550535570677261646561626c653a206d757374206e6f742062652063616c60008201527f6c6564207468726f7567682064656c656761746563616c6c0000000000000000602082015250565b600061402f6038836135e7565b915061403a82613fd3565b604082019050919050565b6000602082019050818103600083015261405e81614022565b9050919050565b7f4e487b7100000000000000000000000000000000000000000000000000000000600052602260045260246000fd5b600060028204905060018216806140ac57607f821691505b6020821081036140bf576140be614065565b5b50919050565b60006040820190506140da6000830185612f94565b6140e76020830184612f94565b9392505050565b6000819050919050565b600061411361410e614109846140ee565b613506565b612f8a565b9050919050565b614123816140f8565b82525050565b600060408201905061413e600083018561411a565b61414b6020830184612f94565b9392505050565b600061415e83856135e7565b935061416b838584613299565b614174836131dc565b840190509392505050565b60006040820190506141946000830186612f94565b81810360208301526141a7818486614152565b9050949350505050565b60006060820190506141c66000830186612ff8565b6141d36020830185612ff8565b6141e06040830184612ff8565b949350505050565b600080fd5b600080fd5b600080fd5b600082356001606003833603038112614213576142126141e8565b5b80830191505092915050565b6000808335600160200384360303811261423c5761423b6141e8565b5b80840192508235915067ffffffffffffffff82111561425e5761425d6141ed565b5b60208301925060018202360383131561427a576142796141f2565b5b509250929050565b600081905092915050565b60006142998385614282565b93506142a6838584613299565b82840190509392505050565b60006142bf82848661428d565b91508190509392505050565b60006020820190506142e06000830184612f94565b92915050565b600082825260208201905092915050565b6000819050919050565b6000614310602084018461338b565b905092915050565b61432181612f69565b82525050565b60006143366020840184613694565b905092915050565b61434781612f8a565b82525050565b600080fd5b600080fd5b600080fd5b6000808335600160200384360303811261437957614378614357565b5b83810192508235915060208301925067ffffffffffffffff8211156143a1576143a061434d565b5b6001820236038313156143b7576143b6614352565b5b509250929050565b60006143cb8385613871565b93506143d8838584613299565b6143e1836131dc565b840190509392505050565b6000606083016143ff6000840184614301565b61440c6000860182614318565b5061441a6020840184614327565b614427602086018261433e565b50614435604084018461435c565b85830360408701526144488382846143bf565b925050508091505092915050565b600061446283836143ec565b905092915050565b60008235600160600383360303811261448657614485614357565b5b82810191505092915050565b6000602082019050919050565b60006144ab83856142e6565b9350836020840285016144bd846142f7565b8060005b878110156145015784840389526144d8828461446a565b6144e28582614456565b94506144ed83614492565b925060208a019950506001810190506144c1565b50829750879450505050509392505050565b600060808201905061452860008301886130cf565b818103602083015261453b81868861449f565b905061454a6040830185612f94565b818103606083015261455c81846138dc565b90509695505050505050565b600060a0828403121561457e5761457d613dc5565b5b61458860a061324d565b9050600061459884828501613dda565b60008301525060206145ac8482850161338b565b60208301525060406145c08482850161338b565b60408301525060606145d48482850161338b565b60608301525060806145e8848285016131c2565b60808301525092915050565b600060a0828403121561460a5761460961302c565b5b600061461884828501614568565b91505092915050565b7f496e697469616c697a61626c653a20636f6e747261637420697320616c72656160008201527f647920696e697469616c697a6564000000000000000000000000000000000000602082015250565b600061467d602e836135e7565b915061468882614621565b604082019050919050565b600060208201905081810360008301526146ac81614670565b9050919050565b6000819050919050565b600060ff82169050919050565b60006146e56146e06146db846146b3565b613506565b6146bd565b9050919050565b6146f5816146ca565b82525050565b600060208201905061471060008301846146ec565b92915050565b600060608201905061472b6000830186612f7b565b6147386020830185612f7b565b61474560408301846130cf565b949350505050565b600082905092915050565b60008190508160005260206000209050919050565b60006020601f8301049050919050565b600082821b905092915050565b6000600883026147ba7fffffffffffffffffffffffffffffffffffffffffffffffffffffffffffffffff8261477d565b6147c4868361477d565b95508019841693508086168417925050509392505050565b60006147f76147f26147ed84612f8a565b613506565b612f8a565b9050919050565b6000819050919050565b614811836147dc565b61482561481d826147fe565b84845461478a565b825550505050565b600090565b61483a61482d565b614845818484614808565b505050565b5b818110156148695761485e600082614832565b60018101905061484b565b5050565b601f8211156148ae5761487f81614758565b6148888461476d565b81016020851015614897578190505b6148ab6148a38561476d565b83018261484a565b50505b505050565b600082821c905092915050565b60006148d1600019846008026148b3565b1980831691505092915050565b60006148ea83836148c0565b9150826002028217905092915050565b614904838361474d565b67ffffffffffffffff81111561491d5761491c6131ed565b5b6149278254614094565b61493282828561486d565b6000601f831160018114614961576000841561494f578287013590505b61495985826148de565b8655506149c1565b601f19841661496f86614758565b60005b8281101561499757848901358255600182019150602085019450602081019050614972565b868310156149b457848901356149b0601f8916826148c0565b8355505b6001600288020188555050505b50505050505050565b600060208201905081810360008301526149e5818486614152565b90509392505050565b6000608082019050614a036000830187612f7b565b614a106020830186612f7b565b614a1d60408301856130cf565b8181036060830152614a2f8184613cbb565b905095945050505050565b614a438161308f565b8114614a4e57600080fd5b50565b600081519050614a6081614a3a565b92915050565b600060208284031215614a7c57614a7b61302c565b5b6000614a8a84828501614a51565b91505092915050565b600081519050614aa2816131ab565b92915050565b600060208284031215614abe57614abd61302c565b5b6000614acc84828501614a93565b91505092915050565b7f45524331393637557067726164653a206e657720696d706c656d656e7461746960008201527f6f6e206973206e6f742055555053000000000000000000000000000000000000602082015250565b6000614b31602e836135e7565b9150614b3c82614ad5565b604082019050919050565b60006020820190508181036000830152614b6081614b24565b9050919050565b7f45524331393637557067726164653a20756e737570706f727465642070726f7860008201527f6961626c65555549440000000000000000000000000000000000000000000000602082015250565b6000614bc36029836135e7565b9150614bce82614b67565b604082019050919050565b60006020820190508181036000830152614bf281614bb6565b9050919050565b6000606082019050614c0e6000830186612f7b565b614c1b6020830185612f7b565b614c286040830184612f94565b949350505050565b7f4552433136353a20696e76616c696420696e7465726661636520696400000000600082015250565b6000614c66601c836135e7565b9150614c7182614c30565b602082019050919050565b60006020820190508181036000830152614c9581614c59565b9050919050565b6000614ca782613532565b9050919050565b614cb781614c9c565b82525050565b6000604082019050614cd26000830185612f7b565b614cdf6020830184614cae565b9392505050565b600060a082019050614cfb6000830188612f7b565b614d086020830187612f7b565b614d1560408301866130cf565b614d226060830185612f7b565b614d2f6080830184612f7b565b9695505050505050565b6000614d458385613caa565b9350614d52838584613299565b614d5b836131dc565b840190509392505050565b60006020820190508181036000830152614d81818486614d39565b90509392505050565b7f496e697469616c697a61626c653a20636f6e7472616374206973206e6f74206960008201527f6e697469616c697a696e67000000000000000000000000000000000000000000602082015250565b6000614de6602b836135e7565b9150614df182614d8a565b604082019050919050565b60006020820190508181036000830152614e1581614dd9565b9050919050565b600081905092915050565b7f5045524d495353494f4e00000000000000000000000000000000000000000000600082015250565b6000614e5d600a83614e1c565b9150614e6882614e27565b600a82019050919050565b60008160601b9050919050565b6000614e8b82614e73565b9050919050565b6000614e9d82614e80565b9050919050565b614eb5614eb082612f69565b614e92565b82525050565b6000819050919050565b614ed6614ed1826130c5565b614ebb565b82525050565b6000614ee782614e50565b9150614ef38286614ea4565b601482019150614f038285614ea4565b601482019150614f138284614ec5565b602082019150819050949350505050565b7f455243313936373a206e657720696d706c656d656e746174696f6e206973206e60008201527f6f74206120636f6e747261637400000000000000000000000000000000000000602082015250565b6000614f80602d836135e7565b9150614f8b82614f24565b604082019050919050565b60006020820190508181036000830152614faf81614f73565b9050919050565b7f5361666545524332303a204552433230206f7065726174696f6e20646964206e60008201527f6f74207375636365656400000000000000000000000000000000000000000000602082015250565b6000615012602a836135e7565b915061501d82614fb6565b604082019050919050565b6000602082019050818103600083015261504181615005565b9050919050565b7f416464726573733a2064656c65676174652063616c6c20746f206e6f6e2d636f60008201527f6e74726163740000000000000000000000000000000000000000000000000000602082015250565b60006150a46026836135e7565b91506150af82615048565b604082019050919050565b600060208201905081810360008301526150d381615097565b9050919050565b60006150e582613866565b6150ef8185614282565b93506150ff8185602086016135f8565b80840191505092915050565b600061511782846150da565b915081905092915050565b7f416464726573733a20696e73756666696369656e742062616c616e636520666f60008201527f722063616c6c0000000000000000000000000000000000000000000000000000602082015250565b600061517e6026836135e7565b915061518982615122565b604082019050919050565b600060208201905081810360008301526151ad81615171565b9050919050565b7f416464726573733a2063616c6c20746f206e6f6e2d636f6e7472616374000000600082015250565b60006151ea601d836135e7565b91506151f5826151b4565b602082019050919050565b60006020820190508181036000830152615219816151dd565b905091905056fe416464726573733a206c6f772d6c6576656c2064656c65676174652063616c6c206661696c6564a26469706673582212202875c77036cbfd8f2ae56fecd11c9260ef48c7d25a25e4f7c086291d5978eec664736f6c63430008110033",
  "devdoc": {
    "kind": "dev",
    "methods": {
      "constructor": {
        "params": {
          "_pluginSetupProcessor": "The address of PluginSetupProcessor.",
          "_registry": "The DAO registry to register the DAO by its name."
        }
      },
      "createDao((address,string,bytes),(((uint8,uint16),address),bytes)[])": {
        "params": {
          "_daoSettings": "The DAO settings to be set during the DAO initialization.",
          "_pluginSettings": "The array containing references to plugins and their settings to be installed after the DAO has been created."
        }
      }
    },
    "title": "DAOFactory",
    "version": 1
  },
  "userdoc": {
    "errors": {
      "NoPluginProvided()": [
        {
          "notice": "Thrown if `PluginSettings` array is empty, and no plugin is provided."
        }
      ]
    },
    "kind": "user",
    "methods": {
      "constructor": {
        "notice": "The constructor setting the plugin setup processor and creating the base contracts for the factory."
      },
      "createDao((address,string,bytes),(((uint8,uint16),address),bytes)[])": {
        "notice": "Creates a new DAO, registers it on the  DAO registry, and installs a list of plugins via the plugin setup processor."
      },
      "daoBase()": {
        "notice": "The DAO base contract, to be used for creating new `DAO`s via `createERC1967Proxy` function."
      },
      "daoRegistry()": {
        "notice": "The DAO registry listing the `DAO` contracts created via this contract."
      },
      "pluginSetupProcessor()": {
        "notice": "The plugin setup processor for installing plugins on the newly created `DAO`s."
      }
    },
    "notice": "This contract is used to create a DAO.",
    "version": 1
  },
  "storageLayout": {
    "storage": [],
    "types": null
  }
}