{
  "address": "0xeE418701284CC2a4E949Af300847d2079859B0bF",
  "abi": [
    {
      "inputs": [],
      "stateMutability": "nonpayable",
      "type": "constructor"
    },
    {
      "inputs": [
        {
          "internalType": "address",
          "name": "registrant",
          "type": "address"
        }
      ],
      "name": "ContractAlreadyRegistered",
      "type": "error"
    },
    {
      "inputs": [
        {
          "internalType": "address",
          "name": "registrant",
          "type": "address"
        }
      ],
      "name": "ContractERC165SupportInvalid",
      "type": "error"
    },
    {
      "inputs": [
        {
          "internalType": "address",
          "name": "registrant",
          "type": "address"
        }
      ],
      "name": "ContractInterfaceInvalid",
      "type": "error"
    },
    {
      "inputs": [
        {
          "internalType": "address",
          "name": "dao",
          "type": "address"
        },
        {
          "internalType": "address",
          "name": "where",
          "type": "address"
        },
        {
          "internalType": "address",
          "name": "who",
          "type": "address"
        },
        {
          "internalType": "bytes32",
          "name": "permissionId",
          "type": "bytes32"
        }
      ],
      "name": "DaoUnauthorized",
      "type": "error"
    },
    {
      "anonymous": false,
      "inputs": [
        {
          "indexed": false,
          "internalType": "address",
          "name": "previousAdmin",
          "type": "address"
        },
        {
          "indexed": false,
          "internalType": "address",
          "name": "newAdmin",
          "type": "address"
        }
      ],
      "name": "AdminChanged",
      "type": "event"
    },
    {
      "anonymous": false,
      "inputs": [
        {
          "indexed": true,
          "internalType": "address",
          "name": "beacon",
          "type": "address"
        }
      ],
      "name": "BeaconUpgraded",
      "type": "event"
    },
    {
      "anonymous": false,
      "inputs": [
        {
          "indexed": true,
          "internalType": "address",
          "name": "dao",
          "type": "address"
        },
        {
          "indexed": true,
          "internalType": "address",
          "name": "creator",
          "type": "address"
        }
      ],
      "name": "DAORegistered",
      "type": "event"
    },
    {
      "anonymous": false,
      "inputs": [
        {
          "indexed": false,
          "internalType": "uint8",
          "name": "version",
          "type": "uint8"
        }
      ],
      "name": "Initialized",
      "type": "event"
    },
    {
      "anonymous": false,
      "inputs": [
        {
          "indexed": true,
          "internalType": "address",
          "name": "implementation",
          "type": "address"
        }
      ],
      "name": "Upgraded",
      "type": "event"
    },
    {
      "inputs": [],
      "name": "REGISTER_DAO_PERMISSION_ID",
      "outputs": [
        {
          "internalType": "bytes32",
          "name": "",
          "type": "bytes32"
        }
      ],
      "stateMutability": "view",
      "type": "function"
    },
    {
      "inputs": [],
      "name": "UPGRADE_REGISTRY_PERMISSION_ID",
      "outputs": [
        {
          "internalType": "bytes32",
          "name": "",
          "type": "bytes32"
        }
      ],
      "stateMutability": "view",
      "type": "function"
    },
    {
      "inputs": [],
      "name": "dao",
      "outputs": [
        {
          "internalType": "contract IDAO",
          "name": "",
          "type": "address"
        }
      ],
      "stateMutability": "view",
      "type": "function"
    },
    {
      "inputs": [
        {
          "internalType": "address",
          "name": "",
          "type": "address"
        }
      ],
      "name": "entries",
      "outputs": [
        {
          "internalType": "bool",
          "name": "",
          "type": "bool"
        }
      ],
      "stateMutability": "view",
      "type": "function"
    },
    {
      "inputs": [
        {
          "internalType": "contract IDAO",
          "name": "_managingDao",
          "type": "address"
        }
      ],
      "name": "initialize",
      "outputs": [],
      "stateMutability": "nonpayable",
      "type": "function"
    },
    {
      "inputs": [],
      "name": "proxiableUUID",
      "outputs": [
        {
          "internalType": "bytes32",
          "name": "",
          "type": "bytes32"
        }
      ],
      "stateMutability": "view",
      "type": "function"
    },
    {
      "inputs": [
        {
          "internalType": "contract IDAO",
          "name": "dao",
          "type": "address"
        },
        {
          "internalType": "address",
          "name": "creator",
          "type": "address"
        }
      ],
      "name": "register",
      "outputs": [],
      "stateMutability": "nonpayable",
      "type": "function"
    },
    {
      "inputs": [],
      "name": "targetInterfaceId",
      "outputs": [
        {
          "internalType": "bytes4",
          "name": "",
          "type": "bytes4"
        }
      ],
      "stateMutability": "view",
      "type": "function"
    },
    {
      "inputs": [
        {
          "internalType": "address",
          "name": "newImplementation",
          "type": "address"
        }
      ],
      "name": "upgradeTo",
      "outputs": [],
      "stateMutability": "nonpayable",
      "type": "function"
    },
    {
      "inputs": [
        {
          "internalType": "address",
          "name": "newImplementation",
          "type": "address"
        },
        {
          "internalType": "bytes",
          "name": "data",
          "type": "bytes"
        }
      ],
      "name": "upgradeToAndCall",
      "outputs": [],
      "stateMutability": "payable",
      "type": "function"
    }
  ],
  "transactionHash": "0xbc26bbdc33feeb97696ca4192a4af04dd21e703486e98abaf2125aac0e9bc8cd",
  "args": [],
  "numDeployments": 1,
  "solcInputHash": "0436994da4f1886ef7ba0eafc5c461be",
  "bytecode": "0x60a06040523073ffffffffffffffffffffffffffffffffffffffff1660809073ffffffffffffffffffffffffffffffffffffffff168152503480156200004457600080fd5b50620000556200005b60201b60201c565b62000206565b600060019054906101000a900460ff1615620000ae576040517f08c379a0000000000000000000000000000000000000000000000000000000008152600401620000a590620001a9565b60405180910390fd5b60ff801660008054906101000a900460ff1660ff161015620001205760ff6000806101000a81548160ff021916908360ff1602179055507f7f26b83ff96e1f2b6a682f133852f6798a09c465da95921460cefb384740249860ff604051620001179190620001e9565b60405180910390a15b565b600082825260208201905092915050565b7f496e697469616c697a61626c653a20636f6e747261637420697320696e69746960008201527f616c697a696e6700000000000000000000000000000000000000000000000000602082015250565b60006200019160278362000122565b91506200019e8262000133565b604082019050919050565b60006020820190508181036000830152620001c48162000182565b9050919050565b600060ff82169050919050565b620001e381620001cb565b82525050565b6000602082019050620002006000830184620001d8565b92915050565b608051611eb36200023e60003960008181610243015281816102d1015281816104080152818161049601526105460152611eb36000f3fe6080604052600436106100915760003560e01c806374574eb71161005957806374574eb71461015c578063a2298b4b14610187578063aa677354146101b2578063c4d66de8146101db578063f29ee1251461020457610091565b80633659cfe6146100965780634162169f146100bf57806344162ef8146100ea5780634f1ef2861461011557806352d1902d14610131575b600080fd5b3480156100a257600080fd5b506100bd60048036038101906100b89190611271565b610241565b005b3480156100cb57600080fd5b506100d46103c9565b6040516100e191906112fd565b60405180910390f35b3480156100f657600080fd5b506100ff6103f3565b60405161010c9190611353565b60405180910390f35b61012f600480360381019061012a91906114b4565b610406565b005b34801561013d57600080fd5b50610146610542565b6040516101539190611529565b60405180910390f35b34801561016857600080fd5b506101716105fb565b60405161017e9190611529565b60405180910390f35b34801561019357600080fd5b5061019c61061f565b6040516101a99190611529565b60405180910390f35b3480156101be57600080fd5b506101d960048036038101906101d49190611582565b610643565b005b3480156101e757600080fd5b5061020260048036038101906101fd91906115c2565b61070f565b005b34801561021057600080fd5b5061022b60048036038101906102269190611271565b610870565b604051610238919061160a565b60405180910390f35b7f000000000000000000000000000000000000000000000000000000000000000073ffffffffffffffffffffffffffffffffffffffff163073ffffffffffffffffffffffffffffffffffffffff16036102cf576040517f08c379a00000000000000000000000000000000000000000000000000000000081526004016102c6906116a8565b60405180910390fd5b7f000000000000000000000000000000000000000000000000000000000000000073ffffffffffffffffffffffffffffffffffffffff1661030e610890565b73ffffffffffffffffffffffffffffffffffffffff1614610364576040517f08c379a000000000000000000000000000000000000000000000000000000000815260040161035b9061173a565b60405180910390fd5b61036d816108e7565b6103c681600067ffffffffffffffff81111561038c5761038b611389565b5b6040519080825280601f01601f1916602001820160405280156103be5781602001600182028036833780820191505090505b506000610949565b50565b6000609760009054906101000a900473ffffffffffffffffffffffffffffffffffffffff16905090565b60c960009054906101000a900460e01b81565b7f000000000000000000000000000000000000000000000000000000000000000073ffffffffffffffffffffffffffffffffffffffff163073ffffffffffffffffffffffffffffffffffffffff1603610494576040517f08c379a000000000000000000000000000000000000000000000000000000000815260040161048b906116a8565b60405180910390fd5b7f000000000000000000000000000000000000000000000000000000000000000073ffffffffffffffffffffffffffffffffffffffff166104d3610890565b73ffffffffffffffffffffffffffffffffffffffff1614610529576040517f08c379a00000000000000000000000000000000000000000000000000000000081526004016105209061173a565b60405180910390fd5b610532826108e7565b61053e82826001610949565b5050565b60007f000000000000000000000000000000000000000000000000000000000000000073ffffffffffffffffffffffffffffffffffffffff163073ffffffffffffffffffffffffffffffffffffffff16146105d2576040517f08c379a00000000000000000000000000000000000000000000000000000000081526004016105c9906117cc565b60405180910390fd5b7f360894a13ba1a3210667c828492db98dca3e2076cc3735a920a3ca505d382bbc60001b905090565b7f60b96ff9fb5f29153c29c1747515b8be4ee523d686cc6f453ec294b0afa7293281565b7fde5e253d6956bc5fb69cfa564733633f4e53b143e42859306cd13cdc5485621581565b7fde5e253d6956bc5fb69cfa564733633f4e53b143e42859306cd13cdc548562156106a1609760009054906101000a900473ffffffffffffffffffffffffffffffffffffffff1630610693610ab7565b8461069c610abf565b610acc565b60008390506106af81610b9d565b8273ffffffffffffffffffffffffffffffffffffffff168173ffffffffffffffffffffffffffffffffffffffff167f3efff885860a438002f426048bbd320691efa8ba44669e70b0e92bccc9ed4c2d60405160405180910390a350505050565b60008060019054906101000a900460ff161590508080156107405750600160008054906101000a900460ff1660ff16105b8061076d575061074f30610d00565b15801561076c5750600160008054906101000a900460ff1660ff16145b5b6107ac576040517f08c379a00000000000000000000000000000000000000000000000000000000081526004016107a39061185e565b60405180910390fd5b60016000806101000a81548160ff021916908360ff16021790555080156107e9576001600060016101000a81548160ff0219169083151502179055505b610813827f9385547e00000000000000000000000000000000000000000000000000000000610d23565b801561086c5760008060016101000a81548160ff0219169083151502179055507f7f26b83ff96e1f2b6a682f133852f6798a09c465da95921460cefb3847402498600160405161086391906118c6565b60405180910390a15b5050565b60ca6020528060005260406000206000915054906101000a900460ff1681565b60006108be7f360894a13ba1a3210667c828492db98dca3e2076cc3735a920a3ca505d382bbc60001b610d9d565b60000160009054906101000a900473ffffffffffffffffffffffffffffffffffffffff16905090565b7f60b96ff9fb5f29153c29c1747515b8be4ee523d686cc6f453ec294b0afa72932610945609760009054906101000a900473ffffffffffffffffffffffffffffffffffffffff1630610937610ab7565b84610940610abf565b610acc565b5050565b6109757f4910fdfa16fed3260ed0e7147f7cc6da11a60208b5b9406d12a635614ffd914360001b610da7565b60000160009054906101000a900460ff16156109995761099483610db1565b610ab2565b8273ffffffffffffffffffffffffffffffffffffffff166352d1902d6040518163ffffffff1660e01b8152600401602060405180830381865afa925050508015610a0157506040513d601f19601f820116820180604052508101906109fe919061190d565b60015b610a40576040517f08c379a0000000000000000000000000000000000000000000000000000000008152600401610a37906119ac565b60405180910390fd5b7f360894a13ba1a3210667c828492db98dca3e2076cc3735a920a3ca505d382bbc60001b8114610aa5576040517f08c379a0000000000000000000000000000000000000000000000000000000008152600401610a9c90611a3e565b60405180910390fd5b50610ab1838383610e6a565b5b505050565b600033905090565b3660008036915091509091565b8573ffffffffffffffffffffffffffffffffffffffff1663fdef910686868686866040518663ffffffff1660e01b8152600401610b0d959493929190611aab565b602060405180830381865afa158015610b2a573d6000803e3d6000fd5b505050506040513d601f19601f82011682018060405250810190610b4e9190611b25565b610b9557858585856040517f32dbe3b4000000000000000000000000000000000000000000000000000000008152600401610b8c9493929190611b52565b60405180910390fd5b505050505050565b60ca60008273ffffffffffffffffffffffffffffffffffffffff1673ffffffffffffffffffffffffffffffffffffffff16815260200190815260200160002060009054906101000a900460ff1615610c2c57806040517ffdcce17f000000000000000000000000000000000000000000000000000000008152600401610c239190611b97565b60405180910390fd5b610c6460c960009054906101000a900460e01b8273ffffffffffffffffffffffffffffffffffffffff16610e9690919063ffffffff16565b610ca557806040517f71023c8a000000000000000000000000000000000000000000000000000000008152600401610c9c9190611b97565b60405180910390fd5b600160ca60008373ffffffffffffffffffffffffffffffffffffffff1673ffffffffffffffffffffffffffffffffffffffff16815260200190815260200160002060006101000a81548160ff02191690831515021790555050565b6000808273ffffffffffffffffffffffffffffffffffffffff163b119050919050565b600060019054906101000a900460ff16610d72576040517f08c379a0000000000000000000000000000000000000000000000000000000008152600401610d6990611c24565b60405180910390fd5b610d7b82610ebb565b8060c960006101000a81548163ffffffff021916908360e01c02179055505050565b6000819050919050565b6000819050919050565b610dba81610d00565b610df9576040517f08c379a0000000000000000000000000000000000000000000000000000000008152600401610df090611cb6565b60405180910390fd5b80610e267f360894a13ba1a3210667c828492db98dca3e2076cc3735a920a3ca505d382bbc60001b610d9d565b60000160006101000a81548173ffffffffffffffffffffffffffffffffffffffff021916908373ffffffffffffffffffffffffffffffffffffffff16021790555050565b610e7383610f4e565b600082511180610e805750805b15610e9157610e8f8383610f9d565b505b505050565b6000610ea183611081565b8015610eb35750610eb283836110ce565b5b905092915050565b600060019054906101000a900460ff16610f0a576040517f08c379a0000000000000000000000000000000000000000000000000000000008152600401610f0190611c24565b60405180910390fd5b80609760006101000a81548173ffffffffffffffffffffffffffffffffffffffff021916908373ffffffffffffffffffffffffffffffffffffffff16021790555050565b610f5781610db1565b8073ffffffffffffffffffffffffffffffffffffffff167fbc7cd75a20ee27fd9adebab32041f755214dbc6bffa90cc0225b39da2e5c2d3b60405160405180910390a250565b6060610fa883610d00565b610fe7576040517f08c379a0000000000000000000000000000000000000000000000000000000008152600401610fde90611d48565b60405180910390fd5b6000808473ffffffffffffffffffffffffffffffffffffffff168460405161100f9190611dd9565b600060405180830381855af49150503d806000811461104a576040519150601f19603f3d011682016040523d82523d6000602084013e61104f565b606091505b50915091506110778282604051806060016040528060278152602001611e576027913961118d565b9250505092915050565b60006110ad827f01ffc9a7000000000000000000000000000000000000000000000000000000006110ce565b80156110c757506110c58263ffffffff60e01b6110ce565b155b9050919050565b6000806301ffc9a760e01b836040516024016110ea9190611353565b604051602081830303815290604052907bffffffffffffffffffffffffffffffffffffffffffffffffffffffff19166020820180517bffffffffffffffffffffffffffffffffffffffffffffffffffffffff838183161783525050505090506000806000602060008551602087018a617530fa92503d91506000519050828015611175575060208210155b80156111815750600081115b94505050505092915050565b6060831561119d578290506111a8565b6111a783836111af565b5b9392505050565b6000825111156111c25781518083602001fd5b806040517f08c379a00000000000000000000000000000000000000000000000000000000081526004016111f69190611e34565b60405180910390fd5b6000604051905090565b600080fd5b600080fd5b600073ffffffffffffffffffffffffffffffffffffffff82169050919050565b600061123e82611213565b9050919050565b61124e81611233565b811461125957600080fd5b50565b60008135905061126b81611245565b92915050565b60006020828403121561128757611286611209565b5b60006112958482850161125c565b91505092915050565b6000819050919050565b60006112c36112be6112b984611213565b61129e565b611213565b9050919050565b60006112d5826112a8565b9050919050565b60006112e7826112ca565b9050919050565b6112f7816112dc565b82525050565b600060208201905061131260008301846112ee565b92915050565b60007fffffffff0000000000000000000000000000000000000000000000000000000082169050919050565b61134d81611318565b82525050565b60006020820190506113686000830184611344565b92915050565b600080fd5b600080fd5b6000601f19601f8301169050919050565b7f4e487b7100000000000000000000000000000000000000000000000000000000600052604160045260246000fd5b6113c182611378565b810181811067ffffffffffffffff821117156113e0576113df611389565b5b80604052505050565b60006113f36111ff565b90506113ff82826113b8565b919050565b600067ffffffffffffffff82111561141f5761141e611389565b5b61142882611378565b9050602081019050919050565b82818337600083830152505050565b600061145761145284611404565b6113e9565b90508281526020810184848401111561147357611472611373565b5b61147e848285611435565b509392505050565b600082601f83011261149b5761149a61136e565b5b81356114ab848260208601611444565b91505092915050565b600080604083850312156114cb576114ca611209565b5b60006114d98582860161125c565b925050602083013567ffffffffffffffff8111156114fa576114f961120e565b5b61150685828601611486565b9150509250929050565b6000819050919050565b61152381611510565b82525050565b600060208201905061153e600083018461151a565b92915050565b600061154f82611233565b9050919050565b61155f81611544565b811461156a57600080fd5b50565b60008135905061157c81611556565b92915050565b6000806040838503121561159957611598611209565b5b60006115a78582860161156d565b92505060206115b88582860161125c565b9150509250929050565b6000602082840312156115d8576115d7611209565b5b60006115e68482850161156d565b91505092915050565b60008115159050919050565b611604816115ef565b82525050565b600060208201905061161f60008301846115fb565b92915050565b600082825260208201905092915050565b7f46756e6374696f6e206d7573742062652063616c6c6564207468726f7567682060008201527f64656c656761746563616c6c0000000000000000000000000000000000000000602082015250565b6000611692602c83611625565b915061169d82611636565b604082019050919050565b600060208201905081810360008301526116c181611685565b9050919050565b7f46756e6374696f6e206d7573742062652063616c6c6564207468726f7567682060008201527f6163746976652070726f78790000000000000000000000000000000000000000602082015250565b6000611724602c83611625565b915061172f826116c8565b604082019050919050565b6000602082019050818103600083015261175381611717565b9050919050565b7f555550535570677261646561626c653a206d757374206e6f742062652063616c60008201527f6c6564207468726f7567682064656c656761746563616c6c0000000000000000602082015250565b60006117b6603883611625565b91506117c18261175a565b604082019050919050565b600060208201905081810360008301526117e5816117a9565b9050919050565b7f496e697469616c697a61626c653a20636f6e747261637420697320616c72656160008201527f647920696e697469616c697a6564000000000000000000000000000000000000602082015250565b6000611848602e83611625565b9150611853826117ec565b604082019050919050565b600060208201905081810360008301526118778161183b565b9050919050565b6000819050919050565b600060ff82169050919050565b60006118b06118ab6118a68461187e565b61129e565b611888565b9050919050565b6118c081611895565b82525050565b60006020820190506118db60008301846118b7565b92915050565b6118ea81611510565b81146118f557600080fd5b50565b600081519050611907816118e1565b92915050565b60006020828403121561192357611922611209565b5b6000611931848285016118f8565b91505092915050565b7f45524331393637557067726164653a206e657720696d706c656d656e7461746960008201527f6f6e206973206e6f742055555053000000000000000000000000000000000000602082015250565b6000611996602e83611625565b91506119a18261193a565b604082019050919050565b600060208201905081810360008301526119c581611989565b9050919050565b7f45524331393637557067726164653a20756e737570706f727465642070726f7860008201527f6961626c65555549440000000000000000000000000000000000000000000000602082015250565b6000611a28602983611625565b9150611a33826119cc565b604082019050919050565b60006020820190508181036000830152611a5781611a1b565b9050919050565b611a6781611233565b82525050565b600082825260208201905092915050565b6000611a8a8385611a6d565b9350611a97838584611435565b611aa083611378565b840190509392505050565b6000608082019050611ac06000830188611a5e565b611acd6020830187611a5e565b611ada604083018661151a565b8181036060830152611aed818486611a7e565b90509695505050505050565b611b02816115ef565b8114611b0d57600080fd5b50565b600081519050611b1f81611af9565b92915050565b600060208284031215611b3b57611b3a611209565b5b6000611b4984828501611b10565b91505092915050565b6000608082019050611b676000830187611a5e565b611b746020830186611a5e565b611b816040830185611a5e565b611b8e606083018461151a565b95945050505050565b6000602082019050611bac6000830184611a5e565b92915050565b7f496e697469616c697a61626c653a20636f6e7472616374206973206e6f74206960008201527f6e697469616c697a696e67000000000000000000000000000000000000000000602082015250565b6000611c0e602b83611625565b9150611c1982611bb2565b604082019050919050565b60006020820190508181036000830152611c3d81611c01565b9050919050565b7f455243313936373a206e657720696d706c656d656e746174696f6e206973206e60008201527f6f74206120636f6e747261637400000000000000000000000000000000000000602082015250565b6000611ca0602d83611625565b9150611cab82611c44565b604082019050919050565b60006020820190508181036000830152611ccf81611c93565b9050919050565b7f416464726573733a2064656c65676174652063616c6c20746f206e6f6e2d636f60008201527f6e74726163740000000000000000000000000000000000000000000000000000602082015250565b6000611d32602683611625565b9150611d3d82611cd6565b604082019050919050565b60006020820190508181036000830152611d6181611d25565b9050919050565b600081519050919050565b600081905092915050565b60005b83811015611d9c578082015181840152602081019050611d81565b60008484015250505050565b6000611db382611d68565b611dbd8185611d73565b9350611dcd818560208601611d7e565b80840191505092915050565b6000611de58284611da8565b915081905092915050565b600081519050919050565b6000611e0682611df0565b611e108185611625565b9350611e20818560208601611d7e565b611e2981611378565b840191505092915050565b60006020820190508181036000830152611e4e8184611dfb565b90509291505056fe416464726573733a206c6f772d6c6576656c2064656c65676174652063616c6c206661696c6564a26469706673582212202773acbcbbe51269190d7eebd667c7609fd5472b4cc91d7e053903cd1af9373064736f6c63430008110033",
  "devdoc": {
    "errors": {
      "ContractAlreadyRegistered(address)": [
        {
          "params": {
            "registrant": "The address of the contract to be registered."
          }
        }
      ],
      "ContractERC165SupportInvalid(address)": [
        {
          "params": {
            "registrant": "The address of the contract."
          }
        }
      ],
      "ContractInterfaceInvalid(address)": [
        {
          "params": {
            "registrant": "The address of the contract to be registered."
          }
        }
      ],
      "DaoUnauthorized(address,address,address,bytes32)": [
        {
          "params": {
            "dao": "The associated DAO.",
            "permissionId": "The permission identifier.",
            "where": "The context in which the authorization reverted.",
            "who": "The address (EOA or contract) missing the permission."
          }
        }
      ]
    },
    "events": {
      "DAORegistered(address,address)": {
        "params": {
          "creator": "The address of the creator.",
          "dao": "The address of the DAO contract."
        }
      }
    },
    "kind": "dev",
    "methods": {
      "constructor": {
        "details": "Used to disallow initializing the implementation contract by an attacker for extra safety."
      },
      "dao()": {
        "returns": {
          "_0": "The DAO contract."
        }
      },
      "initialize(address)": {
        "params": {
          "_managingDao": "the managing DAO address."
        }
      },
      "proxiableUUID()": {
        "details": "Implementation of the ERC1822 {proxiableUUID} function. This returns the storage slot used by the implementation. It is used to validate the implementation's compatibility when performing an upgrade. IMPORTANT: A proxy pointing at a proxiable contract should not be considered proxiable itself, because this risks bricking a proxy that upgrades to it, by delegating to itself until out of gas. Thus it is critical that this function revert if invoked through a proxy. This is guaranteed by the `notDelegated` modifier."
      },
      "register(address,address)": {
        "params": {
          "creator": "The address of the creator.",
          "dao": "The address of the DAO contract."
        }
      },
      "upgradeTo(address)": {
        "details": "Upgrade the implementation of the proxy to `newImplementation`. Calls {_authorizeUpgrade}. Emits an {Upgraded} event."
      },
      "upgradeToAndCall(address,bytes)": {
        "details": "Upgrade the implementation of the proxy to `newImplementation`, and subsequently execute the function call encoded in `data`. Calls {_authorizeUpgrade}. Emits an {Upgraded} event."
      }
    },
    "version": 1
  },
  "userdoc": {
    "errors": {
      "ContractAlreadyRegistered(address)": [
        {
          "notice": "Thrown if the contract is already registered."
        }
      ],
      "ContractERC165SupportInvalid(address)": [
        {
          "notice": "Thrown if the contract do not support ERC165."
        }
      ],
      "ContractInterfaceInvalid(address)": [
        {
          "notice": "Thrown if the contract does not support the required interface."
        }
      ],
      "DaoUnauthorized(address,address,address,bytes32)": [
        {
          "notice": "Thrown if a call is unauthorized in the associated DAO."
        }
      ]
    },
    "events": {
      "DAORegistered(address,address)": {
        "notice": "Emitted when a new DAO is registered."
      }
    },
    "kind": "user",
    "methods": {
      "REGISTER_DAO_PERMISSION_ID()": {
        "notice": "The ID of the permission required to call the `register` function."
      },
      "UPGRADE_REGISTRY_PERMISSION_ID()": {
        "notice": "The ID of the permission required to call the `_authorizeUpgrade` function."
      },
      "dao()": {
        "notice": "Returns the DAO contract."
      },
      "entries(address)": {
        "notice": "The mapping containing the registry entries returning true for registererd contract addresses."
      },
      "initialize(address)": {
        "notice": "Initializes the contract."
      },
      "register(address,address)": {
        "notice": "Registers a DAO by its address."
      },
      "targetInterfaceId()": {
        "notice": "The [ERC-165](https://eips.ethereum.org/EIPS/eip-165) interface ID that the target contracts being registered must support."
      }
    },
    "notice": "This contract provides the possiblity to register a DAO.",
    "version": 1
  },
  "storageLayout": {
    "storage": [
      {
        "astId": 473,
        "contract": "contracts/factory/dao/DAORegistry.sol:DAORegistry",
        "label": "_initialized",
        "offset": 0,
        "slot": "0",
        "type": "t_uint8"
      },
      {
        "astId": 476,
        "contract": "contracts/factory/dao/DAORegistry.sol:DAORegistry",
        "label": "_initializing",
        "offset": 1,
        "slot": "0",
        "type": "t_bool"
      },
      {
        "astId": 455,
        "contract": "contracts/factory/dao/DAORegistry.sol:DAORegistry",
        "label": "__gap",
        "offset": 0,
        "slot": "1",
        "type": "t_array(t_uint256)50_storage"
      },
      {
        "astId": 770,
        "contract": "contracts/factory/dao/DAORegistry.sol:DAORegistry",
        "label": "__gap",
        "offset": 0,
        "slot": "51",
        "type": "t_array(t_uint256)50_storage"
      },
      {
        "astId": 4751,
        "contract": "contracts/factory/dao/DAORegistry.sol:DAORegistry",
        "label": "__gap",
        "offset": 0,
        "slot": "101",
        "type": "t_array(t_uint256)50_storage"
      },
      {
        "astId": 11521,
        "contract": "contracts/factory/dao/DAORegistry.sol:DAORegistry",
        "label": "dao_",
        "offset": 0,
        "slot": "151",
        "type": "t_contract(IDAO)10475"
      },
      {
        "astId": 11570,
        "contract": "contracts/factory/dao/DAORegistry.sol:DAORegistry",
        "label": "__gap",
        "offset": 0,
        "slot": "152",
        "type": "t_array(t_uint256)49_storage"
      },
      {
        "astId": 15201,
        "contract": "contracts/factory/dao/DAORegistry.sol:DAORegistry",
        "label": "targetInterfaceId",
        "offset": 0,
        "slot": "201",
        "type": "t_bytes4"
      },
      {
        "astId": 15206,
        "contract": "contracts/factory/dao/DAORegistry.sol:DAORegistry",
        "label": "entries",
        "offset": 0,
        "slot": "202",
        "type": "t_mapping(t_address,t_bool)"
      },
      {
        "astId": 15290,
        "contract": "contracts/factory/dao/DAORegistry.sol:DAORegistry",
        "label": "__gap",
        "offset": 0,
        "slot": "203",
        "type": "t_array(t_uint256)48_storage"
      },
      {
        "astId": 12618,
        "contract": "contracts/factory/dao/DAORegistry.sol:DAORegistry",
        "label": "__gap",
        "offset": 0,
        "slot": "251",
        "type": "t_array(t_uint256)49_storage"
      }
    ],
    "types": {
      "t_address": {
        "encoding": "inplace",
        "label": "address",
        "numberOfBytes": "20"
      },
      "t_array(t_uint256)48_storage": {
        "base": "t_uint256",
        "encoding": "inplace",
        "label": "uint256[48]",
        "numberOfBytes": "1536"
      },
      "t_array(t_uint256)49_storage": {
        "base": "t_uint256",
        "encoding": "inplace",
        "label": "uint256[49]",
        "numberOfBytes": "1568"
      },
      "t_array(t_uint256)50_storage": {
        "base": "t_uint256",
        "encoding": "inplace",
        "label": "uint256[50]",
        "numberOfBytes": "1600"
      },
      "t_bool": {
        "encoding": "inplace",
        "label": "bool",
        "numberOfBytes": "1"
      },
      "t_bytes4": {
        "encoding": "inplace",
        "label": "bytes4",
        "numberOfBytes": "4"
      },
      "t_contract(IDAO)10475": {
        "encoding": "inplace",
        "label": "contract IDAO",
        "numberOfBytes": "20"
      },
      "t_mapping(t_address,t_bool)": {
        "encoding": "mapping",
        "key": "t_address",
        "label": "mapping(address => bool)",
        "numberOfBytes": "32",
        "value": "t_bool"
      },
      "t_uint256": {
        "encoding": "inplace",
        "label": "uint256",
        "numberOfBytes": "32"
      },
      "t_uint8": {
        "encoding": "inplace",
        "label": "uint8",
        "numberOfBytes": "1"
      }
    }
  }
}