{
  "address": "0x68718DC93EDA06895D14486993578cbc44Bd3a8E",
  "abi": [
    {
      "inputs": [],
      "stateMutability": "nonpayable",
      "type": "constructor"
    },
    {
      "inputs": [],
      "name": "implementation",
      "outputs": [
        {
          "internalType": "address",
          "name": "",
          "type": "address"
        }
      ],
      "stateMutability": "view",
      "type": "function"
    },
    {
      "inputs": [
        {
          "internalType": "address",
          "name": "_dao",
          "type": "address"
        },
        {
          "internalType": "bytes",
          "name": "_data",
          "type": "bytes"
        }
      ],
      "name": "prepareInstallation",
      "outputs": [
        {
          "internalType": "address",
          "name": "plugin",
          "type": "address"
        },
        {
          "components": [
            {
              "internalType": "address[]",
              "name": "helpers",
              "type": "address[]"
            },
            {
              "components": [
                {
                  "internalType": "enum PermissionLib.Operation",
                  "name": "operation",
                  "type": "uint8"
                },
                {
                  "internalType": "address",
                  "name": "where",
                  "type": "address"
                },
                {
                  "internalType": "address",
                  "name": "who",
                  "type": "address"
                },
                {
                  "internalType": "address",
                  "name": "condition",
                  "type": "address"
                },
                {
                  "internalType": "bytes32",
                  "name": "permissionId",
                  "type": "bytes32"
                }
              ],
              "internalType": "struct PermissionLib.MultiTargetPermission[]",
              "name": "permissions",
              "type": "tuple[]"
            }
          ],
          "internalType": "struct IPluginSetup.PreparedSetupData",
          "name": "preparedSetupData",
          "type": "tuple"
        }
      ],
      "stateMutability": "nonpayable",
      "type": "function"
    },
    {
      "inputs": [
        {
          "internalType": "address",
          "name": "_dao",
          "type": "address"
        },
        {
          "components": [
            {
              "internalType": "address",
              "name": "plugin",
              "type": "address"
            },
            {
              "internalType": "address[]",
              "name": "currentHelpers",
              "type": "address[]"
            },
            {
              "internalType": "bytes",
              "name": "data",
              "type": "bytes"
            }
          ],
          "internalType": "struct IPluginSetup.SetupPayload",
          "name": "_payload",
          "type": "tuple"
        }
      ],
      "name": "prepareUninstallation",
      "outputs": [
        {
          "components": [
            {
              "internalType": "enum PermissionLib.Operation",
              "name": "operation",
              "type": "uint8"
            },
            {
              "internalType": "address",
              "name": "where",
              "type": "address"
            },
            {
              "internalType": "address",
              "name": "who",
              "type": "address"
            },
            {
              "internalType": "address",
              "name": "condition",
              "type": "address"
            },
            {
              "internalType": "bytes32",
              "name": "permissionId",
              "type": "bytes32"
            }
          ],
          "internalType": "struct PermissionLib.MultiTargetPermission[]",
          "name": "permissions",
          "type": "tuple[]"
        }
      ],
      "stateMutability": "view",
      "type": "function"
    },
    {
      "inputs": [
        {
          "internalType": "address",
          "name": "_dao",
          "type": "address"
        },
        {
          "internalType": "uint16",
          "name": "_currentBuild",
          "type": "uint16"
        },
        {
          "components": [
            {
              "internalType": "address",
              "name": "plugin",
              "type": "address"
            },
            {
              "internalType": "address[]",
              "name": "currentHelpers",
              "type": "address[]"
            },
            {
              "internalType": "bytes",
              "name": "data",
              "type": "bytes"
            }
          ],
          "internalType": "struct IPluginSetup.SetupPayload",
          "name": "_payload",
          "type": "tuple"
        }
      ],
      "name": "prepareUpdate",
      "outputs": [
        {
          "internalType": "bytes",
          "name": "initData",
          "type": "bytes"
        },
        {
          "components": [
            {
              "internalType": "address[]",
              "name": "helpers",
              "type": "address[]"
            },
            {
              "components": [
                {
                  "internalType": "enum PermissionLib.Operation",
                  "name": "operation",
                  "type": "uint8"
                },
                {
                  "internalType": "address",
                  "name": "where",
                  "type": "address"
                },
                {
                  "internalType": "address",
                  "name": "who",
                  "type": "address"
                },
                {
                  "internalType": "address",
                  "name": "condition",
                  "type": "address"
                },
                {
                  "internalType": "bytes32",
                  "name": "permissionId",
                  "type": "bytes32"
                }
              ],
              "internalType": "struct PermissionLib.MultiTargetPermission[]",
              "name": "permissions",
              "type": "tuple[]"
            }
          ],
          "internalType": "struct IPluginSetup.PreparedSetupData",
          "name": "preparedSetupData",
          "type": "tuple"
        }
      ],
      "stateMutability": "nonpayable",
      "type": "function"
    },
    {
      "inputs": [
        {
          "internalType": "bytes4",
          "name": "_interfaceId",
          "type": "bytes4"
        }
      ],
      "name": "supportsInterface",
      "outputs": [
        {
          "internalType": "bool",
          "name": "",
          "type": "bool"
        }
      ],
      "stateMutability": "view",
      "type": "function"
    }
  ],
  "transactionHash": "0x8cc954fb29cba3388e642f24af08780af2f8773159ec624e8118ab1054b13bda",
  "args": [],
  "numDeployments": 1,
  "solcInputHash": "0436994da4f1886ef7ba0eafc5c461be",
  "bytecode": "0x60a060405234801561001057600080fd5b5060405161001d90610072565b604051809103906000f080158015610039573d6000803e3d6000fd5b5073ffffffffffffffffffffffffffffffffffffffff1660808173ffffffffffffffffffffffffffffffffffffffff1681525050610080565b615b0e806200261b83390190565b60805161255c620000bf600039600081816101e0015281816102f60152818161043d0152818161065d015281816107de0152610911015261255c6000f3fe60806040523480156200001157600080fd5b50600436106200005e5760003560e01c806301ffc9a714620000635780635c60da1b14620000995780639cb0a12414620000bb578063a8a9c29e14620000f1578063f10832f11462000128575b600080fd5b6200008160048036038101906200007b919062000cd4565b6200015f565b60405162000090919062000d23565b60405180910390f35b620000a3620001dc565b604051620000b2919062000d85565b60405180910390f35b620000d96004803603810190620000d3919062000dfa565b62000204565b604051620000e891906200103b565b60405180910390f35b6200010f60048036038101906200010991906200109e565b6200061f565b6040516200011f92919062001333565b60405180910390f35b620001466004803603810190620001409190620013dc565b62000633565b6040516200015692919062001446565b60405180910390f35b60007f99718b50000000000000000000000000000000000000000000000000000000007bffffffffffffffffffffffffffffffffffffffffffffffffffffffff1916827bffffffffffffffffffffffffffffffffffffffffffffffffffffffff19161480620001d55750620001d48262000aed565b5b9050919050565b60007f0000000000000000000000000000000000000000000000000000000000000000905090565b6060600367ffffffffffffffff8111156200022457620002236200147a565b5b6040519080825280602002602001820160405280156200026157816020015b6200024d62000bb2565b815260200190600190039081620002435790505b5090506040518060a001604052806001600281111562000286576200028562000e8c565b5b8152602001836000016020810190620002a09190620014a9565b73ffffffffffffffffffffffffffffffffffffffff1681526020018473ffffffffffffffffffffffffffffffffffffffff168152602001600073ffffffffffffffffffffffffffffffffffffffff1681526020017f000000000000000000000000000000000000000000000000000000000000000073ffffffffffffffffffffffffffffffffffffffff16632caf024b6040518163ffffffff1660e01b8152600401602060405180830381865afa15801562000360573d6000803e3d6000fd5b505050506040513d601f19601f820116820180604052508101906200038691906200150c565b81525081600081518110620003a0576200039f6200153e565b5b60200260200101819052506040518060a0016040528060016002811115620003cd57620003cc62000e8c565b5b8152602001836000016020810190620003e79190620014a9565b73ffffffffffffffffffffffffffffffffffffffff1681526020018473ffffffffffffffffffffffffffffffffffffffff168152602001600073ffffffffffffffffffffffffffffffffffffffff1681526020017f000000000000000000000000000000000000000000000000000000000000000073ffffffffffffffffffffffffffffffffffffffff1663c9c4bfca6040518163ffffffff1660e01b8152600401602060405180830381865afa158015620004a7573d6000803e3d6000fd5b505050506040513d601f19601f82011682018060405250810190620004cd91906200150c565b81525081600181518110620004e757620004e66200153e565b5b60200260200101819052506040518060a001604052806001600281111562000514576200051362000e8c565b5b81526020018473ffffffffffffffffffffffffffffffffffffffff1681526020018360000160208101906200054a9190620014a9565b73ffffffffffffffffffffffffffffffffffffffff168152602001600073ffffffffffffffffffffffffffffffffffffffff1681526020018473ffffffffffffffffffffffffffffffffffffffff16630729d0546040518163ffffffff1660e01b8152600401602060405180830381865afa158015620005ce573d6000803e3d6000fd5b505050506040513d601f19601f82011682018060405250810190620005f491906200150c565b815250816002815181106200060e576200060d6200153e565b5b602002602001018190525092915050565b60606200062b62000c3b565b935093915050565b60006200063f62000c3b565b600080858581019062000653919062001727565b91509150620006fe7f0000000000000000000000000000000000000000000000000000000000000000638398525960e01b8985856040516024016200069b939291906200185d565b604051602081830303815290604052907bffffffffffffffffffffffffffffffffffffffffffffffffffffffff19166020820180517bffffffffffffffffffffffffffffffffffffffffffffffffffffffff838183161783525050505062000b57565b93506000600367ffffffffffffffff81111562000720576200071f6200147a565b5b6040519080825280602002602001820160405280156200075d57816020015b6200074962000bb2565b8152602001906001900390816200073f5790505b5090506040518060a001604052806000600281111562000782576200078162000e8c565b5b81526020018673ffffffffffffffffffffffffffffffffffffffff1681526020018973ffffffffffffffffffffffffffffffffffffffff168152602001600073ffffffffffffffffffffffffffffffffffffffff1681526020017f000000000000000000000000000000000000000000000000000000000000000073ffffffffffffffffffffffffffffffffffffffff16632caf024b6040518163ffffffff1660e01b8152600401602060405180830381865afa15801562000848573d6000803e3d6000fd5b505050506040513d601f19601f820116820180604052508101906200086e91906200150c565b815250816000815181106200088857620008876200153e565b5b60200260200101819052506040518060a0016040528060006002811115620008b557620008b462000e8c565b5b81526020018673ffffffffffffffffffffffffffffffffffffffff1681526020018973ffffffffffffffffffffffffffffffffffffffff168152602001600073ffffffffffffffffffffffffffffffffffffffff1681526020017f000000000000000000000000000000000000000000000000000000000000000073ffffffffffffffffffffffffffffffffffffffff1663c9c4bfca6040518163ffffffff1660e01b8152600401602060405180830381865afa1580156200097b573d6000803e3d6000fd5b505050506040513d601f19601f82011682018060405250810190620009a191906200150c565b81525081600181518110620009bb57620009ba6200153e565b5b60200260200101819052506040518060a0016040528060006002811115620009e857620009e762000e8c565b5b81526020018973ffffffffffffffffffffffffffffffffffffffff1681526020018673ffffffffffffffffffffffffffffffffffffffff168152602001600073ffffffffffffffffffffffffffffffffffffffff1681526020018973ffffffffffffffffffffffffffffffffffffffff16630729d0546040518163ffffffff1660e01b8152600401602060405180830381865afa15801562000a8e573d6000803e3d6000fd5b505050506040513d601f19601f8201168201806040525081019062000ab491906200150c565b8152508160028151811062000ace5762000acd6200153e565b5b6020026020010181905250808460200181905250505050935093915050565b60007f01ffc9a7000000000000000000000000000000000000000000000000000000007bffffffffffffffffffffffffffffffffffffffffffffffffffffffff1916827bffffffffffffffffffffffffffffffffffffffffffffffffffffffff1916149050919050565b600062000b65838362000b6d565b905092915050565b6000828260405162000b7f9062000c55565b62000b8c929190620018a1565b604051809103906000f08015801562000ba9573d6000803e3d6000fd5b50905092915050565b6040518060a001604052806000600281111562000bd45762000bd362000e8c565b5b8152602001600073ffffffffffffffffffffffffffffffffffffffff168152602001600073ffffffffffffffffffffffffffffffffffffffff168152602001600073ffffffffffffffffffffffffffffffffffffffff168152602001600080191681525090565b604051806040016040528060608152602001606081525090565b610c5180620018d683390190565b6000604051905090565b600080fd5b600080fd5b60007fffffffff0000000000000000000000000000000000000000000000000000000082169050919050565b62000cae8162000c77565b811462000cba57600080fd5b50565b60008135905062000cce8162000ca3565b92915050565b60006020828403121562000ced5762000cec62000c6d565b5b600062000cfd8482850162000cbd565b91505092915050565b60008115159050919050565b62000d1d8162000d06565b82525050565b600060208201905062000d3a600083018462000d12565b92915050565b600073ffffffffffffffffffffffffffffffffffffffff82169050919050565b600062000d6d8262000d40565b9050919050565b62000d7f8162000d60565b82525050565b600060208201905062000d9c600083018462000d74565b92915050565b62000dad8162000d60565b811462000db957600080fd5b50565b60008135905062000dcd8162000da2565b92915050565b600080fd5b60006060828403121562000df15762000df062000dd3565b5b81905092915050565b6000806040838503121562000e145762000e1362000c6d565b5b600062000e248582860162000dbc565b925050602083013567ffffffffffffffff81111562000e485762000e4762000c72565b5b62000e568582860162000dd8565b9150509250929050565b600081519050919050565b600082825260208201905092915050565b6000819050602082019050919050565b7f4e487b7100000000000000000000000000000000000000000000000000000000600052602160045260246000fd5b6003811062000ecf5762000ece62000e8c565b5b50565b600081905062000ee28262000ebb565b919050565b600062000ef48262000ed2565b9050919050565b62000f068162000ee7565b82525050565b62000f178162000d60565b82525050565b6000819050919050565b62000f328162000f1d565b82525050565b60a08201600082015162000f50600085018262000efb565b50602082015162000f65602085018262000f0c565b50604082015162000f7a604085018262000f0c565b50606082015162000f8f606085018262000f0c565b50608082015162000fa4608085018262000f27565b50505050565b600062000fb8838362000f38565b60a08301905092915050565b6000602082019050919050565b600062000fde8262000e60565b62000fea818562000e6b565b935062000ff78362000e7c565b8060005b838110156200102e57815162001012888262000faa565b97506200101f8362000fc4565b92505060018101905062000ffb565b5085935050505092915050565b6000602082019050818103600083015262001057818462000fd1565b905092915050565b600061ffff82169050919050565b62001078816200105f565b81146200108457600080fd5b50565b60008135905062001098816200106d565b92915050565b600080600060608486031215620010ba57620010b962000c6d565b5b6000620010ca8682870162000dbc565b9350506020620010dd8682870162001087565b925050604084013567ffffffffffffffff81111562001101576200110062000c72565b5b6200110f8682870162000dd8565b9150509250925092565b600081519050919050565b600082825260208201905092915050565b60005b838110156200115557808201518184015260208101905062001138565b60008484015250505050565b6000601f19601f8301169050919050565b60006200117f8262001119565b6200118b818562001124565b93506200119d81856020860162001135565b620011a88162001161565b840191505092915050565b600081519050919050565b600082825260208201905092915050565b6000819050602082019050919050565b6000620011ed838362000f0c565b60208301905092915050565b6000602082019050919050565b60006200121382620011b3565b6200121f8185620011be565b93506200122c83620011cf565b8060005b8381101562001263578151620012478882620011df565b97506200125483620011f9565b92505060018101905062001230565b5085935050505092915050565b600082825260208201905092915050565b60006200128e8262000e60565b6200129a818562001270565b9350620012a78362000e7c565b8060005b83811015620012de578151620012c2888262000faa565b9750620012cf8362000fc4565b925050600181019050620012ab565b5085935050505092915050565b600060408301600083015184820360008601526200130a828262001206565b9150506020830151848203602086015262001326828262001281565b9150508091505092915050565b600060408201905081810360008301526200134f818562001172565b90508181036020830152620013658184620012eb565b90509392505050565b600080fd5b600080fd5b600080fd5b60008083601f8401126200139657620013956200136e565b5b8235905067ffffffffffffffff811115620013b657620013b562001373565b5b602083019150836001820283011115620013d557620013d462001378565b5b9250929050565b600080600060408486031215620013f857620013f762000c6d565b5b6000620014088682870162000dbc565b935050602084013567ffffffffffffffff8111156200142c576200142b62000c72565b5b6200143a868287016200137d565b92509250509250925092565b60006040820190506200145d600083018562000d74565b8181036020830152620014718184620012eb565b90509392505050565b7f4e487b7100000000000000000000000000000000000000000000000000000000600052604160045260246000fd5b600060208284031215620014c257620014c162000c6d565b5b6000620014d28482850162000dbc565b91505092915050565b620014e68162000f1d565b8114620014f257600080fd5b50565b6000815190506200150681620014db565b92915050565b60006020828403121562001525576200152462000c6d565b5b60006200153584828501620014f5565b91505092915050565b7f4e487b7100000000000000000000000000000000000000000000000000000000600052603260045260246000fd5b620015788262001161565b810181811067ffffffffffffffff821117156200159a57620015996200147a565b5b80604052505050565b6000620015af62000c63565b9050620015bd82826200156d565b919050565b600067ffffffffffffffff821115620015e057620015df6200147a565b5b602082029050602081019050919050565b6000620016086200160284620015c2565b620015a3565b905080838252602082019050602084028301858111156200162e576200162d62001378565b5b835b818110156200165b578062001646888262000dbc565b84526020840193505060208101905062001630565b5050509392505050565b600082601f8301126200167d576200167c6200136e565b5b81356200168f848260208601620015f1565b91505092915050565b600080fd5b620016a88162000d06565b8114620016b457600080fd5b50565b600081359050620016c8816200169d565b92915050565b600060408284031215620016e757620016e662001698565b5b620016f36040620015a3565b905060006200170584828501620016b7565b60008301525060206200171b8482850162001087565b60208301525092915050565b6000806060838503121562001741576200174062000c6d565b5b600083013567ffffffffffffffff81111562001762576200176162000c72565b5b620017708582860162001665565b92505060206200178385828601620016ce565b9150509250929050565b600082825260208201905092915050565b6000620017ab82620011b3565b620017b781856200178d565b9350620017c483620011cf565b8060005b83811015620017fb578151620017df8882620011df565b9750620017ec83620011f9565b925050600181019050620017c8565b5085935050505092915050565b620018138162000d06565b82525050565b62001824816200105f565b82525050565b60408201600082015162001842600085018262001808565b50602082015162001857602085018262001819565b50505050565b600060808201905062001874600083018662000d74565b81810360208301526200188881856200179e565b90506200189960408301846200182a565b949350505050565b6000604082019050620018b8600083018562000d74565b8181036020830152620018cc818462001172565b9050939250505056fe608060405260405162000c5138038062000c51833981810160405281019062000029919062000580565b6200003d828260006200004560201b60201c565b5050620007d7565b62000056836200008860201b60201c565b600082511180620000645750805b156200008357620000818383620000df60201b620000371760201c565b505b505050565b62000099816200011560201b60201c565b8073ffffffffffffffffffffffffffffffffffffffff167fbc7cd75a20ee27fd9adebab32041f755214dbc6bffa90cc0225b39da2e5c2d3b60405160405180910390a250565b60606200010d838360405180606001604052806027815260200162000c2a60279139620001eb60201b60201c565b905092915050565b6200012b816200027d60201b620000641760201c565b6200016d576040517f08c379a000000000000000000000000000000000000000000000000000000000815260040162000164906200066d565b60405180910390fd5b80620001a77f360894a13ba1a3210667c828492db98dca3e2076cc3735a920a3ca505d382bbc60001b620002a060201b620000871760201c565b60000160006101000a81548173ffffffffffffffffffffffffffffffffffffffff021916908373ffffffffffffffffffffffffffffffffffffffff16021790555050565b60606000808573ffffffffffffffffffffffffffffffffffffffff1685604051620002179190620006dc565b600060405180830381855af49150503d806000811462000254576040519150601f19603f3d011682016040523d82523d6000602084013e62000259565b606091505b50915091506200027286838387620002aa60201b60201c565b925050509392505050565b6000808273ffffffffffffffffffffffffffffffffffffffff163b119050919050565b6000819050919050565b606083156200031a5760008351036200031157620002ce856200027d60201b60201c565b62000310576040517f08c379a0000000000000000000000000000000000000000000000000000000008152600401620003079062000745565b60405180910390fd5b5b8290506200032d565b6200032c83836200033560201b60201c565b5b949350505050565b600082511115620003495781518083602001fd5b806040517f08c379a00000000000000000000000000000000000000000000000000000000081526004016200037f9190620007b3565b60405180910390fd5b6000604051905090565b600080fd5b600080fd5b600073ffffffffffffffffffffffffffffffffffffffff82169050919050565b6000620003c9826200039c565b9050919050565b620003db81620003bc565b8114620003e757600080fd5b50565b600081519050620003fb81620003d0565b92915050565b600080fd5b600080fd5b6000601f19601f8301169050919050565b7f4e487b7100000000000000000000000000000000000000000000000000000000600052604160045260246000fd5b62000456826200040b565b810181811067ffffffffffffffff821117156200047857620004776200041c565b5b80604052505050565b60006200048d62000388565b90506200049b82826200044b565b919050565b600067ffffffffffffffff821115620004be57620004bd6200041c565b5b620004c9826200040b565b9050602081019050919050565b60005b83811015620004f6578082015181840152602081019050620004d9565b60008484015250505050565b6000620005196200051384620004a0565b62000481565b90508281526020810184848401111562000538576200053762000406565b5b62000545848285620004d6565b509392505050565b600082601f83011262000565576200056462000401565b5b81516200057784826020860162000502565b91505092915050565b600080604083850312156200059a576200059962000392565b5b6000620005aa85828601620003ea565b925050602083015167ffffffffffffffff811115620005ce57620005cd62000397565b5b620005dc858286016200054d565b9150509250929050565b600082825260208201905092915050565b7f455243313936373a206e657720696d706c656d656e746174696f6e206973206e60008201527f6f74206120636f6e747261637400000000000000000000000000000000000000602082015250565b600062000655602d83620005e6565b91506200066282620005f7565b604082019050919050565b60006020820190508181036000830152620006888162000646565b9050919050565b600081519050919050565b600081905092915050565b6000620006b2826200068f565b620006be81856200069a565b9350620006d0818560208601620004d6565b80840191505092915050565b6000620006ea8284620006a5565b915081905092915050565b7f416464726573733a2063616c6c20746f206e6f6e2d636f6e7472616374000000600082015250565b60006200072d601d83620005e6565b91506200073a82620006f5565b602082019050919050565b6000602082019050818103600083015262000760816200071e565b9050919050565b600081519050919050565b60006200077f8262000767565b6200078b8185620005e6565b93506200079d818560208601620004d6565b620007a8816200040b565b840191505092915050565b60006020820190508181036000830152620007cf818462000772565b905092915050565b61044380620007e76000396000f3fe6080604052366100135761001161001d565b005b61001b61001d565b005b610025610091565b610035610030610093565b6100a2565b565b606061005c83836040518060600160405280602781526020016103e7602791396100c8565b905092915050565b6000808273ffffffffffffffffffffffffffffffffffffffff163b119050919050565b6000819050919050565b565b600061009d61014e565b905090565b3660008037600080366000845af43d6000803e80600081146100c3573d6000f35b3d6000fd5b60606000808573ffffffffffffffffffffffffffffffffffffffff16856040516100f291906102db565b600060405180830381855af49150503d806000811461012d576040519150601f19603f3d011682016040523d82523d6000602084013e610132565b606091505b5091509150610143868383876101a5565b925050509392505050565b600061017c7f360894a13ba1a3210667c828492db98dca3e2076cc3735a920a3ca505d382bbc60001b610087565b60000160009054906101000a900473ffffffffffffffffffffffffffffffffffffffff16905090565b606083156102075760008351036101ff576101bf85610064565b6101fe576040517f08c379a00000000000000000000000000000000000000000000000000000000081526004016101f59061034f565b60405180910390fd5b5b829050610212565b610211838361021a565b5b949350505050565b60008251111561022d5781518083602001fd5b806040517f08c379a000000000000000000000000000000000000000000000000000000000815260040161026191906103c4565b60405180910390fd5b600081519050919050565b600081905092915050565b60005b8381101561029e578082015181840152602081019050610283565b60008484015250505050565b60006102b58261026a565b6102bf8185610275565b93506102cf818560208601610280565b80840191505092915050565b60006102e782846102aa565b915081905092915050565b600082825260208201905092915050565b7f416464726573733a2063616c6c20746f206e6f6e2d636f6e7472616374000000600082015250565b6000610339601d836102f2565b915061034482610303565b602082019050919050565b600060208201905081810360008301526103688161032c565b9050919050565b600081519050919050565b6000601f19601f8301169050919050565b60006103968261036f565b6103a081856102f2565b93506103b0818560208601610280565b6103b98161037a565b840191505092915050565b600060208201905081810360008301526103de818461038b565b90509291505056fe416464726573733a206c6f772d6c6576656c2064656c65676174652063616c6c206661696c6564a2646970667358221220d7c51eae9d52e7ae8a67059446a6cb47ecf507c5f20d13ab7a7f05707d9806e064736f6c63430008110033416464726573733a206c6f772d6c6576656c2064656c65676174652063616c6c206661696c6564a2646970667358221220d2b9521f7ab72b1d18ff6fc3ca6d0745af45c43abd44df70794ed4d5bc5823f264736f6c6343000811003360a06040523073ffffffffffffffffffffffffffffffffffffffff1660809073ffffffffffffffffffffffffffffffffffffffff168152503480156200004457600080fd5b50620000556200005b60201b60201c565b62000206565b600060019054906101000a900460ff1615620000ae576040517f08c379a0000000000000000000000000000000000000000000000000000000008152600401620000a590620001a9565b60405180910390fd5b60ff801660008054906101000a900460ff1660ff161015620001205760ff6000806101000a81548160ff021916908360ff1602179055507f7f26b83ff96e1f2b6a682f133852f6798a09c465da95921460cefb384740249860ff604051620001179190620001e9565b60405180910390a15b565b600082825260208201905092915050565b7f496e697469616c697a61626c653a20636f6e747261637420697320696e69746960008201527f616c697a696e6700000000000000000000000000000000000000000000000000602082015250565b60006200019160278362000122565b91506200019e8262000133565b604082019050919050565b60006020820190508181036000830152620001c48162000182565b9050919050565b600060ff82169050919050565b620001e381620001cb565b82525050565b6000602082019050620002006000830184620001d8565b92915050565b6080516158d06200023e60003960008181610ac901528181610b5701528181610c8001528181610d0e0152610dbe01526158d06000f3fe60806040526004361061019c5760003560e01c80636a6b2d86116100ec578063c9c4bfca1161008a578063e097b3ff11610064578063e097b3ff146105f7578063f794062e14610623578063fbd56e4114610660578063fe0d94c11461069d5761019c565b8063c9c4bfca14610564578063cc63604a1461058f578063da35c664146105cc5761019c565b8063a230c524116100c6578063a230c52414610480578063a84eb999146104bd578063b1bb8d26146104e6578063c7f758a8146105235761019c565b80636a6b2d86146103f1578063747442d31461042e57806383985259146104575761019c565b80633628731c1161015957806341de68301161013357806341de6830146103545780634f1ef2861461037f57806352d1902d1461039b5780635c60da1b146103c65761019c565b80633628731c146102d75780633659cfe6146103005780634162169f146103295761019c565b806301ffc9a7146101a15780632358d5a8146101de57806327f1608d1461021b57806329245f56146102465780632caf024b14610283578063303f4336146102ae575b600080fd5b3480156101ad57600080fd5b506101c860048036038101906101c391906133eb565b6106c6565b6040516101d59190613433565b60405180910390f35b3480156101ea57600080fd5b50610205600480360381019061020091906134e2565b61087a565b6040516102129190613433565b60405180910390f35b34801561022757600080fd5b506102306108e6565b60405161023d9190613531565b60405180910390f35b34801561025257600080fd5b5061026d600480360381019061026891906134e2565b610916565b60405161027a9190613433565b60405180910390f35b34801561028f57600080fd5b5061029861092a565b6040516102a59190613565565b60405180910390f35b3480156102ba57600080fd5b506102d560048036038101906102d091906135a4565b61094e565b005b3480156102e357600080fd5b506102fe60048036038101906102f99190613636565b6109b9565b005b34801561030c57600080fd5b5061032760048036038101906103229190613683565b610ac7565b005b34801561033557600080fd5b5061033e610c4f565b60405161034b919061370f565b60405180910390f35b34801561036057600080fd5b50610369610c79565b60405161037691906137a1565b60405180910390f35b610399600480360381019061039491906138fd565b610c7e565b005b3480156103a757600080fd5b506103b0610dba565b6040516103bd9190613565565b60405180910390f35b3480156103d257600080fd5b506103db610e73565b6040516103e89190613968565b60405180910390f35b3480156103fd57600080fd5b5061041860048036038101906104139190613983565b610e82565b6040516104259190613531565b60405180910390f35b34801561043a57600080fd5b50610455600480360381019061045091906139dc565b610ea0565b005b34801561046357600080fd5b5061047e60048036038101906104799190613a5a565b611009565b005b34801561048c57600080fd5b506104a760048036038101906104a29190613683565b611198565b6040516104b49190613433565b60405180910390f35b3480156104c957600080fd5b506104e460048036038101906104df9190613636565b6111aa565b005b3480156104f257600080fd5b5061050d60048036038101906105089190613ace565b6112e2565b60405161051a9190613433565b60405180910390f35b34801561052f57600080fd5b5061054a60048036038101906105459190613983565b611341565b60405161055b959493929190613d61565b60405180910390f35b34801561057057600080fd5b506105796115b6565b6040516105869190613565565b60405180910390f35b34801561059b57600080fd5b506105b660048036038101906105b19190613983565b6115da565b6040516105c39190613433565b60405180910390f35b3480156105d857600080fd5b506105e16115ec565b6040516105ee9190613531565b60405180910390f35b34801561060357600080fd5b5061060c6115fe565b60405161061a929190613dbc565b60405180910390f35b34801561062f57600080fd5b5061064a60048036038101906106459190613683565b61162c565b6040516106579190613433565b60405180910390f35b34801561066c57600080fd5b5061068760048036038101906106829190613ebd565b61169e565b6040516106949190613531565b60405180910390f35b3480156106a957600080fd5b506106c460048036038101906106bf9190613983565b6119bf565b005b600063c7f758a860e01b63fbd56e4160e01b63303f433660e01b638398525960e01b1818187bffffffffffffffffffffffffffffffffffffffffffffffffffffffff1916827bffffffffffffffffffffffffffffffffffffffffffffffffffffffff1916148061079357507fd200f623000000000000000000000000000000000000000000000000000000007bffffffffffffffffffffffffffffffffffffffffffffffffffffffff1916827bffffffffffffffffffffffffffffffffffffffffffffffffffffffff1916145b806107fb57507f0bb5c603000000000000000000000000000000000000000000000000000000007bffffffffffffffffffffffffffffffffffffffffffffffffffffffff1916827bffffffffffffffffffffffffffffffffffffffffffffffffffffffff1916145b8061086357507fa230c524000000000000000000000000000000000000000000000000000000007bffffffffffffffffffffffffffffffffffffffffffffffffffffffff1916827bffffffffffffffffffffffffffffffffffffffffffffffffffffffff1916145b80610873575061087282611a15565b5b9050919050565b6000610191600084815260200190815260200160002060020160008373ffffffffffffffffffffffffffffffffffffffff1673ffffffffffffffffffffffffffffffffffffffff16815260200190815260200160002060009054906101000a900460ff16905092915050565b60006108f3610160611a8f565b7bffffffffffffffffffffffffffffffffffffffffffffffffffffffff16905090565b60006109228383611af9565b905092915050565b7fb1750e46d35a0069c8465b8643e7838d2149a842a2db8ee233d9835590040cad81565b7fb1750e46d35a0069c8465b8643e7838d2149a842a2db8ee233d9835590040cad6109ac60c960009054906101000a900473ffffffffffffffffffffffffffffffffffffffff163061099e611bd0565b846109a7611bd8565b611be5565b6109b582611cb6565b5050565b7fb1750e46d35a0069c8465b8643e7838d2149a842a2db8ee233d9835590040cad610a1760c960009054906101000a900473ffffffffffffffffffffffffffffffffffffffff1630610a09611bd0565b84610a12611bd8565b611be5565b600083839050610a256108e6565b610a2f9190613fce565b905061ffff8016811115610a7e5761ffff816040517f125ae340000000000000000000000000000000000000000000000000000000008152600401610a75929190614002565b60405180910390fd5b610a888484611e1d565b7f11ba20e083ffba533caf1d501ce171aa2acdc05a5601e4e473e449460b0718d88484604051610ab99291906140df565b60405180910390a150505050565b7f000000000000000000000000000000000000000000000000000000000000000073ffffffffffffffffffffffffffffffffffffffff163073ffffffffffffffffffffffffffffffffffffffff1603610b55576040517f08c379a0000000000000000000000000000000000000000000000000000000008152600401610b4c90614186565b60405180910390fd5b7f000000000000000000000000000000000000000000000000000000000000000073ffffffffffffffffffffffffffffffffffffffff16610b94611f6e565b73ffffffffffffffffffffffffffffffffffffffff1614610bea576040517f08c379a0000000000000000000000000000000000000000000000000000000008152600401610be190614218565b60405180910390fd5b610bf381611fc5565b610c4c81600067ffffffffffffffff811115610c1257610c116137d2565b5b6040519080825280601f01601f191660200182016040528015610c445781602001600182028036833780820191505090505b506000612027565b50565b600060c960009054906101000a900473ffffffffffffffffffffffffffffffffffffffff16905090565b600090565b7f000000000000000000000000000000000000000000000000000000000000000073ffffffffffffffffffffffffffffffffffffffff163073ffffffffffffffffffffffffffffffffffffffff1603610d0c576040517f08c379a0000000000000000000000000000000000000000000000000000000008152600401610d0390614186565b60405180910390fd5b7f000000000000000000000000000000000000000000000000000000000000000073ffffffffffffffffffffffffffffffffffffffff16610d4b611f6e565b73ffffffffffffffffffffffffffffffffffffffff1614610da1576040517f08c379a0000000000000000000000000000000000000000000000000000000008152600401610d9890614218565b60405180910390fd5b610daa82611fc5565b610db682826001612027565b5050565b60007f000000000000000000000000000000000000000000000000000000000000000073ffffffffffffffffffffffffffffffffffffffff163073ffffffffffffffffffffffffffffffffffffffff1614610e4a576040517f08c379a0000000000000000000000000000000000000000000000000000000008152600401610e41906142aa565b60405180910390fd5b7f360894a13ba1a3210667c828492db98dca3e2076cc3735a920a3ca505d382bbc60001b905090565b6000610e7d611f6e565b905090565b6000610e998261016061219590919063ffffffff16565b9050919050565b6000610eaa611bd0565b9050610eb68382611af9565b610ef95782816040517f37eda872000000000000000000000000000000000000000000000000000000008152600401610ef09291906142ca565b60405180910390fd5b60006101916000858152602001908152602001600020905060018160000160018282829054906101000a900461ffff160192506101000a81548161ffff021916908361ffff16021790555060018160020160008473ffffffffffffffffffffffffffffffffffffffff1673ffffffffffffffffffffffffffffffffffffffff16815260200190815260200160002060006101000a81548160ff0219169083151502179055508173ffffffffffffffffffffffffffffffffffffffff16847f7b39c92a7e1a86e846edaeff6eba715a046352c596794c2a374269c126a9976860405160405180910390a3828015610ff45750610ff384612284565b5b1561100357611002846122f0565b5b50505050565b60008060019054906101000a900460ff1615905080801561103a5750600160008054906101000a900460ff1660ff16105b806110675750611049306124b3565b1580156110665750600160008054906101000a900460ff1660ff16145b5b6110a6576040517f08c379a000000000000000000000000000000000000000000000000000000000815260040161109d90614365565b60405180910390fd5b60016000806101000a81548160ff021916908360ff16021790555080156110e3576001600060016101000a81548160ff0219169083151502179055505b6110ec856124d6565b6110f68484611e1d565b7f11ba20e083ffba533caf1d501ce171aa2acdc05a5601e4e473e449460b0718d884846040516111279291906140df565b60405180910390a161113882611cb6565b80156111915760008060016101000a81548160ff0219169083151502179055507f7f26b83ff96e1f2b6a682f133852f6798a09c465da95921460cefb3847402498600160405161118891906143cd565b60405180910390a15b5050505050565b60006111a38261162c565b9050919050565b7fb1750e46d35a0069c8465b8643e7838d2149a842a2db8ee233d9835590040cad61120860c960009054906101000a900473ffffffffffffffffffffffffffffffffffffffff16306111fa611bd0565b84611203611bd8565b611be5565b6000838390506112166108e6565b61122091906143e8565b905061019260000160019054906101000a900461ffff1661ffff168161ffff161015611299578061019260000160019054906101000a900461ffff166040517f2f621d5a00000000000000000000000000000000000000000000000000000000815260040161129092919061441c565b60405180910390fd5b6112a38484612531565b7f0ba413f7646035cae0a4ee999d676078fc8a763d1a36a8ef25e4c10f67d8615d84846040516112d49291906140df565b60405180910390a150505050565b600060016113388361015f60008773ffffffffffffffffffffffffffffffffffffffff1673ffffffffffffffffffffffffffffffffffffffff16815260200190815260200160002061219590919063ffffffff16565b14905092915050565b60008061134c613335565b6060600080610191600088815260200190815260200160002090508060000160009054906101000a900460ff1695508060000160019054906101000a900461ffff169450806001016040518060800160405290816000820160009054906101000a900461ffff1661ffff1661ffff1681526020016000820160029054906101000a900467ffffffffffffffff1667ffffffffffffffff1667ffffffffffffffff16815260200160008201600a9054906101000a900467ffffffffffffffff1667ffffffffffffffff1667ffffffffffffffff1681526020016000820160129054906101000a900467ffffffffffffffff1667ffffffffffffffff1667ffffffffffffffff1681525050935080600301805480602002602001604051908101604052809291908181526020016000905b8282101561159f57838290600052602060002090600302016040518060600160405290816000820160009054906101000a900473ffffffffffffffffffffffffffffffffffffffff1673ffffffffffffffffffffffffffffffffffffffff1673ffffffffffffffffffffffffffffffffffffffff1681526020016001820154815260200160028201805461150e90614474565b80601f016020809104026020016040519081016040528092919081815260200182805461153a90614474565b80156115875780601f1061155c57610100808354040283529160200191611587565b820191906000526020600020905b81548152906001019060200180831161156a57829003601f168201915b5050505050815250508152602001906001019061147b565b505050509250806004015491505091939590929450565b7f821b6e3a557148015a918c89e5d092e878a69854a2d1a410635f771bd5a8a3f581565b60006115e582612284565b9050919050565b60006115f961012d612681565b905090565b6101928060000160009054906101000a900460ff16908060000160019054906101000a900461ffff16905082565b6000600161167861015f60008573ffffffffffffffffffffffffffffffffffffffff1673ffffffffffffffffffffffffffffffffffffffff168152602001908152602001600020611a8f565b7bffffffffffffffffffffffffffffffffffffffffffffffffffffffff16149050919050565b60008060016116ac4361268f565b6116b691906144a5565b905061019260000160009054906101000a900460ff1680156116f057506116ee6116de611bd0565b8267ffffffffffffffff166112e2565b155b15611739576116fd611bd0565b6040517feab993440000000000000000000000000000000000000000000000000000000081526004016117309190613968565b60405180910390fd5b60008467ffffffffffffffff160361175b576117544261268f565b93506117c7565b6117644261268f565b67ffffffffffffffff168467ffffffffffffffff1610156117c6576117884261268f565b846040517f4cc9c0f40000000000000000000000000000000000000000000000000000000081526004016117bd9291906144f0565b60405180910390fd5b5b8367ffffffffffffffff168367ffffffffffffffff1610156118225783836040517f4cc9c0f40000000000000000000000000000000000000000000000000000000081526004016118199291906144f0565b60405180910390fd5b61183961182d611bd0565b8c8c87878e8e8e6126e6565b9150600061019160008481526020019081526020016000209050818160010160000160026101000a81548167ffffffffffffffff021916908367ffffffffffffffff1602179055508481600101600001600a6101000a81548167ffffffffffffffff021916908367ffffffffffffffff160217905550838160010160000160126101000a81548167ffffffffffffffff021916908367ffffffffffffffff16021790555061019260000160019054906101000a900461ffff168160010160000160006101000a81548161ffff021916908361ffff16021790555060008814611925578781600401819055505b60005b8a8a905081101561199e57816003018b8b8381811061194a57611949614519565b5b905060200281019061195c9190614557565b9080600181540180825580915050600190039060005260206000209060030201600090919091909150818161199191906149e9565b5050806001019050611928565b5086156119b0576119af8387610ea0565b5b50509998505050505050505050565b6119c881612284565b611a0957806040517f9fefd0f1000000000000000000000000000000000000000000000000000000008152600401611a009190613531565b60405180910390fd5b611a12816122f0565b50565b60007fda35c664000000000000000000000000000000000000000000000000000000007bffffffffffffffffffffffffffffffffffffffffffffffffffffffff1916827bffffffffffffffffffffffffffffffffffffffffffffffffffffffff19161480611a885750611a8782612759565b5b9050919050565b6000808260000180549050905060008114611aee57611abd83600001600183611ab891906143e8565b61283b565b60000160049054906101000a90047bffffffffffffffffffffffffffffffffffffffffffffffffffffffff16611af1565b60005b915050919050565b60008061019160008581526020019081526020016000209050611b1b81612850565b611b29576000915050611bca565b611b58838260010160000160029054906101000a900467ffffffffffffffff1667ffffffffffffffff166112e2565b611b66576000915050611bca565b8060020160008473ffffffffffffffffffffffffffffffffffffffff1673ffffffffffffffffffffffffffffffffffffffff16815260200190815260200160002060009054906101000a900460ff1615611bc4576000915050611bca565b60019150505b92915050565b600033905090565b3660008036915091509091565b8573ffffffffffffffffffffffffffffffffffffffff1663fdef910686868686866040518663ffffffff1660e01b8152600401611c26959493929190614a35565b602060405180830381865afa158015611c43573d6000803e3d6000fd5b505050506040513d601f19601f82011682018060405250810190611c679190614a98565b611cae57858585856040517f32dbe3b4000000000000000000000000000000000000000000000000000000008152600401611ca59493929190614ac5565b60405180910390fd5b505050505050565b6000611cc06108e6565b90508061ffff16826020016020810190611cda9190614b36565b61ffff161115611d355780826020016020810190611cf89190614b36565b6040517f2f621d5a000000000000000000000000000000000000000000000000000000008152600401611d2c92919061441c565b60405180910390fd5b6001826020016020810190611d4a9190614b36565b61ffff161015611da6576001826020016020810190611d699190614b36565b6040517f2f621d5a000000000000000000000000000000000000000000000000000000008152600401611d9d929190614b94565b60405180910390fd5b816101928181611db69190614d12565b905050816020016020810190611dcc9190614b36565b61ffff167f7d8a9a57630acbcfb28eb55b1ce0ff7b3d0dc9edea594075a8a6af35278a4cf9836000016020810190611e049190614d20565b604051611e119190613433565b60405180910390a25050565b60005b82829050811015611f4b57611e5b838383818110611e4157611e40614519565b5b9050602002016020810190611e569190613683565b61162c565b15611ec457828282818110611e7357611e72614519565b5b9050602002016020810190611e889190613683565b6040517fc0b7477d000000000000000000000000000000000000000000000000000000008152600401611ebb9190613968565b60405180910390fd5b611f3e600161015f6000868686818110611ee157611ee0614519565b5b9050602002016020810190611ef69190613683565b73ffffffffffffffffffffffffffffffffffffffff1673ffffffffffffffffffffffffffffffffffffffff1681526020019081526020016000206128ef90919063ffffffff16565b5050806001019050611e20565b50611f6861295d8383905061016061296a9092919063ffffffff16565b50505050565b6000611f9c7f360894a13ba1a3210667c828492db98dca3e2076cc3735a920a3ca505d382bbc60001b6129b6565b60000160009054906101000a900473ffffffffffffffffffffffffffffffffffffffff16905090565b7f821b6e3a557148015a918c89e5d092e878a69854a2d1a410635f771bd5a8a3f561202360c960009054906101000a900473ffffffffffffffffffffffffffffffffffffffff1630612015611bd0565b8461201e611bd8565b611be5565b5050565b6120537f4910fdfa16fed3260ed0e7147f7cc6da11a60208b5b9406d12a635614ffd914360001b6129c0565b60000160009054906101000a900460ff161561207757612072836129ca565b612190565b8273ffffffffffffffffffffffffffffffffffffffff166352d1902d6040518163ffffffff1660e01b8152600401602060405180830381865afa9250505080156120df57506040513d601f19601f820116820180604052508101906120dc9190614d79565b60015b61211e576040517f08c379a000000000000000000000000000000000000000000000000000000000815260040161211590614e18565b60405180910390fd5b7f360894a13ba1a3210667c828492db98dca3e2076cc3735a920a3ca505d382bbc60001b8114612183576040517f08c379a000000000000000000000000000000000000000000000000000000000815260040161217a90614eaa565b60405180910390fd5b5061218f838383612a83565b5b505050565b60004382106121d9576040517f08c379a00000000000000000000000000000000000000000000000000000000081526004016121d090614f16565b60405180910390fd5b60006121e483612aaf565b905060008460000180549050905060006122048660000184600085612b02565b905060008114612258576122278660000160018361222291906143e8565b61283b565b60000160049054906101000a90047bffffffffffffffffffffffffffffffffffffffffffffffffffffffff1661225b565b60005b7bffffffffffffffffffffffffffffffffffffffffffffffffffffffff16935050505092915050565b600080610191600084815260200190815260200160002090506122a681612850565b6122b45760009150506122eb565b8060010160000160009054906101000a900461ffff1661ffff168160000160019054906101000a900461ffff1661ffff1610159150505b919050565b60006101916000838152602001908152602001600020905060018160000160006101000a81548160ff0219169083151502179055506124ad612330610c4f565b836101916000868152602001908152602001600020600301805480602002602001604051908101604052809291908181526020016000905b8282101561248c57838290600052602060002090600302016040518060600160405290816000820160009054906101000a900473ffffffffffffffffffffffffffffffffffffffff1673ffffffffffffffffffffffffffffffffffffffff1673ffffffffffffffffffffffffffffffffffffffff168152602001600182015481526020016002820180546123fb90614474565b80601f016020809104026020016040519081016040528092919081815260200182805461242790614474565b80156124745780601f1061244957610100808354040283529160200191612474565b820191906000526020600020905b81548152906001019060200180831161245757829003601f168201915b50505050508152505081526020019060010190612368565b50505050610191600087815260200190815260200160002060040154612b75565b50505050565b6000808273ffffffffffffffffffffffffffffffffffffffff163b119050919050565b600060019054906101000a900460ff16612525576040517f08c379a000000000000000000000000000000000000000000000000000000000815260040161251c90614fa8565b60405180910390fd5b61252e81612c3f565b50565b60005b8282905081101561265e5761256f83838381811061255557612554614519565b5b905060200201602081019061256a9190613683565b61162c565b6125d75782828281811061258657612585614519565b5b905060200201602081019061259b9190613683565b6040517fc0b7477d0000000000000000000000000000000000000000000000000000000081526004016125ce9190613968565b60405180910390fd5b612651600061015f60008686868181106125f4576125f3614519565b5b90506020020160208101906126099190613683565b73ffffffffffffffffffffffffffffffffffffffff1673ffffffffffffffffffffffffffffffffffffffff1681526020019081526020016000206128ef90919063ffffffff16565b5050806001019050612534565b5061267b612cd28383905061016061296a9092919063ffffffff16565b50505050565b600081600001549050919050565b600067ffffffffffffffff80168211156126de576040517f08c379a00000000000000000000000000000000000000000000000000000000081526004016126d59061503a565b60405180910390fd5b819050919050565b60006126f0612cdf565b90508873ffffffffffffffffffffffffffffffffffffffff16817fa6c1f8f4276dc3f243459e13b557c84e8f4e90b2e09070bad5f6909cee687c9288888c8c8a8a8a6040516127459796959493929190615241565b60405180910390a398975050505050505050565b60007f41de6830000000000000000000000000000000000000000000000000000000007bffffffffffffffffffffffffffffffffffffffffffffffffffffffff1916827bffffffffffffffffffffffffffffffffffffffffffffffffffffffff1916148061282457507f52d1902d000000000000000000000000000000000000000000000000000000007bffffffffffffffffffffffffffffffffffffffffffffffffffffffff1916827bffffffffffffffffffffffffffffffffffffffffffffffffffffffff1916145b80612834575061283382612cf9565b5b9050919050565b60008260005281602060002001905092915050565b60008061285c4261268f565b90508260000160009054906101000a900460ff161580156128ac57508067ffffffffffffffff1683600101600001600a9054906101000a900467ffffffffffffffff1667ffffffffffffffff1611155b80156128e757508067ffffffffffffffff168360010160000160129054906101000a900467ffffffffffffffff1667ffffffffffffffff1610155b915050919050565b6000806129108460000161290243612aaf565b61290b86612d63565b612dce565b817bffffffffffffffffffffffffffffffffffffffffffffffffffffffff169150807bffffffffffffffffffffffffffffffffffffffffffffffffffffffff169050915091509250929050565b6000818301905092915050565b6000806129aa856129a561297d88611a8f565b7bffffffffffffffffffffffffffffffffffffffffffffffffffffffff16868863ffffffff16565b6128ef565b91509150935093915050565b6000819050919050565b6000819050919050565b6129d3816124b3565b612a12576040517f08c379a0000000000000000000000000000000000000000000000000000000008152600401612a0990615318565b60405180910390fd5b80612a3f7f360894a13ba1a3210667c828492db98dca3e2076cc3735a920a3ca505d382bbc60001b6129b6565b60000160006101000a81548173ffffffffffffffffffffffffffffffffffffffff021916908373ffffffffffffffffffffffffffffffffffffffff16021790555050565b612a8c83613154565b600082511180612a995750805b15612aaa57612aa883836131a3565b505b505050565b600063ffffffff8016821115612afa576040517f08c379a0000000000000000000000000000000000000000000000000000000008152600401612af1906153aa565b60405180910390fd5b819050919050565b60005b81831015612b6a576000612b198484613287565b90508463ffffffff16612b2c878361283b565b60000160009054906101000a900463ffffffff1663ffffffff161115612b5457809250612b64565b600181612b619190613fce565b93505b50612b05565b819050949350505050565b606060008573ffffffffffffffffffffffffffffffffffffffff1663c71bf3248660001b86866040518463ffffffff1660e01b8152600401612bb9939291906153ca565b6000604051808303816000875af1158015612bd8573d6000803e3d6000fd5b505050506040513d6000823e3d601f19601f82011682018060405250810190612c01919061556e565b8092508193505050847f712ae1383f79ac853f8d882153778e0260ef8f03b504e2866e0593e04d2b291f60405160405180910390a294509492505050565b600060019054906101000a900460ff16612c8e576040517f08c379a0000000000000000000000000000000000000000000000000000000008152600401612c8590614fa8565b60405180910390fd5b8060c960006101000a81548173ffffffffffffffffffffffffffffffffffffffff021916908373ffffffffffffffffffffffffffffffffffffffff16021790555050565b6000818303905092915050565b6000612ce96115ec565b9050612cf661012d6132ad565b90565b60007f01ffc9a7000000000000000000000000000000000000000000000000000000007bffffffffffffffffffffffffffffffffffffffffffffffffffffffff1916827bffffffffffffffffffffffffffffffffffffffffffffffffffffffff1916149050919050565b60007bffffffffffffffffffffffffffffffffffffffffffffffffffffffff8016821115612dc6576040517f08c379a0000000000000000000000000000000000000000000000000000000008152600401612dbd9061563c565b60405180910390fd5b819050919050565b6000806000858054905090506000811115613064576000612dfb87600184612df691906143e8565b61283b565b6040518060400160405290816000820160009054906101000a900463ffffffff1663ffffffff1663ffffffff1681526020016000820160049054906101000a90047bffffffffffffffffffffffffffffffffffffffffffffffffffffffff167bffffffffffffffffffffffffffffffffffffffffffffffffffffffff167bffffffffffffffffffffffffffffffffffffffffffffffffffffffff168152505090508563ffffffff16816000015163ffffffff161115612eef576040517f08c379a0000000000000000000000000000000000000000000000000000000008152600401612ee6906156a8565b60405180910390fd5b8563ffffffff16816000015163ffffffff1603612f735784612f1d88600185612f1891906143e8565b61283b565b60000160046101000a8154817bffffffffffffffffffffffffffffffffffffffffffffffffffffffff02191690837bffffffffffffffffffffffffffffffffffffffffffffffffffffffff160217905550613053565b8660405180604001604052808863ffffffff168152602001877bffffffffffffffffffffffffffffffffffffffffffffffffffffffff168152509080600181540180825580915050600190039060005260206000200160009091909190915060008201518160000160006101000a81548163ffffffff021916908363ffffffff16021790555060208201518160000160046101000a8154817bffffffffffffffffffffffffffffffffffffffffffffffffffffffff02191690837bffffffffffffffffffffffffffffffffffffffffffffffffffffffff16021790555050505b80602001518593509350505061314c565b8560405180604001604052808763ffffffff168152602001867bffffffffffffffffffffffffffffffffffffffffffffffffffffffff168152509080600181540180825580915050600190039060005260206000200160009091909190915060008201518160000160006101000a81548163ffffffff021916908363ffffffff16021790555060208201518160000160046101000a8154817bffffffffffffffffffffffffffffffffffffffffffffffffffffffff02191690837bffffffffffffffffffffffffffffffffffffffffffffffffffffffff160217905550505060008492509250505b935093915050565b61315d816129ca565b8073ffffffffffffffffffffffffffffffffffffffff167fbc7cd75a20ee27fd9adebab32041f755214dbc6bffa90cc0225b39da2e5c2d3b60405160405180910390a250565b60606131ae836124b3565b6131ed576040517f08c379a00000000000000000000000000000000000000000000000000000000081526004016131e49061573a565b60405180910390fd5b6000808473ffffffffffffffffffffffffffffffffffffffff16846040516132159190615796565b600060405180830381855af49150503d8060008114613250576040519150601f19603f3d011682016040523d82523d6000602084013e613255565b606091505b509150915061327d8282604051806060016040528060278152602001615874602791396132c3565b9250505092915050565b6000600282841861329891906157dc565b8284166132a59190613fce565b905092915050565b6001816000016000828254019250508190555050565b606083156132d3578290506132de565b6132dd83836132e5565b5b9392505050565b6000825111156132f85781518083602001fd5b806040517f08c379a000000000000000000000000000000000000000000000000000000000815260040161332c9190615851565b60405180910390fd5b6040518060800160405280600061ffff168152602001600067ffffffffffffffff168152602001600067ffffffffffffffff168152602001600067ffffffffffffffff1681525090565b6000604051905090565b600080fd5b600080fd5b60007fffffffff0000000000000000000000000000000000000000000000000000000082169050919050565b6133c881613393565b81146133d357600080fd5b50565b6000813590506133e5816133bf565b92915050565b60006020828403121561340157613400613389565b5b600061340f848285016133d6565b91505092915050565b60008115159050919050565b61342d81613418565b82525050565b60006020820190506134486000830184613424565b92915050565b6000819050919050565b6134618161344e565b811461346c57600080fd5b50565b60008135905061347e81613458565b92915050565b600073ffffffffffffffffffffffffffffffffffffffff82169050919050565b60006134af82613484565b9050919050565b6134bf816134a4565b81146134ca57600080fd5b50565b6000813590506134dc816134b6565b92915050565b600080604083850312156134f9576134f8613389565b5b60006135078582860161346f565b9250506020613518858286016134cd565b9150509250929050565b61352b8161344e565b82525050565b60006020820190506135466000830184613522565b92915050565b6000819050919050565b61355f8161354c565b82525050565b600060208201905061357a6000830184613556565b92915050565b600080fd5b60006040828403121561359b5761359a613580565b5b81905092915050565b6000604082840312156135ba576135b9613389565b5b60006135c884828501613585565b91505092915050565b600080fd5b600080fd5b600080fd5b60008083601f8401126135f6576135f56135d1565b5b8235905067ffffffffffffffff811115613613576136126135d6565b5b60208301915083602082028301111561362f5761362e6135db565b5b9250929050565b6000806020838503121561364d5761364c613389565b5b600083013567ffffffffffffffff81111561366b5761366a61338e565b5b613677858286016135e0565b92509250509250929050565b60006020828403121561369957613698613389565b5b60006136a7848285016134cd565b91505092915050565b6000819050919050565b60006136d56136d06136cb84613484565b6136b0565b613484565b9050919050565b60006136e7826136ba565b9050919050565b60006136f9826136dc565b9050919050565b613709816136ee565b82525050565b60006020820190506137246000830184613700565b92915050565b7f4e487b7100000000000000000000000000000000000000000000000000000000600052602160045260246000fd5b6003811061376a5761376961372a565b5b50565b600081905061377b82613759565b919050565b600061378b8261376d565b9050919050565b61379b81613780565b82525050565b60006020820190506137b66000830184613792565b92915050565b600080fd5b6000601f19601f8301169050919050565b7f4e487b7100000000000000000000000000000000000000000000000000000000600052604160045260246000fd5b61380a826137c1565b810181811067ffffffffffffffff82111715613829576138286137d2565b5b80604052505050565b600061383c61337f565b90506138488282613801565b919050565b600067ffffffffffffffff821115613868576138676137d2565b5b613871826137c1565b9050602081019050919050565b82818337600083830152505050565b60006138a061389b8461384d565b613832565b9050828152602081018484840111156138bc576138bb6137bc565b5b6138c784828561387e565b509392505050565b600082601f8301126138e4576138e36135d1565b5b81356138f484826020860161388d565b91505092915050565b6000806040838503121561391457613913613389565b5b6000613922858286016134cd565b925050602083013567ffffffffffffffff8111156139435761394261338e565b5b61394f858286016138cf565b9150509250929050565b613962816134a4565b82525050565b600060208201905061397d6000830184613959565b92915050565b60006020828403121561399957613998613389565b5b60006139a78482850161346f565b91505092915050565b6139b981613418565b81146139c457600080fd5b50565b6000813590506139d6816139b0565b92915050565b600080604083850312156139f3576139f2613389565b5b6000613a018582860161346f565b9250506020613a12858286016139c7565b9150509250929050565b6000613a27826134a4565b9050919050565b613a3781613a1c565b8114613a4257600080fd5b50565b600081359050613a5481613a2e565b92915050565b60008060008060808587031215613a7457613a73613389565b5b6000613a8287828801613a45565b945050602085013567ffffffffffffffff811115613aa357613aa261338e565b5b613aaf878288016135e0565b93509350506040613ac287828801613585565b91505092959194509250565b60008060408385031215613ae557613ae4613389565b5b6000613af3858286016134cd565b9250506020613b048582860161346f565b9150509250929050565b600061ffff82169050919050565b613b2581613b0e565b82525050565b613b3481613b0e565b82525050565b600067ffffffffffffffff82169050919050565b613b5781613b3a565b82525050565b608082016000820151613b736000850182613b2b565b506020820151613b866020850182613b4e565b506040820151613b996040850182613b4e565b506060820151613bac6060850182613b4e565b50505050565b600081519050919050565b600082825260208201905092915050565b6000819050602082019050919050565b613be7816134a4565b82525050565b613bf68161344e565b82525050565b600081519050919050565b600082825260208201905092915050565b60005b83811015613c36578082015181840152602081019050613c1b565b60008484015250505050565b6000613c4d82613bfc565b613c578185613c07565b9350613c67818560208601613c18565b613c70816137c1565b840191505092915050565b6000606083016000830151613c936000860182613bde565b506020830151613ca66020860182613bed565b5060408301518482036040860152613cbe8282613c42565b9150508091505092915050565b6000613cd78383613c7b565b905092915050565b6000602082019050919050565b6000613cf782613bb2565b613d018185613bbd565b935083602082028501613d1385613bce565b8060005b85811015613d4f5784840389528151613d308582613ccb565b9450613d3b83613cdf565b925060208a01995050600181019050613d17565b50829750879550505050505092915050565b600061010082019050613d776000830188613424565b613d846020830187613b1c565b613d916040830186613b5d565b81810360c0830152613da38185613cec565b9050613db260e0830184613522565b9695505050505050565b6000604082019050613dd16000830185613424565b613dde6020830184613b1c565b9392505050565b60008083601f840112613dfb57613dfa6135d1565b5b8235905067ffffffffffffffff811115613e1857613e176135d6565b5b602083019150836001820283011115613e3457613e336135db565b5b9250929050565b60008083601f840112613e5157613e506135d1565b5b8235905067ffffffffffffffff811115613e6e57613e6d6135d6565b5b602083019150836020820283011115613e8a57613e896135db565b5b9250929050565b613e9a81613b3a565b8114613ea557600080fd5b50565b600081359050613eb781613e91565b92915050565b600080600080600080600080600060e08a8c031215613edf57613ede613389565b5b60008a013567ffffffffffffffff811115613efd57613efc61338e565b5b613f098c828d01613de5565b995099505060208a013567ffffffffffffffff811115613f2c57613f2b61338e565b5b613f388c828d01613e3b565b97509750506040613f4b8c828d0161346f565b9550506060613f5c8c828d016139c7565b9450506080613f6d8c828d016139c7565b93505060a0613f7e8c828d01613ea8565b92505060c0613f8f8c828d01613ea8565b9150509295985092959850929598565b7f4e487b7100000000000000000000000000000000000000000000000000000000600052601160045260246000fd5b6000613fd98261344e565b9150613fe48361344e565b9250828201905080821115613ffc57613ffb613f9f565b5b92915050565b60006040820190506140176000830185613b1c565b6140246020830184613522565b9392505050565b600082825260208201905092915050565b6000819050919050565b60006140528383613bde565b60208301905092915050565b600061406d60208401846134cd565b905092915050565b6000602082019050919050565b600061408e838561402b565b93506140998261403c565b8060005b858110156140d2576140af828461405e565b6140b98882614046565b97506140c483614075565b92505060018101905061409d565b5085925050509392505050565b600060208201905081810360008301526140fa818486614082565b90509392505050565b600082825260208201905092915050565b7f46756e6374696f6e206d7573742062652063616c6c6564207468726f7567682060008201527f64656c656761746563616c6c0000000000000000000000000000000000000000602082015250565b6000614170602c83614103565b915061417b82614114565b604082019050919050565b6000602082019050818103600083015261419f81614163565b9050919050565b7f46756e6374696f6e206d7573742062652063616c6c6564207468726f7567682060008201527f6163746976652070726f78790000000000000000000000000000000000000000602082015250565b6000614202602c83614103565b915061420d826141a6565b604082019050919050565b60006020820190508181036000830152614231816141f5565b9050919050565b7f555550535570677261646561626c653a206d757374206e6f742062652063616c60008201527f6c6564207468726f7567682064656c656761746563616c6c0000000000000000602082015250565b6000614294603883614103565b915061429f82614238565b604082019050919050565b600060208201905081810360008301526142c381614287565b9050919050565b60006040820190506142df6000830185613522565b6142ec6020830184613959565b9392505050565b7f496e697469616c697a61626c653a20636f6e747261637420697320616c72656160008201527f647920696e697469616c697a6564000000000000000000000000000000000000602082015250565b600061434f602e83614103565b915061435a826142f3565b604082019050919050565b6000602082019050818103600083015261437e81614342565b9050919050565b6000819050919050565b600060ff82169050919050565b60006143b76143b26143ad84614385565b6136b0565b61438f565b9050919050565b6143c78161439c565b82525050565b60006020820190506143e260008301846143be565b92915050565b60006143f38261344e565b91506143fe8361344e565b925082820390508181111561441657614415613f9f565b5b92915050565b60006040820190506144316000830185613b1c565b61443e6020830184613b1c565b9392505050565b7f4e487b7100000000000000000000000000000000000000000000000000000000600052602260045260246000fd5b6000600282049050600182168061448c57607f821691505b60208210810361449f5761449e614445565b5b50919050565b60006144b082613b3a565b91506144bb83613b3a565b9250828203905067ffffffffffffffff8111156144db576144da613f9f565b5b92915050565b6144ea81613b3a565b82525050565b600060408201905061450560008301856144e1565b61451260208301846144e1565b9392505050565b7f4e487b7100000000000000000000000000000000000000000000000000000000600052603260045260246000fd5b600080fd5b600080fd5b600080fd5b60008235600160600383360303811261457357614572614548565b5b80830191505092915050565b6000813561458c816134b6565b80915050919050565b60008160001b9050919050565b600073ffffffffffffffffffffffffffffffffffffffff6145c284614595565b9350801983169250808416831791505092915050565b60006145e3826136dc565b9050919050565b6000819050919050565b6145fd826145d8565b614610614609826145ea565b83546145a2565b8255505050565b6000813561462481613458565b80915050919050565b60007fffffffffffffffffffffffffffffffffffffffffffffffffffffffffffffffff61465984614595565b9350801983169250808416831791505092915050565b600061468a6146856146808461344e565b6136b0565b61344e565b9050919050565b6000819050919050565b6146a48261466f565b6146b76146b082614691565b835461462d565b8255505050565b600080833560016020038436030381126146db576146da614548565b5b80840192508235915067ffffffffffffffff8211156146fd576146fc61454d565b5b60208301925060018202360383131561471957614718614552565b5b509250929050565b600082905092915050565b60008190508160005260206000209050919050565b60006020601f8301049050919050565b600082821b905092915050565b60006008830261478e7fffffffffffffffffffffffffffffffffffffffffffffffffffffffffffffffff82614751565b6147988683614751565b95508019841693508086168417925050509392505050565b6147b98361466f565b6147cd6147c582614691565b84845461475e565b825550505050565b600090565b6147e26147d5565b6147ed8184846147b0565b505050565b5b81811015614811576148066000826147da565b6001810190506147f3565b5050565b601f821115614856576148278161472c565b61483084614741565b8101602085101561483f578190505b61485361484b85614741565b8301826147f2565b50505b505050565b600082821c905092915050565b60006148796000198460080261485b565b1980831691505092915050565b60006148928383614868565b9150826002028217905092915050565b6148ac8383614721565b67ffffffffffffffff8111156148c5576148c46137d2565b5b6148cf8254614474565b6148da828285614815565b6000601f83116001811461490957600084156148f7578287013590505b6149018582614886565b865550614969565b601f1984166149178661472c565b60005b8281101561493f5784890135825560018201915060208501945060208101905061491a565b8683101561495c5784890135614958601f891682614868565b8355505b6001600288020188555050505b50505050505050565b61497d8383836148a2565b505050565b6000810160008301806149948161457f565b90506149a081846145f4565b5050506001810160208301806149b581614617565b90506149c1818461469b565b50505060028101604083016149d681856146be565b6149e1818386614972565b505050505050565b6149f38282614982565b5050565b600082825260208201905092915050565b6000614a1483856149f7565b9350614a2183858461387e565b614a2a836137c1565b840190509392505050565b6000608082019050614a4a6000830188613959565b614a576020830187613959565b614a646040830186613556565b8181036060830152614a77818486614a08565b90509695505050505050565b600081519050614a92816139b0565b92915050565b600060208284031215614aae57614aad613389565b5b6000614abc84828501614a83565b91505092915050565b6000608082019050614ada6000830187613959565b614ae76020830186613959565b614af46040830185613959565b614b016060830184613556565b95945050505050565b614b1381613b0e565b8114614b1e57600080fd5b50565b600081359050614b3081614b0a565b92915050565b600060208284031215614b4c57614b4b613389565b5b6000614b5a84828501614b21565b91505092915050565b6000614b7e614b79614b7484614385565b6136b0565b613b0e565b9050919050565b614b8e81614b63565b82525050565b6000604082019050614ba96000830185614b85565b614bb66020830184613b1c565b9392505050565b60008135614bca816139b0565b80915050919050565b600060ff614be084614595565b9350801983169250808416831791505092915050565b6000614c0182613418565b9050919050565b6000819050919050565b614c1b82614bf6565b614c2e614c2782614c08565b8354614bd3565b8255505050565b60008135614c4281614b0a565b80915050919050565b60008160081b9050919050565b600062ffff00614c6784614c4b565b9350801983169250808416831791505092915050565b6000614c98614c93614c8e84613b0e565b6136b0565b613b0e565b9050919050565b6000819050919050565b614cb282614c7d565b614cc5614cbe82614c9f565b8354614c58565b8255505050565b600081016000830180614cde81614bbd565b9050614cea8184614c12565b505050600081016020830180614cff81614c35565b9050614d0b8184614ca9565b5050505050565b614d1c8282614ccc565b5050565b600060208284031215614d3657614d35613389565b5b6000614d44848285016139c7565b91505092915050565b614d568161354c565b8114614d6157600080fd5b50565b600081519050614d7381614d4d565b92915050565b600060208284031215614d8f57614d8e613389565b5b6000614d9d84828501614d64565b91505092915050565b7f45524331393637557067726164653a206e657720696d706c656d656e7461746960008201527f6f6e206973206e6f742055555053000000000000000000000000000000000000602082015250565b6000614e02602e83614103565b9150614e0d82614da6565b604082019050919050565b60006020820190508181036000830152614e3181614df5565b9050919050565b7f45524331393637557067726164653a20756e737570706f727465642070726f7860008201527f6961626c65555549440000000000000000000000000000000000000000000000602082015250565b6000614e94602983614103565b9150614e9f82614e38565b604082019050919050565b60006020820190508181036000830152614ec381614e87565b9050919050565b7f436865636b706f696e74733a20626c6f636b206e6f7420796574206d696e6564600082015250565b6000614f00602083614103565b9150614f0b82614eca565b602082019050919050565b60006020820190508181036000830152614f2f81614ef3565b9050919050565b7f496e697469616c697a61626c653a20636f6e7472616374206973206e6f74206960008201527f6e697469616c697a696e67000000000000000000000000000000000000000000602082015250565b6000614f92602b83614103565b9150614f9d82614f36565b604082019050919050565b60006020820190508181036000830152614fc181614f85565b9050919050565b7f53616665436173743a2076616c756520646f65736e27742066697420696e203660008201527f3420626974730000000000000000000000000000000000000000000000000000602082015250565b6000615024602683614103565b915061502f82614fc8565b604082019050919050565b6000602082019050818103600083015261505381615017565b9050919050565b6000819050919050565b6000615073602084018461346f565b905092915050565b600080fd5b600080fd5b600080fd5b600080833560016020038436030381126150a7576150a6615085565b5b83810192508235915060208301925067ffffffffffffffff8211156150cf576150ce61507b565b5b6001820236038313156150e5576150e4615080565b5b509250929050565b60006150f98385613c07565b935061510683858461387e565b61510f836137c1565b840190509392505050565b60006060830161512d600084018461405e565b61513a6000860182613bde565b506151486020840184615064565b6151556020860182613bed565b50615163604084018461508a565b85830360408701526151768382846150ed565b925050508091505092915050565b6000615190838361511a565b905092915050565b6000823560016060038336030381126151b4576151b3615085565b5b82810191505092915050565b6000602082019050919050565b60006151d98385613bbd565b9350836020840285016151eb8461505a565b8060005b8781101561522f5784840389526152068284615198565b6152108582615184565b945061521b836151c0565b925060208a019950506001810190506151ef565b50829750879450505050509392505050565b600060a082019050615256600083018a6144e1565b61526360208301896144e1565b8181036040830152615276818789614a08565b9050818103606083015261528b8185876151cd565b905061529a6080830184613522565b98975050505050505050565b7f455243313936373a206e657720696d706c656d656e746174696f6e206973206e60008201527f6f74206120636f6e747261637400000000000000000000000000000000000000602082015250565b6000615302602d83614103565b915061530d826152a6565b604082019050919050565b60006020820190508181036000830152615331816152f5565b9050919050565b7f53616665436173743a2076616c756520646f65736e27742066697420696e203360008201527f3220626974730000000000000000000000000000000000000000000000000000602082015250565b6000615394602683614103565b915061539f82615338565b604082019050919050565b600060208201905081810360008301526153c381615387565b9050919050565b60006060820190506153df6000830186613556565b81810360208301526153f18185613cec565b90506154006040830184613522565b949350505050565b600067ffffffffffffffff821115615423576154226137d2565b5b602082029050602081019050919050565b60006154476154428461384d565b613832565b905082815260208101848484011115615463576154626137bc565b5b61546e848285613c18565b509392505050565b600082601f83011261548b5761548a6135d1565b5b815161549b848260208601615434565b91505092915050565b60006154b76154b284615408565b613832565b905080838252602082019050602084028301858111156154da576154d96135db565b5b835b8181101561552157805167ffffffffffffffff8111156154ff576154fe6135d1565b5b80860161550c8982615476565b855260208501945050506020810190506154dc565b5050509392505050565b600082601f8301126155405761553f6135d1565b5b81516155508482602086016154a4565b91505092915050565b60008151905061556881613458565b92915050565b6000806040838503121561558557615584613389565b5b600083015167ffffffffffffffff8111156155a3576155a261338e565b5b6155af8582860161552b565b92505060206155c085828601615559565b9150509250929050565b7f53616665436173743a2076616c756520646f65736e27742066697420696e203260008201527f3234206269747300000000000000000000000000000000000000000000000000602082015250565b6000615626602783614103565b9150615631826155ca565b604082019050919050565b6000602082019050818103600083015261565581615619565b9050919050565b7f436865636b706f696e743a20696e76616c6964206b6579000000000000000000600082015250565b6000615692601783614103565b915061569d8261565c565b602082019050919050565b600060208201905081810360008301526156c181615685565b9050919050565b7f416464726573733a2064656c65676174652063616c6c20746f206e6f6e2d636f60008201527f6e74726163740000000000000000000000000000000000000000000000000000602082015250565b6000615724602683614103565b915061572f826156c8565b604082019050919050565b6000602082019050818103600083015261575381615717565b9050919050565b600081905092915050565b600061577082613bfc565b61577a818561575a565b935061578a818560208601613c18565b80840191505092915050565b60006157a28284615765565b915081905092915050565b7f4e487b7100000000000000000000000000000000000000000000000000000000600052601260045260246000fd5b60006157e78261344e565b91506157f28361344e565b925082615802576158016157ad565b5b828204905092915050565b600081519050919050565b60006158238261580d565b61582d8185614103565b935061583d818560208601613c18565b615846816137c1565b840191505092915050565b6000602082019050818103600083015261586b8184615818565b90509291505056fe416464726573733a206c6f772d6c6576656c2064656c65676174652063616c6c206661696c6564a264697066735822122065eb9e1d985c111062b4653b8bc2e80269fd3d724041941037780f04d190478664736f6c63430008110033",
  "devdoc": {
    "kind": "dev",
    "methods": {
      "implementation()": {
        "details": "The implementation can be instantiated via the `new` keyword, cloned via the minimal clones pattern (see [ERC-1167](https://eips.ethereum.org/EIPS/eip-1167)), or proxied via the UUPS pattern (see [ERC-1822](https://eips.ethereum.org/EIPS/eip-1822)).",
        "returns": {
          "_0": "The address of the plugin implementation contract."
        }
      },
      "prepareInstallation(address,bytes)": {
        "params": {
          "_dao": "The address of the installing DAO.",
          "_data": "The bytes-encoded data containing the input parameters for the installation as specified in the plugin's build metadata JSON file."
        },
        "returns": {
          "plugin": "The address of the `Plugin` contract being prepared for installation.",
          "preparedSetupData": "The deployed plugin's relevant data which consists of helpers and permissions."
        }
      },
      "prepareUninstallation(address,(address,address[],bytes))": {
        "params": {
          "_dao": "The address of the uninstalling DAO.",
          "_payload": "The relevant data necessary for the `prepareUninstallation`. see above."
        },
        "returns": {
          "permissions": "The array of multi-targeted permission operations to be applied by the `PluginSetupProcessor` to the uninstalling DAO."
        }
      },
      "prepareUpdate(address,uint16,(address,address[],bytes))": {
        "params": {
          "_currentBuild": "The build number of the plugin to update from.",
          "_dao": "The address of the updating DAO.",
          "_payload": "The relevant data necessary for the `prepareUpdate`. see above."
        },
        "returns": {
          "initData": "The initialization data to be passed to upgradeable contracts when the update is applied in the `PluginSetupProcessor`.",
          "preparedSetupData": "The deployed plugin's relevant data which consists of helpers and permissions."
        }
      },
      "supportsInterface(bytes4)": {
        "params": {
          "_interfaceId": "The ID of the interface."
        },
        "returns": {
          "_0": "Returns `true` if the interface is supported."
        }
      }
    },
    "title": "MultisigSetup",
    "version": 1
  },
  "userdoc": {
    "kind": "user",
    "methods": {
      "constructor": {
        "notice": "The contract constructor, that deployes the `Multisig` plugin logic contract."
      },
      "implementation()": {
        "notice": "Returns the plugin implementation address."
      },
      "prepareInstallation(address,bytes)": {
        "notice": "Prepares the installation of a plugin."
      },
      "prepareUninstallation(address,(address,address[],bytes))": {
        "notice": "Prepares the uninstallation of a plugin."
      },
      "prepareUpdate(address,uint16,(address,address[],bytes))": {
        "notice": "Prepares the update of a plugin."
      },
      "supportsInterface(bytes4)": {
        "notice": "Checks if this or the parent contract supports an interface by its ID."
      }
    },
    "notice": "The setup contract of the `Multisig` plugin.",
    "version": 1
  },
  "storageLayout": {
    "storage": [],
    "types": null
  }
}