{
  "address": "0xCE9Fb059a3c928e636DC4c6E81E8Ca451FDed611",
  "abi": [
    {
      "inputs": [],
      "stateMutability": "nonpayable",
      "type": "constructor"
    },
    {
      "inputs": [
        {
          "internalType": "address",
          "name": "registrant",
          "type": "address"
        }
      ],
      "name": "ContractAlreadyRegistered",
      "type": "error"
    },
    {
      "inputs": [
        {
          "internalType": "address",
          "name": "registrant",
          "type": "address"
        }
      ],
      "name": "ContractERC165SupportInvalid",
      "type": "error"
    },
    {
      "inputs": [
        {
          "internalType": "address",
          "name": "registrant",
          "type": "address"
        }
      ],
      "name": "ContractInterfaceInvalid",
      "type": "error"
    },
    {
      "inputs": [
        {
          "internalType": "address",
          "name": "dao",
          "type": "address"
        },
        {
          "internalType": "address",
          "name": "where",
          "type": "address"
        },
        {
          "internalType": "address",
          "name": "who",
          "type": "address"
        },
        {
          "internalType": "bytes32",
          "name": "permissionId",
          "type": "bytes32"
        }
      ],
      "name": "DaoUnauthorized",
      "type": "error"
    },
    {
      "anonymous": false,
      "inputs": [
        {
          "indexed": false,
          "internalType": "address",
          "name": "previousAdmin",
          "type": "address"
        },
        {
          "indexed": false,
          "internalType": "address",
          "name": "newAdmin",
          "type": "address"
        }
      ],
      "name": "AdminChanged",
      "type": "event"
    },
    {
      "anonymous": false,
      "inputs": [
        {
          "indexed": true,
          "internalType": "address",
          "name": "beacon",
          "type": "address"
        }
      ],
      "name": "BeaconUpgraded",
      "type": "event"
    },
    {
      "anonymous": false,
      "inputs": [
        {
          "indexed": false,
          "internalType": "uint8",
          "name": "version",
          "type": "uint8"
        }
      ],
      "name": "Initialized",
      "type": "event"
    },
    {
      "anonymous": false,
      "inputs": [
        {
          "indexed": false,
          "internalType": "address",
          "name": "pluginRepo",
          "type": "address"
        }
      ],
      "name": "PluginRepoRegistered",
      "type": "event"
    },
    {
      "anonymous": false,
      "inputs": [
        {
          "indexed": true,
          "internalType": "address",
          "name": "implementation",
          "type": "address"
        }
      ],
      "name": "Upgraded",
      "type": "event"
    },
    {
      "inputs": [],
      "name": "REGISTER_PLUGIN_REPO_PERMISSION_ID",
      "outputs": [
        {
          "internalType": "bytes32",
          "name": "",
          "type": "bytes32"
        }
      ],
      "stateMutability": "view",
      "type": "function"
    },
    {
      "inputs": [],
      "name": "UPGRADE_REGISTRY_PERMISSION_ID",
      "outputs": [
        {
          "internalType": "bytes32",
          "name": "",
          "type": "bytes32"
        }
      ],
      "stateMutability": "view",
      "type": "function"
    },
    {
      "inputs": [],
      "name": "dao",
      "outputs": [
        {
          "internalType": "contract IDAO",
          "name": "",
          "type": "address"
        }
      ],
      "stateMutability": "view",
      "type": "function"
    },
    {
      "inputs": [
        {
          "internalType": "address",
          "name": "",
          "type": "address"
        }
      ],
      "name": "entries",
      "outputs": [
        {
          "internalType": "bool",
          "name": "",
          "type": "bool"
        }
      ],
      "stateMutability": "view",
      "type": "function"
    },
    {
      "inputs": [
        {
          "internalType": "contract IDAO",
          "name": "_dao",
          "type": "address"
        }
      ],
      "name": "initialize",
      "outputs": [],
      "stateMutability": "nonpayable",
      "type": "function"
    },
    {
      "inputs": [],
      "name": "proxiableUUID",
      "outputs": [
        {
          "internalType": "bytes32",
          "name": "",
          "type": "bytes32"
        }
      ],
      "stateMutability": "view",
      "type": "function"
    },
    {
      "inputs": [
        {
          "internalType": "address",
          "name": "pluginRepo",
          "type": "address"
        }
      ],
      "name": "registerPluginRepo",
      "outputs": [],
      "stateMutability": "nonpayable",
      "type": "function"
    },
    {
      "inputs": [],
      "name": "targetInterfaceId",
      "outputs": [
        {
          "internalType": "bytes4",
          "name": "",
          "type": "bytes4"
        }
      ],
      "stateMutability": "view",
      "type": "function"
    },
    {
      "inputs": [
        {
          "internalType": "address",
          "name": "newImplementation",
          "type": "address"
        }
      ],
      "name": "upgradeTo",
      "outputs": [],
      "stateMutability": "nonpayable",
      "type": "function"
    },
    {
      "inputs": [
        {
          "internalType": "address",
          "name": "newImplementation",
          "type": "address"
        },
        {
          "internalType": "bytes",
          "name": "data",
          "type": "bytes"
        }
      ],
      "name": "upgradeToAndCall",
      "outputs": [],
      "stateMutability": "payable",
      "type": "function"
    }
  ],
  "transactionHash": "0x3e67a6be261854bcd31fefa2e70f838a199e5579df915179b156bfa9bf33c1bb",
  "args": [],
  "numDeployments": 1,
  "solcInputHash": "0436994da4f1886ef7ba0eafc5c461be",
  "bytecode": "0x60a06040523073ffffffffffffffffffffffffffffffffffffffff1660809073ffffffffffffffffffffffffffffffffffffffff168152503480156200004457600080fd5b50620000556200005b60201b60201c565b62000206565b600060019054906101000a900460ff1615620000ae576040517f08c379a0000000000000000000000000000000000000000000000000000000008152600401620000a590620001a9565b60405180910390fd5b60ff801660008054906101000a900460ff1660ff161015620001205760ff6000806101000a81548160ff021916908360ff1602179055507f7f26b83ff96e1f2b6a682f133852f6798a09c465da95921460cefb384740249860ff604051620001179190620001e9565b60405180910390a15b565b600082825260208201905092915050565b7f496e697469616c697a61626c653a20636f6e747261637420697320696e69746960008201527f616c697a696e6700000000000000000000000000000000000000000000000000602082015250565b60006200019160278362000122565b91506200019e8262000133565b604082019050919050565b60006020820190508181036000830152620001c48162000182565b9050919050565b600060ff82169050919050565b620001e381620001cb565b82525050565b6000602082019050620002006000830184620001d8565b92915050565b608051611e4f6200023e60003960008181610243015281816102d1015281816104080152818161049601526105460152611e4f6000f3fe6080604052600436106100915760003560e01c80636e852f16116100595780636e852f161461015c57806374574eb714610185578063c4d66de8146101b0578063ce091c86146101d9578063f29ee1251461020457610091565b80633659cfe6146100965780634162169f146100bf57806344162ef8146100ea5780634f1ef2861461011557806352d1902d14610131575b600080fd5b3480156100a257600080fd5b506100bd60048036038101906100b8919061124d565b610241565b005b3480156100cb57600080fd5b506100d46103c9565b6040516100e191906112d9565b60405180910390f35b3480156100f657600080fd5b506100ff6103f3565b60405161010c919061132f565b60405180910390f35b61012f600480360381019061012a9190611490565b610406565b005b34801561013d57600080fd5b50610146610542565b6040516101539190611505565b60405180910390f35b34801561016857600080fd5b50610183600480360381019061017e919061124d565b6105fb565b005b34801561019157600080fd5b5061019a61069d565b6040516101a79190611505565b60405180910390f35b3480156101bc57600080fd5b506101d760048036038101906101d2919061155e565b6106c1565b005b3480156101e557600080fd5b506101ee610828565b6040516101fb9190611505565b60405180910390f35b34801561021057600080fd5b5061022b6004803603810190610226919061124d565b61084c565b60405161023891906115a6565b60405180910390f35b7f000000000000000000000000000000000000000000000000000000000000000073ffffffffffffffffffffffffffffffffffffffff163073ffffffffffffffffffffffffffffffffffffffff16036102cf576040517f08c379a00000000000000000000000000000000000000000000000000000000081526004016102c690611644565b60405180910390fd5b7f000000000000000000000000000000000000000000000000000000000000000073ffffffffffffffffffffffffffffffffffffffff1661030e61086c565b73ffffffffffffffffffffffffffffffffffffffff1614610364576040517f08c379a000000000000000000000000000000000000000000000000000000000815260040161035b906116d6565b60405180910390fd5b61036d816108c3565b6103c681600067ffffffffffffffff81111561038c5761038b611365565b5b6040519080825280601f01601f1916602001820160405280156103be5781602001600182028036833780820191505090505b506000610925565b50565b6000609760009054906101000a900473ffffffffffffffffffffffffffffffffffffffff16905090565b60c960009054906101000a900460e01b81565b7f000000000000000000000000000000000000000000000000000000000000000073ffffffffffffffffffffffffffffffffffffffff163073ffffffffffffffffffffffffffffffffffffffff1603610494576040517f08c379a000000000000000000000000000000000000000000000000000000000815260040161048b90611644565b60405180910390fd5b7f000000000000000000000000000000000000000000000000000000000000000073ffffffffffffffffffffffffffffffffffffffff166104d361086c565b73ffffffffffffffffffffffffffffffffffffffff1614610529576040517f08c379a0000000000000000000000000000000000000000000000000000000008152600401610520906116d6565b60405180910390fd5b610532826108c3565b61053e82826001610925565b5050565b60007f000000000000000000000000000000000000000000000000000000000000000073ffffffffffffffffffffffffffffffffffffffff163073ffffffffffffffffffffffffffffffffffffffff16146105d2576040517f08c379a00000000000000000000000000000000000000000000000000000000081526004016105c990611768565b60405180910390fd5b7f360894a13ba1a3210667c828492db98dca3e2076cc3735a920a3ca505d382bbc60001b905090565b7f055973dfb6d3b3cd890dde3a801f5427fa973864752b6d2a1ae61cbd5ae5dc09610659609760009054906101000a900473ffffffffffffffffffffffffffffffffffffffff163061064b610a93565b84610654610a9b565b610aa8565b61066282610b79565b7f1121d9f50363c0df6ebabacb8bf9fbe39e031a76f1ad76534746bf919cc298fa826040516106919190611797565b60405180910390a15050565b7f60b96ff9fb5f29153c29c1747515b8be4ee523d686cc6f453ec294b0afa7293281565b60008060019054906101000a900460ff161590508080156106f25750600160008054906101000a900460ff1660ff16105b8061071f575061070130610cdc565b15801561071e5750600160008054906101000a900460ff1660ff16145b5b61075e576040517f08c379a000000000000000000000000000000000000000000000000000000000815260040161075590611824565b60405180910390fd5b60016000806101000a81548160ff021916908360ff160217905550801561079b576001600060016101000a81548160ff0219169083151502179055505b60007fd4321b400000000000000000000000000000000000000000000000000000000090506107ca8382610cff565b5080156108245760008060016101000a81548160ff0219169083151502179055507f7f26b83ff96e1f2b6a682f133852f6798a09c465da95921460cefb3847402498600160405161081b919061188c565b60405180910390a15b5050565b7f055973dfb6d3b3cd890dde3a801f5427fa973864752b6d2a1ae61cbd5ae5dc0981565b60ca6020528060005260406000206000915054906101000a900460ff1681565b600061089a7f360894a13ba1a3210667c828492db98dca3e2076cc3735a920a3ca505d382bbc60001b610d79565b60000160009054906101000a900473ffffffffffffffffffffffffffffffffffffffff16905090565b7f60b96ff9fb5f29153c29c1747515b8be4ee523d686cc6f453ec294b0afa72932610921609760009054906101000a900473ffffffffffffffffffffffffffffffffffffffff1630610913610a93565b8461091c610a9b565b610aa8565b5050565b6109517f4910fdfa16fed3260ed0e7147f7cc6da11a60208b5b9406d12a635614ffd914360001b610d83565b60000160009054906101000a900460ff16156109755761097083610d8d565b610a8e565b8273ffffffffffffffffffffffffffffffffffffffff166352d1902d6040518163ffffffff1660e01b8152600401602060405180830381865afa9250505080156109dd57506040513d601f19601f820116820180604052508101906109da91906118d3565b60015b610a1c576040517f08c379a0000000000000000000000000000000000000000000000000000000008152600401610a1390611972565b60405180910390fd5b7f360894a13ba1a3210667c828492db98dca3e2076cc3735a920a3ca505d382bbc60001b8114610a81576040517f08c379a0000000000000000000000000000000000000000000000000000000008152600401610a7890611a04565b60405180910390fd5b50610a8d838383610e46565b5b505050565b600033905090565b3660008036915091509091565b8573ffffffffffffffffffffffffffffffffffffffff1663fdef910686868686866040518663ffffffff1660e01b8152600401610ae9959493929190611a62565b602060405180830381865afa158015610b06573d6000803e3d6000fd5b505050506040513d601f19601f82011682018060405250810190610b2a9190611adc565b610b7157858585856040517f32dbe3b4000000000000000000000000000000000000000000000000000000008152600401610b689493929190611b09565b60405180910390fd5b505050505050565b60ca60008273ffffffffffffffffffffffffffffffffffffffff1673ffffffffffffffffffffffffffffffffffffffff16815260200190815260200160002060009054906101000a900460ff1615610c0857806040517ffdcce17f000000000000000000000000000000000000000000000000000000008152600401610bff9190611797565b60405180910390fd5b610c4060c960009054906101000a900460e01b8273ffffffffffffffffffffffffffffffffffffffff16610e7290919063ffffffff16565b610c8157806040517f71023c8a000000000000000000000000000000000000000000000000000000008152600401610c789190611797565b60405180910390fd5b600160ca60008373ffffffffffffffffffffffffffffffffffffffff1673ffffffffffffffffffffffffffffffffffffffff16815260200190815260200160002060006101000a81548160ff02191690831515021790555050565b6000808273ffffffffffffffffffffffffffffffffffffffff163b119050919050565b600060019054906101000a900460ff16610d4e576040517f08c379a0000000000000000000000000000000000000000000000000000000008152600401610d4590611bc0565b60405180910390fd5b610d5782610e97565b8060c960006101000a81548163ffffffff021916908360e01c02179055505050565b6000819050919050565b6000819050919050565b610d9681610cdc565b610dd5576040517f08c379a0000000000000000000000000000000000000000000000000000000008152600401610dcc90611c52565b60405180910390fd5b80610e027f360894a13ba1a3210667c828492db98dca3e2076cc3735a920a3ca505d382bbc60001b610d79565b60000160006101000a81548173ffffffffffffffffffffffffffffffffffffffff021916908373ffffffffffffffffffffffffffffffffffffffff16021790555050565b610e4f83610f2a565b600082511180610e5c5750805b15610e6d57610e6b8383610f79565b505b505050565b6000610e7d8361105d565b8015610e8f5750610e8e83836110aa565b5b905092915050565b600060019054906101000a900460ff16610ee6576040517f08c379a0000000000000000000000000000000000000000000000000000000008152600401610edd90611bc0565b60405180910390fd5b80609760006101000a81548173ffffffffffffffffffffffffffffffffffffffff021916908373ffffffffffffffffffffffffffffffffffffffff16021790555050565b610f3381610d8d565b8073ffffffffffffffffffffffffffffffffffffffff167fbc7cd75a20ee27fd9adebab32041f755214dbc6bffa90cc0225b39da2e5c2d3b60405160405180910390a250565b6060610f8483610cdc565b610fc3576040517f08c379a0000000000000000000000000000000000000000000000000000000008152600401610fba90611ce4565b60405180910390fd5b6000808473ffffffffffffffffffffffffffffffffffffffff1684604051610feb9190611d75565b600060405180830381855af49150503d8060008114611026576040519150601f19603f3d011682016040523d82523d6000602084013e61102b565b606091505b50915091506110538282604051806060016040528060278152602001611df360279139611169565b9250505092915050565b6000611089827f01ffc9a7000000000000000000000000000000000000000000000000000000006110aa565b80156110a357506110a18263ffffffff60e01b6110aa565b155b9050919050565b6000806301ffc9a760e01b836040516024016110c6919061132f565b604051602081830303815290604052907bffffffffffffffffffffffffffffffffffffffffffffffffffffffff19166020820180517bffffffffffffffffffffffffffffffffffffffffffffffffffffffff838183161783525050505090506000806000602060008551602087018a617530fa92503d91506000519050828015611151575060208210155b801561115d5750600081115b94505050505092915050565b6060831561117957829050611184565b611183838361118b565b5b9392505050565b60008251111561119e5781518083602001fd5b806040517f08c379a00000000000000000000000000000000000000000000000000000000081526004016111d29190611dd0565b60405180910390fd5b6000604051905090565b600080fd5b600080fd5b600073ffffffffffffffffffffffffffffffffffffffff82169050919050565b600061121a826111ef565b9050919050565b61122a8161120f565b811461123557600080fd5b50565b60008135905061124781611221565b92915050565b600060208284031215611263576112626111e5565b5b600061127184828501611238565b91505092915050565b6000819050919050565b600061129f61129a611295846111ef565b61127a565b6111ef565b9050919050565b60006112b182611284565b9050919050565b60006112c3826112a6565b9050919050565b6112d3816112b8565b82525050565b60006020820190506112ee60008301846112ca565b92915050565b60007fffffffff0000000000000000000000000000000000000000000000000000000082169050919050565b611329816112f4565b82525050565b60006020820190506113446000830184611320565b92915050565b600080fd5b600080fd5b6000601f19601f8301169050919050565b7f4e487b7100000000000000000000000000000000000000000000000000000000600052604160045260246000fd5b61139d82611354565b810181811067ffffffffffffffff821117156113bc576113bb611365565b5b80604052505050565b60006113cf6111db565b90506113db8282611394565b919050565b600067ffffffffffffffff8211156113fb576113fa611365565b5b61140482611354565b9050602081019050919050565b82818337600083830152505050565b600061143361142e846113e0565b6113c5565b90508281526020810184848401111561144f5761144e61134f565b5b61145a848285611411565b509392505050565b600082601f8301126114775761147661134a565b5b8135611487848260208601611420565b91505092915050565b600080604083850312156114a7576114a66111e5565b5b60006114b585828601611238565b925050602083013567ffffffffffffffff8111156114d6576114d56111ea565b5b6114e285828601611462565b9150509250929050565b6000819050919050565b6114ff816114ec565b82525050565b600060208201905061151a60008301846114f6565b92915050565b600061152b8261120f565b9050919050565b61153b81611520565b811461154657600080fd5b50565b60008135905061155881611532565b92915050565b600060208284031215611574576115736111e5565b5b600061158284828501611549565b91505092915050565b60008115159050919050565b6115a08161158b565b82525050565b60006020820190506115bb6000830184611597565b92915050565b600082825260208201905092915050565b7f46756e6374696f6e206d7573742062652063616c6c6564207468726f7567682060008201527f64656c656761746563616c6c0000000000000000000000000000000000000000602082015250565b600061162e602c836115c1565b9150611639826115d2565b604082019050919050565b6000602082019050818103600083015261165d81611621565b9050919050565b7f46756e6374696f6e206d7573742062652063616c6c6564207468726f7567682060008201527f6163746976652070726f78790000000000000000000000000000000000000000602082015250565b60006116c0602c836115c1565b91506116cb82611664565b604082019050919050565b600060208201905081810360008301526116ef816116b3565b9050919050565b7f555550535570677261646561626c653a206d757374206e6f742062652063616c60008201527f6c6564207468726f7567682064656c656761746563616c6c0000000000000000602082015250565b60006117526038836115c1565b915061175d826116f6565b604082019050919050565b6000602082019050818103600083015261178181611745565b9050919050565b6117918161120f565b82525050565b60006020820190506117ac6000830184611788565b92915050565b7f496e697469616c697a61626c653a20636f6e747261637420697320616c72656160008201527f647920696e697469616c697a6564000000000000000000000000000000000000602082015250565b600061180e602e836115c1565b9150611819826117b2565b604082019050919050565b6000602082019050818103600083015261183d81611801565b9050919050565b6000819050919050565b600060ff82169050919050565b600061187661187161186c84611844565b61127a565b61184e565b9050919050565b6118868161185b565b82525050565b60006020820190506118a1600083018461187d565b92915050565b6118b0816114ec565b81146118bb57600080fd5b50565b6000815190506118cd816118a7565b92915050565b6000602082840312156118e9576118e86111e5565b5b60006118f7848285016118be565b91505092915050565b7f45524331393637557067726164653a206e657720696d706c656d656e7461746960008201527f6f6e206973206e6f742055555053000000000000000000000000000000000000602082015250565b600061195c602e836115c1565b915061196782611900565b604082019050919050565b6000602082019050818103600083015261198b8161194f565b9050919050565b7f45524331393637557067726164653a20756e737570706f727465642070726f7860008201527f6961626c65555549440000000000000000000000000000000000000000000000602082015250565b60006119ee6029836115c1565b91506119f982611992565b604082019050919050565b60006020820190508181036000830152611a1d816119e1565b9050919050565b600082825260208201905092915050565b6000611a418385611a24565b9350611a4e838584611411565b611a5783611354565b840190509392505050565b6000608082019050611a776000830188611788565b611a846020830187611788565b611a9160408301866114f6565b8181036060830152611aa4818486611a35565b90509695505050505050565b611ab98161158b565b8114611ac457600080fd5b50565b600081519050611ad681611ab0565b92915050565b600060208284031215611af257611af16111e5565b5b6000611b0084828501611ac7565b91505092915050565b6000608082019050611b1e6000830187611788565b611b2b6020830186611788565b611b386040830185611788565b611b4560608301846114f6565b95945050505050565b7f496e697469616c697a61626c653a20636f6e7472616374206973206e6f74206960008201527f6e697469616c697a696e67000000000000000000000000000000000000000000602082015250565b6000611baa602b836115c1565b9150611bb582611b4e565b604082019050919050565b60006020820190508181036000830152611bd981611b9d565b9050919050565b7f455243313936373a206e657720696d706c656d656e746174696f6e206973206e60008201527f6f74206120636f6e747261637400000000000000000000000000000000000000602082015250565b6000611c3c602d836115c1565b9150611c4782611be0565b604082019050919050565b60006020820190508181036000830152611c6b81611c2f565b9050919050565b7f416464726573733a2064656c65676174652063616c6c20746f206e6f6e2d636f60008201527f6e74726163740000000000000000000000000000000000000000000000000000602082015250565b6000611cce6026836115c1565b9150611cd982611c72565b604082019050919050565b60006020820190508181036000830152611cfd81611cc1565b9050919050565b600081519050919050565b600081905092915050565b60005b83811015611d38578082015181840152602081019050611d1d565b60008484015250505050565b6000611d4f82611d04565b611d598185611d0f565b9350611d69818560208601611d1a565b80840191505092915050565b6000611d818284611d44565b915081905092915050565b600081519050919050565b6000611da282611d8c565b611dac81856115c1565b9350611dbc818560208601611d1a565b611dc581611354565b840191505092915050565b60006020820190508181036000830152611dea8184611d97565b90509291505056fe416464726573733a206c6f772d6c6576656c2064656c65676174652063616c6c206661696c6564a26469706673582212208e614c01349548eb050e36d34ec42c02537a39d85466ecd6d92229dfc498114064736f6c63430008110033",
  "devdoc": {
    "errors": {
      "ContractAlreadyRegistered(address)": [
        {
          "params": {
            "registrant": "The address of the contract to be registered."
          }
        }
      ],
      "ContractERC165SupportInvalid(address)": [
        {
          "params": {
            "registrant": "The address of the contract."
          }
        }
      ],
      "ContractInterfaceInvalid(address)": [
        {
          "params": {
            "registrant": "The address of the contract to be registered."
          }
        }
      ],
      "DaoUnauthorized(address,address,address,bytes32)": [
        {
          "params": {
            "dao": "The associated DAO.",
            "permissionId": "The permission identifier.",
            "where": "The context in which the authorization reverted.",
            "who": "The address (EOA or contract) missing the permission."
          }
        }
      ]
    },
    "events": {
      "PluginRepoRegistered(address)": {
        "params": {
          "pluginRepo": "The address of the plugin repository."
        }
      }
    },
    "kind": "dev",
    "methods": {
      "constructor": {
        "details": "Used to disallow initializing the implementation contract by an attacker for extra safety."
      },
      "dao()": {
        "returns": {
          "_0": "The DAO contract."
        }
      },
      "initialize(address)": {
        "params": {
          "_dao": "The address of the managing DAO."
        }
      },
      "proxiableUUID()": {
        "details": "Implementation of the ERC1822 {proxiableUUID} function. This returns the storage slot used by the implementation. It is used to validate the implementation's compatibility when performing an upgrade. IMPORTANT: A proxy pointing at a proxiable contract should not be considered proxiable itself, because this risks bricking a proxy that upgrades to it, by delegating to itself until out of gas. Thus it is critical that this function revert if invoked through a proxy. This is guaranteed by the `notDelegated` modifier."
      },
      "registerPluginRepo(address)": {
        "params": {
          "pluginRepo": "The address of the PluginRepo contract."
        }
      },
      "upgradeTo(address)": {
        "details": "Upgrade the implementation of the proxy to `newImplementation`. Calls {_authorizeUpgrade}. Emits an {Upgraded} event."
      },
      "upgradeToAndCall(address,bytes)": {
        "details": "Upgrade the implementation of the proxy to `newImplementation`, and subsequently execute the function call encoded in `data`. Calls {_authorizeUpgrade}. Emits an {Upgraded} event."
      }
    },
    "title": "PluginRepoRegistry",
    "version": 1
  },
  "userdoc": {
    "errors": {
      "ContractAlreadyRegistered(address)": [
        {
          "notice": "Thrown if the contract is already registered."
        }
      ],
      "ContractERC165SupportInvalid(address)": [
        {
          "notice": "Thrown if the contract do not support ERC165."
        }
      ],
      "ContractInterfaceInvalid(address)": [
        {
          "notice": "Thrown if the contract does not support the required interface."
        }
      ],
      "DaoUnauthorized(address,address,address,bytes32)": [
        {
          "notice": "Thrown if a call is unauthorized in the associated DAO."
        }
      ]
    },
    "events": {
      "PluginRepoRegistered(address)": {
        "notice": "Emitted if a new plugin repository is registered."
      }
    },
    "kind": "user",
    "methods": {
      "REGISTER_PLUGIN_REPO_PERMISSION_ID()": {
        "notice": "The ID of the permission required to call the `register` function."
      },
      "UPGRADE_REGISTRY_PERMISSION_ID()": {
        "notice": "The ID of the permission required to call the `_authorizeUpgrade` function."
      },
      "dao()": {
        "notice": "Returns the DAO contract."
      },
      "entries(address)": {
        "notice": "The mapping containing the registry entries returning true for registererd contract addresses."
      },
      "initialize(address)": {
        "notice": "Initializes the contract by setting calling the `InterfaceBasedRegistry` base class initialize method."
      },
      "registerPluginRepo(address)": {
        "notice": "Registers a plugin repository with its address."
      },
      "targetInterfaceId()": {
        "notice": "The [ERC-165](https://eips.ethereum.org/EIPS/eip-165) interface ID that the target contracts being registered must support."
      }
    },
    "notice": "This contract maintains an address-based registery of plugin repositories.",
    "version": 1
  },
  "storageLayout": {
    "storage": [
      {
        "astId": 473,
        "contract": "contracts/factory/plugin/repo/PluginRepoRegistry.sol:PluginRepoRegistry",
        "label": "_initialized",
        "offset": 0,
        "slot": "0",
        "type": "t_uint8"
      },
      {
        "astId": 476,
        "contract": "contracts/factory/plugin/repo/PluginRepoRegistry.sol:PluginRepoRegistry",
        "label": "_initializing",
        "offset": 1,
        "slot": "0",
        "type": "t_bool"
      },
      {
        "astId": 455,
        "contract": "contracts/factory/plugin/repo/PluginRepoRegistry.sol:PluginRepoRegistry",
        "label": "__gap",
        "offset": 0,
        "slot": "1",
        "type": "t_array(t_uint256)50_storage"
      },
      {
        "astId": 770,
        "contract": "contracts/factory/plugin/repo/PluginRepoRegistry.sol:PluginRepoRegistry",
        "label": "__gap",
        "offset": 0,
        "slot": "51",
        "type": "t_array(t_uint256)50_storage"
      },
      {
        "astId": 4751,
        "contract": "contracts/factory/plugin/repo/PluginRepoRegistry.sol:PluginRepoRegistry",
        "label": "__gap",
        "offset": 0,
        "slot": "101",
        "type": "t_array(t_uint256)50_storage"
      },
      {
        "astId": 11521,
        "contract": "contracts/factory/plugin/repo/PluginRepoRegistry.sol:PluginRepoRegistry",
        "label": "dao_",
        "offset": 0,
        "slot": "151",
        "type": "t_contract(IDAO)10475"
      },
      {
        "astId": 11570,
        "contract": "contracts/factory/plugin/repo/PluginRepoRegistry.sol:PluginRepoRegistry",
        "label": "__gap",
        "offset": 0,
        "slot": "152",
        "type": "t_array(t_uint256)49_storage"
      },
      {
        "astId": 15201,
        "contract": "contracts/factory/plugin/repo/PluginRepoRegistry.sol:PluginRepoRegistry",
        "label": "targetInterfaceId",
        "offset": 0,
        "slot": "201",
        "type": "t_bytes4"
      },
      {
        "astId": 15206,
        "contract": "contracts/factory/plugin/repo/PluginRepoRegistry.sol:PluginRepoRegistry",
        "label": "entries",
        "offset": 0,
        "slot": "202",
        "type": "t_mapping(t_address,t_bool)"
      },
      {
        "astId": 15290,
        "contract": "contracts/factory/plugin/repo/PluginRepoRegistry.sol:PluginRepoRegistry",
        "label": "__gap",
        "offset": 0,
        "slot": "203",
        "type": "t_array(t_uint256)48_storage"
      },
      {
        "astId": 13494,
        "contract": "contracts/factory/plugin/repo/PluginRepoRegistry.sol:PluginRepoRegistry",
        "label": "__gap",
        "offset": 0,
        "slot": "251",
        "type": "t_array(t_uint256)49_storage"
      }
    ],
    "types": {
      "t_address": {
        "encoding": "inplace",
        "label": "address",
        "numberOfBytes": "20"
      },
      "t_array(t_uint256)48_storage": {
        "base": "t_uint256",
        "encoding": "inplace",
        "label": "uint256[48]",
        "numberOfBytes": "1536"
      },
      "t_array(t_uint256)49_storage": {
        "base": "t_uint256",
        "encoding": "inplace",
        "label": "uint256[49]",
        "numberOfBytes": "1568"
      },
      "t_array(t_uint256)50_storage": {
        "base": "t_uint256",
        "encoding": "inplace",
        "label": "uint256[50]",
        "numberOfBytes": "1600"
      },
      "t_bool": {
        "encoding": "inplace",
        "label": "bool",
        "numberOfBytes": "1"
      },
      "t_bytes4": {
        "encoding": "inplace",
        "label": "bytes4",
        "numberOfBytes": "4"
      },
      "t_contract(IDAO)10475": {
        "encoding": "inplace",
        "label": "contract IDAO",
        "numberOfBytes": "20"
      },
      "t_mapping(t_address,t_bool)": {
        "encoding": "mapping",
        "key": "t_address",
        "label": "mapping(address => bool)",
        "numberOfBytes": "32",
        "value": "t_bool"
      },
      "t_uint256": {
        "encoding": "inplace",
        "label": "uint256",
        "numberOfBytes": "32"
      },
      "t_uint8": {
        "encoding": "inplace",
        "label": "uint8",
        "numberOfBytes": "1"
      }
    }
  }
}