{
  "address": "0x06b317Aca2e3a2C76ef2AcAE2F90870a31DDD655",
  "abi": [
    {
      "inputs": [
        {
          "internalType": "contract PluginRepoRegistry",
          "name": "_pluginRepoRegistry",
          "type": "address"
        }
      ],
      "stateMutability": "nonpayable",
      "type": "constructor"
    },
    {
      "inputs": [
        {
          "internalType": "address",
          "name": "_initialOwner",
          "type": "address"
        }
      ],
      "name": "createPluginRepo",
      "outputs": [
        {
          "internalType": "contract PluginRepo",
          "name": "",
          "type": "address"
        }
      ],
      "stateMutability": "nonpayable",
      "type": "function"
    },
    {
      "inputs": [
        {
          "internalType": "address",
          "name": "_pluginSetup",
          "type": "address"
        },
        {
          "internalType": "address",
          "name": "_maintainer",
          "type": "address"
        },
        {
          "internalType": "bytes",
          "name": "_releaseMetadata",
          "type": "bytes"
        },
        {
          "internalType": "bytes",
          "name": "_buildMetadata",
          "type": "bytes"
        }
      ],
      "name": "createPluginRepoWithFirstVersion",
      "outputs": [
        {
          "internalType": "contract PluginRepo",
          "name": "pluginRepo",
          "type": "address"
        }
      ],
      "stateMutability": "nonpayable",
      "type": "function"
    },
    {
      "inputs": [],
      "name": "pluginRepoBase",
      "outputs": [
        {
          "internalType": "address",
          "name": "",
          "type": "address"
        }
      ],
      "stateMutability": "view",
      "type": "function"
    },
    {
      "inputs": [],
      "name": "pluginRepoRegistry",
      "outputs": [
        {
          "internalType": "contract PluginRepoRegistry",
          "name": "",
          "type": "address"
        }
      ],
      "stateMutability": "view",
      "type": "function"
    }
  ],
  "transactionHash": "0xdc98f70e5dafaced549aabd804fa356e74259f12e83354bac50ed6440e526d52",
  "args": [
    "0x565773023043b23C1c12D5fac68Ce8B5F219Bcc0"
  ],
  "numDeployments": 1,
  "solcInputHash": "e6bc01d92bab71efcefef890cc670c13",
  "bytecode": "0x60806040523480156200001157600080fd5b50604051620063ef380380620063ef833981810160405281019062000037919062000176565b806000806101000a81548173ffffffffffffffffffffffffffffffffffffffff021916908373ffffffffffffffffffffffffffffffffffffffff1602179055506040516200008590620000ea565b604051809103906000f080158015620000a2573d6000803e3d6000fd5b50600160006101000a81548173ffffffffffffffffffffffffffffffffffffffff021916908373ffffffffffffffffffffffffffffffffffffffff16021790555050620001a8565b61458e8062001e6183390190565b600080fd5b600073ffffffffffffffffffffffffffffffffffffffff82169050919050565b60006200012a82620000fd565b9050919050565b60006200013e826200011d565b9050919050565b620001508162000131565b81146200015c57600080fd5b50565b600081519050620001708162000145565b92915050565b6000602082840312156200018f576200018e620000f8565b5b60006200019f848285016200015f565b91505092915050565b611ca980620001b86000396000f3fe60806040523480156200001157600080fd5b5060043610620000525760003560e01c80630b36f03c146200005757806322d66e581462000079578063797a554314620000af578063d222cb1e14620000e5575b600080fd5b6200006162000107565b60405162000070919062000919565b60405180910390f35b6200009760048036038101906200009191906200098f565b6200012b565b604051620000a69190620009e6565b60405180910390f35b620000cd6004803603810190620000c7919062000b65565b6200013f565b604051620000dc9190620009e6565b60405180910390f35b620000ef620001d8565b604051620000fe919062000c26565b60405180910390f35b60008054906101000a900473ffffffffffffffffffffffffffffffffffffffff1681565b60006200013882620001fe565b9050919050565b60006200014c30620001fe565b90508073ffffffffffffffffffffffffffffffffffffffff1663fc05442760018785876040518563ffffffff1660e01b815260040162000190949392919062000d1c565b600060405180830381600087803b158015620001ab57600080fd5b505af1158015620001c0573d6000803e3d6000fd5b50505050620001d081856200033b565b949350505050565b600160009054906101000a900473ffffffffffffffffffffffffffffffffffffffff1681565b6000620002a5600160009054906101000a900473ffffffffffffffffffffffffffffffffffffffff1663c4d66de860e01b8460405160240162000242919062000c26565b604051602081830303815290604052907bffffffffffffffffffffffffffffffffffffffffffffffffffffffff19166020820180517bffffffffffffffffffffffffffffffffffffffffffffffffffffffff8381831617835250505050620007ec565b905060008054906101000a900473ffffffffffffffffffffffffffffffffffffffff1673ffffffffffffffffffffffffffffffffffffffff16636e852f16826040518263ffffffff1660e01b815260040162000302919062000c26565b600060405180830381600087803b1580156200031d57600080fd5b505af115801562000332573d6000803e3d6000fd5b50505050919050565b6000600667ffffffffffffffff8111156200035b576200035a62000a1e565b5b6040519080825280602002602001820160405280156200039857816020015b6200038462000831565b8152602001906001900390816200037a5790505b50905060008373ffffffffffffffffffffffffffffffffffffffff166309e56b146040518163ffffffff1660e01b8152600401602060405180830381865afa158015620003e9573d6000803e3d6000fd5b505050506040513d601f19601f820116820180604052508101906200040f919062000db2565b905060008473ffffffffffffffffffffffffffffffffffffffff1663afe5eb786040518163ffffffff1660e01b8152600401602060405180830381865afa1580156200045f573d6000803e3d6000fd5b505050506040513d601f19601f8201168201806040525081019062000485919062000db2565b905060008573ffffffffffffffffffffffffffffffffffffffff1663cc98b8f56040518163ffffffff1660e01b8152600401602060405180830381865afa158015620004d5573d6000803e3d6000fd5b505050506040513d601f19601f82011682018060405250810190620004fb919062000db2565b90506040518060600160405280600060028111156200051f576200051e62000de4565b5b81526020018673ffffffffffffffffffffffffffffffffffffffff16815260200183815250846000815181106200055b576200055a62000e13565b5b602002602001018190525060405180606001604052806000600281111562000588576200058762000de4565b5b81526020018673ffffffffffffffffffffffffffffffffffffffff1681526020018281525084600181518110620005c457620005c362000e13565b5b6020026020010181905250604051806060016040528060006002811115620005f157620005f062000de4565b5b81526020018673ffffffffffffffffffffffffffffffffffffffff16815260200184815250846002815181106200062d576200062c62000e13565b5b60200260200101819052506040518060600160405280600160028111156200065a576200065962000de4565b5b81526020013073ffffffffffffffffffffffffffffffffffffffff168152602001848152508460038151811062000696576200069562000e13565b5b6020026020010181905250604051806060016040528060016002811115620006c357620006c262000de4565b5b81526020013073ffffffffffffffffffffffffffffffffffffffff1681526020018381525084600481518110620006ff57620006fe62000e13565b5b60200260200101819052506040518060600160405280600160028111156200072c576200072b62000de4565b5b81526020013073ffffffffffffffffffffffffffffffffffffffff168152602001828152508460058151811062000768576200076762000e13565b5b60200260200101819052508573ffffffffffffffffffffffffffffffffffffffff166322844d0487866040518363ffffffff1660e01b8152600401620007b092919062000fba565b600060405180830381600087803b158015620007cb57600080fd5b505af1158015620007e0573d6000803e3d6000fd5b50505050505050505050565b60008282604051620007fe9062000880565b6200080b92919062000fee565b604051809103906000f08015801562000828573d6000803e3d6000fd5b50905092915050565b60405180606001604052806000600281111562000853576200085262000de4565b5b8152602001600073ffffffffffffffffffffffffffffffffffffffff168152602001600080191681525090565b610c51806200102383390190565b600073ffffffffffffffffffffffffffffffffffffffff82169050919050565b6000819050919050565b6000620008d9620008d3620008cd846200088e565b620008ae565b6200088e565b9050919050565b6000620008ed82620008b8565b9050919050565b60006200090182620008e0565b9050919050565b6200091381620008f4565b82525050565b600060208201905062000930600083018462000908565b92915050565b6000604051905090565b600080fd5b600080fd5b600062000957826200088e565b9050919050565b62000969816200094a565b81146200097557600080fd5b50565b60008135905062000989816200095e565b92915050565b600060208284031215620009a857620009a762000940565b5b6000620009b88482850162000978565b91505092915050565b6000620009ce82620008e0565b9050919050565b620009e081620009c1565b82525050565b6000602082019050620009fd6000830184620009d5565b92915050565b600080fd5b600080fd5b6000601f19601f8301169050919050565b7f4e487b7100000000000000000000000000000000000000000000000000000000600052604160045260246000fd5b62000a588262000a0d565b810181811067ffffffffffffffff8211171562000a7a5762000a7962000a1e565b5b80604052505050565b600062000a8f62000936565b905062000a9d828262000a4d565b919050565b600067ffffffffffffffff82111562000ac05762000abf62000a1e565b5b62000acb8262000a0d565b9050602081019050919050565b82818337600083830152505050565b600062000afe62000af88462000aa2565b62000a83565b90508281526020810184848401111562000b1d5762000b1c62000a08565b5b62000b2a84828562000ad8565b509392505050565b600082601f83011262000b4a5762000b4962000a03565b5b813562000b5c84826020860162000ae7565b91505092915050565b6000806000806080858703121562000b825762000b8162000940565b5b600062000b928782880162000978565b945050602062000ba58782880162000978565b935050604085013567ffffffffffffffff81111562000bc95762000bc862000945565b5b62000bd78782880162000b32565b925050606085013567ffffffffffffffff81111562000bfb5762000bfa62000945565b5b62000c098782880162000b32565b91505092959194509250565b62000c20816200094a565b82525050565b600060208201905062000c3d600083018462000c15565b92915050565b6000819050919050565b600060ff82169050919050565b600062000c7b62000c7562000c6f8462000c43565b620008ae565b62000c4d565b9050919050565b62000c8d8162000c5a565b82525050565b600081519050919050565b600082825260208201905092915050565b60005b8381101562000ccf57808201518184015260208101905062000cb2565b60008484015250505050565b600062000ce88262000c93565b62000cf4818562000c9e565b935062000d0681856020860162000caf565b62000d118162000a0d565b840191505092915050565b600060808201905062000d33600083018762000c82565b62000d42602083018662000c15565b818103604083015262000d56818562000cdb565b9050818103606083015262000d6c818462000cdb565b905095945050505050565b6000819050919050565b62000d8c8162000d77565b811462000d9857600080fd5b50565b60008151905062000dac8162000d81565b92915050565b60006020828403121562000dcb5762000dca62000940565b5b600062000ddb8482850162000d9b565b91505092915050565b7f4e487b7100000000000000000000000000000000000000000000000000000000600052602160045260246000fd5b7f4e487b7100000000000000000000000000000000000000000000000000000000600052603260045260246000fd5b600081519050919050565b600082825260208201905092915050565b6000819050602082019050919050565b6003811062000e825762000e8162000de4565b5b50565b600081905062000e958262000e6e565b919050565b600062000ea78262000e85565b9050919050565b62000eb98162000e9a565b82525050565b62000eca816200094a565b82525050565b62000edb8162000d77565b82525050565b60608201600082015162000ef9600085018262000eae565b50602082015162000f0e602085018262000ebf565b50604082015162000f23604085018262000ed0565b50505050565b600062000f37838362000ee1565b60608301905092915050565b6000602082019050919050565b600062000f5d8262000e42565b62000f69818562000e4d565b935062000f768362000e5e565b8060005b8381101562000fad57815162000f91888262000f29565b975062000f9e8362000f43565b92505060018101905062000f7a565b5085935050505092915050565b600060408201905062000fd1600083018562000c15565b818103602083015262000fe5818462000f50565b90509392505050565b600060408201905062001005600083018562000c15565b818103602083015262001019818462000cdb565b9050939250505056fe608060405260405162000c5138038062000c51833981810160405281019062000029919062000580565b6200003d828260006200004560201b60201c565b5050620007d7565b62000056836200008860201b60201c565b600082511180620000645750805b156200008357620000818383620000df60201b620000371760201c565b505b505050565b62000099816200011560201b60201c565b8073ffffffffffffffffffffffffffffffffffffffff167fbc7cd75a20ee27fd9adebab32041f755214dbc6bffa90cc0225b39da2e5c2d3b60405160405180910390a250565b60606200010d838360405180606001604052806027815260200162000c2a60279139620001eb60201b60201c565b905092915050565b6200012b816200027d60201b620000641760201c565b6200016d576040517f08c379a000000000000000000000000000000000000000000000000000000000815260040162000164906200066d565b60405180910390fd5b80620001a77f360894a13ba1a3210667c828492db98dca3e2076cc3735a920a3ca505d382bbc60001b620002a060201b620000871760201c565b60000160006101000a81548173ffffffffffffffffffffffffffffffffffffffff021916908373ffffffffffffffffffffffffffffffffffffffff16021790555050565b60606000808573ffffffffffffffffffffffffffffffffffffffff1685604051620002179190620006dc565b600060405180830381855af49150503d806000811462000254576040519150601f19603f3d011682016040523d82523d6000602084013e62000259565b606091505b50915091506200027286838387620002aa60201b60201c565b925050509392505050565b6000808273ffffffffffffffffffffffffffffffffffffffff163b119050919050565b6000819050919050565b606083156200031a5760008351036200031157620002ce856200027d60201b60201c565b62000310576040517f08c379a0000000000000000000000000000000000000000000000000000000008152600401620003079062000745565b60405180910390fd5b5b8290506200032d565b6200032c83836200033560201b60201c565b5b949350505050565b600082511115620003495781518083602001fd5b806040517f08c379a00000000000000000000000000000000000000000000000000000000081526004016200037f9190620007b3565b60405180910390fd5b6000604051905090565b600080fd5b600080fd5b600073ffffffffffffffffffffffffffffffffffffffff82169050919050565b6000620003c9826200039c565b9050919050565b620003db81620003bc565b8114620003e757600080fd5b50565b600081519050620003fb81620003d0565b92915050565b600080fd5b600080fd5b6000601f19601f8301169050919050565b7f4e487b7100000000000000000000000000000000000000000000000000000000600052604160045260246000fd5b62000456826200040b565b810181811067ffffffffffffffff821117156200047857620004776200041c565b5b80604052505050565b60006200048d62000388565b90506200049b82826200044b565b919050565b600067ffffffffffffffff821115620004be57620004bd6200041c565b5b620004c9826200040b565b9050602081019050919050565b60005b83811015620004f6578082015181840152602081019050620004d9565b60008484015250505050565b6000620005196200051384620004a0565b62000481565b90508281526020810184848401111562000538576200053762000406565b5b62000545848285620004d6565b509392505050565b600082601f83011262000565576200056462000401565b5b81516200057784826020860162000502565b91505092915050565b600080604083850312156200059a576200059962000392565b5b6000620005aa85828601620003ea565b925050602083015167ffffffffffffffff811115620005ce57620005cd62000397565b5b620005dc858286016200054d565b9150509250929050565b600082825260208201905092915050565b7f455243313936373a206e657720696d706c656d656e746174696f6e206973206e60008201527f6f74206120636f6e747261637400000000000000000000000000000000000000602082015250565b600062000655602d83620005e6565b91506200066282620005f7565b604082019050919050565b60006020820190508181036000830152620006888162000646565b9050919050565b600081519050919050565b600081905092915050565b6000620006b2826200068f565b620006be81856200069a565b9350620006d0818560208601620004d6565b80840191505092915050565b6000620006ea8284620006a5565b915081905092915050565b7f416464726573733a2063616c6c20746f206e6f6e2d636f6e7472616374000000600082015250565b60006200072d601d83620005e6565b91506200073a82620006f5565b602082019050919050565b6000602082019050818103600083015262000760816200071e565b9050919050565b600081519050919050565b60006200077f8262000767565b6200078b8185620005e6565b93506200079d818560208601620004d6565b620007a8816200040b565b840191505092915050565b60006020820190508181036000830152620007cf818462000772565b905092915050565b61044380620007e76000396000f3fe6080604052366100135761001161001d565b005b61001b61001d565b005b610025610091565b610035610030610093565b6100a2565b565b606061005c83836040518060600160405280602781526020016103e7602791396100c8565b905092915050565b6000808273ffffffffffffffffffffffffffffffffffffffff163b119050919050565b6000819050919050565b565b600061009d61014e565b905090565b3660008037600080366000845af43d6000803e80600081146100c3573d6000f35b3d6000fd5b60606000808573ffffffffffffffffffffffffffffffffffffffff16856040516100f291906102db565b600060405180830381855af49150503d806000811461012d576040519150601f19603f3d011682016040523d82523d6000602084013e610132565b606091505b5091509150610143868383876101a5565b925050509392505050565b600061017c7f360894a13ba1a3210667c828492db98dca3e2076cc3735a920a3ca505d382bbc60001b610087565b60000160009054906101000a900473ffffffffffffffffffffffffffffffffffffffff16905090565b606083156102075760008351036101ff576101bf85610064565b6101fe576040517f08c379a00000000000000000000000000000000000000000000000000000000081526004016101f59061034f565b60405180910390fd5b5b829050610212565b610211838361021a565b5b949350505050565b60008251111561022d5781518083602001fd5b806040517f08c379a000000000000000000000000000000000000000000000000000000000815260040161026191906103c4565b60405180910390fd5b600081519050919050565b600081905092915050565b60005b8381101561029e578082015181840152602081019050610283565b60008484015250505050565b60006102b58261026a565b6102bf8185610275565b93506102cf818560208601610280565b80840191505092915050565b60006102e782846102aa565b915081905092915050565b600082825260208201905092915050565b7f416464726573733a2063616c6c20746f206e6f6e2d636f6e7472616374000000600082015250565b6000610339601d836102f2565b915061034482610303565b602082019050919050565b600060208201905081810360008301526103688161032c565b9050919050565b600081519050919050565b6000601f19601f8301169050919050565b60006103968261036f565b6103a081856102f2565b93506103b0818560208601610280565b6103b98161037a565b840191505092915050565b600060208201905081810360008301526103de818461038b565b90509291505056fe416464726573733a206c6f772d6c6576656c2064656c65676174652063616c6c206661696c6564a2646970667358221220d7c51eae9d52e7ae8a67059446a6cb47ecf507c5f20d13ab7a7f05707d9806e064736f6c63430008110033416464726573733a206c6f772d6c6576656c2064656c65676174652063616c6c206661696c6564a2646970667358221220e9bbe671b34727a5cbd55aaf6acfc4914df5ebac16fa5216cfa401702a1cdeac64736f6c6343000811003360a06040523073ffffffffffffffffffffffffffffffffffffffff1660809073ffffffffffffffffffffffffffffffffffffffff168152503480156200004457600080fd5b50620000556200005b60201b60201c565b62000206565b600060019054906101000a900460ff1615620000ae576040517f08c379a0000000000000000000000000000000000000000000000000000000008152600401620000a590620001a9565b60405180910390fd5b60ff801660008054906101000a900460ff1660ff161015620001205760ff6000806101000a81548160ff021916908360ff1602179055507f7f26b83ff96e1f2b6a682f133852f6798a09c465da95921460cefb384740249860ff604051620001179190620001e9565b60405180910390a15b565b600082825260208201905092915050565b7f496e697469616c697a61626c653a20636f6e747261637420697320696e69746960008201527f616c697a696e6700000000000000000000000000000000000000000000000000602082015250565b60006200019160278362000122565b91506200019e8262000133565b604082019050919050565b60006020820190508181036000830152620001c48162000182565b9050919050565b600060ff82169050919050565b620001e381620001cb565b82525050565b6000602082019050620002006000830184620001d8565b92915050565b6080516143506200023e600039600081816108f00152818161097e01528181610a7801528181610b060152610c0d01526143506000f3fe6080604052600436106101355760003560e01c80639af3e909116100ab578063d68bad2c1161006f578063d68bad2c1461042b578063d96054c414610454578063df1d6c441461047d578063e0589bd3146104ba578063e978afe5146104f7578063fc0544271461052057610135565b80639af3e90914610346578063afe5eb7814610383578063c4d66de8146103ae578063c9dbc2a4146103d7578063cc98b8f51461040057610135565b80633659cfe6116100fd5780633659cfe6146102315780634f1ef2861461025a57806350abe9101461027657806352d1902d146102b35780637be0ca5e146102de5780639aaf9f081461030957610135565b806301ffc9a71461013a57806309e56b141461017757806322844d04146101a25780632675fdd0146101cb57806328375f6714610208575b600080fd5b34801561014657600080fd5b50610161600480360381019061015c91906127c7565b610549565b60405161016e919061280f565b60405180910390f35b34801561018357600080fd5b5061018c61062b565b6040516101999190612843565b60405180910390f35b3480156101ae57600080fd5b506101c960048036038101906101c49190612921565b61064f565b005b3480156101d757600080fd5b506101f260048036038101906101ed9190612aee565b610754565b6040516101ff919061280f565b60405180910390f35b34801561021457600080fd5b5061022f600480360381019061022a9190612c00565b6107ba565b005b34801561023d57600080fd5b5061025860048036038101906102539190612c60565b6108ee565b005b610274600480360381019061026f9190612c8d565b610a76565b005b34801561028257600080fd5b5061029d60048036038101906102989190612c60565b610bb2565b6040516102aa9190612e22565b60405180910390f35b3480156102bf57600080fd5b506102c8610c09565b6040516102d59190612843565b60405180910390f35b3480156102ea57600080fd5b506102f3610cc2565b6040516103009190612e53565b60405180910390f35b34801561031557600080fd5b50610330600480360381019061032b9190612e6e565b610cd5565b60405161033d9190612e22565b60405180910390f35b34801561035257600080fd5b5061036d60048036038101906103689190612ebf565b610e9d565b60405161037a9190612e22565b60405180910390f35b34801561038f57600080fd5b50610398610ecd565b6040516103a59190612843565b60405180910390f35b3480156103ba57600080fd5b506103d560048036038101906103d09190612c60565b610ef1565b005b3480156103e357600080fd5b506103fe60048036038101906103f99190612f2a565b611087565b005b34801561040c57600080fd5b506104156110c4565b6040516104229190612843565b60405180910390f35b34801561043757600080fd5b50610452600480360381019061044d9190612f91565b6110e8565b005b34801561046057600080fd5b5061047b60048036038101906104769190612f91565b611123565b005b34801561048957600080fd5b506104a4600480360381019061049f9190612fe4565b61115e565b6040516104b1919061302a565b60405180910390f35b3480156104c657600080fd5b506104e160048036038101906104dc9190612fe4565b611193565b6040516104ee9190612e22565b60405180910390f35b34801561050357600080fd5b5061051e6004803603810190610519919061309b565b6111fb565b005b34801561052c57600080fd5b50610547600480360381019061054291906130e8565b611358565b005b60007fd4321b40000000000000000000000000000000000000000000000000000000007bffffffffffffffffffffffffffffffffffffffffffffffffffffffff1916827bffffffffffffffffffffffffffffffffffffffffffffffffffffffff1916148061061457507f2b96ad4d000000000000000000000000000000000000000000000000000000007bffffffffffffffffffffffffffffffffffffffffffffffffffffffff1916827bffffffffffffffffffffffffffffffffffffffffffffffffffffffff1916145b806106245750610623826118d0565b5b9050919050565b7f815fe80e4b37c8582a3b773d1d7071f983eacfd56b5965db654f3087c25ada3381565b7f815fe80e4b37c8582a3b773d1d7071f983eacfd56b5965db654f3087c25ada336106798161193a565b60005b8383905081101561074d57600084848381811061069c5761069b61318f565b5b9050606002018036038101906106b2919061324c565b9050600060028111156106c8576106c7613279565b5b816000015160028111156106df576106de613279565b5b036106fc576106f786826020015183604001516119d3565b610741565b600160028111156107105761070f613279565b5b8160000151600281111561072757610726613279565b5b036107405761073f86826020015183604001516119e5565b5b5b8160010191505061067c565b5050505050565b600061076285858585611b1b565b8061078957506107888573ffffffffffffffffffffffffffffffffffffffff8585611b1b565b5b806107b057506107af73ffffffffffffffffffffffffffffffffffffffff858585611b1b565b5b9050949350505050565b7fa0885006fe6672eeafd1deca6c67bcdc6dd79cfe2b157a98539ddf73cd8c04ea6107e48161193a565b60008460ff1603610821576040517f76f52ffa00000000000000000000000000000000000000000000000000000000815260040160405180910390fd5b60cc60009054906101000a900460ff1660ff168460ff161115610870576040517f11c6e3ab00000000000000000000000000000000000000000000000000000000815260040160405180910390fd5b600083839050036108ad576040517f88bc3fe700000000000000000000000000000000000000000000000000000000815260040160405180910390fd5b7f8ff94c32efcef376eb02508cba5536e0634c1d6ad4b51ffa0f7306c78edaf5f78484846040516108e0939291906132e6565b60405180910390a150505050565b7f000000000000000000000000000000000000000000000000000000000000000073ffffffffffffffffffffffffffffffffffffffff163073ffffffffffffffffffffffffffffffffffffffff160361097c576040517f08c379a00000000000000000000000000000000000000000000000000000000081526004016109739061339b565b60405180910390fd5b7f000000000000000000000000000000000000000000000000000000000000000073ffffffffffffffffffffffffffffffffffffffff166109bb611c79565b73ffffffffffffffffffffffffffffffffffffffff1614610a11576040517f08c379a0000000000000000000000000000000000000000000000000000000008152600401610a089061342d565b60405180910390fd5b610a1a81611cd0565b610a7381600067ffffffffffffffff811115610a3957610a386129c3565b5b6040519080825280601f01601f191660200182016040528015610a6b5781602001600182028036833780820191505090505b506000611cfe565b50565b7f000000000000000000000000000000000000000000000000000000000000000073ffffffffffffffffffffffffffffffffffffffff163073ffffffffffffffffffffffffffffffffffffffff1603610b04576040517f08c379a0000000000000000000000000000000000000000000000000000000008152600401610afb9061339b565b60405180910390fd5b7f000000000000000000000000000000000000000000000000000000000000000073ffffffffffffffffffffffffffffffffffffffff16610b43611c79565b73ffffffffffffffffffffffffffffffffffffffff1614610b99576040517f08c379a0000000000000000000000000000000000000000000000000000000008152600401610b909061342d565b60405180910390fd5b610ba282611cd0565b610bae82826001611cfe565b5050565b610bba6126fd565b610c0260cb60008473ffffffffffffffffffffffffffffffffffffffff1673ffffffffffffffffffffffffffffffffffffffff16815260200190815260200160002054610cd5565b9050919050565b60007f000000000000000000000000000000000000000000000000000000000000000073ffffffffffffffffffffffffffffffffffffffff163073ffffffffffffffffffffffffffffffffffffffff1614610c99576040517f08c379a0000000000000000000000000000000000000000000000000000000008152600401610c90906134bf565b60405180910390fd5b7f360894a13ba1a3210667c828492db98dca3e2076cc3735a920a3ca505d382bbc60001b905090565b60cc60009054906101000a900460ff1681565b610cdd6126fd565b600060ca6000848152602001908152602001600020905060008160000160000160009054906101000a900460ff1660ff1603610d5057826040517f8d0aeeb1000000000000000000000000000000000000000000000000000000008152600401610d479190612843565b60405180910390fd5b80604051806060016040529081600082016040518060400160405290816000820160009054906101000a900460ff1660ff1660ff1681526020016000820160019054906101000a900461ffff1661ffff1661ffff168152505081526020016001820160009054906101000a900473ffffffffffffffffffffffffffffffffffffffff1673ffffffffffffffffffffffffffffffffffffffff1673ffffffffffffffffffffffffffffffffffffffff168152602001600282018054610e139061350e565b80601f0160208091040260200160405190810160405280929190818152602001828054610e3f9061350e565b8015610e8c5780601f10610e6157610100808354040283529160200191610e8c565b820191906000526020600020905b815481529060010190602001808311610e6f57829003601f168201915b505050505081525050915050919050565b610ea56126fd565b610ec6610ec183803603810190610ebc91906135bb565b611e6c565b610cd5565b9050919050565b7fa0885006fe6672eeafd1deca6c67bcdc6dd79cfe2b157a98539ddf73cd8c04ea81565b60008060019054906101000a900460ff16159050808015610f225750600160008054906101000a900460ff1660ff16105b80610f4f5750610f3130611ea6565b158015610f4e5750600160008054906101000a900460ff1660ff16145b5b610f8e576040517f08c379a0000000000000000000000000000000000000000000000000000000008152600401610f859061365a565b60405180910390fd5b60016000806101000a81548160ff021916908360ff1602179055508015610fcb576001600060016101000a81548160ff0219169083151502179055505b610fd482611ec9565b610fff30837fa0885006fe6672eeafd1deca6c67bcdc6dd79cfe2b157a98539ddf73cd8c04ea6119d3565b61102a30837f5aa4f06bdc18535eff05128093a2315c2c960a2722e20021cbff28da04760f5b6119d3565b80156110835760008060016101000a81548160ff0219169083151502179055507f7f26b83ff96e1f2b6a682f133852f6798a09c465da95921460cefb3847402498600160405161107a91906136bf565b60405180910390a15b5050565b7f815fe80e4b37c8582a3b773d1d7071f983eacfd56b5965db654f3087c25ada336110b18161193a565b6110bd85858585611f24565b5050505050565b7f5aa4f06bdc18535eff05128093a2315c2c960a2722e20021cbff28da04760f5b81565b7f815fe80e4b37c8582a3b773d1d7071f983eacfd56b5965db654f3087c25ada336111128161193a565b61111d8484846119d3565b50505050565b7f815fe80e4b37c8582a3b773d1d7071f983eacfd56b5965db654f3087c25ada3361114d8161193a565b6111588484846119e5565b50505050565b600060c960008360ff1660ff16815260200190815260200160002060009054906101000a900461ffff1661ffff169050919050565b61119b6126fd565b600060c960008460ff1660ff16815260200190815260200160002060009054906101000a900461ffff1690506111f36111ee60405180604001604052808660ff1681526020018461ffff16815250611e6c565b610cd5565b915050919050565b7f815fe80e4b37c8582a3b773d1d7071f983eacfd56b5965db654f3087c25ada336112258161193a565b60005b838390508110156113525760008484838181106112485761124761318f565b5b905060a0020180360381019061125e9190613766565b90506000600281111561127457611273613279565b5b8160000151600281111561128b5761128a613279565b5b036112ac576112a78160200151826040015183608001516119d3565b611346565b600160028111156112c0576112bf613279565b5b816000015160028111156112d7576112d6613279565b5b036112f8576112f38160200151826040015183608001516119e5565b611345565b60028081111561130b5761130a613279565b5b8160000151600281111561132257611321613279565b5b03611344576113438160200151826040015183608001518460600151611f24565b5b5b5b81600101915050611228565b50505050565b7fa0885006fe6672eeafd1deca6c67bcdc6dd79cfe2b157a98539ddf73cd8c04ea6113828161193a565b6113cb7f99718b50000000000000000000000000000000000000000000000000000000008773ffffffffffffffffffffffffffffffffffffffff166122c390919063ffffffff16565b611401576040517f9d145ceb00000000000000000000000000000000000000000000000000000000815260040160405180910390fd5b60008760ff160361143e576040517f76f52ffa00000000000000000000000000000000000000000000000000000000815260040160405180910390fd5b600160cc60009054906101000a900460ff168861145b91906137c2565b60ff1611156114b25760cc60009054906101000a900460ff16876040517f53db7b7b0000000000000000000000000000000000000000000000000000000081526004016114a99291906137f7565b60405180910390fd5b60cc60009054906101000a900460ff1660ff168760ff161115611528578660cc60006101000a81548160ff021916908360ff16021790555060008383905003611527576040517f88bc3fe700000000000000000000000000000000000000000000000000000000815260040160405180910390fd5b5b600060ca600060cb60008a73ffffffffffffffffffffffffffffffffffffffff1673ffffffffffffffffffffffffffffffffffffffff168152602001908152602001600020548152602001908152602001600020905060008160000160000160009054906101000a900460ff1660ff16141580156115c057508760ff168160000160000160009054906101000a900460ff1660ff1614155b1561162f578060000160000160009054906101000a900460ff168160000160000160019054906101000a900461ffff16886040517fff9f36740000000000000000000000000000000000000000000000000000000081526004016116269392919061383e565b60405180910390fd5b600060c960008a60ff1660ff168152602001908152602001600020600081819054906101000a900461ffff1661166490613875565b91906101000a81548161ffff021916908361ffff16021790559050600060405180604001604052808b60ff1681526020018361ffff16815250905060006116aa82611e6c565b905060405180606001604052808381526020018b73ffffffffffffffffffffffffffffffffffffffff1681526020018a8a8080601f016020809104026020016040519081016040528093929190818152602001838380828437600081840152601f19601f8201169050808301925050505050505081525060ca600083815260200190815260200160002060008201518160000160008201518160000160006101000a81548160ff021916908360ff16021790555060208201518160000160016101000a81548161ffff021916908361ffff160217905550505060208201518160010160006101000a81548173ffffffffffffffffffffffffffffffffffffffff021916908373ffffffffffffffffffffffffffffffffffffffff16021790555060408201518160020190816117df9190613a41565b509050508060cb60008c73ffffffffffffffffffffffffffffffffffffffff1673ffffffffffffffffffffffffffffffffffffffff168152602001908152602001600020819055508973ffffffffffffffffffffffffffffffffffffffff167feb4bce5025c5200f6a074dd28fe7754955dfdca0eb2dcbaa16ccc292655e66698c858c8c6040516118739493929190613b13565b60405180910390a260008787905011156118c3577f8ff94c32efcef376eb02508cba5536e0634c1d6ad4b51ffa0f7306c78edaf5f78b88886040516118ba939291906132e6565b60405180910390a15b5050505050505050505050565b60007f01ffc9a7000000000000000000000000000000000000000000000000000000007bffffffffffffffffffffffffffffffffffffffffffffffffffffffff1916827bffffffffffffffffffffffffffffffffffffffffffffffffffffffff1916149050919050565b61198b3033836000368080601f016020809104026020016040519081016040528093929190818152602001838380828437600081840152601f19601f82011690508083019250505050505050610754565b6119d0573033826040517f1e09743f0000000000000000000000000000000000000000000000000000000081526004016119c793929190613b53565b60405180910390fd5b50565b6119e08383836002611f24565b505050565b60006119f28484846122e8565b9050600073ffffffffffffffffffffffffffffffffffffffff166097600083815260200190815260200160002060009054906101000a900473ffffffffffffffffffffffffffffffffffffffff1673ffffffffffffffffffffffffffffffffffffffff1614611b155760006097600083815260200190815260200160002060006101000a81548173ffffffffffffffffffffffffffffffffffffffff021916908373ffffffffffffffffffffffffffffffffffffffff1602179055508273ffffffffffffffffffffffffffffffffffffffff163373ffffffffffffffffffffffffffffffffffffffff16837f3ca48185ec3f6e47e24db18b13f1c65b1ce05da1659f9c1c4fe717dda5f6752487604051611b0c9190613b8a565b60405180910390a45b50505050565b60008060976000611b2d8888886122e8565b815260200190815260200160002060009054906101000a900473ffffffffffffffffffffffffffffffffffffffff169050600073ffffffffffffffffffffffffffffffffffffffff168173ffffffffffffffffffffffffffffffffffffffff1603611b9c576000915050611c71565b600273ffffffffffffffffffffffffffffffffffffffff168173ffffffffffffffffffffffffffffffffffffffff1603611bda576001915050611c71565b8073ffffffffffffffffffffffffffffffffffffffff16632675fdd0878787876040518563ffffffff1660e01b8152600401611c199493929190613bde565b602060405180830381865afa925050508015611c5357506040513d601f19601f82011682018060405250810190611c509190613c56565b60015b15611c6b578015611c6957600192505050611c71565b505b60009150505b949350505050565b6000611ca77f360894a13ba1a3210667c828492db98dca3e2076cc3735a920a3ca505d382bbc60001b61231e565b60000160009054906101000a900473ffffffffffffffffffffffffffffffffffffffff16905090565b7f5aa4f06bdc18535eff05128093a2315c2c960a2722e20021cbff28da04760f5b611cfa8161193a565b5050565b611d2a7f4910fdfa16fed3260ed0e7147f7cc6da11a60208b5b9406d12a635614ffd914360001b612328565b60000160009054906101000a900460ff1615611d4e57611d4983612332565b611e67565b8273ffffffffffffffffffffffffffffffffffffffff166352d1902d6040518163ffffffff1660e01b8152600401602060405180830381865afa925050508015611db657506040513d601f19601f82011682018060405250810190611db39190613c98565b60015b611df5576040517f08c379a0000000000000000000000000000000000000000000000000000000008152600401611dec90613d37565b60405180910390fd5b7f360894a13ba1a3210667c828492db98dca3e2076cc3735a920a3ca505d382bbc60001b8114611e5a576040517f08c379a0000000000000000000000000000000000000000000000000000000008152600401611e5190613dc9565b60405180910390fd5b50611e668383836123eb565b5b505050565b600081600001518260200151604051602001611e89929190613e55565b604051602081830303815290604052805190602001209050919050565b6000808273ffffffffffffffffffffffffffffffffffffffff163b119050919050565b600060019054906101000a900460ff16611f18576040517f08c379a0000000000000000000000000000000000000000000000000000000008152600401611f0f90613ef3565b60405180910390fd5b611f2181612417565b50565b73ffffffffffffffffffffffffffffffffffffffff80168473ffffffffffffffffffffffffffffffffffffffff16148015611f8a575073ffffffffffffffffffffffffffffffffffffffff80168373ffffffffffffffffffffffffffffffffffffffff16145b15611fc1576040517f85f1ba9900000000000000000000000000000000000000000000000000000000815260040160405180910390fd5b73ffffffffffffffffffffffffffffffffffffffff80168473ffffffffffffffffffffffffffffffffffffffff161480612026575073ffffffffffffffffffffffffffffffffffffffff80168373ffffffffffffffffffffffffffffffffffffffff16145b1561210257600061203683612445565b90507f815fe80e4b37c8582a3b773d1d7071f983eacfd56b5965db654f3087c25ada338314806120635750805b1561209a576040517f24159e5b00000000000000000000000000000000000000000000000000000000815260040160405180910390fd5b600273ffffffffffffffffffffffffffffffffffffffff168273ffffffffffffffffffffffffffffffffffffffff1603612100576040517f92ab7d0c00000000000000000000000000000000000000000000000000000000815260040160405180910390fd5b505b600061210f8585856122e8565b905060006097600083815260200190815260200160002060009054906101000a900473ffffffffffffffffffffffffffffffffffffffff1690506000839050600073ffffffffffffffffffffffffffffffffffffffff168273ffffffffffffffffffffffffffffffffffffffff160361224157806097600085815260200190815260200160002060006101000a81548173ffffffffffffffffffffffffffffffffffffffff021916908373ffffffffffffffffffffffffffffffffffffffff1602179055508573ffffffffffffffffffffffffffffffffffffffff163373ffffffffffffffffffffffffffffffffffffffff16867f0f579ad49235a8c1fd9041427e7067b1eb10926bbed380bf6fabc73e0e8076448a88604051612234929190613f68565b60405180910390a46122ba565b8073ffffffffffffffffffffffffffffffffffffffff168273ffffffffffffffffffffffffffffffffffffffff16146122b95786868684846040517f0b98789e0000000000000000000000000000000000000000000000000000000081526004016122b0959493929190613f91565b60405180910390fd5b5b50505050505050565b60006122ce8361244c565b80156122e057506122df8383612499565b5b905092915050565b60008284836040516020016122ff939291906140a4565b6040516020818303038152906040528051906020012090509392505050565b6000819050919050565b6000819050919050565b61233b81611ea6565b61237a576040517f08c379a00000000000000000000000000000000000000000000000000000000081526004016123719061415e565b60405180910390fd5b806123a77f360894a13ba1a3210667c828492db98dca3e2076cc3735a920a3ca505d382bbc60001b61231e565b60000160006101000a81548173ffffffffffffffffffffffffffffffffffffffff021916908373ffffffffffffffffffffffffffffffffffffffff16021790555050565b6123f483612558565b6000825111806124015750805b156124125761241083836125a7565b505b505050565b61244230827f815fe80e4b37c8582a3b773d1d7071f983eacfd56b5965db654f3087c25ada336119d3565b50565b6000919050565b6000612478827f01ffc9a700000000000000000000000000000000000000000000000000000000612499565b801561249257506124908263ffffffff60e01b612499565b155b9050919050565b6000806301ffc9a760e01b836040516024016124b5919061418d565b604051602081830303815290604052907bffffffffffffffffffffffffffffffffffffffffffffffffffffffff19166020820180517bffffffffffffffffffffffffffffffffffffffffffffffffffffffff838183161783525050505090506000806000602060008551602087018a617530fa92503d91506000519050828015612540575060208210155b801561254c5750600081115b94505050505092915050565b61256181612332565b8073ffffffffffffffffffffffffffffffffffffffff167fbc7cd75a20ee27fd9adebab32041f755214dbc6bffa90cc0225b39da2e5c2d3b60405160405180910390a250565b60606125b283611ea6565b6125f1576040517f08c379a00000000000000000000000000000000000000000000000000000000081526004016125e89061421a565b60405180910390fd5b6000808473ffffffffffffffffffffffffffffffffffffffff16846040516126199190614276565b600060405180830381855af49150503d8060008114612654576040519150601f19603f3d011682016040523d82523d6000602084013e612659565b606091505b509150915061268182826040518060600160405280602781526020016142f46027913961268b565b9250505092915050565b6060831561269b578290506126a6565b6126a583836126ad565b5b9392505050565b6000825111156126c05781518083602001fd5b806040517f08c379a00000000000000000000000000000000000000000000000000000000081526004016126f491906142d1565b60405180910390fd5b604051806060016040528061271061273a565b8152602001600073ffffffffffffffffffffffffffffffffffffffff168152602001606081525090565b6040518060400160405280600060ff168152602001600061ffff1681525090565b6000604051905090565b600080fd5b600080fd5b60007fffffffff0000000000000000000000000000000000000000000000000000000082169050919050565b6127a48161276f565b81146127af57600080fd5b50565b6000813590506127c18161279b565b92915050565b6000602082840312156127dd576127dc612765565b5b60006127eb848285016127b2565b91505092915050565b60008115159050919050565b612809816127f4565b82525050565b60006020820190506128246000830184612800565b92915050565b6000819050919050565b61283d8161282a565b82525050565b60006020820190506128586000830184612834565b92915050565b600073ffffffffffffffffffffffffffffffffffffffff82169050919050565b60006128898261285e565b9050919050565b6128998161287e565b81146128a457600080fd5b50565b6000813590506128b681612890565b92915050565b600080fd5b600080fd5b600080fd5b60008083601f8401126128e1576128e06128bc565b5b8235905067ffffffffffffffff8111156128fe576128fd6128c1565b5b60208301915083606082028301111561291a576129196128c6565b5b9250929050565b60008060006040848603121561293a57612939612765565b5b6000612948868287016128a7565b935050602084013567ffffffffffffffff8111156129695761296861276a565b5b612975868287016128cb565b92509250509250925092565b61298a8161282a565b811461299557600080fd5b50565b6000813590506129a781612981565b92915050565b600080fd5b6000601f19601f8301169050919050565b7f4e487b7100000000000000000000000000000000000000000000000000000000600052604160045260246000fd5b6129fb826129b2565b810181811067ffffffffffffffff82111715612a1a57612a196129c3565b5b80604052505050565b6000612a2d61275b565b9050612a3982826129f2565b919050565b600067ffffffffffffffff821115612a5957612a586129c3565b5b612a62826129b2565b9050602081019050919050565b82818337600083830152505050565b6000612a91612a8c84612a3e565b612a23565b905082815260208101848484011115612aad57612aac6129ad565b5b612ab8848285612a6f565b509392505050565b600082601f830112612ad557612ad46128bc565b5b8135612ae5848260208601612a7e565b91505092915050565b60008060008060808587031215612b0857612b07612765565b5b6000612b16878288016128a7565b9450506020612b27878288016128a7565b9350506040612b3887828801612998565b925050606085013567ffffffffffffffff811115612b5957612b5861276a565b5b612b6587828801612ac0565b91505092959194509250565b600060ff82169050919050565b612b8781612b71565b8114612b9257600080fd5b50565b600081359050612ba481612b7e565b92915050565b60008083601f840112612bc057612bbf6128bc565b5b8235905067ffffffffffffffff811115612bdd57612bdc6128c1565b5b602083019150836001820283011115612bf957612bf86128c6565b5b9250929050565b600080600060408486031215612c1957612c18612765565b5b6000612c2786828701612b95565b935050602084013567ffffffffffffffff811115612c4857612c4761276a565b5b612c5486828701612baa565b92509250509250925092565b600060208284031215612c7657612c75612765565b5b6000612c84848285016128a7565b91505092915050565b60008060408385031215612ca457612ca3612765565b5b6000612cb2858286016128a7565b925050602083013567ffffffffffffffff811115612cd357612cd261276a565b5b612cdf85828601612ac0565b9150509250929050565b612cf281612b71565b82525050565b600061ffff82169050919050565b612d0f81612cf8565b82525050565b604082016000820151612d2b6000850182612ce9565b506020820151612d3e6020850182612d06565b50505050565b612d4d8161287e565b82525050565b600081519050919050565b600082825260208201905092915050565b60005b83811015612d8d578082015181840152602081019050612d72565b60008484015250505050565b6000612da482612d53565b612dae8185612d5e565b9350612dbe818560208601612d6f565b612dc7816129b2565b840191505092915050565b6000608083016000830151612dea6000860182612d15565b506020830151612dfd6040860182612d44565b5060408301518482036060860152612e158282612d99565b9150508091505092915050565b60006020820190508181036000830152612e3c8184612dd2565b905092915050565b612e4d81612b71565b82525050565b6000602082019050612e686000830184612e44565b92915050565b600060208284031215612e8457612e83612765565b5b6000612e9284828501612998565b91505092915050565b600080fd5b600060408284031215612eb657612eb5612e9b565b5b81905092915050565b600060408284031215612ed557612ed4612765565b5b6000612ee384828501612ea0565b91505092915050565b6000612ef78261287e565b9050919050565b612f0781612eec565b8114612f1257600080fd5b50565b600081359050612f2481612efe565b92915050565b60008060008060808587031215612f4457612f43612765565b5b6000612f52878288016128a7565b9450506020612f63878288016128a7565b9350506040612f7487828801612998565b9250506060612f8587828801612f15565b91505092959194509250565b600080600060608486031215612faa57612fa9612765565b5b6000612fb8868287016128a7565b9350506020612fc9868287016128a7565b9250506040612fda86828701612998565b9150509250925092565b600060208284031215612ffa57612ff9612765565b5b600061300884828501612b95565b91505092915050565b6000819050919050565b61302481613011565b82525050565b600060208201905061303f600083018461301b565b92915050565b60008083601f84011261305b5761305a6128bc565b5b8235905067ffffffffffffffff811115613078576130776128c1565b5b6020830191508360a0820283011115613094576130936128c6565b5b9250929050565b600080602083850312156130b2576130b1612765565b5b600083013567ffffffffffffffff8111156130d0576130cf61276a565b5b6130dc85828601613045565b92509250509250929050565b6000806000806000806080878903121561310557613104612765565b5b600061311389828a01612b95565b965050602061312489828a016128a7565b955050604087013567ffffffffffffffff8111156131455761314461276a565b5b61315189828a01612baa565b9450945050606087013567ffffffffffffffff8111156131745761317361276a565b5b61318089828a01612baa565b92509250509295509295509295565b7f4e487b7100000000000000000000000000000000000000000000000000000000600052603260045260246000fd5b600080fd5b600381106131d057600080fd5b50565b6000813590506131e2816131c3565b92915050565b6000606082840312156131fe576131fd6131be565b5b6132086060612a23565b90506000613218848285016131d3565b600083015250602061322c848285016128a7565b602083015250604061324084828501612998565b60408301525092915050565b60006060828403121561326257613261612765565b5b6000613270848285016131e8565b91505092915050565b7f4e487b7100000000000000000000000000000000000000000000000000000000600052602160045260246000fd5b600082825260208201905092915050565b60006132c583856132a8565b93506132d2838584612a6f565b6132db836129b2565b840190509392505050565b60006040820190506132fb6000830186612e44565b818103602083015261330e8184866132b9565b9050949350505050565b600082825260208201905092915050565b7f46756e6374696f6e206d7573742062652063616c6c6564207468726f7567682060008201527f64656c656761746563616c6c0000000000000000000000000000000000000000602082015250565b6000613385602c83613318565b915061339082613329565b604082019050919050565b600060208201905081810360008301526133b481613378565b9050919050565b7f46756e6374696f6e206d7573742062652063616c6c6564207468726f7567682060008201527f6163746976652070726f78790000000000000000000000000000000000000000602082015250565b6000613417602c83613318565b9150613422826133bb565b604082019050919050565b600060208201905081810360008301526134468161340a565b9050919050565b7f555550535570677261646561626c653a206d757374206e6f742062652063616c60008201527f6c6564207468726f7567682064656c656761746563616c6c0000000000000000602082015250565b60006134a9603883613318565b91506134b48261344d565b604082019050919050565b600060208201905081810360008301526134d88161349c565b9050919050565b7f4e487b7100000000000000000000000000000000000000000000000000000000600052602260045260246000fd5b6000600282049050600182168061352657607f821691505b602082108103613539576135386134df565b5b50919050565b61354881612cf8565b811461355357600080fd5b50565b6000813590506135658161353f565b92915050565b600060408284031215613581576135806131be565b5b61358b6040612a23565b9050600061359b84828501612b95565b60008301525060206135af84828501613556565b60208301525092915050565b6000604082840312156135d1576135d0612765565b5b60006135df8482850161356b565b91505092915050565b7f496e697469616c697a61626c653a20636f6e747261637420697320616c72656160008201527f647920696e697469616c697a6564000000000000000000000000000000000000602082015250565b6000613644602e83613318565b915061364f826135e8565b604082019050919050565b6000602082019050818103600083015261367381613637565b9050919050565b6000819050919050565b6000819050919050565b60006136a96136a461369f8461367a565b613684565b612b71565b9050919050565b6136b98161368e565b82525050565b60006020820190506136d460008301846136b0565b92915050565b600060a082840312156136f0576136ef6131be565b5b6136fa60a0612a23565b9050600061370a848285016131d3565b600083015250602061371e848285016128a7565b6020830152506040613732848285016128a7565b6040830152506060613746848285016128a7565b606083015250608061375a84828501612998565b60808301525092915050565b600060a0828403121561377c5761377b612765565b5b600061378a848285016136da565b91505092915050565b7f4e487b7100000000000000000000000000000000000000000000000000000000600052601160045260246000fd5b60006137cd82612b71565b91506137d883612b71565b9250828203905060ff8111156137f1576137f0613793565b5b92915050565b600060408201905061380c6000830185612e44565b6138196020830184612e44565b9392505050565b61382981612cf8565b82525050565b6138388161287e565b82525050565b60006060820190506138536000830186612e44565b6138606020830185613820565b61386d604083018461382f565b949350505050565b600061388082612cf8565b915061ffff820361389457613893613793565b5b600182019050919050565b60008190508160005260206000209050919050565b60006020601f8301049050919050565b600082821b905092915050565b6000600883026139017fffffffffffffffffffffffffffffffffffffffffffffffffffffffffffffffff826138c4565b61390b86836138c4565b95508019841693508086168417925050509392505050565b600061393e61393961393484613011565b613684565b613011565b9050919050565b6000819050919050565b61395883613923565b61396c61396482613945565b8484546138d1565b825550505050565b600090565b613981613974565b61398c81848461394f565b505050565b5b818110156139b0576139a5600082613979565b600181019050613992565b5050565b601f8211156139f5576139c68161389f565b6139cf846138b4565b810160208510156139de578190505b6139f26139ea856138b4565b830182613991565b50505b505050565b600082821c905092915050565b6000613a18600019846008026139fa565b1980831691505092915050565b6000613a318383613a07565b9150826002028217905092915050565b613a4a82612d53565b67ffffffffffffffff811115613a6357613a626129c3565b5b613a6d825461350e565b613a788282856139b4565b600060209050601f831160018114613aab5760008415613a99578287015190505b613aa38582613a25565b865550613b0b565b601f198416613ab98661389f565b60005b82811015613ae157848901518255600182019150602085019450602081019050613abc565b86831015613afe5784890151613afa601f891682613a07565b8355505b6001600288020188555050505b505050505050565b6000606082019050613b286000830187612e44565b613b356020830186613820565b8181036040830152613b488184866132b9565b905095945050505050565b6000606082019050613b68600083018661382f565b613b75602083018561382f565b613b826040830184612834565b949350505050565b6000602082019050613b9f600083018461382f565b92915050565b6000613bb082612d53565b613bba81856132a8565b9350613bca818560208601612d6f565b613bd3816129b2565b840191505092915050565b6000608082019050613bf3600083018761382f565b613c00602083018661382f565b613c0d6040830185612834565b8181036060830152613c1f8184613ba5565b905095945050505050565b613c33816127f4565b8114613c3e57600080fd5b50565b600081519050613c5081613c2a565b92915050565b600060208284031215613c6c57613c6b612765565b5b6000613c7a84828501613c41565b91505092915050565b600081519050613c9281612981565b92915050565b600060208284031215613cae57613cad612765565b5b6000613cbc84828501613c83565b91505092915050565b7f45524331393637557067726164653a206e657720696d706c656d656e7461746960008201527f6f6e206973206e6f742055555053000000000000000000000000000000000000602082015250565b6000613d21602e83613318565b9150613d2c82613cc5565b604082019050919050565b60006020820190508181036000830152613d5081613d14565b9050919050565b7f45524331393637557067726164653a20756e737570706f727465642070726f7860008201527f6961626c65555549440000000000000000000000000000000000000000000000602082015250565b6000613db3602983613318565b9150613dbe82613d57565b604082019050919050565b60006020820190508181036000830152613de281613da6565b9050919050565b60008160f81b9050919050565b6000613e0182613de9565b9050919050565b613e19613e1482612b71565b613df6565b82525050565b60008160f01b9050919050565b6000613e3782613e1f565b9050919050565b613e4f613e4a82612cf8565b613e2c565b82525050565b6000613e618285613e08565b600182019150613e718284613e3e565b6002820191508190509392505050565b7f496e697469616c697a61626c653a20636f6e7472616374206973206e6f74206960008201527f6e697469616c697a696e67000000000000000000000000000000000000000000602082015250565b6000613edd602b83613318565b9150613ee882613e81565b604082019050919050565b60006020820190508181036000830152613f0c81613ed0565b9050919050565b6000613f2e613f29613f248461285e565b613684565b61285e565b9050919050565b6000613f4082613f13565b9050919050565b6000613f5282613f35565b9050919050565b613f6281613f47565b82525050565b6000604082019050613f7d600083018561382f565b613f8a6020830184613f59565b9392505050565b600060a082019050613fa6600083018861382f565b613fb3602083018761382f565b613fc06040830186612834565b613fcd606083018561382f565b613fda608083018461382f565b9695505050505050565b600081905092915050565b7f5045524d495353494f4e00000000000000000000000000000000000000000000600082015250565b6000614025600a83613fe4565b915061403082613fef565b600a82019050919050565b60008160601b9050919050565b60006140538261403b565b9050919050565b600061406582614048565b9050919050565b61407d6140788261287e565b61405a565b82525050565b6000819050919050565b61409e6140998261282a565b614083565b82525050565b60006140af82614018565b91506140bb828661406c565b6014820191506140cb828561406c565b6014820191506140db828461408d565b602082019150819050949350505050565b7f455243313936373a206e657720696d706c656d656e746174696f6e206973206e60008201527f6f74206120636f6e747261637400000000000000000000000000000000000000602082015250565b6000614148602d83613318565b9150614153826140ec565b604082019050919050565b600060208201905081810360008301526141778161413b565b9050919050565b6141878161276f565b82525050565b60006020820190506141a2600083018461417e565b92915050565b7f416464726573733a2064656c65676174652063616c6c20746f206e6f6e2d636f60008201527f6e74726163740000000000000000000000000000000000000000000000000000602082015250565b6000614204602683613318565b915061420f826141a8565b604082019050919050565b60006020820190508181036000830152614233816141f7565b9050919050565b600081905092915050565b600061425082612d53565b61425a818561423a565b935061426a818560208601612d6f565b80840191505092915050565b60006142828284614245565b915081905092915050565b600081519050919050565b60006142a38261428d565b6142ad8185613318565b93506142bd818560208601612d6f565b6142c6816129b2565b840191505092915050565b600060208201905081810360008301526142eb8184614298565b90509291505056fe416464726573733a206c6f772d6c6576656c2064656c65676174652063616c6c206661696c6564a26469706673582212208eb603bc6c3375733ae58bcb5c035bbaec5d9c4b61a384e532a22bc1b4aea3a164736f6c63430008110033",
  "devdoc": {
    "kind": "dev",
    "methods": {
      "constructor": {
        "params": {
          "_pluginRepoRegistry": "The plugin registry address."
        }
      },
      "createPluginRepo(address)": {
        "params": {
          "_initialOwner": "The plugin maintainer address."
        }
      },
      "createPluginRepoWithFirstVersion(address,address,bytes,bytes)": {
        "details": "After the creation of the `PluginRepo` and release of the first version by the factory, ownership is transferred to the `_maintainer` address.",
        "params": {
          "_buildMetadata": "The build metadata URI.",
          "_maintainer": "The maintainer of the plugin repo. This address has permission to update metadata, upgrade the repo logic, and manage the repo permissions.",
          "_pluginSetup": "The plugin factory contract associated with the plugin version.",
          "_releaseMetadata": "The release metadata URI."
        }
      }
    },
    "title": "PluginRepoFactory",
    "version": 1
  },
  "userdoc": {
    "kind": "user",
    "methods": {
      "constructor": {
        "notice": "Initializes the addresses of the `PluginRepo` base contract to proxy to."
      },
      "createPluginRepo(address)": {
        "notice": "Creates a plugin repository proxy pointing to the `pluginRepoBase` implementation."
      },
      "createPluginRepoWithFirstVersion(address,address,bytes,bytes)": {
        "notice": "Creates a `PluginRepo` and publishes an initial version `1.0`."
      },
      "pluginRepoBase()": {
        "notice": "The address of the `PluginRepo` base contract."
      },
      "pluginRepoRegistry()": {
        "notice": "The plugin registry contract."
      }
    },
    "notice": "This contract creates `PluginRepo` proxies and registers them on an `PluginRepoRegistry` contract.",
    "version": 1
  },
  "storageLayout": {
    "storage": [
      {
        "astId": 4113,
        "contract": "contracts/factory/plugin/repo/PluginRepoFactory.sol:PluginRepoFactory",
        "label": "pluginRepoRegistry",
        "offset": 0,
        "slot": "0",
        "type": "t_contract(PluginRepoRegistry)4440"
      },
      {
        "astId": 4116,
        "contract": "contracts/factory/plugin/repo/PluginRepoFactory.sol:PluginRepoFactory",
        "label": "pluginRepoBase",
        "offset": 0,
        "slot": "1",
        "type": "t_address"
      }
    ],
    "types": {
      "t_address": {
        "encoding": "inplace",
        "label": "address",
        "numberOfBytes": "20"
      },
      "t_contract(PluginRepoRegistry)4440": {
        "encoding": "inplace",
        "label": "contract PluginRepoRegistry",
        "numberOfBytes": "20"
      }
    }
  }
}