{
  "address": "0x8396e3CB87ea207C05667F0AeF5BaaF0346F1148",
  "abi": [
    {
      "inputs": [
        {
          "internalType": "contract PluginRepoRegistry",
          "name": "_repoRegistry",
          "type": "address"
        }
      ],
      "stateMutability": "nonpayable",
      "type": "constructor"
    },
    {
      "inputs": [
        {
          "internalType": "address",
          "name": "plugin",
          "type": "address"
        }
      ],
      "name": "IPluginNotSupported",
      "type": "error"
    },
    {
      "inputs": [
        {
          "internalType": "bytes32",
          "name": "currentAppliedSetupId",
          "type": "bytes32"
        },
        {
          "internalType": "bytes32",
          "name": "appliedSetupId",
          "type": "bytes32"
        }
      ],
      "name": "InvalidAppliedSetupId",
      "type": "error"
    },
    {
      "inputs": [
        {
          "components": [
            {
              "internalType": "uint8",
              "name": "release",
              "type": "uint8"
            },
            {
              "internalType": "uint16",
              "name": "build",
              "type": "uint16"
            }
          ],
          "internalType": "struct PluginRepo.Tag",
          "name": "currentVersionTag",
          "type": "tuple"
        },
        {
          "components": [
            {
              "internalType": "uint8",
              "name": "release",
              "type": "uint8"
            },
            {
              "internalType": "uint16",
              "name": "build",
              "type": "uint16"
            }
          ],
          "internalType": "struct PluginRepo.Tag",
          "name": "newVersionTag",
          "type": "tuple"
        }
      ],
      "name": "InvalidUpdateVersion",
      "type": "error"
    },
    {
      "inputs": [],
      "name": "PluginAlreadyInstalled",
      "type": "error"
    },
    {
      "inputs": [
        {
          "internalType": "address",
          "name": "plugin",
          "type": "address"
        }
      ],
      "name": "PluginNonupgradeable",
      "type": "error"
    },
    {
      "inputs": [
        {
          "internalType": "address",
          "name": "proxy",
          "type": "address"
        },
        {
          "internalType": "address",
          "name": "implementation",
          "type": "address"
        },
        {
          "internalType": "bytes",
          "name": "initData",
          "type": "bytes"
        }
      ],
      "name": "PluginProxyUpgradeFailed",
      "type": "error"
    },
    {
      "inputs": [],
      "name": "PluginRepoNonexistent",
      "type": "error"
    },
    {
      "inputs": [
        {
          "internalType": "bytes32",
          "name": "preparedSetupId",
          "type": "bytes32"
        }
      ],
      "name": "SetupAlreadyPrepared",
      "type": "error"
    },
    {
      "inputs": [
        {
          "internalType": "address",
          "name": "dao",
          "type": "address"
        },
        {
          "internalType": "address",
          "name": "caller",
          "type": "address"
        },
        {
          "internalType": "bytes32",
          "name": "permissionId",
          "type": "bytes32"
        }
      ],
      "name": "SetupApplicationUnauthorized",
      "type": "error"
    },
    {
      "inputs": [
        {
          "internalType": "bytes32",
          "name": "preparedSetupId",
          "type": "bytes32"
        }
      ],
      "name": "SetupNotApplicable",
      "type": "error"
    },
    {
      "anonymous": false,
      "inputs": [
        {
          "indexed": true,
          "internalType": "address",
          "name": "dao",
          "type": "address"
        },
        {
          "indexed": true,
          "internalType": "address",
          "name": "plugin",
          "type": "address"
        },
        {
          "indexed": false,
          "internalType": "bytes32",
          "name": "preparedSetupId",
          "type": "bytes32"
        },
        {
          "indexed": false,
          "internalType": "bytes32",
          "name": "appliedSetupId",
          "type": "bytes32"
        }
      ],
      "name": "InstallationApplied",
      "type": "event"
    },
    {
      "anonymous": false,
      "inputs": [
        {
          "indexed": true,
          "internalType": "address",
          "name": "sender",
          "type": "address"
        },
        {
          "indexed": true,
          "internalType": "address",
          "name": "dao",
          "type": "address"
        },
        {
          "indexed": false,
          "internalType": "bytes32",
          "name": "preparedSetupId",
          "type": "bytes32"
        },
        {
          "indexed": true,
          "internalType": "contract PluginRepo",
          "name": "pluginSetupRepo",
          "type": "address"
        },
        {
          "components": [
            {
              "internalType": "uint8",
              "name": "release",
              "type": "uint8"
            },
            {
              "internalType": "uint16",
              "name": "build",
              "type": "uint16"
            }
          ],
          "indexed": false,
          "internalType": "struct PluginRepo.Tag",
          "name": "versionTag",
          "type": "tuple"
        },
        {
          "indexed": false,
          "internalType": "bytes",
          "name": "data",
          "type": "bytes"
        },
        {
          "indexed": false,
          "internalType": "address",
          "name": "plugin",
          "type": "address"
        },
        {
          "components": [
            {
              "internalType": "address[]",
              "name": "helpers",
              "type": "address[]"
            },
            {
              "components": [
                {
                  "internalType": "enum PermissionLib.Operation",
                  "name": "operation",
                  "type": "uint8"
                },
                {
                  "internalType": "address",
                  "name": "where",
                  "type": "address"
                },
                {
                  "internalType": "address",
                  "name": "who",
                  "type": "address"
                },
                {
                  "internalType": "address",
                  "name": "condition",
                  "type": "address"
                },
                {
                  "internalType": "bytes32",
                  "name": "permissionId",
                  "type": "bytes32"
                }
              ],
              "internalType": "struct PermissionLib.MultiTargetPermission[]",
              "name": "permissions",
              "type": "tuple[]"
            }
          ],
          "indexed": false,
          "internalType": "struct IPluginSetup.PreparedSetupData",
          "name": "preparedSetupData",
          "type": "tuple"
        }
      ],
      "name": "InstallationPrepared",
      "type": "event"
    },
    {
      "anonymous": false,
      "inputs": [
        {
          "indexed": true,
          "internalType": "address",
          "name": "dao",
          "type": "address"
        },
        {
          "indexed": true,
          "internalType": "address",
          "name": "plugin",
          "type": "address"
        },
        {
          "indexed": false,
          "internalType": "bytes32",
          "name": "preparedSetupId",
          "type": "bytes32"
        }
      ],
      "name": "UninstallationApplied",
      "type": "event"
    },
    {
      "anonymous": false,
      "inputs": [
        {
          "indexed": true,
          "internalType": "address",
          "name": "sender",
          "type": "address"
        },
        {
          "indexed": true,
          "internalType": "address",
          "name": "dao",
          "type": "address"
        },
        {
          "indexed": false,
          "internalType": "bytes32",
          "name": "preparedSetupId",
          "type": "bytes32"
        },
        {
          "indexed": true,
          "internalType": "contract PluginRepo",
          "name": "pluginSetupRepo",
          "type": "address"
        },
        {
          "components": [
            {
              "internalType": "uint8",
              "name": "release",
              "type": "uint8"
            },
            {
              "internalType": "uint16",
              "name": "build",
              "type": "uint16"
            }
          ],
          "indexed": false,
          "internalType": "struct PluginRepo.Tag",
          "name": "versionTag",
          "type": "tuple"
        },
        {
          "components": [
            {
              "internalType": "address",
              "name": "plugin",
              "type": "address"
            },
            {
              "internalType": "address[]",
              "name": "currentHelpers",
              "type": "address[]"
            },
            {
              "internalType": "bytes",
              "name": "data",
              "type": "bytes"
            }
          ],
          "indexed": false,
          "internalType": "struct IPluginSetup.SetupPayload",
          "name": "setupPayload",
          "type": "tuple"
        },
        {
          "components": [
            {
              "internalType": "enum PermissionLib.Operation",
              "name": "operation",
              "type": "uint8"
            },
            {
              "internalType": "address",
              "name": "where",
              "type": "address"
            },
            {
              "internalType": "address",
              "name": "who",
              "type": "address"
            },
            {
              "internalType": "address",
              "name": "condition",
              "type": "address"
            },
            {
              "internalType": "bytes32",
              "name": "permissionId",
              "type": "bytes32"
            }
          ],
          "indexed": false,
          "internalType": "struct PermissionLib.MultiTargetPermission[]",
          "name": "permissions",
          "type": "tuple[]"
        }
      ],
      "name": "UninstallationPrepared",
      "type": "event"
    },
    {
      "anonymous": false,
      "inputs": [
        {
          "indexed": true,
          "internalType": "address",
          "name": "dao",
          "type": "address"
        },
        {
          "indexed": true,
          "internalType": "address",
          "name": "plugin",
          "type": "address"
        },
        {
          "indexed": false,
          "internalType": "bytes32",
          "name": "preparedSetupId",
          "type": "bytes32"
        },
        {
          "indexed": false,
          "internalType": "bytes32",
          "name": "appliedSetupId",
          "type": "bytes32"
        }
      ],
      "name": "UpdateApplied",
      "type": "event"
    },
    {
      "anonymous": false,
      "inputs": [
        {
          "indexed": true,
          "internalType": "address",
          "name": "sender",
          "type": "address"
        },
        {
          "indexed": true,
          "internalType": "address",
          "name": "dao",
          "type": "address"
        },
        {
          "indexed": false,
          "internalType": "bytes32",
          "name": "preparedSetupId",
          "type": "bytes32"
        },
        {
          "indexed": true,
          "internalType": "contract PluginRepo",
          "name": "pluginSetupRepo",
          "type": "address"
        },
        {
          "components": [
            {
              "internalType": "uint8",
              "name": "release",
              "type": "uint8"
            },
            {
              "internalType": "uint16",
              "name": "build",
              "type": "uint16"
            }
          ],
          "indexed": false,
          "internalType": "struct PluginRepo.Tag",
          "name": "versionTag",
          "type": "tuple"
        },
        {
          "components": [
            {
              "internalType": "address",
              "name": "plugin",
              "type": "address"
            },
            {
              "internalType": "address[]",
              "name": "currentHelpers",
              "type": "address[]"
            },
            {
              "internalType": "bytes",
              "name": "data",
              "type": "bytes"
            }
          ],
          "indexed": false,
          "internalType": "struct IPluginSetup.SetupPayload",
          "name": "setupPayload",
          "type": "tuple"
        },
        {
          "components": [
            {
              "internalType": "address[]",
              "name": "helpers",
              "type": "address[]"
            },
            {
              "components": [
                {
                  "internalType": "enum PermissionLib.Operation",
                  "name": "operation",
                  "type": "uint8"
                },
                {
                  "internalType": "address",
                  "name": "where",
                  "type": "address"
                },
                {
                  "internalType": "address",
                  "name": "who",
                  "type": "address"
                },
                {
                  "internalType": "address",
                  "name": "condition",
                  "type": "address"
                },
                {
                  "internalType": "bytes32",
                  "name": "permissionId",
                  "type": "bytes32"
                }
              ],
              "internalType": "struct PermissionLib.MultiTargetPermission[]",
              "name": "permissions",
              "type": "tuple[]"
            }
          ],
          "indexed": false,
          "internalType": "struct IPluginSetup.PreparedSetupData",
          "name": "preparedSetupData",
          "type": "tuple"
        },
        {
          "indexed": false,
          "internalType": "bytes",
          "name": "initData",
          "type": "bytes"
        }
      ],
      "name": "UpdatePrepared",
      "type": "event"
    },
    {
      "inputs": [],
      "name": "APPLY_INSTALLATION_PERMISSION_ID",
      "outputs": [
        {
          "internalType": "bytes32",
          "name": "",
          "type": "bytes32"
        }
      ],
      "stateMutability": "view",
      "type": "function"
    },
    {
      "inputs": [],
      "name": "APPLY_UNINSTALLATION_PERMISSION_ID",
      "outputs": [
        {
          "internalType": "bytes32",
          "name": "",
          "type": "bytes32"
        }
      ],
      "stateMutability": "view",
      "type": "function"
    },
    {
      "inputs": [],
      "name": "APPLY_UPDATE_PERMISSION_ID",
      "outputs": [
        {
          "internalType": "bytes32",
          "name": "",
          "type": "bytes32"
        }
      ],
      "stateMutability": "view",
      "type": "function"
    },
    {
      "inputs": [
        {
          "internalType": "address",
          "name": "_dao",
          "type": "address"
        },
        {
          "components": [
            {
              "components": [
                {
                  "components": [
                    {
                      "internalType": "uint8",
                      "name": "release",
                      "type": "uint8"
                    },
                    {
                      "internalType": "uint16",
                      "name": "build",
                      "type": "uint16"
                    }
                  ],
                  "internalType": "struct PluginRepo.Tag",
                  "name": "versionTag",
                  "type": "tuple"
                },
                {
                  "internalType": "contract PluginRepo",
                  "name": "pluginSetupRepo",
                  "type": "address"
                }
              ],
              "internalType": "struct PluginSetupRef",
              "name": "pluginSetupRef",
              "type": "tuple"
            },
            {
              "internalType": "address",
              "name": "plugin",
              "type": "address"
            },
            {
              "components": [
                {
                  "internalType": "enum PermissionLib.Operation",
                  "name": "operation",
                  "type": "uint8"
                },
                {
                  "internalType": "address",
                  "name": "where",
                  "type": "address"
                },
                {
                  "internalType": "address",
                  "name": "who",
                  "type": "address"
                },
                {
                  "internalType": "address",
                  "name": "condition",
                  "type": "address"
                },
                {
                  "internalType": "bytes32",
                  "name": "permissionId",
                  "type": "bytes32"
                }
              ],
              "internalType": "struct PermissionLib.MultiTargetPermission[]",
              "name": "permissions",
              "type": "tuple[]"
            },
            {
              "internalType": "bytes32",
              "name": "helpersHash",
              "type": "bytes32"
            }
          ],
          "internalType": "struct PluginSetupProcessor.ApplyInstallationParams",
          "name": "_params",
          "type": "tuple"
        }
      ],
      "name": "applyInstallation",
      "outputs": [],
      "stateMutability": "nonpayable",
      "type": "function"
    },
    {
      "inputs": [
        {
          "internalType": "address",
          "name": "_dao",
          "type": "address"
        },
        {
          "components": [
            {
              "internalType": "address",
              "name": "plugin",
              "type": "address"
            },
            {
              "components": [
                {
                  "components": [
                    {
                      "internalType": "uint8",
                      "name": "release",
                      "type": "uint8"
                    },
                    {
                      "internalType": "uint16",
                      "name": "build",
                      "type": "uint16"
                    }
                  ],
                  "internalType": "struct PluginRepo.Tag",
                  "name": "versionTag",
                  "type": "tuple"
                },
                {
                  "internalType": "contract PluginRepo",
                  "name": "pluginSetupRepo",
                  "type": "address"
                }
              ],
              "internalType": "struct PluginSetupRef",
              "name": "pluginSetupRef",
              "type": "tuple"
            },
            {
              "components": [
                {
                  "internalType": "enum PermissionLib.Operation",
                  "name": "operation",
                  "type": "uint8"
                },
                {
                  "internalType": "address",
                  "name": "where",
                  "type": "address"
                },
                {
                  "internalType": "address",
                  "name": "who",
                  "type": "address"
                },
                {
                  "internalType": "address",
                  "name": "condition",
                  "type": "address"
                },
                {
                  "internalType": "bytes32",
                  "name": "permissionId",
                  "type": "bytes32"
                }
              ],
              "internalType": "struct PermissionLib.MultiTargetPermission[]",
              "name": "permissions",
              "type": "tuple[]"
            }
          ],
          "internalType": "struct PluginSetupProcessor.ApplyUninstallationParams",
          "name": "_params",
          "type": "tuple"
        }
      ],
      "name": "applyUninstallation",
      "outputs": [],
      "stateMutability": "nonpayable",
      "type": "function"
    },
    {
      "inputs": [
        {
          "internalType": "address",
          "name": "_dao",
          "type": "address"
        },
        {
          "components": [
            {
              "internalType": "address",
              "name": "plugin",
              "type": "address"
            },
            {
              "components": [
                {
                  "components": [
                    {
                      "internalType": "uint8",
                      "name": "release",
                      "type": "uint8"
                    },
                    {
                      "internalType": "uint16",
                      "name": "build",
                      "type": "uint16"
                    }
                  ],
                  "internalType": "struct PluginRepo.Tag",
                  "name": "versionTag",
                  "type": "tuple"
                },
                {
                  "internalType": "contract PluginRepo",
                  "name": "pluginSetupRepo",
                  "type": "address"
                }
              ],
              "internalType": "struct PluginSetupRef",
              "name": "pluginSetupRef",
              "type": "tuple"
            },
            {
              "internalType": "bytes",
              "name": "initData",
              "type": "bytes"
            },
            {
              "components": [
                {
                  "internalType": "enum PermissionLib.Operation",
                  "name": "operation",
                  "type": "uint8"
                },
                {
                  "internalType": "address",
                  "name": "where",
                  "type": "address"
                },
                {
                  "internalType": "address",
                  "name": "who",
                  "type": "address"
                },
                {
                  "internalType": "address",
                  "name": "condition",
                  "type": "address"
                },
                {
                  "internalType": "bytes32",
                  "name": "permissionId",
                  "type": "bytes32"
                }
              ],
              "internalType": "struct PermissionLib.MultiTargetPermission[]",
              "name": "permissions",
              "type": "tuple[]"
            },
            {
              "internalType": "bytes32",
              "name": "helpersHash",
              "type": "bytes32"
            }
          ],
          "internalType": "struct PluginSetupProcessor.ApplyUpdateParams",
          "name": "_params",
          "type": "tuple"
        }
      ],
      "name": "applyUpdate",
      "outputs": [],
      "stateMutability": "nonpayable",
      "type": "function"
    },
    {
      "inputs": [
        {
          "internalType": "address",
          "name": "_dao",
          "type": "address"
        },
        {
          "components": [
            {
              "components": [
                {
                  "components": [
                    {
                      "internalType": "uint8",
                      "name": "release",
                      "type": "uint8"
                    },
                    {
                      "internalType": "uint16",
                      "name": "build",
                      "type": "uint16"
                    }
                  ],
                  "internalType": "struct PluginRepo.Tag",
                  "name": "versionTag",
                  "type": "tuple"
                },
                {
                  "internalType": "contract PluginRepo",
                  "name": "pluginSetupRepo",
                  "type": "address"
                }
              ],
              "internalType": "struct PluginSetupRef",
              "name": "pluginSetupRef",
              "type": "tuple"
            },
            {
              "internalType": "bytes",
              "name": "data",
              "type": "bytes"
            }
          ],
          "internalType": "struct PluginSetupProcessor.PrepareInstallationParams",
          "name": "_params",
          "type": "tuple"
        }
      ],
      "name": "prepareInstallation",
      "outputs": [
        {
          "internalType": "address",
          "name": "plugin",
          "type": "address"
        },
        {
          "components": [
            {
              "internalType": "address[]",
              "name": "helpers",
              "type": "address[]"
            },
            {
              "components": [
                {
                  "internalType": "enum PermissionLib.Operation",
                  "name": "operation",
                  "type": "uint8"
                },
                {
                  "internalType": "address",
                  "name": "where",
                  "type": "address"
                },
                {
                  "internalType": "address",
                  "name": "who",
                  "type": "address"
                },
                {
                  "internalType": "address",
                  "name": "condition",
                  "type": "address"
                },
                {
                  "internalType": "bytes32",
                  "name": "permissionId",
                  "type": "bytes32"
                }
              ],
              "internalType": "struct PermissionLib.MultiTargetPermission[]",
              "name": "permissions",
              "type": "tuple[]"
            }
          ],
          "internalType": "struct IPluginSetup.PreparedSetupData",
          "name": "preparedSetupData",
          "type": "tuple"
        }
      ],
      "stateMutability": "nonpayable",
      "type": "function"
    },
    {
      "inputs": [
        {
          "internalType": "address",
          "name": "_dao",
          "type": "address"
        },
        {
          "components": [
            {
              "components": [
                {
                  "components": [
                    {
                      "internalType": "uint8",
                      "name": "release",
                      "type": "uint8"
                    },
                    {
                      "internalType": "uint16",
                      "name": "build",
                      "type": "uint16"
                    }
                  ],
                  "internalType": "struct PluginRepo.Tag",
                  "name": "versionTag",
                  "type": "tuple"
                },
                {
                  "internalType": "contract PluginRepo",
                  "name": "pluginSetupRepo",
                  "type": "address"
                }
              ],
              "internalType": "struct PluginSetupRef",
              "name": "pluginSetupRef",
              "type": "tuple"
            },
            {
              "components": [
                {
                  "internalType": "address",
                  "name": "plugin",
                  "type": "address"
                },
                {
                  "internalType": "address[]",
                  "name": "currentHelpers",
                  "type": "address[]"
                },
                {
                  "internalType": "bytes",
                  "name": "data",
                  "type": "bytes"
                }
              ],
              "internalType": "struct IPluginSetup.SetupPayload",
              "name": "setupPayload",
              "type": "tuple"
            }
          ],
          "internalType": "struct PluginSetupProcessor.PrepareUninstallationParams",
          "name": "_params",
          "type": "tuple"
        }
      ],
      "name": "prepareUninstallation",
      "outputs": [
        {
          "components": [
            {
              "internalType": "enum PermissionLib.Operation",
              "name": "operation",
              "type": "uint8"
            },
            {
              "internalType": "address",
              "name": "where",
              "type": "address"
            },
            {
              "internalType": "address",
              "name": "who",
              "type": "address"
            },
            {
              "internalType": "address",
              "name": "condition",
              "type": "address"
            },
            {
              "internalType": "bytes32",
              "name": "permissionId",
              "type": "bytes32"
            }
          ],
          "internalType": "struct PermissionLib.MultiTargetPermission[]",
          "name": "permissions",
          "type": "tuple[]"
        }
      ],
      "stateMutability": "nonpayable",
      "type": "function"
    },
    {
      "inputs": [
        {
          "internalType": "address",
          "name": "_dao",
          "type": "address"
        },
        {
          "components": [
            {
              "components": [
                {
                  "internalType": "uint8",
                  "name": "release",
                  "type": "uint8"
                },
                {
                  "internalType": "uint16",
                  "name": "build",
                  "type": "uint16"
                }
              ],
              "internalType": "struct PluginRepo.Tag",
              "name": "currentVersionTag",
              "type": "tuple"
            },
            {
              "components": [
                {
                  "internalType": "uint8",
                  "name": "release",
                  "type": "uint8"
                },
                {
                  "internalType": "uint16",
                  "name": "build",
                  "type": "uint16"
                }
              ],
              "internalType": "struct PluginRepo.Tag",
              "name": "newVersionTag",
              "type": "tuple"
            },
            {
              "internalType": "contract PluginRepo",
              "name": "pluginSetupRepo",
              "type": "address"
            },
            {
              "components": [
                {
                  "internalType": "address",
                  "name": "plugin",
                  "type": "address"
                },
                {
                  "internalType": "address[]",
                  "name": "currentHelpers",
                  "type": "address[]"
                },
                {
                  "internalType": "bytes",
                  "name": "data",
                  "type": "bytes"
                }
              ],
              "internalType": "struct IPluginSetup.SetupPayload",
              "name": "setupPayload",
              "type": "tuple"
            }
          ],
          "internalType": "struct PluginSetupProcessor.PrepareUpdateParams",
          "name": "_params",
          "type": "tuple"
        }
      ],
      "name": "prepareUpdate",
      "outputs": [
        {
          "internalType": "bytes",
          "name": "initData",
          "type": "bytes"
        },
        {
          "components": [
            {
              "internalType": "address[]",
              "name": "helpers",
              "type": "address[]"
            },
            {
              "components": [
                {
                  "internalType": "enum PermissionLib.Operation",
                  "name": "operation",
                  "type": "uint8"
                },
                {
                  "internalType": "address",
                  "name": "where",
                  "type": "address"
                },
                {
                  "internalType": "address",
                  "name": "who",
                  "type": "address"
                },
                {
                  "internalType": "address",
                  "name": "condition",
                  "type": "address"
                },
                {
                  "internalType": "bytes32",
                  "name": "permissionId",
                  "type": "bytes32"
                }
              ],
              "internalType": "struct PermissionLib.MultiTargetPermission[]",
              "name": "permissions",
              "type": "tuple[]"
            }
          ],
          "internalType": "struct IPluginSetup.PreparedSetupData",
          "name": "preparedSetupData",
          "type": "tuple"
        }
      ],
      "stateMutability": "nonpayable",
      "type": "function"
    },
    {
      "inputs": [],
      "name": "repoRegistry",
      "outputs": [
        {
          "internalType": "contract PluginRepoRegistry",
          "name": "",
          "type": "address"
        }
      ],
      "stateMutability": "view",
      "type": "function"
    },
    {
      "inputs": [
        {
          "internalType": "bytes32",
          "name": "",
          "type": "bytes32"
        }
      ],
      "name": "states",
      "outputs": [
        {
          "internalType": "uint256",
          "name": "blockNumber",
          "type": "uint256"
        },
        {
          "internalType": "bytes32",
          "name": "currentAppliedSetupId",
          "type": "bytes32"
        }
      ],
      "stateMutability": "view",
      "type": "function"
    },
    {
      "inputs": [
        {
          "internalType": "bytes32",
          "name": "pluginInstallationId",
          "type": "bytes32"
        },
        {
          "internalType": "bytes32",
          "name": "preparedSetupId",
          "type": "bytes32"
        }
      ],
      "name": "validatePreparedSetupId",
      "outputs": [],
      "stateMutability": "view",
      "type": "function"
    }
  ],
  "transactionHash": "0x9fa63503ba33a5c98e925b82fb1316c9252369a9df8a84fa17e1235636dcc76e",
  "args": [
    "0x565773023043b23C1c12D5fac68Ce8B5F219Bcc0"
  ],
  "numDeployments": 1,
  "solcInputHash": "0436994da4f1886ef7ba0eafc5c461be",
  "bytecode": "0x60806040523480156200001157600080fd5b50604051620045b5380380620045b58339818101604052810190620000379190620000fd565b80600160006101000a81548173ffffffffffffffffffffffffffffffffffffffff021916908373ffffffffffffffffffffffffffffffffffffffff160217905550506200012f565b600080fd5b600073ffffffffffffffffffffffffffffffffffffffff82169050919050565b6000620000b18262000084565b9050919050565b6000620000c582620000a4565b9050919050565b620000d781620000b8565b8114620000e357600080fd5b50565b600081519050620000f781620000cc565b92915050565b6000602082840312156200011657620001156200007f565b5b60006200012684828501620000e6565b91505092915050565b614476806200013f6000396000f3fe608060405234801561001057600080fd5b50600436106100b45760003560e01c80639665861a116100715780639665861a1461018e578063ca211f7f146101ac578063d7598122146101ca578063fafc79da146101fb578063fbdc1ef114610217578063fe6c347414610248576100b4565b806322e12c63146100b95780632fb04336146100d55780633c8c01d114610105578063483d209e14610136578063747e5ec114610154578063851d11f814610172575b600080fd5b6100d360048036038101906100ce91906124c2565b610264565b005b6100ef60048036038101906100ea919061253d565b610747565b6040516100fc919061274f565b60405180910390f35b61011f600480360381019061011a9190612790565b610b27565b60405161012d92919061295d565b60405180910390f35b61013e610f13565b60405161014b91906129ec565b60405180910390f35b61015c610f39565b6040516101699190612a16565b60405180910390f35b61018c60048036038101906101879190612a50565b610f5d565b005b6101966111b7565b6040516101a39190612a16565b60405180910390f35b6101b46111db565b6040516101c19190612a16565b60405180910390f35b6101e460048036038101906101df9190612acb565b6111ff565b6040516101f2929190612bb7565b60405180910390f35b61021560048036038101906102109190612c1a565b611a2e565b005b610231600480360381019061022c9190612c5a565b611aa6565b60405161023f929190612ca0565b60405180910390f35b610262600480360381019061025d9190612ce8565b611aca565b005b817fb03cf3d518f6d49560b7f5bece1ccb8fd50ea7370f02f5e5210edba04be3c4f76102908282611d6a565b60006102ae858560000160208101906102a99190612d44565b611e7c565b90506000806000838152602001908152602001600020905060006103ab866020018036038101906102df9190612f47565b61034c888060a001906102f29190612f83565b808060200260200160405190810160405280939291908181526020016000905b8282101561034257848483905060a002018036038101906103339190613097565b81526020019060010190610312565b5050505050611eaf565b8860c0013589806080019061036191906130c4565b8080601f016020809104026020016040519081016040528093929190818152602001838380828437600081840152601f19601f820116905080830192505050505050506002611edf565b90506103b78382611a2e565b60006103da876020018036038101906103d09190612f47565b8860c00135611f2c565b905043836000018190555080836001018190555060008760200160400160208101906104069190613127565b73ffffffffffffffffffffffffffffffffffffffff16639af3e909896020016000016040518263ffffffff1660e01b815260040161044491906131df565b600060405180830381865afa158015610461573d6000803e3d6000fd5b505050506040513d6000823e3d601f19601f8201168201806040525081019061048a91906133b4565b905060008860000160208101906104a19190612d44565b73ffffffffffffffffffffffffffffffffffffffff16635c60da1b6040518163ffffffff1660e01b8152600401602060405180830381865afa1580156104eb573d6000803e3d6000fd5b505050506040513d601f19601f8201168201806040525081019061050f91906133fd565b90506000826020015173ffffffffffffffffffffffffffffffffffffffff16635c60da1b6040518163ffffffff1660e01b8152600401602060405180830381865afa158015610562573d6000803e3d6000fd5b505050506040513d601f19601f8201168201806040525081019061058691906133fd565b90508073ffffffffffffffffffffffffffffffffffffffff168273ffffffffffffffffffffffffffffffffffffffff161461062b5761062a8a60000160208101906105d19190612d44565b828c80608001906105e291906130c4565b8080601f016020809104026020016040519081016040528093929190818152602001838380828437600081840152601f19601f82011690508083019250505050505050611f69565b5b60008a8060a0019061063d9190612f83565b905011156106c1578a73ffffffffffffffffffffffffffffffffffffffff1663e978afe58b8060a001906106719190612f83565b6040518363ffffffff1660e01b815260040161068e929190613596565b600060405180830381600087803b1580156106a857600080fd5b505af11580156106bc573d6000803e3d6000fd5b505050505b8960000160208101906106d49190612d44565b73ffffffffffffffffffffffffffffffffffffffff168b73ffffffffffffffffffffffffffffffffffffffff167f24565610ddf61ee73e8501d7f0454657c71f5944882f5c586d7246bf43e13cda87876040516107329291906135ba565b60405180910390a35050505050505050505050565b606060006107768484806060019061075f91906135e3565b60000160208101906107719190612d44565b611e7c565b9050600080600083815260200190815260200160002090506000610813856000018036038101906107a79190612f47565b61080e8780606001906107ba91906135e3565b80602001906107c9919061360b565b80806020026020016040519081016040528093929190818152602001838360200280828437600081840152601f19601f82011690508083019250505050505050612202565b611f2c565b905080826001015414610863578160010154816040517f73a4eaa000000000000000000000000000000000000000000000000000000000815260040161085a9291906135ba565b60405180910390fd5b600085600001604001602081019061087b9190613127565b73ffffffffffffffffffffffffffffffffffffffff16639af3e909876000016000016040518263ffffffff1660e01b81526004016108b991906131df565b600060405180830381865afa1580156108d6573d6000803e3d6000fd5b505050506040513d6000823e3d601f19601f820116820180604052508101906108ff91906133b4565b9050806020015173ffffffffffffffffffffffffffffffffffffffff16639cb0a1248888806060019061093291906135e3565b6040518363ffffffff1660e01b815260040161094f929190613877565b6000604051808303816000875af115801561096e573d6000803e3d6000fd5b505050506040513d6000823e3d601f19601f820116820180604052508101906109979190613a25565b945060006109f6876000018036038101906109b29190612f47565b6109bb88611eaf565b7f290decd9548b62a8d60345a988386fc84ba6bc95484008f6362f93160ef3e56360001b604051806020016040528060008152506003611edf565b90508360020160008281526020019081526020016000205484600001541015610a5657806040517f2acda5b8000000000000000000000000000000000000000000000000000000008152600401610a4d9190612a16565b60405180910390fd5b4384600201600083815260200190815260200160002081905550866000016040016020810190610a869190613127565b73ffffffffffffffffffffffffffffffffffffffff168873ffffffffffffffffffffffffffffffffffffffff163373ffffffffffffffffffffffffffffffffffffffff167f5fdcd271ff15db84cbc94365956df5504f6d756e111654144648433c11a44530848b6000016000018c8060600190610b0391906135e3565b8c604051610b149493929190613a6e565b60405180910390a4505050505092915050565b6000610b31612412565b6000836000016040016020810190610b499190613127565b9050600160009054906101000a900473ffffffffffffffffffffffffffffffffffffffff1673ffffffffffffffffffffffffffffffffffffffff1663f29ee125826040518263ffffffff1660e01b8152600401610ba69190613ac1565b602060405180830381865afa158015610bc3573d6000803e3d6000fd5b505050506040513d601f19601f82011682018060405250810190610be79190613b14565b610c1d576040517f0d4feab400000000000000000000000000000000000000000000000000000000815260040160405180910390fd5b60008173ffffffffffffffffffffffffffffffffffffffff16639af3e909866000016000016040518263ffffffff1660e01b8152600401610c5e91906131df565b600060405180830381865afa158015610c7b573d6000803e3d6000fd5b505050506040513d6000823e3d601f19601f82011682018060405250810190610ca491906133b4565b9050806020015173ffffffffffffffffffffffffffffffffffffffff1663f10832f187878060600190610cd791906130c4565b6040518463ffffffff1660e01b8152600401610cf593929190613b6e565b6000604051808303816000875af1158015610d14573d6000803e3d6000fd5b505050506040513d6000823e3d601f19601f82011682018060405250810190610d3d9190613ceb565b80945081955050506000610d518786611e7c565b90506000610d9d87600001803603810190610d6c9190612f47565b610d798760200151611eaf565b610d868860000151612202565b604051806020016040528060008152506001611edf565b9050600080600084815260200190815260200160002090506000801b816001015414610df5576040517fd2e44eb600000000000000000000000000000000000000000000000000000000815260040160405180910390fd5b8060020160008381526020019081526020016000205481600001541015610e5357816040517f2acda5b8000000000000000000000000000000000000000000000000000000008152600401610e4a9190612a16565b60405180910390fd5b43816002016000848152602001908152602001600020819055508473ffffffffffffffffffffffffffffffffffffffff168973ffffffffffffffffffffffffffffffffffffffff163373ffffffffffffffffffffffffffffffffffffffff167f8ea69cee01fd9fc24e6b9614ea0896c5a1eac8fd8aba383285248cd0e1d8503a858c6000016000018d8060600190610eeb91906130c4565b8e8e604051610eff96959493929190613d47565b60405180910390a450505050509250929050565b600160009054906101000a900473ffffffffffffffffffffffffffffffffffffffff1681565b7ff796b89427c6552c1ac705d833bfb7909f8eb5ce502c1db97f85fabc6ad8354881565b817fbd4dbacf5ba6d9793f600403b3293d6ecd695fcc703a2b5edcf245f45fda6cfa610f898282611d6a565b6000610fa785856000016020810190610fa29190612d44565b611e7c565b905060008060008381526020019081526020016000209050600061108086602001803603810190610fd89190612f47565b611045888060800190610feb9190612f83565b808060200260200160405190810160405280939291908181526020016000905b8282101561103b57848483905060a0020180360381019061102c9190613097565b8152602001906001019061100b565b5050505050611eaf565b7f290decd9548b62a8d60345a988386fc84ba6bc95484008f6362f93160ef3e56360001b604051806020016040528060008152506003611edf565b905061108c8382611a2e565b4382600001819055506000801b826001018190555060008680608001906110b39190612f83565b90501115611137578673ffffffffffffffffffffffffffffffffffffffff1663e978afe58780608001906110e79190612f83565b6040518363ffffffff1660e01b8152600401611104929190613596565b600060405180830381600087803b15801561111e57600080fd5b505af1158015611132573d6000803e3d6000fd5b505050505b85600001602081019061114a9190612d44565b73ffffffffffffffffffffffffffffffffffffffff168773ffffffffffffffffffffffffffffffffffffffff167fa0e5d4ce6420a0e7a5f0ac10c47b3a672fb661c11f5609bb21b68644d81e17aa836040516111a69190612a16565b60405180910390a350505050505050565b7fb03cf3d518f6d49560b7f5bece1ccb8fd50ea7370f02f5e5210edba04be3c4f781565b7fbd4dbacf5ba6d9793f600403b3293d6ecd695fcc703a2b5edcf245f45fda6cfa81565b6060611209612412565b82604001600001602081019061121f9190613daa565b60ff168360000160000160208101906112389190613daa565b60ff1614158061127a57508260400160200160208101906112599190613dd7565b61ffff168360000160200160208101906112739190613dd7565b61ffff1610155b156112c45782600001836040016040517f80d4e9070000000000000000000000000000000000000000000000000000000081526004016112bb929190613e04565b60405180910390fd5b60006112f185858060a001906112da91906135e3565b60000160208101906112ec9190612d44565b611e7c565b9050600080600083815260200190815260200160002090506000611372868060a0019061131e91906135e3565b806020019061132d919061360b565b80806020026020016040519081016040528093929190818152602001838360200280828437600081840152601f19601f82011690508083019250505050505050612202565b905060006113cf6040518060400160405280896000018036038101906113989190613e2d565b81526020018960800160208101906113b09190613127565b73ffffffffffffffffffffffffffffffffffffffff1681525083611f2c565b90508083600101541461141f578260010154816040517f73a4eaa00000000000000000000000000000000000000000000000000000000081526004016114169291906135ba565b60405180910390fd5b60008760800160208101906114349190613127565b73ffffffffffffffffffffffffffffffffffffffff16639af3e909896000016040518263ffffffff1660e01b815260040161146f91906131df565b600060405180830381865afa15801561148c573d6000803e3d6000fd5b505050506040513d6000823e3d601f19601f820116820180604052508101906114b591906133b4565b905060008860800160208101906114cc9190613127565b73ffffffffffffffffffffffffffffffffffffffff16639af3e9098a6040016040518263ffffffff1660e01b815260040161150791906131df565b600060405180830381865afa158015611524573d6000803e3d6000fd5b505050506040513d6000823e3d601f19601f8201168201806040525081019061154d91906133b4565b90506000816020015173ffffffffffffffffffffffffffffffffffffffff16836020015173ffffffffffffffffffffffffffffffffffffffff16036116895761161b60405180604001604052808c6040018036038101906115ae9190613e2d565b81526020018c60800160208101906115c69190613127565b73ffffffffffffffffffffffffffffffffffffffff168152507f569e75fc77c1a856f6daaf9e69d8a9566ca34aa47f9133711ce065a571af0cfd60001b87604051806020016040528060008152506002611edf565b9050898060a0019061162d91906135e3565b806020019061163c919061360b565b80806020026020016040519081016040528093929190818152602001838360200280828437600081840152601f19601f82011690508083019250505050505050886000018190525061199b565b6116f37f41de6830000000000000000000000000000000000000000000000000000000008b8060a001906116bd91906135e3565b60000160208101906116cf9190612d44565b73ffffffffffffffffffffffffffffffffffffffff1661223290919063ffffffff16565b61175557898060a0019061170791906135e3565b60000160208101906117199190612d44565b6040517f8174ff5500000000000000000000000000000000000000000000000000000000815260040161174c9190613ac1565b60405180910390fd5b60006002811115611769576117686125c5565b5b8a8060a0019061177991906135e3565b600001602081019061178b9190612d44565b73ffffffffffffffffffffffffffffffffffffffff166341de68306040518163ffffffff1660e01b8152600401602060405180830381865afa1580156117d5573d6000803e3d6000fd5b505050506040513d601f19601f820116820180604052508101906117f99190613e7f565b600281111561180b5761180a6125c5565b5b1461186e57898060a0019061182091906135e3565b60000160208101906118329190612d44565b6040517fe4356c940000000000000000000000000000000000000000000000000000000081526004016118659190613ac1565b60405180910390fd5b816020015173ffffffffffffffffffffffffffffffffffffffff1663a8a9c29e8c8c60000160200160208101906118a59190613dd7565b8d8060a001906118b591906135e3565b6040518463ffffffff1660e01b81526004016118d393929190613ebb565b6000604051808303816000875af11580156118f2573d6000803e3d6000fd5b505050506040513d6000823e3d601f19601f8201168201806040525081019061191b9190613ef9565b809950819a50505061199860405180604001604052808c6040018036038101906119459190613e2d565b81526020018c608001602081019061195d9190613127565b73ffffffffffffffffffffffffffffffffffffffff168152506119838a60200151611eaf565b6119908b60000151612202565b8c6002611edf565b90505b85600201600082815260200190815260200160002054866000015410156119f957806040517f2acda5b80000000000000000000000000000000000000000000000000000000081526004016119f09190612a16565b60405180910390fd5b4386600201600083815260200190815260200160002081905550611a208b828c8b8d612257565b505050505050509250929050565b6000806000848152602001908152602001600020905080600201600083815260200190815260200160002054816000015410611aa157816040517f59730ce6000000000000000000000000000000000000000000000000000000008152600401611a989190612a16565b60405180910390fd5b505050565b60006020528060005260406000206000915090508060000154908060010154905082565b817ff796b89427c6552c1ac705d833bfb7909f8eb5ce502c1db97f85fabc6ad83548611af68282611d6a565b6000611b1485856060016020810190611b0f9190612d44565b611e7c565b9050600080600083815260200190815260200160002090506000611bce86600001803603810190611b459190612f47565b611bb2888060800190611b589190612f83565b808060200260200160405190810160405280939291908181526020016000905b82821015611ba857848483905060a00201803603810190611b999190613097565b81526020019060010190611b78565b5050505050611eaf565b8860a00135604051806020016040528060008152506001611edf565b90506000801b826001015414611c10576040517fd2e44eb600000000000000000000000000000000000000000000000000000000815260040160405180910390fd5b611c1a8382611a2e565b6000611c3d87600001803603810190611c339190612f47565b8860a00135611f2c565b90508083600101819055504383600001819055506000878060800190611c639190612f83565b90501115611ce7578773ffffffffffffffffffffffffffffffffffffffff1663e978afe5888060800190611c979190612f83565b6040518363ffffffff1660e01b8152600401611cb4929190613596565b600060405180830381600087803b158015611cce57600080fd5b505af1158015611ce2573d6000803e3d6000fd5b505050505b866060016020810190611cfa9190612d44565b73ffffffffffffffffffffffffffffffffffffffff168873ffffffffffffffffffffffffffffffffffffffff167f74e616c7264536b98a5ec234d051ae6ce1305bf05c85f9ddc112364440ccf1298484604051611d589291906135ba565b60405180910390a35050505050505050565b8173ffffffffffffffffffffffffffffffffffffffff163373ffffffffffffffffffffffffffffffffffffffff1614158015611e3257508173ffffffffffffffffffffffffffffffffffffffff1663fdef9106303384604051806020016040528060008152506040518563ffffffff1660e01b8152600401611def9493929190613f71565b602060405180830381865afa158015611e0c573d6000803e3d6000fd5b505050506040513d601f19601f82011682018060405250810190611e309190613b14565b155b15611e78578133826040517f15d68ee0000000000000000000000000000000000000000000000000000000008152600401611e6f93929190613fbd565b60405180910390fd5b5050565b60008282604051602001611e91929190613ff4565b60405160208183030381529060405280519060200120905092915050565b600081604051602001611ec2919061274f565b604051602081830303815290604052805190602001209050919050565b6000856000015186602001518686868051906020012086604051602001611f0b969594939291906140b5565b60405160208183030381529060405280519060200120905095945050505050565b60008260000151836020015183604051602001611f4b93929190614116565b60405160208183030381529060405280519060200120905092915050565b6000815111156120bb578273ffffffffffffffffffffffffffffffffffffffff16634f1ef28683836040518363ffffffff1660e01b8152600401611fae92919061414d565b600060405180830381600087803b158015611fc857600080fd5b505af1925050508015611fd9575060015b6120b657611fe561418a565b806308c379a0036120415750611ff96141ac565b806120045750612043565b806040517f08c379a00000000000000000000000000000000000000000000000000000000081526004016120389190614291565b60405180910390fd5b505b3d806000811461206f576040519150601f19603f3d011682016040523d82523d6000602084013e612074565b606091505b508383836040517f96e9e31b0000000000000000000000000000000000000000000000000000000081526004016120ad939291906142b3565b60405180910390fd5b6121fd565b8273ffffffffffffffffffffffffffffffffffffffff16633659cfe6836040518263ffffffff1660e01b81526004016120f49190613ac1565b600060405180830381600087803b15801561210e57600080fd5b505af192505050801561211f575060015b6121fc5761212b61418a565b806308c379a003612187575061213f6141ac565b8061214a5750612189565b806040517f08c379a000000000000000000000000000000000000000000000000000000000815260040161217e9190614291565b60405180910390fd5b505b3d80600081146121b5576040519150601f19603f3d011682016040523d82523d6000602084013e6121ba565b606091505b508383836040517f96e9e31b0000000000000000000000000000000000000000000000000000000081526004016121f3939291906142b3565b60405180910390fd5b5b505050565b6000816040516020016122159190614360565b604051602081830303815290604052805190602001209050919050565b600061223d83612306565b801561224f575061224e8383612353565b5b905092915050565b82608001602081019061226a9190613127565b73ffffffffffffffffffffffffffffffffffffffff168573ffffffffffffffffffffffffffffffffffffffff163373ffffffffffffffffffffffffffffffffffffffff167f3686138d92841c8549b2fe39fda23881fef6aa9b347352114c0869bf5af3e3f28787604001888060a001906122e491906135e3565b88886040516122f7959493929190614382565b60405180910390a45050505050565b6000612332827f01ffc9a700000000000000000000000000000000000000000000000000000000612353565b801561234c575061234a8263ffffffff60e01b612353565b155b9050919050565b6000806301ffc9a760e01b8360405160240161236f9190614425565b604051602081830303815290604052907bffffffffffffffffffffffffffffffffffffffffffffffffffffffff19166020820180517bffffffffffffffffffffffffffffffffffffffffffffffffffffffff838183161783525050505090506000806000602060008551602087018a617530fa92503d915060005190508280156123fa575060208210155b80156124065750600081115b94505050505092915050565b604051806040016040528060608152602001606081525090565b6000604051905090565b600080fd5b600080fd5b600073ffffffffffffffffffffffffffffffffffffffff82169050919050565b600061246b82612440565b9050919050565b61247b81612460565b811461248657600080fd5b50565b60008135905061249881612472565b92915050565b600080fd5b600060e082840312156124b9576124b861249e565b5b81905092915050565b600080604083850312156124d9576124d8612436565b5b60006124e785828601612489565b925050602083013567ffffffffffffffff8111156125085761250761243b565b5b612514858286016124a3565b9150509250929050565b6000608082840312156125345761253361249e565b5b81905092915050565b6000806040838503121561255457612553612436565b5b600061256285828601612489565b925050602083013567ffffffffffffffff8111156125835761258261243b565b5b61258f8582860161251e565b9150509250929050565b600081519050919050565b600082825260208201905092915050565b6000819050602082019050919050565b7f4e487b7100000000000000000000000000000000000000000000000000000000600052602160045260246000fd5b60038110612605576126046125c5565b5b50565b6000819050612616826125f4565b919050565b600061262682612608565b9050919050565b6126368161261b565b82525050565b61264581612460565b82525050565b6000819050919050565b61265e8161264b565b82525050565b60a08201600082015161267a600085018261262d565b50602082015161268d602085018261263c565b5060408201516126a0604085018261263c565b5060608201516126b3606085018261263c565b5060808201516126c66080850182612655565b50505050565b60006126d88383612664565b60a08301905092915050565b6000602082019050919050565b60006126fc82612599565b61270681856125a4565b9350612711836125b5565b8060005b8381101561274257815161272988826126cc565b9750612734836126e4565b925050600181019050612715565b5085935050505092915050565b6000602082019050818103600083015261276981846126f1565b905092915050565b6000608082840312156127875761278661249e565b5b81905092915050565b600080604083850312156127a7576127a6612436565b5b60006127b585828601612489565b925050602083013567ffffffffffffffff8111156127d6576127d561243b565b5b6127e285828601612771565b9150509250929050565b6127f581612460565b82525050565b600081519050919050565b600082825260208201905092915050565b6000819050602082019050919050565b6000612833838361263c565b60208301905092915050565b6000602082019050919050565b6000612857826127fb565b6128618185612806565b935061286c83612817565b8060005b8381101561289d5781516128848882612827565b975061288f8361283f565b925050600181019050612870565b5085935050505092915050565b600082825260208201905092915050565b60006128c682612599565b6128d081856128aa565b93506128db836125b5565b8060005b8381101561290c5781516128f388826126cc565b97506128fe836126e4565b9250506001810190506128df565b5085935050505092915050565b60006040830160008301518482036000860152612936828261284c565b9150506020830151848203602086015261295082826128bb565b9150508091505092915050565b600060408201905061297260008301856127ec565b81810360208301526129848184612919565b90509392505050565b6000819050919050565b60006129b26129ad6129a884612440565b61298d565b612440565b9050919050565b60006129c482612997565b9050919050565b60006129d6826129b9565b9050919050565b6129e6816129cb565b82525050565b6000602082019050612a0160008301846129dd565b92915050565b612a108161264b565b82525050565b6000602082019050612a2b6000830184612a07565b92915050565b600060a08284031215612a4757612a4661249e565b5b81905092915050565b60008060408385031215612a6757612a66612436565b5b6000612a7585828601612489565b925050602083013567ffffffffffffffff811115612a9657612a9561243b565b5b612aa285828601612a31565b9150509250929050565b600060c08284031215612ac257612ac161249e565b5b81905092915050565b60008060408385031215612ae257612ae1612436565b5b6000612af085828601612489565b925050602083013567ffffffffffffffff811115612b1157612b1061243b565b5b612b1d85828601612aac565b9150509250929050565b600081519050919050565b600082825260208201905092915050565b60005b83811015612b61578082015181840152602081019050612b46565b60008484015250505050565b6000601f19601f8301169050919050565b6000612b8982612b27565b612b938185612b32565b9350612ba3818560208601612b43565b612bac81612b6d565b840191505092915050565b60006040820190508181036000830152612bd18185612b7e565b90508181036020830152612be58184612919565b90509392505050565b612bf78161264b565b8114612c0257600080fd5b50565b600081359050612c1481612bee565b92915050565b60008060408385031215612c3157612c30612436565b5b6000612c3f85828601612c05565b9250506020612c5085828601612c05565b9150509250929050565b600060208284031215612c7057612c6f612436565b5b6000612c7e84828501612c05565b91505092915050565b6000819050919050565b612c9a81612c87565b82525050565b6000604082019050612cb56000830185612c91565b612cc26020830184612a07565b9392505050565b600060c08284031215612cdf57612cde61249e565b5b81905092915050565b60008060408385031215612cff57612cfe612436565b5b6000612d0d85828601612489565b925050602083013567ffffffffffffffff811115612d2e57612d2d61243b565b5b612d3a85828601612cc9565b9150509250929050565b600060208284031215612d5a57612d59612436565b5b6000612d6884828501612489565b91505092915050565b600080fd5b7f4e487b7100000000000000000000000000000000000000000000000000000000600052604160045260246000fd5b612dae82612b6d565b810181811067ffffffffffffffff82111715612dcd57612dcc612d76565b5b80604052505050565b6000612de061242c565b9050612dec8282612da5565b919050565b600080fd5b600060ff82169050919050565b612e0c81612df6565b8114612e1757600080fd5b50565b600081359050612e2981612e03565b92915050565b600061ffff82169050919050565b612e4681612e2f565b8114612e5157600080fd5b50565b600081359050612e6381612e3d565b92915050565b600060408284031215612e7f57612e7e612d71565b5b612e896040612dd6565b90506000612e9984828501612e1a565b6000830152506020612ead84828501612e54565b60208301525092915050565b6000612ec482612460565b9050919050565b612ed481612eb9565b8114612edf57600080fd5b50565b600081359050612ef181612ecb565b92915050565b600060608284031215612f0d57612f0c612d71565b5b612f176040612dd6565b90506000612f2784828501612e69565b6000830152506040612f3b84828501612ee2565b60208301525092915050565b600060608284031215612f5d57612f5c612436565b5b6000612f6b84828501612ef7565b91505092915050565b600080fd5b600080fd5b600080fd5b60008083356001602003843603038112612fa057612f9f612f74565b5b80840192508235915067ffffffffffffffff821115612fc257612fc1612f79565b5b60208301925060a082023603831315612fde57612fdd612f7e565b5b509250929050565b60038110612ff357600080fd5b50565b60008135905061300581612fe6565b92915050565b600060a0828403121561302157613020612d71565b5b61302b60a0612dd6565b9050600061303b84828501612ff6565b600083015250602061304f84828501612489565b602083015250604061306384828501612489565b604083015250606061307784828501612489565b606083015250608061308b84828501612c05565b60808301525092915050565b600060a082840312156130ad576130ac612436565b5b60006130bb8482850161300b565b91505092915050565b600080833560016020038436030381126130e1576130e0612f74565b5b80840192508235915067ffffffffffffffff82111561310357613102612f79565b5b60208301925060018202360383131561311f5761311e612f7e565b5b509250929050565b60006020828403121561313d5761313c612436565b5b600061314b84828501612ee2565b91505092915050565b60006131636020840184612e1a565b905092915050565b61317481612df6565b82525050565b60006131896020840184612e54565b905092915050565b61319a81612e2f565b82525050565b604082016131b16000830183613154565b6131be600085018261316b565b506131cc602083018361317a565b6131d96020850182613191565b50505050565b60006040820190506131f460008301846131a0565b92915050565b60008151905061320981612e03565b92915050565b60008151905061321e81612e3d565b92915050565b60006040828403121561323a57613239612d71565b5b6132446040612dd6565b90506000613254848285016131fa565b60008301525060206132688482850161320f565b60208301525092915050565b60008151905061328381612472565b92915050565b600080fd5b600080fd5b600067ffffffffffffffff8211156132ae576132ad612d76565b5b6132b782612b6d565b9050602081019050919050565b60006132d76132d284613293565b612dd6565b9050828152602081018484840111156132f3576132f261328e565b5b6132fe848285612b43565b509392505050565b600082601f83011261331b5761331a613289565b5b815161332b8482602086016132c4565b91505092915050565b60006080828403121561334a57613349612d71565b5b6133546060612dd6565b9050600061336484828501613224565b600083015250604061337884828501613274565b602083015250606082015167ffffffffffffffff81111561339c5761339b612df1565b5b6133a884828501613306565b60408301525092915050565b6000602082840312156133ca576133c9612436565b5b600082015167ffffffffffffffff8111156133e8576133e761243b565b5b6133f484828501613334565b91505092915050565b60006020828403121561341357613412612436565b5b600061342184828501613274565b91505092915050565b6000819050919050565b60006134436020840184612ff6565b905092915050565b600061345a6020840184612489565b905092915050565b60006134716020840184612c05565b905092915050565b60a0820161348a6000830183613434565b613497600085018261262d565b506134a5602083018361344b565b6134b2602085018261263c565b506134c0604083018361344b565b6134cd604085018261263c565b506134db606083018361344b565b6134e8606085018261263c565b506134f66080830183613462565b6135036080850182612655565b50505050565b60006135158383613479565b60a08301905092915050565b600082905092915050565b600060a082019050919050565b600061354583856125a4565b93506135508261342a565b8060005b85811015613589576135668284613521565b6135708882613509565b975061357b8361352c565b925050600181019050613554565b5085925050509392505050565b600060208201905081810360008301526135b1818486613539565b90509392505050565b60006040820190506135cf6000830185612a07565b6135dc6020830184612a07565b9392505050565b6000823560016060038336030381126135ff576135fe612f74565b5b80830191505092915050565b6000808335600160200384360303811261362857613627612f74565b5b80840192508235915067ffffffffffffffff82111561364a57613649612f79565b5b60208301925060208202360383131561366657613665612f7e565b5b509250929050565b600080fd5b600080fd5b600080fd5b6000808335600160200384360303811261369a57613699613678565b5b83810192508235915060208301925067ffffffffffffffff8211156136c2576136c161366e565b5b6020820236038313156136d8576136d7613673565b5b509250929050565b6000819050919050565b6000602082019050919050565b60006137038385612806565b935061370e826136e0565b8060005b8581101561374757613724828461344b565b61372e8882612827565b9750613739836136ea565b925050600181019050613712565b5085925050509392505050565b6000808335600160200384360303811261377157613770613678565b5b83810192508235915060208301925067ffffffffffffffff8211156137995761379861366e565b5b6001820236038313156137af576137ae613673565b5b509250929050565b600082825260208201905092915050565b82818337600083830152505050565b60006137e383856137b7565b93506137f08385846137c8565b6137f983612b6d565b840190509392505050565b600060608301613817600084018461344b565b613824600086018261263c565b50613832602084018461367d565b85830360208701526138458382846136f7565b925050506138566040840184613754565b85830360408701526138698382846137d7565b925050508091505092915050565b600060408201905061388c60008301856127ec565b818103602083015261389e8184613804565b90509392505050565b600067ffffffffffffffff8211156138c2576138c1612d76565b5b602082029050602081019050919050565b600080fd5b6000815190506138e781612fe6565b92915050565b6000815190506138fc81612bee565b92915050565b600060a0828403121561391857613917612d71565b5b61392260a0612dd6565b90506000613932848285016138d8565b600083015250602061394684828501613274565b602083015250604061395a84828501613274565b604083015250606061396e84828501613274565b6060830152506080613982848285016138ed565b60808301525092915050565b60006139a161399c846138a7565b612dd6565b90508083825260208201905060a084028301858111156139c4576139c36138d3565b5b835b818110156139ed57806139d98882613902565b84526020840193505060a0810190506139c6565b5050509392505050565b600082601f830112613a0c57613a0b613289565b5b8151613a1c84826020860161398e565b91505092915050565b600060208284031215613a3b57613a3a612436565b5b600082015167ffffffffffffffff811115613a5957613a5861243b565b5b613a65848285016139f7565b91505092915050565b600060a082019050613a836000830187612a07565b613a9060208301866131a0565b8181036060830152613aa28185613804565b90508181036080830152613ab681846126f1565b905095945050505050565b6000602082019050613ad660008301846127ec565b92915050565b60008115159050919050565b613af181613adc565b8114613afc57600080fd5b50565b600081519050613b0e81613ae8565b92915050565b600060208284031215613b2a57613b29612436565b5b6000613b3884828501613aff565b91505092915050565b6000613b4d8385612b32565b9350613b5a8385846137c8565b613b6383612b6d565b840190509392505050565b6000604082019050613b8360008301866127ec565b8181036020830152613b96818486613b41565b9050949350505050565b600067ffffffffffffffff821115613bbb57613bba612d76565b5b602082029050602081019050919050565b6000613bdf613bda84613ba0565b612dd6565b90508083825260208201905060208402830185811115613c0257613c016138d3565b5b835b81811015613c2b5780613c178882613274565b845260208401935050602081019050613c04565b5050509392505050565b600082601f830112613c4a57613c49613289565b5b8151613c5a848260208601613bcc565b91505092915050565b600060408284031215613c7957613c78612d71565b5b613c836040612dd6565b9050600082015167ffffffffffffffff811115613ca357613ca2612df1565b5b613caf84828501613c35565b600083015250602082015167ffffffffffffffff811115613cd357613cd2612df1565b5b613cdf848285016139f7565b60208301525092915050565b60008060408385031215613d0257613d01612436565b5b6000613d1085828601613274565b925050602083015167ffffffffffffffff811115613d3157613d3061243b565b5b613d3d85828601613c63565b9150509250929050565b600060c082019050613d5c6000830189612a07565b613d6960208301886131a0565b8181036060830152613d7c818688613b41565b9050613d8b60808301856127ec565b81810360a0830152613d9d8184612919565b9050979650505050505050565b600060208284031215613dc057613dbf612436565b5b6000613dce84828501612e1a565b91505092915050565b600060208284031215613ded57613dec612436565b5b6000613dfb84828501612e54565b91505092915050565b6000608082019050613e1960008301856131a0565b613e2660408301846131a0565b9392505050565b600060408284031215613e4357613e42612436565b5b6000613e5184828501612e69565b91505092915050565b60038110613e6757600080fd5b50565b600081519050613e7981613e5a565b92915050565b600060208284031215613e9557613e94612436565b5b6000613ea384828501613e6a565b91505092915050565b613eb581612e2f565b82525050565b6000606082019050613ed060008301866127ec565b613edd6020830185613eac565b8181036040830152613eef8184613804565b9050949350505050565b60008060408385031215613f1057613f0f612436565b5b600083015167ffffffffffffffff811115613f2e57613f2d61243b565b5b613f3a85828601613306565b925050602083015167ffffffffffffffff811115613f5b57613f5a61243b565b5b613f6785828601613c63565b9150509250929050565b6000608082019050613f8660008301876127ec565b613f9360208301866127ec565b613fa06040830185612a07565b8181036060830152613fb28184612b7e565b905095945050505050565b6000606082019050613fd260008301866127ec565b613fdf60208301856127ec565b613fec6040830184612a07565b949350505050565b600060408201905061400960008301856127ec565b61401660208301846127ec565b9392505050565b604082016000820151614033600085018261316b565b5060208201516140466020850182613191565b50505050565b6000614057826129b9565b9050919050565b6140678161404c565b82525050565b6004811061407e5761407d6125c5565b5b50565b600081905061408f8261406d565b919050565b600061409f82614081565b9050919050565b6140af81614094565b82525050565b600060e0820190506140ca600083018961401d565b6140d7604083018861405e565b6140e46060830187612a07565b6140f16080830186612a07565b6140fe60a0830185612a07565b61410b60c08301846140a6565b979650505050505050565b600060808201905061412b600083018661401d565b614138604083018561405e565b6141456060830184612a07565b949350505050565b600060408201905061416260008301856127ec565b81810360208301526141748184612b7e565b90509392505050565b60008160e01c9050919050565b600060033d11156141a95760046000803e6141a660005161417d565b90505b90565b600060443d10614239576141be61242c565b60043d036004823e80513d602482011167ffffffffffffffff821117156141e6575050614239565b808201805167ffffffffffffffff8111156142045750505050614239565b80602083010160043d038501811115614221575050505050614239565b61423082602001850186612da5565b82955050505050505b90565b600081519050919050565b600082825260208201905092915050565b60006142638261423c565b61426d8185614247565b935061427d818560208601612b43565b61428681612b6d565b840191505092915050565b600060208201905081810360008301526142ab8184614258565b905092915050565b60006060820190506142c860008301866127ec565b6142d560208301856127ec565b81810360408301526142e78184612b7e565b9050949350505050565b600082825260208201905092915050565b600061430d826127fb565b61431781856142f1565b935061432283612817565b8060005b8381101561435357815161433a8882612827565b97506143458361283f565b925050600181019050614326565b5085935050505092915050565b6000602082019050818103600083015261437a8184614302565b905092915050565b600060c0820190506143976000830188612a07565b6143a460208301876131a0565b81810360608301526143b68186613804565b905081810360808301526143ca8185612919565b905081810360a08301526143de8184612b7e565b90509695505050505050565b60007fffffffff0000000000000000000000000000000000000000000000000000000082169050919050565b61441f816143ea565b82525050565b600060208201905061443a6000830184614416565b9291505056fea2646970667358221220c7a837c624f5e5c57da775afff581d83b45e27f34f0b3c91d8d3a475f168a55e64736f6c63430008110033",
  "devdoc": {
    "details": "This contract is temporarily granted the `ROOT_PERMISSION_ID` permission on the applying DAO and therefore is highly security critical.",
    "errors": {
      "IPluginNotSupported(address)": [
        {
          "params": {
            "plugin": "The address of the contract."
          }
        }
      ],
      "InvalidAppliedSetupId(bytes32,bytes32)": [
        {
          "params": {
            "appliedSetupId": "The applied setup ID obtained from the data in the supplied setup payload.",
            "currentAppliedSetupId": "The current applied setup ID with which the data in the supplied payload must match."
          }
        }
      ],
      "InvalidUpdateVersion((uint8,uint16),(uint8,uint16))": [
        {
          "params": {
            "currentVersionTag": "The tag of the current version to update from.",
            "newVersionTag": "The tag of the new version to update to."
          }
        }
      ],
      "PluginNonupgradeable(address)": [
        {
          "params": {
            "plugin": "The address of the plugin contract."
          }
        }
      ],
      "PluginProxyUpgradeFailed(address,address,bytes)": [
        {
          "params": {
            "implementation": "The address of the implementation contract.",
            "initData": "The initialization data to be passed to the upgradeable plugin contract via `upgradeToAndCall`.",
            "proxy": "The address of the proxy."
          }
        }
      ],
      "SetupAlreadyPrepared(bytes32)": [
        {
          "params": {
            "preparedSetupId": "The prepared setup ID."
          }
        }
      ],
      "SetupApplicationUnauthorized(address,address,bytes32)": [
        {
          "details": "This is thrown if the `APPLY_INSTALLATION_PERMISSION_ID`, `APPLY_UPDATE_PERMISSION_ID`, or APPLY_UNINSTALLATION_PERMISSION_ID is missing.",
          "params": {
            "caller": "The address (EOA or contract) that requested the application of a setup on the associated DAO.",
            "dao": "The address of the DAO to which the plugin belongs.",
            "permissionId": "The permission identifier."
          }
        }
      ],
      "SetupNotApplicable(bytes32)": [
        {
          "params": {
            "preparedSetupId": "The prepared setup ID."
          }
        }
      ]
    },
    "events": {
      "InstallationApplied(address,address,bytes32,bytes32)": {
        "params": {
          "appliedSetupId": "The applied setup ID.",
          "dao": "The address of the DAO to which the plugin belongs.",
          "plugin": "The address of the plugin contract.",
          "preparedSetupId": "The prepared setup ID."
        }
      },
      "InstallationPrepared(address,address,bytes32,address,(uint8,uint16),bytes,address,(address[],(uint8,address,address,address,bytes32)[]))": {
        "params": {
          "dao": "The address of the DAO to which the plugin belongs.",
          "data": "The bytes-encoded data containing the input parameters for the preparation as specified in the corresponding ABI on the version's metadata.",
          "plugin": "The address of the plugin contract.",
          "pluginSetupRepo": "The repository storing the `PluginSetup` contracts of all versions of a plugin.",
          "preparedSetupData": "The deployed plugin's relevant data which consists of helpers and permissions.",
          "preparedSetupId": "The prepared setup ID obtained from the supplied data.",
          "sender": "The sender that prepared the plugin installation.",
          "versionTag": "The version tag of the plugin setup of the prepared installation."
        }
      },
      "UninstallationApplied(address,address,bytes32)": {
        "params": {
          "dao": "The address of the DAO to which the plugin belongs.",
          "plugin": "The address of the plugin contract.",
          "preparedSetupId": "The prepared setup ID."
        }
      },
      "UninstallationPrepared(address,address,bytes32,address,(uint8,uint16),(address,address[],bytes),(uint8,address,address,address,bytes32)[])": {
        "params": {
          "dao": "The address of the DAO to which the plugin belongs.",
          "permissions": "The list of multi-targeted permission operations to be applied to the installing DAO.",
          "pluginSetupRepo": "The repository storing the `PluginSetup` contracts of all versions of a plugin.",
          "preparedSetupId": "The prepared setup ID.",
          "sender": "The sender that prepared the plugin uninstallation.",
          "setupPayload": "The payload containing the plugin and helper contract addresses deployed in a preparation step as well as optional data to be consumed by the plugin setup.",
          "versionTag": "The version tag of the plugin to used for install preparation."
        }
      },
      "UpdateApplied(address,address,bytes32,bytes32)": {
        "params": {
          "appliedSetupId": "The applied setup ID.",
          "dao": "The address of the DAO to which the plugin belongs.",
          "plugin": "The address of the plugin contract.",
          "preparedSetupId": "The prepared setup ID."
        }
      },
      "UpdatePrepared(address,address,bytes32,address,(uint8,uint16),(address,address[],bytes),(address[],(uint8,address,address,address,bytes32)[]),bytes)": {
        "params": {
          "dao": "The address of the DAO to which the plugin belongs.",
          "initData": "The initialization data to be passed to the upgradeable plugin contract.",
          "pluginSetupRepo": "The repository storing the `PluginSetup` contracts of all versions of a plugin.",
          "preparedSetupData": "The deployed plugin's relevant data which consists of helpers and permissions.",
          "preparedSetupId": "The prepared setup ID.",
          "sender": "The sender that prepared the plugin update.",
          "setupPayload": "The payload containing the plugin and helper contract addresses deployed in a preparation step as well as optional data to be consumed by the plugin setup.",
          "versionTag": "The version tag of the plugin setup of the prepared update."
        }
      }
    },
    "kind": "dev",
    "methods": {
      "applyInstallation(address,(((uint8,uint16),address),address,(uint8,address,address,address,bytes32)[],bytes32))": {
        "params": {
          "_dao": "The address of the installing DAO.",
          "_params": "The struct containing the parameters for the `applyInstallation` function."
        }
      },
      "applyUninstallation(address,(address,((uint8,uint16),address),(uint8,address,address,address,bytes32)[]))": {
        "details": "The list of `_params.setupPayload.currentHelpers` has to be specified in the same order as they were returned from previous setups preparation steps (the latest `prepareInstallation` or `prepareUpdate` step that has happend) on which the uninstallation was prepared for.",
        "params": {
          "_dao": "The address of the installing DAO.",
          "_params": "The struct containing the parameters for the `applyUninstallation` function."
        }
      },
      "applyUpdate(address,(address,((uint8,uint16),address),bytes,(uint8,address,address,address,bytes32)[],bytes32))": {
        "params": {
          "_dao": "The address of the updating DAO.",
          "_params": "The struct containing the parameters for the `applyInstallation` function."
        }
      },
      "constructor": {
        "params": {
          "_repoRegistry": "The plugin repo registry contract."
        }
      },
      "prepareInstallation(address,(((uint8,uint16),address),bytes))": {
        "params": {
          "_dao": "The address of the installing DAO.",
          "_params": "The struct containing the parameters for the `prepareInstallation` function."
        },
        "returns": {
          "plugin": "The prepared plugin contract address.",
          "preparedSetupData": "The data struct containing the array of helper contracts and permissions that the setup has prepared."
        }
      },
      "prepareUninstallation(address,(((uint8,uint16),address),(address,address[],bytes)))": {
        "details": "The list of `_params.setupPayload.currentHelpers` has to be specified in the same order as they were returned from previous setups preparation steps (the latest `prepareInstallation` or `prepareUpdate` step that has happend) on which the uninstallation was prepared for.",
        "params": {
          "_dao": "The address of the installing DAO.",
          "_params": "The struct containing the parameters for the `prepareUninstallation` function."
        },
        "returns": {
          "permissions": "The list of multi-targeted permission operations to be applied to the uninstalling DAO."
        }
      },
      "prepareUpdate(address,((uint8,uint16),(uint8,uint16),address,(address,address[],bytes)))": {
        "details": "The list of `_params.setupPayload.currentHelpers` has to be specified in the same order as they were returned from previous setups preparation steps (the latest `prepareInstallation` or `prepareUpdate` step that has happend) on which the update is prepared for.",
        "params": {
          "_dao": "The address of the DAO For which preparation of update happens.",
          "_params": "The struct containing the parameters for the `prepareUpdate` function."
        },
        "returns": {
          "initData": "The initialization data to be passed to upgradeable contracts when the update is applied",
          "preparedSetupData": "The data struct containing the array of helper contracts and permissions that the setup has prepared."
        }
      },
      "validatePreparedSetupId(bytes32,bytes32)": {
        "details": "If the block number stored in `states[pluginInstallationId].blockNumber` exceeds the one stored in `pluginState.preparedSetupIdToBlockNumber[preparedSetupId]`, the prepared setup with `preparedSetupId` is outdated and not applicable anymore.",
        "params": {
          "pluginInstallationId": "The plugin installation ID obtained from the hash of `abi.encode(daoAddress, pluginAddress)`.",
          "preparedSetupId": "The prepared setup ID to be validated."
        }
      }
    },
    "stateVariables": {
      "EMPTY_ARRAY_HASH": {
        "details": "The hash is computed via `keccak256(abi.encode([]))`."
      },
      "ZERO_BYTES_HASH": {
        "details": "The hash is computed via `keccak256(abi.encode(0))`."
      },
      "states": {
        "details": "This variable is public on purpose to allow future versions to access and migrate the storage."
      }
    },
    "title": "PluginSetupProcessor",
    "version": 1
  },
  "userdoc": {
    "errors": {
      "IPluginNotSupported(address)": [
        {
          "notice": "Thrown if a contract does not support the `IPlugin` interface."
        }
      ],
      "InvalidAppliedSetupId(bytes32,bytes32)": [
        {
          "notice": "Thrown if the applied setup ID resulting from the supplied setup payload does not match with the current applied setup ID."
        }
      ],
      "InvalidUpdateVersion((uint8,uint16),(uint8,uint16))": [
        {
          "notice": "Thrown if the update version is invalid."
        }
      ],
      "PluginAlreadyInstalled()": [
        {
          "notice": "Thrown if plugin is already installed and one tries to prepare or apply install on it."
        }
      ],
      "PluginNonupgradeable(address)": [
        {
          "notice": "Thrown if a plugin is not upgradeable."
        }
      ],
      "PluginProxyUpgradeFailed(address,address,bytes)": [
        {
          "notice": "Thrown if the upgrade of an `UUPSUpgradeable` proxy contract (see [ERC-1822](https://eips.ethereum.org/EIPS/eip-1822)) failed."
        }
      ],
      "PluginRepoNonexistent()": [
        {
          "notice": "Thrown if a plugin repository does not exist on the plugin repo registry."
        }
      ],
      "SetupAlreadyPrepared(bytes32)": [
        {
          "notice": "Thrown if a plugin setup was already prepared inidcated by the prepared setup ID."
        }
      ],
      "SetupApplicationUnauthorized(address,address,bytes32)": [
        {
          "notice": "Thrown if a setup is unauthorized and cannot be applied because of a missing permission of the associated DAO."
        }
      ],
      "SetupNotApplicable(bytes32)": [
        {
          "notice": "Thrown if a prepared setup ID is not eligible to be applied. This can happen if another setup has been already applied or if the setup wasn't prepared in the first place."
        }
      ]
    },
    "events": {
      "InstallationApplied(address,address,bytes32,bytes32)": {
        "notice": "Emitted after a plugin installation was applied."
      },
      "InstallationPrepared(address,address,bytes32,address,(uint8,uint16),bytes,address,(address[],(uint8,address,address,address,bytes32)[]))": {
        "notice": "Emitted with a prepared plugin installation to store data relevant for the application step."
      },
      "UninstallationApplied(address,address,bytes32)": {
        "notice": "Emitted after a plugin installation was applied."
      },
      "UninstallationPrepared(address,address,bytes32,address,(uint8,uint16),(address,address[],bytes),(uint8,address,address,address,bytes32)[])": {
        "notice": "Emitted with a prepared plugin uninstallation to store data relevant for the application step."
      },
      "UpdateApplied(address,address,bytes32,bytes32)": {
        "notice": "Emitted after a plugin update was applied."
      },
      "UpdatePrepared(address,address,bytes32,address,(uint8,uint16),(address,address[],bytes),(address[],(uint8,address,address,address,bytes32)[]),bytes)": {
        "notice": "Emitted with a prepared plugin update to store data relevant for the application step."
      }
    },
    "kind": "user",
    "methods": {
      "APPLY_INSTALLATION_PERMISSION_ID()": {
        "notice": "The ID of the permission required to call the `applyInstallation` function."
      },
      "APPLY_UNINSTALLATION_PERMISSION_ID()": {
        "notice": "The ID of the permission required to call the `applyUninstallation` function."
      },
      "APPLY_UPDATE_PERMISSION_ID()": {
        "notice": "The ID of the permission required to call the `applyUpdate` function."
      },
      "applyInstallation(address,(((uint8,uint16),address),address,(uint8,address,address,address,bytes32)[],bytes32))": {
        "notice": "Applies the permissions of a prepared installation to a DAO."
      },
      "applyUninstallation(address,(address,((uint8,uint16),address),(uint8,address,address,address,bytes32)[]))": {
        "notice": "Applies the permissions of a prepared uninstallation to a DAO."
      },
      "applyUpdate(address,(address,((uint8,uint16),address),bytes,(uint8,address,address,address,bytes32)[],bytes32))": {
        "notice": "Applies the permissions of a prepared update of an UUPS upgradeable proxy contract to a DAO."
      },
      "constructor": {
        "notice": "Constructs the plugin setup processor by setting the associated plugin repo registry."
      },
      "prepareInstallation(address,(((uint8,uint16),address),bytes))": {
        "notice": "Prepares the installation of a plugin."
      },
      "prepareUninstallation(address,(((uint8,uint16),address),(address,address[],bytes)))": {
        "notice": "Prepares the uninstallation of a plugin."
      },
      "prepareUpdate(address,((uint8,uint16),(uint8,uint16),address,(address,address[],bytes)))": {
        "notice": "Prepares the update of an UUPS upgradeable plugin."
      },
      "repoRegistry()": {
        "notice": "The plugin repo registry listing the `PluginRepo` contracts versioning the `PluginSetup` contracts."
      },
      "states(bytes32)": {
        "notice": "A mapping between the plugin installation ID (obtained from the DAO and plugin address) and the plugin state information."
      },
      "validatePreparedSetupId(bytes32,bytes32)": {
        "notice": "Validates that a setup ID can be applied for `applyInstallation`, `applyUpdate`, or `applyUninstallation`."
      }
    },
    "notice": "This contract processes the preparation and application of plugin setups (installation, update, uninstallation) on behalf of a requesting DAO.",
    "version": 1
  },
  "storageLayout": {
    "storage": [
      {
        "astId": 13717,
        "contract": "contracts/factory/plugin/setup/PluginSetupProcessor.sol:PluginSetupProcessor",
        "label": "states",
        "offset": 0,
        "slot": "0",
        "type": "t_mapping(t_bytes32,t_struct(PluginState)13711_storage)"
      },
      {
        "astId": 13783,
        "contract": "contracts/factory/plugin/setup/PluginSetupProcessor.sol:PluginSetupProcessor",
        "label": "repoRegistry",
        "offset": 0,
        "slot": "1",
        "type": "t_contract(PluginRepoRegistry)13495"
      }
    ],
    "types": {
      "t_bytes32": {
        "encoding": "inplace",
        "label": "bytes32",
        "numberOfBytes": "32"
      },
      "t_contract(PluginRepoRegistry)13495": {
        "encoding": "inplace",
        "label": "contract PluginRepoRegistry",
        "numberOfBytes": "20"
      },
      "t_mapping(t_bytes32,t_struct(PluginState)13711_storage)": {
        "encoding": "mapping",
        "key": "t_bytes32",
        "label": "mapping(bytes32 => struct PluginSetupProcessor.PluginState)",
        "numberOfBytes": "32",
        "value": "t_struct(PluginState)13711_storage"
      },
      "t_mapping(t_bytes32,t_uint256)": {
        "encoding": "mapping",
        "key": "t_bytes32",
        "label": "mapping(bytes32 => uint256)",
        "numberOfBytes": "32",
        "value": "t_uint256"
      },
      "t_struct(PluginState)13711_storage": {
        "encoding": "inplace",
        "label": "struct PluginSetupProcessor.PluginState",
        "members": [
          {
            "astId": 13704,
            "contract": "contracts/factory/plugin/setup/PluginSetupProcessor.sol:PluginSetupProcessor",
            "label": "blockNumber",
            "offset": 0,
            "slot": "0",
            "type": "t_uint256"
          },
          {
            "astId": 13706,
            "contract": "contracts/factory/plugin/setup/PluginSetupProcessor.sol:PluginSetupProcessor",
            "label": "currentAppliedSetupId",
            "offset": 0,
            "slot": "1",
            "type": "t_bytes32"
          },
          {
            "astId": 13710,
            "contract": "contracts/factory/plugin/setup/PluginSetupProcessor.sol:PluginSetupProcessor",
            "label": "preparedSetupIdToBlockNumber",
            "offset": 0,
            "slot": "2",
            "type": "t_mapping(t_bytes32,t_uint256)"
          }
        ],
        "numberOfBytes": "96"
      },
      "t_uint256": {
        "encoding": "inplace",
        "label": "uint256",
        "numberOfBytes": "32"
      }
    }
  }
}